S00B00004C43562E7372656334
S11300005073002051840000958600008F86000004
S113001000000000000000000000000000000000DC
S1130020000000000000000000000000951E000019
S11300300000000000000000C11F000009200000B3
S11300404985000049850000516C00004985000085
S11300504985000049850000498500004985000064
S113006049850000E96F000001700000197000006C
S11300703170000049700000617000004985000083
S11300804985000049850000498500004985000034
S1130090498500004985000049850000550B000092
S11300A0498500003D110000498500004985000094
S11300B00000000010B5064C2378002B07D1054B37
S11300C0002B02D0044800E000BF0123237010BDC0
S11300D0780000200000000044C10000084B10B567
S11300E0002B03D00749084800E000BF0748036815
S11300F0002B00D110BD064B002BFBD09847F9E72D
S1130100000000007C00002044C1000044C1000045
S11301100000000080B582B000AF78607B680022E8
S11301201A70C046BD4602B080BD000080B582B0E2
S113013000AF02003960FB1D1A70FB1D1B78012BF8
S11301400AD0022B0FD0002B14D10E4B0D4A91690B
S11301503A680A439A610FE00A4B0A4AD1693A683D
S11301600A43DA6108E0074B064A116A3A680A430F
S11301701A6201E0172300E000231800BD4602B014
S113018080BDC0460004004080B582B000AF7860F6
S11301907B6880221A707B6800225A707B68012277
S11301A09A707B680022DA70C046BD4602B080BDFA
S11301B080B582B000AF0200FB1D1A70FB1D1B78D6
S11301C0002B02D0012B07D00DE0084B074A126C1C
S11301D002210A431A6406E0044B044A126C042107
S11301E00A431A64C046BD4602B080BD0008004000
S11301F080B584B000AF78607B681B68FB60FB68E7
S11302005B7EDBB25BB2002B01DA012300E000234A
S11302101800BD4604B080BD80B582B000AF7860E0
S11302207B6800221A707B6800225A707B68002267
S11302305A807B6800221A717B6800221A767B68D8
S113024000221A627B680022DA617B6800229A60CD
S11302507B6800221A737B68C0225201DA817B68B2
S113026000221A747B6800225A747B6800229A74F4
S11302707B680022DA747B6800221A757B682A2264
S1130280002199547B6800225A757B6800229A7574
S11302907B682422002199547B680022DA847B68DD
S11302A000221A857B680022DA757B682B220021E4
S11302B099547B682C2200219954C046BD4602B053
S11302C080BD000080B598B000AF78600C23FA18A8
S11302D0154B1000190050231A00144B9847144B67
S11302E0FB657B68132B1AD80C23FB187A689200E1
S11302F0D358FB650823FB1818000E4B98470823B6
S1130300FB1800229A700823FB1801221A70FB6D57
S1130310DBB20822BA1811001800074B9847C046F0
S1130320BD4618B080BDC04650BC000089B3000073
S1130330FFFF000089010000C9830000F0B589B007
S113034000AF786039601F23FB1800221A70102355
S1130350BB611723FB1800221A707B681B683B6182
S11303600C23FB181800CE4B98473B681A780C23D3
S1130370FB181A700C23FB1819001E20C94B984750
S11303801E20C94B98473B682C229B5C002B40D015
S11303901623FB183A682B21525C1A703B68197BB0
S11303A01523FB181622BA1812788A181A703B689B
S11303B02C22995C0F23FB181522BA1812788A187C
S11303C01A7018E01623FB181B780F2213403A68A2
S11303D0127B9B181800B54B98471523FB181A7805
S11303E01523FB1801321A701623FB181A781623EA
S11303F0FB1801321A701523FA180F23FB18127810
S11304001B789A42DED33B68DB891800A74B9847D8
S113041009E03B681B7B1800A44B98473B68DB89C9
S11304201800A24B98473B685B7D9B00DAB23B699E
S11304301A703B689B7DDB015AB23B685B785BB208
S113044013435BB2DAB23B695A703B681B79342BB5
S113045046D89A00964BD3181B689F461F23FB1857
S11304603A68527C1A701723FB183A68127C1A7087
S11304701023BB6136E01F23FB1801221A701723D7
S1130480FB1802221A701023BB612BE01F23FB18F8
S113049002221A701723FB1804221A701023BB615E
S11304A020E01F23FB1801221A701723FB180622D1
S11304B01A701023BB6115E01F23FB1800221A7069
S11304C01723FB1808221A701023BB610AE030239B
S11304D0BB6107E02023BB6104E00023BB6101E0B2
S11304E01723AEE11F23FB181B781B01DBB270221C
S11304F01340DAB21723FB181B781343DAB23B69B3
S11305009A703B68DB7D3F2B01D9172399E13B6847
S1130510DA7D3B69DA70C0467B681800654B984702
S1130520031EF9D13B685A88BB699BB213439AB244
S11305303B6824215B5C9BB2DB009BB213439AB201
S11305403B681B7D9BB29B009BB213439AB23B68F2
S11305509B7C9BB2DB189BB213439AB23B68DB7C57
S11305609BB213439AB23B699A803B681B7E002B73
S113057000D1C4E0BB69102B00D176E002D8002B77
S11305804DD0BCE0202B23D0302B00D0B7E03B680B
S1130590DB7C002B11D03B68DB697F2B0BDC3B68D9
S11305A0DB69803307DB3B681B6A7F2B03DC3B681A
S11305B01B6A803301DA172343E13B68DB69FF2BB5
S11305C004DC3B681B6AFF2B00DC91E0172338E155
S11305D03B68DB7C002B15D03B68DB69364A9342D1
S11305E00EDC3B68DB69354A934209DB3B681B6AD6
S11305F0314A934204DC3B681B6A304A934201DA75
S113060017231EE13B68DB692D4A934205DC3B68F6
S11306101B6A2B4A934200DC6CE0172311E13B6810
S1130620DB7C002B15D03B68DB69264A93420EDC49
S11306303B68DB69244A934209DB3B681B6A214A15
S1130640934204DC3B681B6A1F4A934201DA172376
S1130650F7E03B68DB691D4A934204DC3B681B6A94
S11306601A4A934248DD1723EBE03B68DB7C002BFE
S113067032D03B68DB69164A93420EDC3B68DB6987
S1130680144A934209DB3B681B6A114A934204DC17
S11306903B681B6A0F4A93421EDA1723D1E0C04617
S11306A01501000095800000D9800000C5020000FB
S11306B0A0BC0000F1010000FF01000000FEFFFFEC
S11306C0FF030000FF07000000F8FFFFFF0F00001A
S11306D0FF7F00000080FFFF3B68DB695B4A9342B9
S11306E004DC3B681B6A594A934207DD1723A8E0E0
S11306F0C04604E0C04602E0C04600E0C046C04632
S11307007B681800524B9847031EF9D13B681A7E48
S11307103B691A72C0467B6818004D4B9847031E0C
S1130720F9D13B68DB699AB23B699A83C0467B681E
S11307301800474B9847031EF9D13B681B6A9AB2CD
S11307403B691A841423FB183A682C21525C1A70F2
S11307501423FB181B78002B06D01423FB181A78DB
S11307601423FB18013A1A701423FB181B780F2B5F
S113077004D83B682B229B5C0F2B01D9172360E024
S1130780C0467B681800324B9847031EF9D13B687A
S11307909B683A682B21525C120513431422BA1841
S11307A01278120413433A68D28913433A68127BCD
S11307B01A433B691A613B682A229A5C3B691A75A1
S11307C03B690F229A753B6824229B5C002B1ED048
S11307D03B68DB8C1F4A934201D9172331E03B6805
S11307E0DA8C3B699A843B6828229B5E1A4A9342BE
S11307F005DC3B6828229B5E184A934201DA1723E2
S11308001FE03B6828229B5E9AB23B69DA84144B52
S11308101B68DB089BB21B029AB2E023DB00134087
S11308209AB2104B5C681B686101DD0E0D43E60E45
S1130830ABB2FF210B409BB213439AB23B691A85BA
S113084000231800BD4609B0F0BDC046FFFF0000FC
S1130850F1010000FF0F0000FF07000000F8FFFF98
S1130860246080002060800080B586B000AFF8600E
S1130870B9607A60FB68BA681A6080235B02190069
S11308800220324B9847BB681B78DBB21A00012365
S1130890134001D0052355E0BB681B78DBB21A0076
S11308A00223134001D01C234CE07B685A78FB6878
S11308B01A71FB681B79002B02D10120244B984745
S11308C01723FB1800221A700EE01723FB181A785E
S11308D0FB68023292000021D1501723FB181A78CA
S11308E01723FB1801321A701723FB181B78022BED
S11308F0EBD9FB6800229A76FB680022DA76FB6863
S113090000221A83FB6800221A77124BFA681A60D5
S11309107B682A229B5C002B0AD17B681B7D012209
S11309205340DBB2002B03D0FB6801225A7702E06C
S1130930FB6800225A777A68FB6811001800064B9E
S1130940984703001800BD4606B080BD2D01000085
S1130950B1010000E45200203D03000080B584B0E2
S113096000AF78607B681B68FB60FB685B7EDBB272
S11309705BB2002B01DA012300E000231800BD461E
S113098004B080BD80B584B000AF78607B681B681C
S1130990FB60C0467B6818000B4B9847031EF9D1D7
S11309A0FB681B7BDBB202221343DAB2FB681A73C7
S11309B0C0467B681800044B9847031EF9D1C04613
S11309C0BD4604B080BDC0465D09000080B584B05A
S11309D000AF78600A00FB1C1A707B681B68FB6020
S11309E0FB68FA1C1278DA75C046BD4604B080BDB7
S11309F080B584B000AF78600A00FB1C1A707B6875
S1130A001B68FB60FB68FA1C12789A75C046BD46E9
S1130A1004B080BD80B584B000AF0200FB1D1A7025
S1130A20FB1D1A78474B9200D358FB60FB681B6888
S1130A301B7EDAB2FB681B68DB7DDBB21340DBB2E2
S1130A40BB60BB680122134045D0FB681B680122D0
S1130A501A76C046FB6818003B4B9847031EF9D131
S1130A60FB685B69991CFA685161FA681268528BD9
S1130A7092B21A80FB681B8B9BB2013B9BB2FA6853
S1130A80191C1183002B08D0FB685B7F002B22D03C
S1130A90FB6818002D4B98471DE0FB6801211800E6
S1130AA02B4B9847FB681B7FDBB2052B13D1FB68EC
S1130AB000221A77FB68DB7E1A00012313400AD058
S1130AC0FB689B7E1A000123134004D0FB689B68DB
S1130AD0FA6810009847BB680422134014D0FB68DE
S1130AE01B6804221A76FB68DB7E1A00022313407B
S1130AF00AD0FB689B7E1A000223134004D0FB68D3
S1130B00DB68FA6810009847BB680222134014D0CF
S1130B10FB681B6802221A76FB68DB7E1A0004233A
S1130B2013400AD0FB689B7E1A000423134004D0B0
S1130B30FB681B69FA6810009847C046BD4604B0BC
S1130B4080BDC046E45200205D0900008509000014
S1130B50F109000080B500AF0020024B9847C04661
S1130B60BD4680BD150A000080B584B000AFF860B2
S1130B70B960FB1D1A70FB1D1A78FB6802329200E3
S1130B80B968D150FB689B7E5AB2FB1D1B780121CA
S1130B9099400B005BB213435BB2DAB2FB689A76FE
S1130BA0C046BD4604B080BD80B584B000AFF860D7
S1130BB0B960BB1D1A80FB681B8B9BB2002B04D150
S1130BC0FB681B7FDBB2052B01D1052317E0FB6813
S1130BD005221A77FB68BA1D12881A83FB68BA6863
S1130BE05A61FB6801211800074B9847FB685B7F3B
S1130BF0002B03D0FB681800044B9847002318000F
S1130C00BD4604B080BDC046CD0900008509000082
S1130C1080B582B000AF78600A00FB1C1A70FB1C20
S1130C201B78002B03D17B681B7FDBB200E017230A
S1130C301800BD4602B080BD80B582B000AF7860B8
S1130C407B6800221A70C046BD4602B080BD000019
S1130C5080B582B000AF02003960FB1D1A70FB1D25
S1130C601B78012B0AD0022B0FD0002B14D10E4B72
S1130C700D4A91693A680A439A610FE00A4B0A4A9D
S1130C80D1693A680A43DA6108E0074B064A116AF7
S1130C903A680A431A6201E0172300E000231800AF
S1130CA0BD4602B080BDC0460004004080B582B09D
S1130CB000AF78607B6880221A707B6800225A70CB
S1130CC07B6801229A707B680022DA70C046BD46B8
S1130CD002B080BD80B582B000AF0200FB1D1A7067
S1130CE0FB1D1B78002B02D0012B07D00DE0084B15
S1130CF0074A126C02210A431A6406E0044B044AB0
S1130D00126C04210A431A64C046BD4602B080BD79
S1130D100008004080B586B000AF786039607B6819
S1130D201B68FB603B685A787B681A717B680022F9
S1130D309A7100237B6100233B613B689B79002B04
S1130D4003D07B69042213437B613B681B781A0040
S1130D503B6913433B613B689B78002B03D03B69A1
S1130D60042213433B613B681B79002B03D03B698E
S1130D70102213433B613B685B79002B03D03B6932
S1130D80082213433B617B69DAB2FB681A70C046E0
S1130D907B681800054B9847031EF9D13B69DAB20A
S1130DA0FB685A70C046BD4606B080BDB10D000058
S1130DB080B584B000AF78607B681B68FB60FB681B
S1130DC0DB79DBB25BB2002B01DA012300E0002304
S1130DD01800BD4604B080BD80B582B000AF786015
S1130DE07B6800221A707B6801225A707B6800229B
S1130DF09A707B6800221A717B6800225A717B68A2
S1130E000022DA707B6800229A71C046BD4602B0A7
S1130E1080BD000080B586B000AFF860B9607A602C
S1130E20FB68BA681A608023DB0219000220354B84
S1130E309847BB681B78DBB21A000223134001D029
S1130E401C235BE0BB681B78DBB21A000123134050
S1130E5001D0052352E01423FB1818002A4B9847AD
S1130E607B68DA781423FB181A701423FB18190012
S1130E702120264B98472120254B98471023FB1807
S1130E801800244B98471023FB1801221A701023D2
S1130E90FB1800225A701023FB1800229A701023AA
S1130EA0FB18190002201C4B98477A68FB68110054
S1130EB018001A4B98477B681A78FB685A711723F5
S1130EC0FB1800221A7010E01723FB181B78FA682D
S1130ED004339B00D318043300221A601723FB1831
S1130EE01A781723FB1801321A701723FB181B7882
S1130EF0022BE9D90A4BFA681A6000231800BD4690
S1130F0006B080BD510C0000390C00009580000033
S1130F10D9800000AD0C0000C9830000150D00004D
S1130F20E852002080B584B000AF78607B681B680D
S1130F30FB60FB685B78DAB27B681B791343DAB237
S1130F40FB685A70C0467B6818000B4B9847031E19
S1130F50F9D1FB681B78DBB202221343DAB2FB68D7
S1130F601A707B685B79002B02D10120034B9847F0
S1130F70C046BD4604B080BDB10D0000D50C0000D4
S1130F8080B582B000AF7860C046BD4602B080BD77
S1130F9080B584B000AFF8607A600B23FB180A1C9C
S1130FA01A70C046BD4604B080BD80B582B000AFA3
S1130FB078600A00FB1C1A70C046BD4602B080BDB2
S1130FC080B584B000AF786008001100FB1C021CDF
S1130FD01A703B000A1C1A807B681B68FB60C046C1
S1130FE07B6818000A4B9847031EF9D17B689B79EC
S1130FF0002B04D0FB683A0012889A8103E0FB6856
S11310003A0012881A8100231800BD4604B080BD3E
S1131010B10D000080B582B000AF0200FB1D1A7054
S1131020074AFB1D1B7819001F230B40012199401F
S11310300B0019008023D150C046BD4602B080BDCC
S113104000E100E080B584B000AF0200FB1D1A701F
S1131050FB1D1A78374B9200D358FB60FB681B6862
S1131060BB60BB689B79DBB21A00012313400ED02E
S1131070BB6801229A71FB681433002B07D0FB680C
S11310805B7C002B03D0FB689B6900209847BB68FE
S11310909B79DBB21A000223134047D0BB680222BB
S11310A09A71FB689B899BB2002B33D0FB689A68CA
S11310B0FB68DB899BB2591C88B2F968C8815B0064
S11310C0D3181B889AB2BB689A81FB689B899BB230
S11310D0013B9AB2FB689A81FB689B899BB2002B07
S11310E018D1FB68202200219954BB6802221A718E
S11310F0BB6802229A7119200F4B9847FB6814337E
S1131100002B07D0FB689B7C002B03D0FB68DB69BA
S113111000209847FB681433002B07D0FB681B7C26
S1131120002B03D0FB685B6900209847C046BD468E
S113113004B080BDE85200201510000080B500AF57
S11311400020024B9847C046BD4680BD45100000B4
S113115080B582B000AF78607B6800221A70C04608
S1131160BD4602B080BD000080B582B000AF020071
S11311703960FB1D1A70FB1D1B78012B0AD0022B52
S11311800FD0002B14D10E4B0D4A91693A680A43D3
S11311909A610FE00A4B0A4AD1693A680A43DA6154
S11311A008E0074B064A116A3A680A431A6201E0EA
S11311B0172300E000231800BD4602B080BDC046DE
S11311C00004004080B582B000AF78607B68802264
S11311D01A707B6800225A707B6801229A707B68BF
S11311E00022DA70C046BD4602B080BD80B500AFB3
S11311F0054B9B78DBB21A00022313405A1E93411D
S1131200DBB21800BD4680BD00200041F0B597B0A8
S113121000AF786139610023FB6300233B65002341
S1131220FB643B2310229446BC44634400221A709E
S11312307B691B68BB637B691B687B632323102268
S1131240BA18D4187B6B1800C04B9847030023705E
S11312500C2310229446BC4463441800BC4B9847AA
S11312603B69DB697B643B691B6A3B647B6C002BD9
S113127006D17B6B00211800B64B984703007B64B2
S11312807B6CDAB20C2310218C46BC4463441A7084
S11312900C2310229446BC44634402225A707B6C93
S11312A01B0CDBB20C2210218C46BC44624411009E
S11312B01800A94B98473B6C002B06D17B6B01218E
S11312C01800A44B984703003B643B6CDAB20C2330
S11312D010218C46BC4463441A700C23102294469B
S11312E0BC44634402225A703B6C1B0CDBB20C22DC
S11312F010218C46BC44624411001800964B984758
S11313003B699A8A7B69DA803B69DA8A7B691A814C
S11313103B691B7E002B03D1904B9847031E02D0E0
S113132080237B6501E000237B653B691B69002BFF
S113133004D03B691B697A6D13437B653B699B68E9
S11313407A6D13437B653B6924229B5C002B04D09C
S11313507B6D8022D20513437B653B699B6A002B1E
S113136004D03B699B6A7A6D13437B653B692C22ED
S11313709B5C002B05D13B699A6880239B049A42AD
S113138004D17B6D8022120513437B653B692D22BA
S11313909B5C002B04D07B6D8022120413437B657D
S11313A03B692E229B5C002B04D07B6D8022D203F0
S11313B013437B65BB6B1A687B6D1A43BB6B1A6066
S11313C0BB6B802252005A60232310229446BC44F3
S11313D063441B781433DBB21800614B9847030055
S11313E0FB623B691B68FA2292005343BB623B6970
S11313F05B68FA22920053437B623B691B8E3B621B
S1131400584BF86A984705000E00564BB86A98473F
S1131410B860F960534BF86A9847534C534A544B9D
S1131420A04703000C003B607C604E4B386A984731
S113143002000B004C4C38687968A04703000C008C
S1131440180021004B4C00224B4BA04703000C001A
S11314501A002300444CB868F968A04703000C0044
S11314601A002300454C28003100A04703000C005B
S11314701D002600BB6A5A003A4B10009847020030
S11314800B003C4C28003100A04703000C0018005E
S113149021003A4C00223A4BA04703000C001D00E7
S11314A02600BB6A5A002F4B1000984702000B001D
S11314B0344C28003100A04703000C00190022001E
S11314C0314B0800110098470300FB633B699A689D
S11314D080239B049A426AD1224BF86A9847254C90
S11314E002000B00A04703000C001D0026001D4B4A
S11314F0786A98471C4C0022244BA04703000C0038
S11315001A0023001F4C28003100A04703000C00E0
S113151018002100194C0022194BA04703000C00AD
S113152019002200184B0800110098470300FB64BF
S1131530FB6C002B2ED0164B796AF86A984703008F
S11315409A1EFB6CD31A3B6531E0C046D56E000091
S1131550C5110000196D0000C9830000ED110000E1
S113156001820000DDB00000C5A4000095D626E885
S11315700B2E113E3D96000000002440C5A900003A
S11315800000F03F5D9C0000F1AF00000000084047
S1131590A98600007B6A5A00FB6AD3185A1E7B6A2C
S11315A059001D4B100098470300013B3B65FB6B42
S11315B0FF2B08DCFB6B002B05DB3B6DFF2B02DCF8
S11315C03B6D002B06DA3B2310229446BC44634453
S11315D040221A703B2310229446BC4463441B7877
S11315E0402B0ED0FB6BFF221A403B6D1B041900ED
S11315F0FF231B040B401343FA6C12061A43BB6B04
S1131600DA603B2310229446BC4463441B781800E0
S1131610BD4617B0F0BDC046A986000090B58BB09A
S113162000AFF860B9607A60FB68BA681A60FB685A
S11316301B687B62FB681B6818003B4B98470300E0
S11316403B623B6A0233FB613B6A1433BB61012298
S1131650FB699A40130019000220344B9847142365
S1131660FB181800324B98477B681A7B1423FB182D
S11316701A70BB69DBB21422BA18110018002D4B82
S11316809847BB69DBB218002B4B98477B681B7BE0
S113169000211800294B98477B6A1B6802221340DB
S11316A001D01C233BE07B6A1B680122134001D05C
S11316B0052334E0FB681B681722BC1818001A4B7A
S11316C09847030023701E4A1723FB181B78110048
S11316D018001C4B98471723FB181A781A4B9200D2
S11316E0F968D150FB6800221A76FB6800225A760A
S11316F0FB6800225A83FB6800229A83FB68252238
S113170000219954FB6800221A627B6A14221A6031
S11317107A68FB68110018000C4B98470300180006
S1131720BD460BB090BDC046D56E000069110000E7
S11317305111000095800000D98000008D6C0000DC
S1131740A11B0000396F0000305300200D1200006F
S113175080B584B000AF78607B681B68BB600E23E3
S1131760FB1800221A800FE00E23FB180E22BA1871
S1131770128801321A807B681B890E22BA181288DB
S11317809A4201D312230EE0BB681B7EDBB21A001F
S11317900123134006D1BB681B7EDBB21A0002236F
S11317A01340E1D000231800BD4604B080BD000002
S11317B090B585B000AF78600A00FB1C1A707B6896
S11317C01B68FB60FB685B688022D2021A43FB68DB
S11317D05A60FB1C1A78FB685A620B23FC187B685E
S11317E01800074B984703002370FB6801221A7600
S11317F00B23FB181B781800BD4605B090BDC046EE
S11318005117000080B584B000AF78607B681B6816
S1131810FB60FB68DB69072213405A1E9341DBB26D
S11318201800BD4604B080BD80B582B000AF7860BA
S1131830C0467B681800044B9847031EF9D1C04684
S1131840BD4602B080BDC0460518000080B584B016
S113185000AF78607B681B68FB60FB681B681B013A
S1131860DB0FDBB21A000B23FB18511E8A411A70DE
S11318700823FB187A68528B1A807B689B8B9AB278
S11318800823FB180821791809888A1A1A807B68AA
S11318909B8B9BB2013B9AB27B689A830B23FB1808
S11318A01B78002B10D07B68DB7A002B1CD07B6864
S11318B09B8B9BB2012B17D1FB685B688022D20201
S11318C01A43FB685A600FE07B68DB7A002B0BD06D
S11318D07B689B8B9BB2002B06D1FB685B688022E4
S11318E0D2021A43FB685A607B689B8B9BB2002B25
S11318F00ED17B689B7A002B0AD07B6818000E4BB4
S11319009847FB685B68C02292021A43FB685A60DE
S11319107B681800084B98477B681A6A0823FB18F1
S11319201B88D318FA682821525CD2B21A70C046B8
S1131930BD4604B080BDC0462918000080B584B0FF
S113194000AF78607B681B68FB60FB685B8B9BB2B5
S11319501A000423134004D07B6825221E219954C5
S113196024E00A23FB187A68528B1A807B689B8BCD
S11319709AB20A23FB180A21791809888A1A1A804C
S11319807B689B8B9BB2013B9AB27B689A837B6892
S11319901800084B98477B681A6A0A23FB181B88AF
S11319A0D3181B78D9B2FB6828229954BD4604B0D9
S11319B080BDC0462918000080B584B000AF7860AF
S11319C07B681B68FB60FB681B7EDBB21A0001238B
S11319D013402BD0FB6801221A76FB685B8B9BB209
S11319E01A000223134004D07B6825224121995414
S11319F01CE0FB685B8B9BB21A000423134015D0D8
S1131A007B682522182199547B6800229A837B687D
S1131A109B7A002B0AD07B681800134B9847FB680D
S1131A205B68C02292021A43FB685A607B689B8BF6
S1131A309AB27B685A837B6825229B5CDBB2052BB8
S1131A400ED17B6824229B5CDBB2002B04D17B6823
S1131A501800064B984703E07B681800044B98472E
S1131A60C046BD4604B080BD291800003D190000E1
S1131A704D18000080B584B000AFF860B960FB1D5C
S1131A801A70FB1D1B78FA6802339B00D3180433C9
S1131A90BA681A60FB681B7EDBB25AB2FB1D1B7866
S1131AA0012199400B005BB213435BB2DAB2FB68CD
S1131AB01A76C046BD4604B080BD000080B584B02F
S1131AC000AF786039607B681B68FB603B685B7AB9
S1131AD0002B06D03B689A7A7B68110018001E4BD5
S1131AE09847FB685B681D4A1A40FB685A603B686C
S1131AF05A687B681A623B685A887B689A837B6859
S1131B002422002199547B68252205219954FB68DD
S1131B1003229A753B681B7A002B0DD03B681B8807
S1131B205A003B685B7A9B0313431A0080231B0211
S1131B301A43FB685A6209E03B681B885A003B68F9
S1131B405B7A9B0313431A00FB685A620023180054
S1131B50BD4604B080BDC046B1170000FFFFFBFFC7
S1131B6080B582B000AF786039607B689B8B9BB294
S1131B70002B01D005230CE07B6801229A727B685C
S1131B800122DA723A687B6811001800034B984707
S1131B9003001800BD4602B080BDC046BD1A000057
S1131BA080B586B000AF0200FB1D1A70FB1D1A78C9
S1131BB0934B9200D3587B617B691B683B613B6903
S1131BC01B681B01DB0FDBB21A000F23FB18511E2D
S1131BD08A411A700E23FB187A69527E1A707B6947
S1131BE01B7EDAB20E23FB180E21791809780A40FD
S1131BF01A707B695B8B9BB2002B09D17B699B8B31
S1131C009BB2002B04D07B6918007E4B984770E090
S1131C107B695B8B9BB2002B39D07B699B8B9BB21E
S1131C20002B34D17B6925229B5CDBB2052B2ED1A2
S1131C307B6924229B5CDBB2002B28D13B69032205
S1131C401A757B6900225A837B69252200219954E5
S1131C507B699B7A002B0BD07B6918006A4B9847F1
S1131C603B695B68C02292021A433B695A6002E0F6
S1131C703B6901221A760E23FB181B7801221340BC
S1131C8037D07B69DB687A691000984731E07B695B
S1131C905B8B9BB2002B2CD07B699B8B9BB2002B64
S1131CA027D03B695B8B9BB21A002023134011D1D0
S1131CB00F23FB181B7801225340DBB2002B04D105
S1131CC07B699B8B9BB2012B04D07B69252241212C
S1131CD099540EE07B6924229B5CDBB2002B04D177
S1131CE07B691800494B984703E07B691800484B0F
S1131CF098477B695B8B9BB2002B47D07B699B8B9E
S1131D009BB2002B42D17B6925229B5CDBB2052B65
S1131D103CD17B6924229B5CDBB2012B36D13B692D
S1131D201B7EDBB21A000223134002D03B6902225D
S1131D301A763B6903221A757B6900225A837B69F0
S1131D402522002199540E23FB181B7802221340EC
S1131D500BD07B6924229B5CDBB2012B05D17B6910
S1131D601B697A691000984710E00E23FB181B7852
S1131D70012213400AD07B6924229B5CDBB2002B36
S1131D8004D17B69DB687A69100098477B69252256
S1131D909B5CDBB2052B2ED07B6925229B5CDBB2DE
S1131DA0002B28D03B6903221A757B6900225A83D1
S1131DB07B6900229A837B6925229B5CDBB2412BE1
S1131DC00ED07B699B7A002B0AD07B6918000E4BDE
S1131DD098473B695B68E022D2021A433B695A6028
S1131DE00E23FB181B780422134004D07B695B6923
S1131DF07A6910009847C046BD4606B080BDC0460B
S1131E0030530020B9190000291800003D190000C2
S1131E104D18000080B584B000AFF860B9607A60F6
S1131E20FB68043BFB60FB68802252041A60FB6879
S1131E30043BFB60BA68FB681A60FB68043BFB6008
S1131E40084AFB681A60FB68143BFB607A68FB680D
S1131E501A60FB68203BFB60FB681800BD4604B0B9
S1131E6080BDC046691E000080B582B000AF00236B
S1131E707B60074B1B68013301D072B6FEE772B674
S1131E80C0467B68002BFCD0C046BD4602B080BD76
S1131E900000002080B500AFC046BD4680BD0000F4
S1131EA00B4A13681868203080F30988022080F3F5
S1131EB01488BFF36F8F3FBCAE4608BC04BC62B647
S1131EC01847C046C046C046C046C046C046C04685
S1131ED05C510020C046C04680B500AF0E4B0E4A90
S1131EE01268FF2109040A431A600B4B0A4A12685C
S1131EF0FF2109060A431A60084B9847084B002241
S1131F001A60084B9847084B9847084B984700239A
S1131F101800BD4680BDC04620ED00E04920000009
S1131F2000000020A11E0000D15C0000691E00001A
S1131F3080B500AF054B802252051A60BFF34F8F66
S1131F40BFF36F8FC046BD4680BDC04604ED00E0C0
S1131F5080B500AF72B6064B1B685A1C044B1A605E
S1131F60BFF34F8FBFF36F8FC046BD4680BDC046E1
S1131F700000002080B500AF094B1B68002B01D185
S1131F8072B6FEE7064B1B685A1E054B1A60044BDB
S1131F901B68002B00D162B6C046BD4680BDC0465A
S1131FA000000020EFF3108072B67047C04618009E
S1131FB080F310887047C046000000000000000055
S1131FC0EFF309800E4B1A6820381060F0C04446C5
S1131FD04D4656465F46F0C008B572B603F078FE2B
S1131FE062B60CBC116808681030F0C8A046A94657
S1131FF0B246BB4680F309882038F0C81847C0466B
S11320005C510020C046C04680B582B000AF0A4B88
S1132010984703007B60094B9847031E03D0084B85
S1132020802252051A607B681800064B9847C04608
S1132030BD4602B080BDC046A51F0000495B00003C
S113204004ED00E0B11F000080B500AF074B002293
S11320501A60074B00221A60064B074A1A60034BAA
S113206007221A60C046BD4680BDC04610E000E0AD
S113207018E000E014E000E07FBB000080B586B00B
S113208000AF78600023FB604C4B98474C4B1B68B7
S1132090002B01D14B4B98474B4B1B687A6813407C
S11320A000D079E07B68002B12D008227B689B1853
S11320B07B607B68072213400AD07B680722934326
S11320C008337B607B680722134001D072B6FEE7B9
S11320D07B68002B60D03D4B1B687A689A425BD8C2
S11320E03B4B3B613A4B1B687B6104E07B693B6182
S11320F07B691B687B617B695A687B689A4203D25F
S11321007B691B68002BF1D12D4B1B687A699A42BD
S113211042D03B691B6808229B18FB607B691A68E4
S11321203B691A607B695A687B68D21A08235B0092
S11321309A4216D97A697B68D318BB60BB680722B8
S1132140134001D072B6FEE77B695A687B68D21AE5
S1132150BB685A607B697A685A60BB6818001D4B7B
S113216098471A4B1A687B695B68D21A174B1A6036
S1132170164B1A68184B1B689A4203D2134B1A6801
S1132180154B1A607B695A680F4B1B681A437B69AD
S11321905A607B6900221A60104B9847FB68002B39
S11321A001D10F4B9847FB680722134001D072B648
S11321B0FEE7FB681800BD4606B080BDE15900008B
S11321C0BC4E002081220000C84E0020C04E0020DA
S11321D0B44E002041230000C44E0020F9590000F1
S11321E06186000080B584B000AF78607B68FB60D6
S11321F07B68002B35D008235B42FA68D318FB6058
S1132200FB68BB60BB685A68184B1B68134001D15C
S113221072B6FEE7BB681B68002B01D072B6FEE7FE
S1132220BB685A68114B1B6813401AD0BB681B6803
S1132230002B16D1BB685A680C4B1B68DB431A4051
S1132240BB685A600A4B9847BB685A68094B1B68BD
S1132250D218084B1A60BB681800074B9847074B05
S11322609847C046BD4604B080BDC046C84E002055
S1132270E1590000C04E002041230000F95900003C
S113228080B584B000AF274BBB60274BFB60FB6875
S1132290072213400CD0FB680733FB60FB6807225E
S11322A09343FB60BA68FB68D21A1F4BD318BB6018
S11322B0FB687B601D4B7A681A601C4B00225A60D5
S11322C07A68BB68D318FB600822FB689B1AFB6022
S11322D0FB6807229343FB60FA68154B1A60144BA2
S11322E01B6800225A60124B1B6800221A607B682C
S11322F03B603B68FA68D21A3B685A600C4B1A6818
S11323003B681A603B685A680A4B1A603B685A6813
S1132310094B1A60094B802212061A60C046BD465A
S113232004B080BD204E000094000020B44E002074
S1132330BC4E0020C44E0020C04E0020C84E0020D9
S113234080B584B000AF7860274BFB6002E0FB6887
S11323501B68FB60FB681A687B689A42F7D3FB68CA
S1132360BB60FB685B68BA68D2187B689A4208D184
S1132370FB685A687B685B68D218FB685A60FB6824
S11323807B607B68BB607B685B68BA68D218FB685B
S11323901B689A4218D1FB681A68144B1B689A424E
S11323A00DD07B685A68FB681B685B68D2187B6831
S11323B05A60FB681B681A687B681A6008E00B4B5C
S11323C01A687B681A6003E0FB681A687B681A6005
S11323D0FA687B689A4202D0FB687A681A60C04641
S11323E0BD4604B080BDC046B44E0020BC4E0020A3
S11323F080B582B000AF0200FB1D1A70064BFA1DB7
S1132400127811001F220A40012191400A001A602B
S1132410C046BD4602B080BD00E100E080B584B096
S113242000AF78607B681B68FB60FB685B7EDBB297
S11324305BB2002B01DA012300E000231800BD4643
S113244004B080BD80B584B000AF78607B681B6841
S1132450FB60C0467B681800104B9847031EF9D1F7
S113246017200F4B9847FB680F229A75FB680F22C1
S11324701A76FB681B78DBB202221343DAB2FB68DC
S11324801A70C0467B681800044B9847031EF9D1A4
S113249000231800BD4604B080BDC0461D240000C2
S11324A0F123000080B584B000AF78600A00FB1C03
S11324B01A707B681B68FB60FB68FA1C1278DA757B
S11324C0C046BD4604B080BD80B582B000AF786020
S11324D00A00FB1C1A707B68DB7E5AB2FB1C1B785B
S11324E0012199400B005BB213435BB2DAB27B6803
S11324F0DA76FB1C1B78012B04D17B6804211800BD
S1132500074B9847FB1C1B78022B04D17B680221E4
S11325101800034B9847C046BD4602B080BDC04674
S1132520A524000080B582B000AF78607B680021EC
S11325301800134B9847031E1DD1124B1B889AB2E7
S1132540114B1A800F4B5B889AB2104B1A800D4BBB
S11325509B889AB20E4B1A800A4BDB889AB20C4BBA
S11325605A80084B1B899AB2094B9A80054B1B8AE7
S11325709AB2084B1A80C046BD4602B080BDC04620
S1132580110C0000EC4E0020084F0020064F0020E4
S1132590004F00200A4F002080B58CB000AF224BC2
S11325A003221A713B001800204B98473B0002227B
S11325B01A733B00C0225201DA813B000022DA7414
S11325C03B0001221A703B00C022D2005A803B001B
S11325D000229A603B0000221A713B002B2200214A
S11325E099543B002C22092199543A0010490E4B6E
S11325F01800104B98470C4B18000F4B98470F4985
S1132600094B002218000E4B9847074B0021180075
S11326100C4B98470C4B01221A700C4B9847C04640
S1132620BD460CB080BDC046CC4E0020190200004F
S113263000400042690800004524000025250000F0
S1132640690B0000C92400000C4F00205126000033
S113265080B500AF064B1B78DBB2002B05D00549D3
S1132660054B12221800054B9847C046BD4680BD55
S11326700C4F0020EC4E0020CC4E0020A90B000093
S113268090B587B000AF0200FB1D1A70FB1D1B78CC
S1132690022B01D900235EE0FB1D19781623FB18D9
S11326A02F4A49008A5A1A801623FB181A882D4B80
S11326B0100098472C4C00222C4BA04703000C0020
S11326C0180021002A4C2B4A2B4BA04703000C0076
S11326D018002100264C294A294BA04703000C006E
S11326E019002200274B080011009847031C3B6186
S11326F0254B38699847254C0022254BA0470300F9
S11327000C00180021001A4C0022224BA0470300A1
S11327100C0018002100144C00221F4BA04703009A
S11327200C0019002200174B080011009847031CE5
S1132730FB60154BF86898470D4C184A184BA04796
S113274003000C00190022000E4B080011009847EA
S1132750031CBB60BB68181CBD4607B090BDC046D7
S1132760004F002059B000005D9C000000FEAF4007
S1132770C5A400006666666666660A40ABAAAAAA95
S1132780AAAAFA3FF1B100004DB10000C5A90000AA
S11327900000E03F0000144000001040CFF753E376
S11327A0A5935140F0B589B000AF0023FB610CE064
S11327B0FB69DBB218006A4B9847011C3B00FA69BD
S11327C09200D150FB690133FB61FB69022BEFDD01
S11327D00023BB610023FB6124E0624BB869984786
S11327E005000E003B00FA699200D2585D4B101CA4
S11327F098475D4C5D4A5E4BA04703000C001A00ED
S113280023005C4C28003100A04703000C00190091
S11328102200594B080011009847031CBB61FB6957
S11328200133FB61FB69022BD7DD1723FB18002260
S11328301A7000233B610023FB6124E03B00FA692A
S11328409200D2584D4B111CB8699847031C1A1CAE
S11328504B4B101C98470300D9175A184A40494B50
S113286010009847031CFB60474B3969F868984788
S1132870031E05D0FB683B611723FB18FA691A7025
S1132880FB690133FB61FB69022BD7DD0023BB61CC
S11328900023FB612AE01723FB181A78FB699A428C
S11328A021D0304BB869984705000E003B00FA6907
S11328B09200D2582B4B101C98472B4C0022334BC0
S11328C0A04703000C001A0023002A4C2800310002
S11328D0A04703000C0019002200274B0800110038
S11328E09847031CBB61FB690133FB61FB69022B45
S11328F0D1DD1723FB181A783B009200D2581F4BE6
S1132900B969101C9847031C1A1C1D4B101C9847CE
S11329100300D9175A184A401D4B10009847050068
S11329200E00104BB86998470F4C1A4A1A4BA0472F
S113293003000C001A002300184C28003100A047A3
S1132940031E04D001210220154B984703E0002107
S11329500220134B9847BB69181CBD4609B0F0BD53
S1132960812600004DB10000C5A40000BEA4315A68
S11329704755D53F3D960000F1B100002592000077
S11329805D9500009D950000898800000000E03FEF
S113299059B000009A9999999999B93F15880000FE
S11329A0F9290000B0B500AF0B4B1B889BB21A008D
S11329B00A4B100098470A4C00220A4BA047030018
S11329C00C0019002200084B080011009847031C52
S11329D0181CBD46B0BDC046064F002059B00000CB
S11329E05D9C000000FEAF40F1B1000080B500AF77
S11329F0C046181CBD4680BD80B582B000AF020041
S1132A00FB1D1A70BB1D0A1C1A70FB1D1B781F2BA3
S1132A101CD8BB1D1B78002B0BD0FB1D1B7801227F
S1132A209A4013001A000B4B1B681A43094B1A6097
S1132A300DE0FB1D1B7801229A401300DB431A00B2
S1132A40044B1B681A40034B1A6000E0C046BD46A5
S1132A5002B080BD104F002080B582B000AF0200EC
S1132A60FB1D1A70FB1D1B781F2B01D900230BE0E3
S1132A70FB1D1B7801229A4013001A00044B1B68AB
S1132A8013405A1E9341DBB21800BD4602B080BD0C
S1132A90104F002080B500AF034B1B685A1E9341B2
S1132AA0DBB21800BD4680BD104F0020B0B588B021
S1132AB000AFF860B9607A603B60BA68FB68D31A0B
S1132AC0BB61FB68FB613B681A68BB699A422CDDF9
S1132AD07B689A683B681A61544BB8699847041C30
S1132AE03B681A68514B10009847021C504B111C4C
S1132AF0201C9847031C7B613B681C697B68DA686F
S1132B007B689B68D21A494B10009847021C494BBA
S1132B107969101C9847031C1A1C474B101C9847D2
S1132B200300E2183B681A617BE03B681A683B6863
S1132B305B68D218BB699A4204DD7B68DA683B683B
S1132B401A616EE03B681A683B685B68D2183B68A0
S1132B509B68D218BB699A423DDD7B68DA683B68A2
S1132B601A613B681A683B685B68D318BA69D21A61
S1132B702E4B10009847031C3B613B681A692B4B92
S1132B8010009847041C3B689A68284B100098472B
S1132B90021C274B111C38699847031C1D1C7B68B9
S1132BA09A687B68DB68D21A204B10009847021C95
S1132BB0204B111C281C9847031C1A1C1F4B111C6A
S1132BC0201C9847031C1A1C1B4B101C984702001E
S1132BD03B681A6125E03B681A683B685B68D21859
S1132BE03B689B68D2183B68DB68D218BB699A4281
S1132BF004DD7B689A683B681A6112E07B689A6816
S1132C003B681A613B681A683B685B68D2183B688A
S1132C109B68D2183B68DB68D3181A00FB68D3188A
S1132C20FB61FB691800BD4608B0B0BD9D9500006E
S1132C30058C0000E58F00005D950000E188000030
S1132C40F0B589B000AFF860B960FB681A69FB6839
S1132C505B69D21A7D4B10009847031CBB617C4B07
S1132C607B617C4B1A687C4B111CB8699847031C28
S1132C701A1C7A4B7969101C9847031C1A1C784B50
S1132C80101C984705000E00754B786998470200A0
S1132C900B00744C00207449A04703000C003B60F7
S1132CA07C60724B1A686E4B101C984702000B0034
S1132CB06F4C38687968A04703000C001A002300A1
S1132CC06C4C28003100A04703000C0019002200BE
S1132CD0694B080011009847021C644B1A60674B4B
S1132CE0B86998470300D9175A184A40574B10003F
S1132CF09847BB685A69624B111C9847031E49D018
S1132D00604B1A68604BB969101C9847031C1A1C65
S1132D105C4B1A60BB689A685A4B19684F4B101C7D
S1132D209847031C1A1C554B101C98470300D917CD
S1132D305A184A40454B10009847BB681A69534BD0
S1132D40111C9847031E28D04E4B1C684D4B1A6823
S1132D504A4B101C98470300D9175A184A403B4B5A
S1132D6010009847021C4A4B111C201C9847031C56
S1132D70181CBB681A69394B111C9847031C181C92
S1132D80BB689A68424B111C9847031C1A1C3D4BA4
S1132D901A6002E03B4B00221A60BB681C68FB68A7
S1132DA01A692A4B10009847021C2C4B111C201C3A
S1132DB09847031C1C1CBB685A68284BB969101C33
S1132DC09847031C1A1C304B111C201C9847031CE9
S1132DD01C1CBB689A682B4B1968204B101C984725
S1132DE0031C1A1C284B111C201C9847031C1C1C78
S1132DF0BB68DA681D4B1968184B101C9847031CF4
S1132E001A1C214B111C201C9847031CFB61BB6836
S1132E109A691B4BF969101C9847031E02D0BB68C2
S1132E209B69FB61BB68DA69184BF969101C984708
S1132E30031E02D0BB68DB69FB61064BBA691A60EA
S1132E40FB69181CBD4609B0F0BDC0469D95000045
S1132E503333333F144F002025920000E58F0000E8
S1132E604DB10000C5A900000000F03F184F00203C
S1132E70C5A400003D960000F1B100005D9500007E
S1132E80618800001C4F0020E18800008988000050
S1132E90058C0000F0B587B000AF786039607B68BE
S1132EA01A696B4B1000984702000B00694C002014
S1132EB06949A04703000C0019002200674B080071
S1132EC011009847031C7B613B689A683B681B6848
S1132ED0D218634B10009847021C624B111C78698E
S1132EE09847031C3B61604B002138699847031ED7
S1132EF004D0012106205D4B984703E00021062001
S1132F005A4B98477B685B780A2B51D9584B3869E0
S1132F10984705000E007B685B781A004C4B100044
S1132F209847544C544A554BA04703000C001800D2
S1132F302100534C0022534BA04703000C001A00FD
S1132F402300444C28003100A04703000C00190062
S1132F502200424B080011009847031CFB60444BBD
S1132F60F868984705000E007B685B781A00384BB8
S1132F70100098473F4C404A404BA04703000C00C8
S1132F801A0023003B4C28003100A04703000C002A
S1132F90190022003C4B08001100984702003B68CE
S1132FA0DA603A4BF868984702003B685A604BE095
S1132FB07B685B781A00264B100098472D4C2E4AEC
S1132FC02E4BA04703000C001A002300214C0020C4
S1132FD02C49A04703000C00190022001F4B0800D5
S1132FE011009847031CBB60214B386998470500C2
S1132FF00E001F4BB8689847214C0022214BA04774
S113300003000C001A002300124C28003100A047D2
S113301003000C0019002200104B0800110098470F
S1133020031CFB601A4BB968F8689847031C1A1C08
S1133030164B101C984702003B685A60134BF86803
S1133040984702003B68DA60C046BD4607B0F0BD51
S113305059B000005D9C0000004CED40F1B100004F
S11330609D9500002592000061880000F929000068
S11330704DB10000C5A400009A9999999999B93F56
S11330803D9600000000F03FF1AF00005D950000A8
S1133090E58F000090B587B000AFF860B9607A6042
S11330A01D4B984703007B611C4B1B780122534046
S11330B0DBB2002B09D0FB681B7D01221340DBB27D
S11330C0002B02D07A69164B1A60154B1B68180046
S11330D0BB68FA687969134CA04703001A00104BC7
S11330E01A607A68BB68110018000F4B9847031CDC
S11330F03B610E4B7A691A60FB681B7DDB07DB0FB3
S1133100DBB2DA17D31ADB0FDAB2044B1A703B695D
S1133110181CBD4607B090BD2D5B0000204F002059
S1133120244F0020AD2A0000412C0000284F00202D
S113313090B585B000AF1A4B28221A80184B194A53
S11331405A60174B02225A80154B00225A72144BB4
S113315000221A723B1D124A13CA13C33B1D18687E
S113316059689A68104B98470220104B98472820BA
S11331700F4B98470F4B1C680E4B1B6818000E4BE7
S1133180984702000D4B210018000D4B9847002072
S11331900C4B9847C0461800BD4605B090BDC046CC
S11331A0504F00200800002069450000FD33000056
S11331B07D3300000400002055B40000C44F0020FB
S11331C089B30000C931000090B587B000AF020098
S11331D0FB1D1A70FB1D1B78002B18D15549564B4B
S11331E014221800554B98475549564B1422180081
S11331F0524B98475449554B142218004F4B98474B
S11332005349544B142218004C4B98471EE0FB1DA5
S11332101B78012B18D15049474B14221800474BF7
S113322098474E49474B14221800444B98474C4941
S1133230464B14221800414B98474A49454B1422E7
S113324018003E4B984701E000236FE000237B61A8
S113325018E0394A7B69D3181B78062B04D8364A00
S11332607B69D31820221A70384A7B69D3181B78DB
S1133270062B04D8354A7B69D31820221A707B693F
S113328001337B617B69272BE3DD374B28221A80CE
S1133290354B364A5A60344B03225A80324B002253
S11332A05A72314B00221A720823FB182E4A13CA91
S11332B013C30823FB18186859689A682C4B98475D
S11332C02C4B28221A802B4B1B4A5A60294B28224C
S11332D05A80284B00225A72264B00221A72082365
S11332E0FB18244A13CA13C30823FB181868596827
S11332F09A681F4B9847204B28221A801E4B134A6A
S11333005A601D4B28225A801B4B00225A721A4BBA
S113331000221A720823FB18174A13CA13C308237E
S1133320FB18186859689A68114B98471800BD46ED
S113333007B090BDC44F00201450002089B3000092
S1133340EC4F002028500020D84F00203C50002093
S11333500050002050500020744F00209C4F00204B
S1133360884F0020B04F0020444F00200C00002064
S1133370694500002C4F0020384F002090B587B0DD
S113338000AF0200FB1D1A70FB1D1B78002B03D03D
S1133390FB1D1B78322B01D9002325E0144BFE22A0
S11333A01A70134B52225A70114BFA1D12789A70EC
S11333B0104B28221A800F4B0D4A5A600D4B0322E2
S11333C05A800C4B00225A720A4B00221A720C23A8
S11333D0FB18084A13CA13C30C23FB18186859684E
S11333E09A68054B984701231800BD4607B090BD65
S11333F0645000205C4F00206945000090B587B000
S113340000AF0200FB1D1A70FB1D1B78002B03D0BC
S1133410FB1D1B78082B01D9002325E0144BFE2249
S11334201A70134B53225A70114BFA1D12789A706A
S1133430104B28221A800F4B0D4A5A600D4B032261
S11334405A800C4B00225A720A4B00221A720C2327
S1133450FB18084A13CA13C30C23FB1818685968CD
S11334609A68054B984701231800BD4607B090BDE4
S113347068500020684F00206945000090B58DB069
S113348002AF78600A00FB1C1A700C23FB181800AA
S1133490594B984700237B6207E0584A7B6AD3184C
S11334A020221A707B6A01337B627B6A4F2BF4DD26
S11334B00C23FB181B7801221340DBB2002B04D031
S11334C04E4B4F4A03CA03C305E04C4B4D4A03CA53
S11334D003C312781A700C23FB185B684A4A4B48E2
S11334E00A214B4CA0470C23FB189B68494A4A48C5
S11334F00D21474CA0470C23FB185A782323FC18B2
S1133500464B0A2110009847030023700C23FB1834
S113351059782323FB181B780A2252425343DAB208
S11335202223FB188A181A702323FB1819782223E4
S1133530FB181B783A4A3B4800930B000921344C92
S1133540A0470C23FB18DB68374A38480D21304C60
S1133550A0470C23FB181B69354A364807212C4C1D
S1133560A0477B685A782123FC182C4B0A211000B1
S11335709847030023707B6859782123FB181B7834
S11335800A2252425343DAB22023FB188A181A70D3
S1133590FB1C1B78042B27D89A00274BD3181B68D5
S11335A09F467B681A692549254B1800254B984787
S11335B01DE07B689A682449214B1800214B9847E9
S11335C015E07B68DA6821491D4B18001D4B9847AC
S11335D00DE02123FB181A782023FB181B781C49C3
S11335E01748184CA04702E0C04600E0C046C04659
S11335F0BD460BB090BDC046113C0000C44F002036
S113360088BD000090BD00009CBD0000CE4F00208E
S1133610ADB30000A4BD0000D84F0020A98600006F
S1133620B4BD0000E44F0020C0BD0000EC4F0020FA
S1133630CCBD0000F84F002060BE0000D4BD0000E7
S11336400050002011B40000E0BD0000F4BD0000F3
S113365004BE000080B582B000AF00237B6007E0A9
S11336602E4A7B68D31820221A707B6801337B6052
S11336707B684F2BF4DD294B294A03CA03C300207E
S1133680284B9847031E07D0274A284B10001900DF
S113369005231A00264B98470220224B9847031E05
S11336A005D0244B244A03CA03C312781A7003209A
S11336B01C4B9847031E07D0204A214B10001900C9
S11336C009231A001A4B98470420164B9847031EE7
S11336D005D01C4B1C4A03CA03C312781A70052078
S11336E0104B9847031E07D0184A194B10001900B5
S11336F00A231A000E4B984706200A4B9847031ECC
S113370007D0144B144A11681960918899809279F2
S11337109A71C046BD4602B080BDC046744F0020B9
S113372018BE0000592A00007E4F002020BE000071
S113373089B30000884F002028BE0000924F00206B
S113374034BE00009C4F002040BE0000A64F002065
S11337504CBE0000B04F002058BE000080B582B0BF
S113376000AF78607B685B091800BD4602B080BD7D
S113377080B582B000AF78607B68DB01034A944671
S113378063441800BD4602B080BDC04600440041F9
S113379080B582B000AF78607B681800054B98470D
S11337A003001800044B984703001800BD4602B0FC
S11337B080BDC0465D3700007137000080B582B01F
S11337C000AF78607B681F22134001229A401300E7
S11337D01800BD4602B080BD90B583B000AF7860DC
S11337E00A00FB1C1A70FB1C1B78002B0BD07B6897
S11337F018000C4B984704007B6818000A4B984744
S11338000300A3610AE07B681800064B9847040094
S11338107B681800044B984703006361C046BD46AB
S113382003B090BD91370000BD37000090B583B060
S113383000AF78607B681800084B984703001C6A47
S11338407B681800064B9847030023405A1E934197
S1133850DBB21800BD4603B090BDC04691370000EE
S1133860BD37000080B582B000AF78600A00FB1C51
S11338701A70FB1C1A787B6811001800024B9847D9
S1133880C046BD4602B080BDD937000080B582B0C5
S113389000AF78607B681800034B9847030018005A
S11338A0BD4602B080BDC0462D38000080B584B04E
S11338B000AF164B98470C23FB181800144B98477D
S11338C03B1D1800134B98473B1D40221A703A1DAC
S11338D01149124B1800124B98470C23FA180F4B3E
S11338E0002118000F4B98470C4B002118000E4B79
S11338F098470A4B18000D4B98470023181C0C4B93
S11339009847C046BD4604B080BDC046B5390000E6
S1133910810F0000D90D0000004800426C500020C7
S1133920150E0000910F0000AB0F0000250F0000E2
S1133930CD39000080B500AF0120134B9847030038
S11339401A0001235340DBB2002B04D001210320D1
S11339500E4B984703E0002103200C4B98470C4B77
S11339609847021C0B4B0C49101C9847031E04D0AB
S113397001210420054B984703E000210420034B58
S11339809847C046BD4680BD8D380000F929000027
S1133990ED290000898800000000C84280B500AF0E
S11339A001210020024B9847C046BD4680BDC04659
S11339B06538000080B500AF00210020024B984715
S11339C0C046BD4680BDC0466538000090B585B090
S11339D000AF78600C4B0D4978689847031C1A1C9B
S11339E00E23FC180A4B101C9847030023800E2357
S11339F0FB181A88074B00211800074B9847C0464C
S1133A00BD4605B090BDC046E58F000000C07F44B0
S1133A10B18800006C500020C10F000080B582B056
S1133A2000AF78603960184B9847184B98470300EB
S1133A3019007B680122114008001A7D01218A4384
S1133A40111C021C0A431A757B681B7DDB07DB0F04
S1133A50DAB27B6801210A4010001A7801218A43F6
S1133A60111C021C0A431A70094B9847021C094B8B
S1133A70101C984702003B685A61074B9847C046A0
S1133A80BD4602B080BDC046512600003945000045
S1133A90A52700005D9500003539000090B58FB072
S1133AA000AF78603C4B1A7801218A431A703A4B74
S1133AB01E225A70384B0E229A60374B1E22DA604F
S1133AC0354B14221A61344B334A143313CA13C3CB
S1133AD003CA03C3314BC8221A60304BC8229A6010
S1133AE02E4A2D4B110018002D4B98470A237B6357
S1133AF02C4B98470300FB620C23FB182A4A1A60DC
S1133B000C23FB1800225A600C23FB180022DA60F5
S1133B100C23FB1800229A600C23FB18234A5A61D9
S1133B200C23FB18224A1A610C23FB18FE2292056F
S1133B309A610C23FB180022DA611E4B98477A6BBA
S1133B402C23FB18110018001B4B98471B4B98475C
S1133B50124A114B11001800194B98470C23FA18FC
S1133B600E490D4B1800174B9847031C3B630A4B37
S1133B701B7D01221340DBB2002B06D0124B984769
S1133B803B6B181C114B9847D9E7114B98470023FE
S1133B90181C0E4B9847D2E794500020BC500020CC
S1133BA0952E00002D5B00008FC2F53C00002041E3
S1133BB09A99993EAD38000021560000096C000026
S1133BC01D3A0000953000009D390000CD390000F9
S1133BD0B539000090B585B002AF02003960BB1D55
S1133BE01A80BB1D1A8806490648074B01933B6897
S1133BF000930023054CA047C046BD4603B090BDCA
S1133C0074BE00009D3A0000905000208D530000C7
S1133C1090B583B000AF78607B68044A13CA13C3BD
S1133C2003CA03C37868BD4603B090BD9450002016
S1133C3080B582B000AF78607B681A690B4B1A615B
S1133C407B689A68094B9A607B68DA68074BDA608C
S1133C507B685A78054B5A70054A044B11001800CA
S1133C60044B9847C046BD4602B080BD9450002026
S1133C70BC500020952E000080B582B000AF020039
S1133C80FB1D1A70064BFA1D127811001F220A4000
S1133C90012191400A001A60C046BD4602B080BDB1
S1133CA000E100E080B582B000AF0200FB1D1A7095
S1133CB0084AFB1D1B7819001F230B400121994062
S1133CC00B001900C0235B00D150C046BD4602B0B2
S1133CD080BDC04600E100E0B0B582B000AF020094
S1133CE03960FB1D1A70FB1D1B787F2B32D92F4CBA
S1133CF0FB1D1B781A000F231340083B99082B4A1D
S1133D00FB1D1B7818000F230340083B9B08063358
S1133D109B00D31804331B68FA1D12781000032289
S1133D200240D200FF2090400200D2431A403B6878
S1133D309B01FF201840FB1D1B781D0003232B4013
S1133D40DB00984003001A438B1D9B00E3180433E7
S1133D501A6027E0164CFB1D1B785BB29B081449C4
S1133D60FA1D127852B29208C03292005258F91DCC
S1133D700978080003210140C900FF2088400100A0
S1133D80C94311403A689201FF201040FA1D12788D
S1133D90150003222A40D200904002000A43C03397
S1133DA09B001A51C046BD4602B0B0BD00ED00E014
S1133DB000E100E080B582B000AF0200FB1D1A7084
S1133DC0064BFA1D127811001F220A40012191406E
S1133DD00A001A60C046BD4602B080BD00E100E0A2
S1133DE080B582B000AF78607B685B091800BD467F
S1133DF002B080BD80B582B000AF78607B68DB0123
S1133E00034A944663441800BD4602B080BDC046D0
S1133E100044004180B582B000AF78607B68180030
S1133E20054B984703001800044B984703001800FB
S1133E30BD4602B080BDC046E13D0000F53D000036
S1133E4080B582B000AF78607B681F2213400122E6
S1133E509A4013001800BD4602B080BD90B583B0EF
S1133E6000AF78607B681800084B984703001C6A11
S1133E707B681800064B9847030023405A1E934161
S1133E80DBB21800BD4603B090BDC046153E00002D
S1133E90413E000080B582B000AF78607B681800B6
S1133EA0034B984703001800BD4602B080BDC046CE
S1133EB05D3E000080B584B000AF78607B681B680D
S1133EC0FB60FB68DB69072213405A1E9341DBB297
S1133ED01800BD4604B080BD80B582B000AF7860E4
S1133EE0C0467B681800044B9847031EF9D1C046AE
S1133EF0BD4602B080BDC046B53E000080B582B06C
S1133F0000AF78607B6864221A607B681B4A5A6041
S1133F107B6800229A607B6800221A737B68002207
S1133F201A767B68802292031A617B6801225242CE
S1133F30DA827B68012252429A827B680022DA612B
S1133F407B6800221A627B682422002199547B68D2
S1133F5000229A627B682C22002199547B682D22CE
S1133F60002199547B682E22002199547B68D72222
S1133F701A86C046BD4602B080BDC046480D00004A
S1133F8080B584B000AF78607B681B68BB60002399
S1133F90FB607B681800144B9847BB681B680222BF
S1133FA01A43BB681A607B681B6818000F4B98475C
S1133FB0030018000E4B98470CE0FB680133FB60CC
S1133FC07B68DB881A00FB689A4203D8BB6810221E
S1133FD05A8306E0BB685B8B9BB21A001023134024
S1133FE0EBD0BD4604B080BDD93E0000A56F0000F3
S1133FF0B53D000080B582B000AF78600A00FB1CBC
S11340001A707B685B7EDBB25AB2FB1C1B78012101
S113401099400B005BB213435BB2DAB27B685A7609
S1134020C046BD4602B080BD80B582B000AF7860A6
S11340307B6825229B5CDBB21800BD4602B080BDC4
S113404090B583B000AFFC1D664B98470300237006
S1134050654B1B7801225340DBB2002B28D0FB1D9B
S11340601B78002B24D0614B1B78042B1CD89A009E
S11340705F4BD3181B689F465C4B01221A7017E0F4
S11340805A4B02221A7013E0584B03221A700FE0A5
S1134090564B04221A700BE0564B1800564B9847A7
S11340A0524B00221A7003E0504B00221A70C04693
S11340B0524B9847031C3B604C4B1B78042B00D994
S11340C083E09A004E4BD3181B689F4606224D4B43
S11340D010009847041C3C220623D21A494B1000B6
S11340E09847021C484B3968101C9847031C1A1C3B
S11340F0464B111C201C9847031C1A1C444B101CD3
S1134100984702003B4B1A6164E003223D4B1000C8
S11341109847041C14220323D21A3A4B10009847E0
S1134120021C394B3968101C9847031C1A1C374B66
S1134130111C201C9847031C1A1C354B101C984753
S113414002002C4B9A6045E00A222E4B100098473F
S1134150041C23220A23D21A2A4B10009847021C5B
S1134160294B3968101C9847031C1A1C274B111C37
S1134170201C9847031C1A1C254B101C984702004E
S11341801C4BDA6026E005231A001E4B10009847EA
S1134190041C28231A000523D21A1A4B100098472E
S11341A0021C194B3968101C9847031C1A1C174B26
S11341B0111C201C9847031C1A1C164B101C9847F2
S11341C00300DAB20B4B5A7004E0084B00221A7059
S11341D000E0C046044BFA1D12781A70C046BD4672
S11341E003B090BD5145000028510020105100201B
S11341F07CBE000014510020313C0000A5290000C1
S113420090BE00009D950000E58F0000E18800004D
S11342105D950000B188000080B582B000AF786081
S1134220084B1B785A1E9341DBB201225340DBB288
S11342301A1C01231340DAB2024B1A70C046BD4661
S113424002B080BD0F00002080B582B000AF78605E
S1134250104B1B7801225340DBB2002B0BD00E4BCA
S1134260984703001A0001235340DBB2002B02D00D
S1134270084B01221A70074B1B78002B03D0002037
S1134280064B984702E00120044B9847C046BD46C0
S113429002B080BD0F000020952A0000C931000043
S11342A080B582B000AF78607B681800054B9847F2
S11342B0054B1B681800054B9847C046BD4602B025
S11342C080BDC04629400000D85000208D58000011
S11342D080B58EB000AF3B1D18001C4B98473B1DAA
S11342E001221A733B1D2D221A603B1D01225242EA
S11342F0DA823B1D1022DA613B1D11221A62C0468C
S11343003A1D1349134B1800134B9847031EF7D15A
S11343100A20124B984704210A20114B98470A207F
S1134320104B984710490B4B002218000F4B98472D
S1134330084B002118000E4B9847064B18000D4BF4
S11343409847C046BD460EB080BDC046FD3E000045
S1134350000C0042E85000201D160000A53C00009F
S1134360D93C0000793C0000A1420000751A00000D
S1134370F53F0000813F000090B587B002AF786040
S1134380294B9847294B984729482A4B00930023E7
S113439001221E21284CA0470200284B1A60274BFB
S11343A01B68002B0BD0254B1C68254B984702003B
S11343B000230093002301212000224CA047FA236C
S11343C0D9002148214B0093002301221A4CA04715
S11343D002001F4B1A601E4B1B68002B0BD01C4B9A
S11343E01C68174B98470200002300930023012107
S11343F02000144CA0471423FB60114B9847030082
S1134400BB60FA680823FB1811001800114B984789
S1134410114B9847114B1A78114B11001800114B8E
S11344209847114B9847ECE7D14200003131000026
S1134430A4BE000049420000A9630000DC50002033
S11344402D5B00004D640000B0BE00001942000066
S1134450E05000202156000041400000105100208F
S1134460145100207D3400005536000080B586B01C
S113447000AF78600C4B186801235A420C23FB18D8
S113448019000A4B98470300012BF3D10C23FA18A7
S1134490074B11001800074B9847074B1B6818007F
S11344A0064B9847E6E7C046E4500020F54D00006F
S11344B0E8500020611B0000D85000204557000040
S11344C090B585B002AF02003960BB1D1A8000228E
S11344D00C210A200F4B984702000F4B1A60BB1D9A
S11344E01A880E490E480F4B01933B680093002332
S11344F00D4CA04780235A000C490D480D4B0193E5
S11345003B6800930023084CA047C046BD4603B057
S113451090BDC046314A0000E4500020BCBE0000FB
S113452079430000D45000208D530000C0BE000029
S11345306D440000D850002080B500AF2B20034B01
S1134540984703001800BD4680BDC046953E000054
S113455080B500AF0C20034B984703001800BD46FC
S113456080BDC046953E000090B585B000AF3B1DB0
S1134570186059609A60074B1B68002B06D0054BE6
S11345801868391D00230022034CA047C046BD46CD
S113459005B090BDE4500020F54A000080B582B01B
S11345A000AF7860FA239B001800014B9847F9E7A5
S11345B0E956000090B585B002AF02003960BB1D1A
S11345C01A80BB1D1A8806490648074B01933B68AD
S11345D000930023054CA047C046BD4603B090BDE0
S11345E0C4BE00009D4500002C5100208D530000E6
S11345F080B582B000AF0200FB1D1A70064BFA1D95
S1134600127811001F220A40012191400A001A6009
S1134610C046BD4602B080BD00E100E080B584B074
S113462000AF78607B681B68FB60FB68DB6907226E
S113463013405A1E9341DBB21800BD4604B080BD3E
S113464080B582B000AF7860C0467B681800044B28
S11346509847031EF9D1C046BD4602B080BDC0468E
S11346601D46000080B582B000AF78607B6864228C
S11346701A607B681B4A5A607B6800229A607B68D8
S113468000221A737B6800221A767B6880229203C8
S11346901A617B6801225242DA827B68012252420B
S11346A09A827B680022DA617B6800221A627B6846
S11346B02422002199547B6800229A627B682C2270
S11346C0002199547B682D22002199547B682E2265
S11346D0002199547B68D7221A86C046BD4602B091
S11346E080BDC046480D000080B584B000AF78603E
S11346F07B681B68BB600023FB607B681800144B5D
S11347009847BB681B6802221A43BB681A607B681F
S11347101B6818000F4B9847030018000E4B98476E
S11347200CE0FB680133FB607B68DB881A00FB68E4
S11347309A4203D8BB6810225A8306E0BB685B8B9D
S11347409BB21A0010231340EBD0BD4604B080BDC9
S113475041460000A56F0000F145000080B58EB011
S113476000AF3B1D1800114B98473B1D64221A6093
S11347703B1D01225242DA823B1D1622DA613B1DA7
S113478017221A62C0463A1D09490A4B18000A4BFF
S11347909847031EF7D1074B1800084B9847084B5E
S11347A09847C046BD460EB080BDC0466546000071
S11347B000140042345100201D160000E946000098
S11347C09925000080B582B000AF7860034B98470C
S11347D0FA239B001800024B9847F9E75D47000055
S11347E0E956000090B585B002AF02003960BB1DE8
S11347F01A80BB1D1A8806490648074B01933B687B
S113480000930023054CA047C046BD4603B090BDAD
S1134810CCBE0000C5470000305100208D5300007D
S113482080B582B000AF78607B6808331A007B687B
S11348305A607B68012252429A607B6808331A00EE
S11348407B68DA607B6808331A007B681A617B68CE
S113485000221A60C046BD4602B080BD80B582B059
S113486000AF78607B6800221A61C046BD4602B082
S113487080BD80B584B000AF786039607B685B68C8
S1134880FB603B68FA685A60FB689A683B689A6008
S1134890FB689B683A685A60FB683A689A603B68B0
S11348A07A681A617B681B685A1C7B681A60C04668
S11348B0BD4604B080BD80B584B000AF7860396077
S11348C03B681B68BB60BB68013303D17B681B6911
S11348D0FB600CE07B680833FB6002E0FB685B680C
S11348E0FB60FB685B681A68BB689A42F6D9FB6890
S11348F05A683B685A603B685B683A689A603B68F0
S1134900FA689A60FB683A685A603B687A681A6188
S11349107B681B685A1C7B681A60C046BD4604B09D
S113492080BD80B584B000AF78607B681B69FB6094
S11349307B685B687A6892689A607B689B687A682F
S113494052685A60FB685A687B689A4203D17B6854
S11349509A68FB685A607B6800221A61FB681B68CE
S11349605A1EFB681A60FB681B681800BD4604B039
S113497080BD000080B584B000AF786039607B688A
S1134980FB60FB68002B01D172B6FEE7234B98470E
S1134990FB681A68FB68D96BFB681B6C4B43D21825
S11349A0FB685A60FB6800229A63FB681A68FB681C
S11349B09A60FB681A68FB68DB6B591EFB681B6C0A
S11349C04B43D218FB68DA60FB684422FF219954F8
S11349D0FB684522FF2199543B68002B0DD1FB68ED
S11349E01B69002B13D0FB68103318000C4B98473D
S11349F0031E0CD00B4B984709E0FB6810331800DA
S1134A00094B9847FB6824331800074B9847074B1A
S1134A10984701231800BD4604B080BD511F000013
S1134A20615E0000311F000021480000751F000076
S1134A3090B58BB002AFF860B960FB1D1A70FB68CB
S1134A40002B01D172B6FEE7BB68002B02D1002314
S1134A50FB6103E0FB68BA685343FB61FB695433B1
S1134A6018000C4B98470300BB61BB69002B0CD0AA
S1134A70BB6954337B61FB1D1C787A69B968F8689B
S1134A80BB6900932300044CA047BB691800BD46D2
S1134A9009B090BD7D2000009D4A000080B584B01F
S1134AA000AFF860B9607A601A00FB1C1A70BB682A
S1134AB0002B03D1BB69BA691A6002E0BB697A684A
S1134AC01A60BB69FA68DA63BB69BA681A64BB69BD
S1134AD001211800064B9847BB69FA1C5021127833
S1134AE05A54BB6900229A64C046BD4604B080BDD6
S1134AF07549000080B58AB000AFF860B9607A608B
S1134B003B6000237B62FB683B623B6A002B01D164
S1134B1072B6FEE7BB68002B03D13B6A1B6C002B0B
S1134B2001D1012300E00023002B01D172B6FEE77E
S1134B303B68022B03D13B6ADB6B012B01D10123C0
S1134B4000E00023002B01D172B6FEE7534B9847D7
S1134B50031E02D17B68002B01D1012300E0002356
S1134B60002B01D172B6FEE74D4B98473B6A9A6B16
S1134B703B6ADB6B9A4202D33B68022B2DD13A6825
S1134B80B9683B6A1800474B98470300FB613B6ACE
S1134B909B6C002B0AD03A683B6A11001800424B08
S1134BA09847031E15D0414B984712E03B6A5B6A55
S1134BB0002B09D03B6A243318003D4B9847031E51
S1134BC007D03A4B984704E0FB69002B01D0374BE0
S1134BD09847384B984701235CE07B68002B03D14E
S1134BE0344B9847002355E07B6A002B06D11423ED
S1134BF0FB181800304B984701237B622D4B9847D4
S1134C002E4B9847264B98473B6A44229B5C5BB2E9
S1134C10013303D13B6A4422002199543B6A452263
S1134C209B5C5BB2013303D13B6A4522002199545A
S1134C30204B98473A1D1423FB1811001800204BF1
S1134C409847031E1FD13B6A18001E4B9847031E4A
S1134C5012D03B6A10337A68110018001A4B984737
S1134C603B6A1800194B9847194B9847031E00D00C
S1134C707AE70E4B984777E73B6A1800134B98473F
S1134C80134B984770E73B6A1800104B9847104B3A
S1134C90984700231800BD460AB080BDA1610000FA
S1134CA0511F0000954F0000E9520000311F000021
S1134CB0615E0000751F0000215F0000E1590000E3
S1134CC0495F0000E9510000C95D0000C5500000C3
S1134CD0F959000080B588B000AFF860B9607A6017
S1134CE03B60FB68BB61BB69002B01D172B6FEE778
S1134CF0BB68002B03D1BB691B6C002B01D10123C2
S1134D0000E00023002B01D172B6FEE73B68022BC2
S1134D1003D1BB69DB6B012B01D1012300E000232C
S1134D20002B01D172B6FEE72D4B984703007B613F
S1134D30BB699A6BBB69DB6B9A4202D33B68022B5B
S1134D4042D11323FB18BA694521525C1A703A68A0
S1134D50B968BB691800234B98471323FB181B78C9
S1134D605BB2013324D1BB699B6C002B0ED03A6833
S1134D70BB69110018001C4B9847031E21D07B68A7
S1134D80002B1ED07B6801221A601AE0BB695B6AA3
S1134D90002B16D0BB6924331800144B9847031E0C
S1134DA00FD07B68002B0CD07B6801221A6008E0CE
S1134DB01323FB181B780133DBB259B2BB694522BC
S1134DC099540123FB6101E00023FB617B69180016
S1134DD0074B9847FB691800BD4608B080BDC04624
S1134DE0A51F0000954F0000E9520000615E00001D
S1134DF0B11F000080B58AB000AFF860B9607A6076
S1134E0000237B62FB683B623B6A002B01D172B6D4
S1134E10FEE7BB68002B03D13B6A1B6C002B01D15E
S1134E20012300E00023002B01D172B6FEE74C4BB6
S1134E309847031E02D17B68002B01D1012300E0B7
S1134E400023002B01D172B6FEE7464B98473B6A1C
S1134E509B6BFB61FB69002B1AD0BA683B6A11009B
S1134E601800414B9847FB695A1E3B6A9A633B6A98
S1134E701B69002B08D03B6A103318003B4B984742
S1134E80031E01D03A4B98473A4B9847012362E0FE
S1134E907B68002B03D1374B984700235BE07B6A88
S1134EA0002B06D11423FB181800334B9847012319
S1134EB07B62304B9847314B98472A4B98473B6A63
S1134EC044229B5C5BB2013303D13B6A4422002140
S1134ED099543B6A45229B5C5BB2013303D13B6A24
S1134EE0452200219954234B98473A1D1423FB185B
S1134EF011001800224B9847031E1ED13B6A18006C
S1134F00204B9847031E11D03B6A24337A68110062
S1134F1018001D4B98473B6A18001C4B98471C4BC4
S1134F209847031E91D1124B98478EE73B6A1800AD
S1134F30164B9847164B984787E73B6A1800134B64
S1134F409847134B98473B6A18000E4B9847031E2B
S1134F5000D17AE700231800BD460AB080BDC046E0
S1134F60A1610000511F000075500000615E000047
S1134F70311F0000751F0000215F0000E15900008F
S1134F80495F0000B5510000C95D0000C550000034
S1134F90F959000080B586B000AFF860B9607A6056
S1134FA000237B61FB689B6B3B61FB681B6C002BE4
S1134FB00ED1FB681B68002B4ED1FB685B681800A0
S1134FC02A4B984703007B61FB6800225A6043E048
S1134FD07B68002B19D1FB689868FB681A6CBB6866
S1134FE01900234B9847FB689A68FB681B6CD2181E
S1134FF0FB689A60FB689A68FB685B689A422BD3EB
S1135000FB681A68FB689A6026E0FB68D868FB684E
S11350101A6CBB681900164B9847FB68DA68FB6882
S11350201B6C5B42D218FB68DA60FB68DA68FB68C9
S11350301B689A4207D2FB685A68FB681B6C5B4288
S1135040D218FB68DA607B68022B05D13B69002B20
S113505002D03B69013B3B613B695A1CFB689A6384
S11350607B691800BD4606B080BDC046D96100000A
S113507089B3000080B582B000AF786039607B6886
S11350801B6C002B18D07B68DA687B681B6CD21809
S11350907B68DA607B68DA687B685B689A4203D372
S11350A07B681A687B68DA607B68D9687B681A6CED
S11350B03B681800024B9847C046BD4602B080BD0D
S11350C089B3000080B584B000AF7860344B984752
S11350D00F23FB187A684521525C1A7022E07B6822
S11350E09B6C002B09D07B68002118002D4B98473E
S11350F0031E0FD02C4B98470CE07B685B6A002B97
S113510017D07B6824331800284B9847031E01D01E
S1135110254B98470F23FB181B78013BDAB20F236A
S1135120FB181A700F23FB181B785BB2002BD6DC1C
S113513000E0C0467B684522FF2199541C4B9847E8
S1135140174B98470E23FB187A684421525C1A7057
S113515014E07B681B69002B17D07B6810331800A0
S1135160124B9847031E01D00F4B98470E23FB1890
S11351701B78013BDAB20E23FB181A700E23FB18BE
S11351801B785BB2002BE4DC00E0C0467B68442261
S1135190FF219954064B9847C046BD4604B080BDD4
S11351A0511F0000E9520000F55F0000615E00003D
S11351B0751F000080B584B000AF7860084B984735
S11351C07B689B6B002B02D10123FB6001E0002371
S11351D0FB60044B9847FB681800BD4604B080BDD3
S11351E0511F0000751F000080B584B000AF7860C7
S11351F0094B98477B689A6B7B68DB6B9A4202D1B8
S11352000123FB6001E00023FB60044B9847FB682B
S11352101800BD4604B080BD511F0000751F00007A
S113522080B584B000AF786039600023FB6015E07E
S11352300E4BFA68D200D358002B0CD10B4BFA68F2
S1135240D2003968D150094AFB68DB00D318043313
S11352507A681A6005E0FB680133FB60FB68072B82
S1135260E6D9C046BD4604B080BDC046EC5200201D
S113527080B586B000AFF860B9607A60FB687B6186
S1135280154B98477B6944229B5C5BB2013303D185
S11352907B694422002199547B6945229B5C5BB263
S11352A0013303D17B694522002199540B4B984764
S11352B07B699B6B002B06D17B6924337A68B968C0
S11352C01800074B98477B691800064B9847C0465F
S11352D0BD4606B080BDC046511F0000751F0000CA
S11352E00D5E0000C550000080B586B000AF786048
S11352F039607B689B6C3B6100237B613B69002BBD
S113530001D172B6FEE73B699A6B3B69DB6B9A424B
S113531001D372B6FEE73B699A6B3B69DB6B9A4239
S11353202AD20F23FB183A694521525C1A703A6855
S1135330391D3B691800134B984703007B610F2309
S1135340FB181B785BB201330DD13B695B6A002B00
S113535012D03B69243318000B4B9847031E0BD023
S113536001237B6108E00F23FB181B780133DBB2B8
S113537059B23B69452299547B691800BD4606B071
S113538080BDC046954F0000615E000090B58DB0B1
S113539004AFF860B9603B60BB1D1A80BB1D1B885D
S11353A09B0018001D4B984703007B617B69002B11
S11353B010D05820194B98470300FB61FB69002B60
S11353C003D0FB697A691A6306E07B691800144B01
S11353D0984701E00023FB61FB69002B16D0BB1D3D
S11353E01A883C68B968F86800230393FB69029340
S11353F07B6B01933B6B009323000A4CA047FB6932
S11354001800094B98470123BB6102E001235B426A
S1135410BB61BB691800BD4609B090BD7D2000008A
S1135420E52100002D5400003D55000080B586B0F4
S113543000AFF860B9607A603B60BB6A186B7B6848
S11354409B001A00A521394B9847BB6A1A6B7B68ED
S113545037498C4663449B00D3183B613B69072260
S113546093433B613B690722134001D072B6FEE7C8
S113547000237B6113E0BA687B69D3181878BA6A91
S113548034217B69D3185B18021C1A70BA687B69D3
S1135490D3181B78002B06D07B6901337B617B69B1
S11354A0092BE8D900E0C046BB6A3D22002199548B
S11354B03B6A042B01D904233B62BB6A3A6ADA6271
S11354C0BB6A3A6A9A64BB6A0022DA64BB6A043330
S11354D01800184B9847BB6A18331800154B9847A7
S11354E0BB6ABA6A1A613B6A0522D21ABB6A9A611C
S11354F0BB6ABA6A5A62BB6A00221A65BB6A542242
S1135500002199543A68F9683B6918000A4B984796
S11355100200BB6A1A607B6A002B02D07B6ABA6AFB
S11355201A60C046BD4606B080BDC0469BB30000AD
S1135530FFFFFF3F5D480000151E000080B582B0EC
S113554000AF78602B4B98472B4B1B685A1C2A4B97
S11355501A602A4B1B68002B09D1284B7A681A6001
S1135560254B1B68012B10D1254B98470DE0254B8B
S11355701B68002B09D1214B1B68DA6A7B68DB6A44
S11355809A4202D81D4B7A681A601F4B1B685A1C3A
S11355901D4B1A601C4B1A687B681A647B68DA6AB4
S11355A01A4B1B689A4203D97B68DA6A174B1A6054
S11355B07B68DA6A13009B009B189B00144A9A18B4
S11355C07B68043319001000124B9847124B98471C
S11355D00C4B1B68002B08D0084B1B68DA6A7B68ED
S11355E0DB6A9A4201D20D4B9847C046BD4602B0D1
S11355F080BDC046511F0000345200205C51002081
S11356003960000040520020505200203C520020DB
S11356106051002073480000751F0000311F000016
S113562080B586B000AF7860396000237B617B6809
S1135630002B01D172B6FEE73B68002B01D172B694
S1135640FEE7234B1B68002B01D072B6FEE7214B0B
S11356509847214B1B683B617B681A683B68D318E9
S1135660FB607B681A683B699A420BD97B681A68AD
S1135670FB689A4211D9FA683B699A420DD9012311
S11356807B610AE07B681A68FB689A4203D8FA686F
S11356903B699A4201D901237B617B68FA681A60ED
S11356A07B69002B06D0FA683B69D31A00211800E5
S11356B00A4B98470A4B98470300BB60BB68002B12
S11356C001D1084B9847C046BD4606B080BDC046D0
S11356D05C520020E1590000385200209962000019
S11356E0F9590000311F000080B584B000AF786024
S11356F00023FB607B68002B10D00D4B1B68002B34
S113570001D072B6FEE70B4B98477B680021180066
S1135710094B9847094B98470300FB60FB68002B33
S113572001D1074B9847C046BD4604B080BDC04672
S11357305C520020E159000099620000F959000010
S1135740311F000080B584B000AF78602B4B9847C0
S11357507B68002B02D12A4B1B6800E07B68FB604E
S1135760FB6804331800274B9847FB689B6A002B9F
S113577004D0FB6818331800224B9847FB681A1DA5
S1135780214B11001800214B9847FB6854229B5C65
S1135790DBB2012B03D1FB685422002199541C4B2A
S11357A098471C4B1B68002B05D0144B98471A4B89
S11357B09847174B9847124B1B68FA689A4218D1BE
S11357C0144B1B68002B08D0144B1B68002B01D012
S11357D072B6FEE7124B98470BE00B4B1A68114B5D
S11357E01B689A4203D1064B00221A6001E00E4B5B
S11357F09847C046BD4604B080BDC046511F000056
S11358005C5100202349000020520020734800000E
S1135810751F000040520020596100005C520020B6
S1135820311F000034520020D15C000080B584B0E8
S113583000AF78600023FB607B68BB607B68002B53
S113584001D172B6FEE7BB685A690E4B9A4201D188
S1135850012300E00023002B0FD0BB689A6A0A4B97
S11358609A420AD0BB689B6A002B01D1012300E055
S11358700023002B01D00123FB60FB681800BD4608
S113588004B080BD20520020F451002080B586B0C1
S113589000AF786000237B617B683B617B68002BF1
S11358A001D172B6FEE7234B98470300FB603B69C6
S11358B01800214B9847031E32D0204B1B68002B45
S11358C026D13B69DA6A1E4B1B68DB6A9A4201D314
S11358D001237B613B69043318001A4B98473B69E9
S11358E0DA6A194B1B689A4203D93B69DA6A164B88
S11358F01A603B69DA6A13009B009B189B00134AE9
S11359009A183B69043319001000114B984707E0BB
S11359103B6918331A000F4B110018000C4B9847C1
S1135920FB6818000C4B98477B691800BD4606B00D
S113593080BDC046A51F00002D5800005C52002009
S11359405C510020234900003C520020605100209B
S113595073480000F4510020B11F000090B585B0D9
S113596002AF16491648174B0193002300930023F6
S11359708222154CA04703007B607B68012B03D176
S1135980124B984703007B607B68012B0DD172B6E4
S11359900F4B012252421A600E4B01221A600E4B29
S11359A000221A600D4B984704E07B68013301D153
S11359B072B6FEE7C046BD4603B090BDD4BE00003B
S11359C009600000585200208D5300004D63000010
S11359D0545200204052002038520020D91E0000AA
S11359E080B500AF034B1B685A1C024B1A60C046BB
S11359F0BD4680BD5C52002080B584B000AF00235A
S1135A00FB600023BB603A4B1B68002B01D172B6CC
S1135A10FEE7384B9847364B1B685A1E344B1A60C6
S1135A20334B1B68002B5BD1334B1B68002B57D0C7
S1135A302FE0324BDB68DB68FB60FB68183318002F
S1135A402F4B9847FB68043318002D4B9847FB688D
S1135A50DA6A2C4B1B689A4203D9FB68DA6A294B31
S1135A601A60FB68DA6A13009B009B189B00264AA5
S1135A709A18FB68043319001000244B9847FB68FC
S1135A80DA6A234B1B68DB6A9A4202D3214B012258
S1135A901A601A4B1B68002BCBD1FB68002B01D07A
S1135AA01D4B98471D4B1B687B607B68002B0FD0F8
S1135AB01B4B9847031E02D0164B01221A607B68C9
S1135AC0013B7B607B68002BF2D1144B00221A60EF
S1135AD0104B1B68002B03D00123BB60114B98476C
S1135AE0114B9847BB681800BD4604B080BDC04642
S1135AF05C520020511F000034520020F451002059
S1135B00234900003C5200206051002073480000EB
S1135B105C5100204852002059610000445200208A
S1135B20495B0000311F0000751F000080B582B082
S1135B3000AF044B1B687B607B681800BD4602B055
S1135B4080BDC0463852002080B586B000AF002327
S1135B507B61504B1B68002B00D089E04E4B1B68C7
S1135B6001333B614C4B3A691A603B69002B17D1F6
S1135B704A4B1B681B68002B01D072B6FEE7474BEB
S1135B801B68FB60464B1A68444B1A60444BFA6826
S1135B901A60444B1B685A1C424B1A60424B98478C
S1135BA0424B1B683A699A424ED33C4B1B681B68B4
S1135BB0002B01D1012300E00023002B04D03B4B38
S1135BC0012252421A603FE0344B1B68DB68DB68F9
S1135BD0BB60BB685B687B603A697B689A4203D2AE
S1135BE0324B7A681A602FE0BB6804331800304BDC
S1135BF09847BB689B6A002B04D0BB681833180015
S1135C002B4B9847BB68DA6A2A4B1B689A4203D924
S1135C10BB68DA6A274B1A60BB68DA6A13009B0018
S1135C209B189B00244A9A18BB680433190010007F
S1135C30224B9847BB68DA6A214B1B68DB6A9A429D
S1135C40B3D301237B61B0E71D4B1B68DA6A1A49A1
S1135C5013009B009B189B005B58012B01D9012367
S1135C607B61184B1B68002B09D1174B984706E042
S1135C70144B1B685A1C134B1A60134B9847134B55
S1135C801B68002B01D001237B617B691800BD4692
S1135C9006B080BD5C52002038520020EC51002038
S1135CA0F05100204C520020596100005452002051
S1135CB0234900003C52002060510020734800003A
S1135CC05C510020445200207D8600004852002090
S1135CD080B584B000AF354B1B68002B03D0344B28
S1135CE001221A605DE0324B00221A60314B1B68BE
