S00B00004C43562E7372656334
S1130000607300204949000045490000DF4A0000B0
S113001000000000000000000000000000000000DC
S1130020000000000000000000000000454900003E
S113003000000000000000004549000045490000A0
S11300404549000045490000193B000045490000AE
S11300504549000045490000454900004549000064
S113006045490000A13D0000B13D0000C13D000034
S1130070D13D0000E13D0000F13D00004549000094
S11300804549000045490000454900004549000034
S11300904549000000000000000000008505000044
S11300A0454900006107000045490000454900003A
S11300B00000000010B5064C2378002B07D1054B37
S11300C0002B02D0044800E000BF0123237010BDC0
S11300D0740000200000000038850000084B10B5B3
S11300E0002B03D00749084800E000BF0748036815
S11300F0002B00D110BD064B002BFBD09847F9E72D
S113010000000000780000203885000038850000D9
S11301100000000010B5002200230270427000218C
S11301204280017103760262C26182600373C0245B
S11301306401C481037443748374C37403752A24EF
S1130140035543758375063C0355C2840285C17506
S11301502B23C1540133C15410BD0000F0B5D64661
S11301604F464646C0B596B0070016000160C64A21
S1130170106A80235B02034313620B780520DB07BC
S113018005D516B01CBC90469946A246F0BD0B7826
S113019017309B07F5D473783B71002B04D1BB4A0D
S11301A0136C04210B4313640023BB60FB603B61AD
S11301B0BB76FB763B833B77B54B1F602A23F35C0E
S11301C0002B05D1337D002B02D101337B7701E075
S11301D000237B773B68984633786A4613706946F8
S11301E01E20AC4B98471E20AB4B98472C23F25C47
S11301F0002A54D0013BF55C337BEB18DBB2D118F9
S1130200C9B28B4221D25219D3B29946A34B9A4612
S113021003E00135EDB24D4517D00F242C40337B5C
S1130220E41850229E4902A8D047132CF1D8A40008
S113023002ABE05801A900234B70CB708B700133E3
S11302400B70C0B2974B9847E3E7F4895022944966
S113025002A8924B9847132C13D9737D9B00DBB2F1
S113026042461370B37DDB0172781343DBB242461E
S113027053703379342B00D97BE19B008A4AD358DD
S11302809F46A40002ABE05801A900234B70CB7039
S11302908B7001330B70C0B2824B9847DDE7347B1F
S11302A050227F4902A87D4B9847132C15D9F48915
S11302B050227B4902A8794B9847132CCDD8A4002F
S11302C002ABE05801A900234B70CB708B70013353
S11302D00B70C0B2734B9847BFE7A40002ABE05861
S11302E001A900234B70CB708B7001330B70C0B22B
S11302F06C4B9847DBE70423102402211AE0717C3D
S1130300337C102416E006231024012112E0082374
S1130310102400210EE00023302400210AE00023F1
S11303202024002106E000230024002102E002230F
S113033010240121090170220A401343424693709C
S1130340F37D17203F2B00D91BE7D3703A68537E07
S11303505BB2002BFBDBF37C728813432422B25C78
S1130360D2001343327D92001343B27C52001343F4
S1130370234342469380337E002B20D0102C00D19F
S1130380D9E000D898E0202C00D1B6E0302C16D16A
S1130390F27C002A0AD0F26980321720FF2A00D9A1
S11303A0EFE6326A8032FF2A00D9EAE61720F269C2
S11303B0FF2A00DDE5E6326AFF2A00DDE1E639685E
S11303C04A7E52B2002AFBDB424613723A68537EDD
S11303D05BB2002BFBDBB38B424693833A68537EBC
S11303E05BB2002BFBDB338C424613842C23F35C7F
S11303F0002B05D0013BDBB217200F2B00D9C0E640
S11304002B22B15C17200F2900D9BAE63868427E46
S113041052B2002AFBDBF289307B0243B06802430C
S113042009050A431B041343424613612A23F35C60
S113043013750F2393751533F35C002B12D0F38CD3
S11304401A4A1720934200D99BE642469384328D80
S113045080231B01D31815499BB28B4200D990E627
S11304604346DA84124B1B685B01E022D20013403E
S1130470104A516849011268D20E0A43D2B213439A
S11304804246138500207CE600040040000800403A
S1130490F4520020BD470000314700004D780000B1
S11304A0D8810000E548000004810000FF0F00002F
S11304B02460800020608000002C00D07FE7F27C64
S11304C0002A0FD0F269802109018C4662442A492E
S11304D017208A4200D954E6326A624426498A4285
S11304E000D94EE6244A1720F169914200DD48E61E
S11304F0316A914200DD44E661E7F27C002A0FD0C4
S1130500F269802189008C4662441C4917208A4282
S113051000D936E6326A624418498A4200D930E684
S1130520164A1720F169914200DD2AE6316A9142A8
S113053000DD26E643E7F27C002A0FD0F269802131
S113054009028C4662440E4917208A4200D918E6F3
S1130550326A62440A498A4200D912E6084A1720DC
S1130560F169914200DD0CE6316A914200DD08E652
S113057025E7172005E6C046FF0F0000FF03000033
S1130580FFFF000070B52F4B1D682B681A7EDC7DC1
S11305901440E20716D4630708D504232A681376A7
S11305A0EB7E9B0702D5AB7E9B0742D4A30708D5FD
S11305B002232A681376EB7E5B0702D5AB7E5B07CA
S11305C03BD470BD01221A762A68537E5BB2002B9D
S11305D0FBDB69698B1C6B61538B9BB20B802B8B90
S11305E0013B9BB22B83002B11D06B7F002BD2D00D
S11305F02A68537E5BB2002BFBDB137B02210B4387
S113060013732A68537E5BB2002BFBDBC3E7012321
S11306102A6893752B7F052BBDD100232B77EB7EA6
S1130620DB07B8D5AB7EDB07B5D52800AB689847A8
S1130630B1E72800EB689847B8E72B69280098478A
S1130640BFE7C046F4520020931C9B0019500123BD
S113065093401A00837E13438376704710B5038B4F
S11306609BB20524002B01D0200010BD037F052B75
S1130670FAD00523037702834161043B0268D375F2
S1130680437F0024002BEFD00268537E5BB2002B23
S1130690FBDB137B02210B4313730268537E5BB2B3
S11306A0002BFBDB0024DFE71723002901D018000F
S11306B07047037FDBB2FAE70368D879C009704753
S11306C0F0B5C64600B5040016001D008379152058
S11306D0002B02D104BC9046F0BDA3899BB2103814
S11306E0002BF7D12033E35C052BF3D02368984625
S11306F00A4F2000B8470028FBD105222023E254EA
S1130700ADB2A581A6600023E38180229204044B4C
S11307101A600323424693715371DBE7B906000064
S113072000E100E010B582B06B46DA8082791523CF
S1130730002A02D1180002B010BD828992B2103B87
S1130740002AF7D11B33C25C1B3B052AF2D0043BC1
S11307506A460632014CA0470023EBE7C1060000BD
S113076070B5274B1C682568AB79DB0707D50123D7
S1130770AB712300143302D0637C002B31D1AB79ED
S11307809B0738D50223AB71A3899BB2002B2CD0D5
S1130790E3899BB25A1C92B2E2815B00A268944640
S11307A063441B889BB2AB81A389013B9BB2A381A9
S11307B0A3899BB2002B18D100222033E2541E3BA4
S11307C02B71AB71802189047E330E4AD1502300F2
S11307D0143310D0A37C002B0AD00020E36998477F
S11307E006E00020A3699847C9E72300143302D028
S11307F0237C002B00D170BD636900209847FAE781
S1130800F852002000E100E0F0B5D6464F464646D7
S1130810C0B58AB006000F00140031600800A04B78
S11308209847A04A116A851C0123AB400B4313620D
S113083009A9237B0B701430C5B228009A4B984742
S113084028009A4B9847207B0021994B98473B6896
S11308501C209B0705D50AB01CBC90469946A246AD
S1130860F0BD3B681738DB07F5D430688C4B9946EC
S1130870984705008F49904B9847AD008F4BEE5039
S113088000233376737600257383B3832522B5540E
S1130890336214333B60336898461800C847814676
S11308A0802308AA1370557001239370D570E069F2
S11308B0276A002800D1AFE008AB1870022308AA09
S11308C05370000CC0B211007D4B9847002F00D12B
S11308D0A7E008AB1F70022308AA53703F0CF8B2BC
S11308E01100774B9847A38AF380E38A3381237EF0
S11308F08022002B04D1734B9B789B07DB0FDA011A
S1130900A16823690B4313432422A25C002A02D06A
S11309108022D2051343A26A13432C22A25C002A2C
S113092003D180229204914202D180221205134302
S11309302D22A25C002A02D08022120413432E220C
S1130940A25C002A02D08022D203134342461268DA
S113095013434246136080235B00536048461430BF
S1130960C0B2594B98470790FA239B0022685A4318
S1130970914663689A46554DA847009001914B46AD
S11309805800A84702900391208EA847049005912F
S11309904F4F504A504B00980199B84702000B0042
S11309A004980599B8474D4E00224D4BB04704902A
S11309B005914846A84702000B0004980599B847DA
S11309C002000B00474D00980199A847029A039B27
S11309D0B0470022444BA847029A039B434DA847C3
S11309E0434B9847050080239B04A2689A421ED07B
S11309F003004020FF2D00D92DE700240020FF250F
S1130A001D40240625430004FF231B04184005430E
S1130A104346DD6000201EE700214046354B9847E1
S1130A204AE701214046334B9847070051E7FA262D
S1130A30B60053465E430098019902000B00274C10
S1130A40A047009001913000204B984700222A4B88
S1130A50B84702000B0000980199244CA0470022DB
S1130A60214B204CA047224B9847041E0CD0310048
S1130A700798224B98470238001B2B00FF2D0CD8F7
S1130A80FF28BCD94020E6E67100481E079B9C461F
S1130A9060441A4B98470138EFE74020DBE6C04634
S1130AA0F93C000000040040BD470000314700004D
S1130AB0353B0000DD0D0000353D000040530020B3
S1130AC0E54800000020004109480000A17500002D
S1130AD08969000095D626E80B2E113E015B0000C3
S1130AE000002440896E00000000F03F21610000F6
S1130AF0B5740000813B000000000840E14A00009A
S1130B0003681A7E920707D502221A765B8B9B072D
S1130B104120DB17184070475A8B520706D5596895
S1130B20C02292020A435A601820F4E70020F2E738
S1130B3030B50268002301240225117E21420BD125
S1130B40117E294206D101339BB201899942F4D81E
S1130B50122002E0002000E0002030BD10B504683F
S1130B6062688023DB02134363606162024B98472F
S1130B700123237610BDC046310B00000168072213
S1130B80CB691A42FCD1704770B50400066832681C
S1130B90458B838BED1AADB2838B013B9BB2838370
S1130BA013011DD5C37A002B03D0838B9BB2012B79
S1130BB010D0A38B9BB2002B02D1A37A002B1CD1A3
S1130BC02000124B9847236A5D192823F35CDBB29B
S1130BD02B7070BD72688023DB0213437360E8E7F7
S1130BE0C37A002BE5D0838B9BB2002BE1D17268D2
S1130BF08023DB0213437360DBE72000034B984739
S1130C007268C0239B0213437360D9E77D0B000015
S1130C1070B5040005686B8B5B0703D51E22252382
S1130C20C25470BD468B838BF61AB6B2838B013BDC
S1130C309BB28383044B9847236A9E193378DBB2B3
S1130C402822AB54EDE7C0467D0B000070B50500CB
S1130C500C0006684B7A002B1AD17368134A1340B0
S1130C60736063682B626388AB8300222423EA5495
S1130C7005320133EA54223BB375237A002B0BD19E
S1130C8023885B00627A920313437362002070BD71
S1130C90897A074B9847E0E723885B00627A9203DE
S1130CA013438022120213437362EFE7FFFFFBFF3B
S1130CB05D0B0000F8B505000C0006684B68036284
S1130CC04B88838301222423C25404320133C25447
S1130CD037683F01FF0F4B7A002B17D1002F02D04A
S1130CE06388012B16D07368204A13407360237AFB
S1130CF0002B15D10323B37523885B00627A92031A
S1130D0013430122134373620020F8BD897A184B00
S1130D109847E3E772688023DB0213437360E6E7D6
S1130D2023885B00627A92031343802212021343E6
S1130D30736228000F4B984773680C4A1340736022
S1130D400028E2D128000C4B98470028DDD103236A
S1130D50B37523881B0A782213435B00627A9203DB
S1130D6001210A4313437362CFE7C046FFFFFBFF31
S1130D705D0B0000310B0000010B0000931C9B0075
S1130D80C3185960037E012191400B43DBB2037603
S1130D907047000010B5838B9BB20522002B01D055
S1130DA0100010BD01338372C372024B98470200D6
S1130DB0F6E7C046B50C000010B5838B9BB2052244
S1130DC0002B01D0100010BD01338372C372024B9B
S1130DD098470200F6E7C0464D0C000070B580004D
S1130DE0754BC45825682B681B01DA0F637E267E79
S1130DF01E40638B9BB2002B03D1A38B9BB2002BB1
S1130E0023D1638B9BB2002B08D0A38B9BB2002B06
S1130E1004D12533E35C052B00D16DE0638B9BB2D9
S1130E20002B24D0A38B9BB2002B20D06B8B9B0672
S1130E3000D581E0002A04D0A38B9BB2012B00D102
S1130E407AE041222523E25411E02B7EDB0707D50B
S1130E5001232B766B8B9B072ED541222523E2544D
S1130E60A38B9BB263832523E35C052B38D0638B70
S1130E709BB2002B07D0A38B9BB2002B03D125334D
S1130E80E35C052B64D02523E35C052B13D02523D9
S1130E90E35C002B0FD003232B7500236383A38310
S1130EA02533E35C412B03D0A37A002B00D075E0FB
S1130EB0730700D57BE070BD6B8B5B07D0D5182220
S1130EC02523E2540023A383A37A002BC8D0200057
S1130ED03A4B98476A68C0239B0213436B60BFE791
S1130EE01F33E35C002B03D02000354B9847BEE74B
S1130EF02000344B9847BAE71F33E35C002B00D043
S1130F008CE703332B750023638325330022E254DB
S1130F10A37A002B07D101232B76F307A7D5E36827
S1130F2020009847A3E72000244B98476A68C02311
S1130F309B0213436B60F0E72423E35C002B03D193
S1130F402000204B984792E720001D4B98478EE7DE
S1130F501F33E35C012B96D12B7E9B0701D5022323
S1130F602B7603232B750023638325330022E2545D
S1130F70B30703D52423E35C012B0BD0F30700D480
S1130F8081E72423E35C002B00D07CE7E3682000A6
S1130F90984778E723692000984774E72000074BB7
S1130FA098476A68E023DB0213436B6080E7636958
S1130FB0200098477FE7C046405300207D0B000087
S1130FC0890B0000110C000082B000230193064B32
S1130FD01B68013301D072B6FEE772B6019B002B89
S1130FE0FCD002B07047C0460000002000000000A2
S1130FF00B4A13681868203080F30988022080F3B4
S11310001488BFF36F8F3FBCAE4608BC04BC62B605
S11310101847C046C046C046C046C046C046C04643
S11310206C51002010B5031F802464041C60043B31
S11310301960043B02491960143B1A60403810BD22
S1131040C90F000010B50F4B1968FF2212040A43A0
S11310501A601968FF2212060A431A600A4A00231A
S113106013600A490B600A480A49086007211160A5
S1131070094A1360094B9847094B9847094B98470D
S1131080002010BD20ED00E010E000E018E000E0DA
S11310907FBB000014E000E000000020F10F00001E
S11310A0F9320000C90F000080225205034B1A6078
S11310B0BFF34F8FBFF36F8F7047C04604ED00E05E
S11310C072B6044A136801331360BFF34F8FBFF342
S11310D06F8F704700000020064B1B68002B01D166
S11310E072B6FEE7013B034A1360002B00D162B6DF
S11310F07047C04600000020EFF3108072B67047BE
S113110080F310887047000010B5124B1A688242B1
S113111019D35C681919884203D1416809195960C7
S1131120180041684418A24211D10B4C2468A24211
S11311300BD05268521842601A68126802609842D2
S113114000D0186010BD1300E0E70260F7E702600A
S1131150F5E7C046C04E002090000020F8B504001A
S11311603E4B98473E4B1B68002B15D03D4B1F68E8
S11311703C4268D1002C69D0230008335A0702D0BE
S1131180072293430833002B5DD0374A1668B342D5
S113119059D8364A146825E0354A53071ED0D11D64
S11311A007239943334BD3185B1A0A002F48026074
S11311B000214160D318083B07208343284803607B
S11311C059601960991A516013602B4B1960264BB2
S11311D0196080221206234B1A60C7E7254BE5E706
S11311E022000C0061688B4202D921680029F7D1E2
S11311F01B4909688C4226D0156821681160626811
S1131200D21A102A08D9E018410701D072B6FEE7B5
S113121042606360194B98476268B61A12490E60BF
S1131220154909688E4201D213490E6008351743E7
S1131230676000232360124B9847002D08D06B078A
S113124009D072B6FEE70E4B984701E00C4B984765
S11312500C4B984700252800F8BDC046E92F000034
S113126090000020B44E0020B84E0020C04E002054
S113127094000020204E0000BC4E00200911000004
S11312803D310000C94A000010B5002820D00300F9
S1131290083B5B680F4A12681A4201D172B6FEE736
S11312A0010008390968002901D072B6FEE7083840
S11312B0040093434360084B9847084A63681168E5
S11312C08C46634413602000054B9847054B9847B0
S11312D010BDC046B44E0020E92F0000B84E0020D7
S11312E0091100003D31000010B50021104B984752
S11312F0002816D10F4B1A8892B20F490A809A8897
S113130092B20E490A80198989B20D4A11809989CD
S113131089B25180198A89B291801B8C9BB2094A87
S11313201380122203490848084B984710BDC04651
S1131330A9060000C84E00200E4F0020104F0020C8
S1131340144F00200C4F0020EC4E00205D060000DE
S113135010B58CB0224C032323716846214B984767
S113136002226B461A73C0235B016946CB810023BA
S1131370CB740121684601704380029303712B23CF
S1131380C25407320133C2546A4617492000174B2E
S113139098472268537E5BB2002BFBDB8021090453
S11313A0134B19600F2393751376137802210B43A3
S11313B013700B4B1A68537E5BB2002BFBDB084C9B
S11313C000220C4920000C4B9847E37E0122134372
S11313D0E376122209492000094B98470CB010BD4E
S11313E0EC4E002015010000004000425D010000A9
S11313F000E100E0E912000049060000C84E0020A8
S11314005D060000F8B5022825D84000134BC05AE9
S113141080B2134B98470022124B134CA047134C35
S1131420134A144BA047144A144BA047144DA84721
S1131430144EB0470022144B144FB8470022144BEB
S1131440A0470022134BA047A847B047124A134BAA
S1131450A047A847F8BD0020FCE7C046144F002071
S11314601D75000000FEAF40216100008969000085
S11314706666666666660A40ABAAAAAAAAAAFA3F84
S1131480B5760000117600000000E03F896E000090
S1131490000014400000D03FCFF753E3A593514020
S11314A0F0B5DE4657464E464546E0B58BB00024BF
S11314B0564E07ADE0B2B047A30058510134032C97
S11314C0F8D1534D0798A847524E534A534BB0474F
S11314D0534C00220023A047524FB847A84700901E
S11314E001910898A8474C4A4C4BB04702000B00A6
S11314F000980199A047009001910998A847464A8D
S1131500464BB0470290039100980199B847A84709
S113151002000B0002980399A047B84702900023E9
S113152000930026002407AF3F4B9B463F4B9A464F
S11315303F4B99463F4DB04602E00134032C11D095
S1131540A300D9590298D847D047C317C0185840A8
S1131550C847061C0099A8470028EED0E3B2984675
S11315600096EAE7464600230093002407AB059360
S1131570274D02E00134032C17D0A642FAD0A30071
S1131580059A9858A84700222B4B224FB84702903F
S113159003910098A84702000B0002980399204F7A
S11315A0B847204B98470090E4E743469B00009ED1
S11315B0311C07AA98581C4B98471C4B9847C317D3
S11315C0C01858401D4B984704000D00301C104BA8
S11315D098471B4A1B4B0F4FB84702000B002000D3
S11315E02900194CA04700280BD100210220174BD9
S11315F0984700980BB03CBC90469946A246AB462F
S1131600F0BD01210220114B9847F2E705140000B8
S11316101176000089690000BEA4315A4755D53FB0
S1131620015B0000B57600005D560000955900008E
S1131630D5590000C14C00000000E03F1D750000BA
S11316409A9999999999B93F4D4C000081160000D7
S113165010B5064B188880B2054B98470022054BFD
S1131660054CA047054B984710BDC046104F0020BD
S11316701D75000000FEAF4021610000B57600003A
S11316801F2807D8002906D106490B680122824089
S113169093430B607047034A1168012383400B4353
S11316A01360F7E71C4F002000231F2807D8054BC1
S11316B01B68012282401340581E8341DBB218008C
S11316C07047C0461C4F0020024B1868431E9841C7
S11316D0C0B270471C4F0020F0B585B005000F0064
S11316E000693E4B984702000B0000203C493D4CEA
S11316F0A0473D4B9847041CBB683A689446634432
S113170018003A4B9847011C201C394B984700900D
S11317100021384B9847002833D100210620364B4E
S1131720984768780A2831D82C4B9847334A344B69
S1131730344DA84702000B002A4D00203249A84727
S1131740294EB0470290314C0098A0470090019177
S11317500298A04700222C4B2D4CA04702000B00FE
S113176000980199A847B047061C011C0298294B10
S11317709847294CA0477860301CA047F86005B012
S1131780F0BD012106201C4B9847CAE7134B98472C
S11317901C4E1A4A1A4BB047029003911B4D0098F5
S11317A0A847009001910022174B02980399184C06
S11317B0A04702000B00009801990A4CA0470A4B6D
S11317C09847041CA847029A039BB047134B9847B9
S11317D0F860201C104B98477860D0E71D75000016
S11317E0004CED4021610000B5760000D5590000A1
S11317F05D560000994C0000811600009A99999951
S11318009999B93F896900000000F03F1176000002
S1131810015B00001D54000095590000B5740000E0
S1131820F0B5DE4657464E46C0B584B007000C00FE
S113183016007C4B984705007B4B1868401B2368B7
S11318409946984214D363684B44984200D286E088
S1131850A26893469A18904200D283E0E3689C46BB
S11318606244904200D2A0E0BB682361AD1814E04A
S1131870BB689A4623616D4B9847009048466C4B71
S11318809847011C00986B4B98476B4B9847FB6833
S1131890BA689B1A584350442061634B1D60236906
S11318A099466069181A624FB847041C634B19685B
S11318B0634B98476349644B9847644DA84700902D
S11318C00191634B9B461868A8478022D205614B5F
S11318D0614DA84702000B00009801995F4DA8478D
S11318E05F4B984700905A461060201C524B984713
S11318F0C317C0185840B84771695A4B9847002815
S113190056D0594F3968201C584B98473860B268F4
S113191037690292111C051C4B4B9847464B98475C
S1131920C317C0185840424B9847391C504B98472E
S1131930002840D00395281C3F4B9847C317C01874
S113194058403B4B9847011C3A4D0398A847391C13
S11319503D4B98470299A847434B18602BE0FB681E
S113196023619AE7FA6892462261C01A2F4B98477E
S113197000902F4B994658469847011C00982D4BD0
S113198098470090B868FB68C01AC847011C0098C3
S11319902D4B9847071C5046C847011C381C334B35
S11319A09847254B9847206177E7BB68236174E724
S11319B000222D4B1A6048461D4B9847224F316830
S11319C0B84702907168201CB847011C274D029843
S11319D0A8470290244B1968B068B847011C0298C4
S11319E0A8470290F1680098B847011C0298A847DC
S11319F0051CB769391C1E4B9847002800D03D1CB4
S1131A00F669291C301C1A4B9847002800D0351C55
S1131A100A4B1C60281C04B01CBC91469A46A34681
S1131A20F0BDC046F92F00002C4F0020755A00006D
S1131A30D55900003D50000095590000284F002062
S1131A405D5600003333333F1D540000117600000F
S1131A50204F00203333D33F89690000015B00002D
S1131A60B5760000994C0000244F0020194D000069
S1131A70C14C000010B5164B9978C9B21B780822E6
S1131A80312406E05B006340DBB2013AD2B2002AA3
S1131A9005D058B20028F5DB5B00DBB2F5E70C4A51
S1131AA0527853400822312406E05B006340DBB2E5
S1131AB0013AD2B2002A05D058B20028F5DB5B0007
S1131AC0DBB2F5E7994202D1014B5A781B7810BD7D
S1131AD0304F002010B5040001220449044B9847FC
S1131AE0637E02221343637610BDC046751A00005C
S1131AF07D0D000080221204014B9A617047C0469C
S1131B008044004170B505000B4940260E800B4B04
S1131B104B6003234B8000244C720C72084B984793
S1131B2008490E80084B4B6002234B804C720C72A8
S1131B302800064B984770BD344F0020304F0020DA
S1131B40950D0000404F002004000020B90D000056
S1131B50F8B5002804D00023012826D01800F8BDC9
S1131B60394A3A4B1100180070C870C130C830C1EE
S1131B7014321900283131C931C2100014C914C0FB
S1131B80334A19001431100070C970C030C930C014
S1131B9014323C3313CB13C2110005CB05C12A4BBD
S1131BA02B4A18002830202423E0274A294B11000F
S1131BB0180070C870C130C830C1143219002831FF
S1131BC031C931C2100014C914C0214A190014319A
S1131BD0100070C970C030C930C014323C3313CB0C
S1131BE013C2110005CB05C1D9E701330132834289
S1131BF008D01978062900D81C7011780629F4D861
S1131C001470F2E7144928260E80144B4B6003230A
S1131C104B8000244C720C72114D2800114FB847B0
S1131C2011490E80084B4B604E804C720C72280098
S1131C30B8470E490E80064B4B604E804C720C72B6
S1131C402800B8478AE7C046F04F002040500020E3
S1131C50185000204C4F0020B44F002008000020F2
S1131C60C84F0020B90D00009C500020A85000204F
S1131C7010B5421E0023312A01D9180010BD0A4BA9
S1131C80FE221A70AC3A5A70987008492A3A0A80AF
S1131C904B6003234B8000234B720B720448054BAB
S1131CA098470123E9E7C046C04F0020A84F002011
S1131CB0C84F0020B90D000010B5421E0023072AAA
S1131CC001D9180010BD0A4BFE221A70AB3A5A70A3
S1131CD0987008492B3A0A804B6003234B800023F9
S1131CE04B720B720448054B98470123E9E7C04641
S1131CF0C44F00209C4F0020C84F0020B90D0000A5
S1131D0030B58FB001AB334A0292002203921A73AA
S1131D101A7680218903059101214942D982998249
S1131D2025315A540B9208315A5401315A542E20F9
S1131D301A54D7321A860191C73A0892013209928D
S1131D40254D264C01AA26492800A0470028F9D190
S1131D50214B1C680722E3691A42FCD12368022242
S1131D60134323601C4D28681E4B98471F231840BB
S1131D701E3B83401C4A1360E88800231021628BB9
S1131D800A4204D101338342F9D3102363831749F0
S1131D9028230B80164B4B6002234B8000234B728D
S1131DA00B720D48134B98470220134B9847282079
S1131DB0124B9847124A134B13CB13C211001A68E3
S1131DC00A609A888A809B798B7100200E4B984711
S1131DD00FB030BD480D0000C84F002009080000B6
S1131DE0000C0042713D000000E100E09050002032
S1131DF00C000020B90D0000B91C0000711C00008B
S1131E004050002028820000511B0000F0B589B02A
S1131E1007000E0003A8294B9847294B190050319D
S1131E2020221A7001338B42FBD103AB1B78DB07F2
S1131E3028D5234A234B03CB03C2049B0193204C94
S1131E4020000A30204A0A21204DA847059B01930F
S1131E50200014301E4A1421A847069B0193200039
S1131E6028301C4A0D21A847079B200034301A4A09
S1131E700721A847022E13D0032E18D0012E08D014
S1131E8009B0F0BD0E4A154B03CB03C21B78137087
S1131E90D3E73A6912490A483C30124B9847EFE7B6
S1131EA0BA68114906483C300E4B9847E8E7FA688F
S1131EB00E4903483C300B4B9847E1E731210000C1
S1131EC04050002084820000988200007178000055
S1131ED0B0820000C4820000A48200008C82000052
S1131EE0A0820000D5780000AC820000C08200000F
S1131EF010B52D4B1900503120221A7001338B423A
S1131F00FBD1294A294B03CB03C20020284B984715
S1131F10002819D10220264B984700281BD1032002
S1131F20234B984700281ED10420214B98470028B2
S1131F3020D105201E4B9847002823D106201C4B96
S1131F409847002825D110BD05221A4916480A30A1
S1131F50194B9847DEE7144A1432184B03CB03C2DB
S1131F601B781370DBE7092215490F481E30124B0A
S1131F709847D9E70C4A2832124B03CB03C21B788B
S1131F801370D6E70A221049074832300A4B9847A3
S1131F90D4E705490A003C320C4B1868C863998899
S1131FA091809B799371CEE74C4F00203C820000D6
S1131FB0A9160000448200004D7800004C82000005
S1131FC05882000064820000708200007C8200005D
S1131FD00122014B9A617047004400410122014BE8
S1131FE05A6170470044004110B50549054B9847B4
S1131FF0054B984782B200210448054B984710BD11
S113200000C07F441D540000E94C0000B45000207F
S113201025070000F0B58BB02B48037801229343C9
S113202003701E2343700D328260C3600A3B036158
S113203003001433020032CA32C312CA12C3234942
S1132040FA239B000B608B60214B9847214B9847E8
S11320500990214B019300230293049303931F4A95
S113206006921F4A0592FE229205079208931D4F7D
S11320701D4E154C04E01D4B984700201C4B9847FF
S11320800A2109A8B847B047012201252840237D29
S11320909343034323752378934318432070154BCC
S11320A09847154B9847094B5861237D1D42E2D050
S11320B001AA06490448114B9847051C104B984740
S11320C0281C0B4B9847DBE7F4500020DC50002021
S11320D0D9160000F92F0000CDCCCC3D00002041E2
S11320E09A99993E3D320000D9210000DD1F00007D
S11320F0E91F0000A11400009559000021180000F8
S1132100D11F000010B582B00200054B019300916D
S1132110002304490448054CA04702B010BDC04642
S1132120D8500020D0820000152000008D2D000022
S113213030B5044903000A0032CA32C312CA12C3BA
S113214030BDC046F4500020034B02691A61826816
S11321509A60C268DA607047F4500020024A13782B
S113216001214B40137070470E00002010B50C4B3A
S11321701B78002B03D000200A4B98470EE00A4B33
S11321809847002803D10122054B1A70F3E7044B4A
S11321901B78002BEFD10120024B984710BDC0469D
S11321A00E000020511B0000C916000010B582B0BB
S11321B00200054B01930091002304490448054C97
S11321C0A04702B010BDC0461C510020D8820000B8
S11321D0F52100008D2D0000014B186AC00F7047D7
S11321E000440041024B186A4000C00F7047C046CB
S11321F000440041F0B585B04A4B98474A4B0093E0
S1132200002301221E214948494CA047041E08D03E
S1132210484B984702000023009301212000464CBC
S1132220A047464B009300230122FA21C9004448E9
S11322303F4CA047041E08D03E4B984702000023A1
S11322400093012120003C4CA0473A4B984703904F
S11322503C4F3D4E3D4D34E001223D4B1A703D4B09
S113226098473B4B1B78012B18D0002B20D0022B16
S113227042D0032B4BD00022354B1A7018E00222B7
S1132280334B1A70EBE70322314B1A70E7E73248FD
S1132290324B984700222E4B1A70E0E7391C304B22
S11322A09847311C2F4B98472F4B98472A4B18615E
S11322B02E4B1C70264B197827482D4B98472D4BD5
S11322C09847142103A82C4B98472C4B984704009B
S11322D0264B1B78002BC2D10028C0D01C4B1B7886
S11322E0012BCCD0002BB7D0022BCCD0032BCED0DB
S11322F00022174B1A70B2E7291C194B9847204942
S1132300184B9847184B9847134B9860D0E71D49D2
S1132310134B98471C49134B9847134B98470E4B44
S1132320D860C5E7011D00006D210000DC820000BB
S1132330ED360000F92F0000393700005D21000060
S1132340E8820000000058420000C04000008841BC
S1132350385100205116000024510020492100006A
S11323601D540000194D0000955900002051002013
S11323700D1E0000F11E00003D320000E5210000AA
S1132380000040400000C8410000204170B5FA251B
S1132390AD00024C2800A047FCE7C046B93200005B
S11323A010B582B00200054B01930091002304494B
S11323B00448054CA04702B010BDC0463C51002063
S11323C0F48200008D2300008D2D000030B58FB005
S11323D001AB642201922C4A0292002203921A73E6
S11323E01A7680218903059101214942D982998273
S11323F025315A540B9208315A5401315A5401313F
S11324005A54D7321A86C13A0892013209921F4DA2
S11324101F4C01AA1F492800A0470028F9D11B4BD3
S11324201C680723E2691342FCD123680222134388
S11324302360164D2868184B98471F2318401E3BED
S11324408340164A1360E9880023102202E0013316
S11324508B4203D2608B1042F9D001E010236383D6
S11324600F4B9847094C20000E4B98470E4B98474A
S11324700A200E4B984720000D4B9847FA25AD00D3
S11324800A4C2800A047FCE7480D000040510020FA
S11324900908000000140042713D000000E100E062
S11324A0F51A0000D51A000051130000B9320000DB
S11324B0051B000010B582B00200054B019300918A
S11324C0002304490448054CA04702B010BDC0468F
S11324D068510020FC820000CD2300008D2D0000F7
S11324E0030008334360012252428260C3600361E7
S11324F000230360704700230361704743684B6007
S11325009A688A609A685160996008610368013327
S11325100360704730B50C6802000832631C02D1B6
S1132520026904E01A0053681D68AC42FAD2536889
S11325304B6099608A6051600861036801330360ED
S113254030BD036942688168916082684168516066
S11325505A68904206D0002202611A68013A1A6051
S11325601868704782685A60F5E7000010B50400E7
S1132570034B9847A46B034B98476042604110BDDE
S1132580C1100000D910000070B504001600856B5E
S1132590026C002A0BD100202368834204D16068B6
S11325A0164B9847002363600135A56370BD002E68
S11325B00ED18068124B9847A368226C94466344FA
S11325C0A360002062689342EED32368A360EBE724
S11325D0C0680B4B9847236C5B42E268D218E260F8
S11325E021688A4203D2626894466344E36000200F
S11325F0022ED9D18542D7D0013DD5E76D350000F3
S11326004D78000070B582B001900A00846C002CF3
S113261005D0A16BE36B994203D372B6FEE772B6A1
S1132620FEE7A16B00268B4202D8300002B070BDD9
S11326304523E55C6DB201A920000A4B98470600CA
S11326406B1C0AD1636A002BEFD020002430064BA8
S113265098470028E9D00126E7E701356DB2452304
S1132660E554E2E7892500003134000010B50C0080
S1132670026C002A0BD0C3689B18C36041688B426C
S113268001D30368C360C1682000014B984710BDA3
S11326904D780000F8B50700254B98474523FC5CAE
S11326A064B2002C1CDD234E234D0BE07B6A002B0F
S11326B016D038002430A84700280ED1013C64B25B
S11326C0002C0DD0BB6C002BF0D000213800B0479B
S11326D00028F3D0194B9847F0E7184B9847EDE7DB
S11326E0FF224523FA54164B9847114B984744232D
S11326F0FC5C64B2002C14DD3B69002B11D03D005E
S113270010350D4E06E0013C64B2002C09D03B6943
S1132710002B06D02800B0470028F4D0074B984778
S1132720F1E7FF224423FA54054B9847F8BDC0460D
S1132730C1100000052600003134000041350000BE
S1132740D910000070B504000D00002821D0174BEB
S113275098472268216CE36B4B43D01860600020DB
S1132760A063A2605B1AD318E360FF234422A3543E
S11327700132A354002D11D12369002B05D0200070
S113278010300B4B9847002805D10A4B984701207D
S113279070BD72B6FEE7084B9847F6E7200010308C
S11327A0064DA84720002430A847EEE7C1100000DA
S11327B031340000D9100000A9100000E124000009
S11327C0F8B506000D001700002801D172B6FEE727
S11327D00800704354300B4B9847041E10D0002D52
S11327E003D003005433036000E02060E6632564F3
S11327F001212000044B98475023E7540023A3648D
S11328002000F8BD5D11000045270000F0B5CE465C
S1132810474680B585B004000F0001921D000028D2
S11328200CD000290CD0022D0FD04E4B9847002815
S113283010D1019B002B11D072B6FEE772B6FEE7F1
S1132840036C002BEFD072B6FEE7E36B012BECD0E8
S113285072B6FEE70026444B98464CE00026FAE7A1
S11328602A0039002000414B9847A36C002B0FD05D
S1132870290020003E4B9847002801D03D4B984743
S11328803D4B9847012005B00CBC90469946F0BDDD
S1132890636A002B08D020002430384B9847002866
S11328A0EED0344B9847EBE70028E9D0314B9847FA
S11328B0E6E7314B98470020E5E72F4B984701A9FD
S11328C002A82F4B9847002844D1274B9847A36B65
S11328D09946E66B284B9847B14535D12000103016
S11328E00199284B98472000274B9847274B984736
S11328F0002826D00126C047A36BE26B9342AFD3D6
S1132900022DADD0019B002BD3D0002E02D102A802
S11329101F4B9847184B98471E4B9847124B9847A4
S11329204423E35C5BB2013302D100224423E2542A
S11329304523E35C5BB20133BFD100224523E2545B
S1132940BBE70C4B9847D5E720000F4B98470F4B3C
S11329509847CFE720000C4B98470C4B9847002032
S113296091E7C0464D350000C110000089250000E4
S113297005260000A9100000D91000003134000021
S1132980D1340000CD330000952600003D31000015
S1132990B9340000E92F0000F0B583B004000191C0
S11329A016001D00002812D0019B002B11D0022D0F
S11329B014D0284B98470090A36BE26B9A422FD80F
S11329C000250098244B9847280003B0F0BD72B648
S11329D0FEE7036C002BEAD072B6FEE7E36B012B33
S11329E01AD072B6FEE7636A0125002BE9D02000F5
S11329F024301A4B98470028E3D0002E0AD0012334
S1132A003360DEE77B1C5BB24522A3540125D8E783
S1132A100125D6E70125D4E70E4B98470090A36B18
S1132A204523E75C7FB22A00019920000C4B9847AC
S1132A307B1CE7D1A36C002BD5D029002000094BC7
S1132A40984701250028BCD0002EE1D00123336033
S1132A50B7E7C046F910000001110000313400004E
S1132A608925000005260000F0B5C64600B584B0EF
S1132A7004000F00019200280AD000290AD0424B1A
S1132A80984700280BD1019B002B0CD072B6FEE7AF
S1132A9072B6FEE7036C002BF1D072B6FEE7002697
S1132AA03A4B98462FE00026FAE739002000384BCD
S1132AB09847013DA5632369002B07D020001030FF
S1132AC0344B9847002801D0334B9847334B9847F1
S1132AD0012004B004BC9046F0BD304B9847002060
S1132AE0F7E702A82E4B984716E000224423E2544D
S1132AF01DE000224523E2541EE02000294B9847A4
S1132B00294B98470126C047A56B002DCDD1019BC9
S1132B10002BE2D0002EE4D0204B9847234B98475B
S1132B201A4B98474423E35C5BB20133DDD0452361
S1132B30E35C5BB20133DCD0184B984701A902A8CF
S1132B401B4B9847002813D120001A4B98470028A4
S1132B50D3D0200024300199174B98472000114B03
S1132B609847114B98470028CCD10B4B9847C9E79D
S1132B7020000C4B98470C4B984720000D4B98476E
S1132B800028BFD00020A4E74D350000C11000008C
S1132B906D26000031340000A9100000D910000097
S1132BA0B9340000952600003D310000E92F0000F3
S1132BB0D13400006D250000CD33000010B50A4B60
S1132BC01B68002B09D00123074CDA00A258002A05
S1132BD004D00133082BF8D110BD0023024ADB00D6
S1132BE09950D3185860F7E7FC52002070B50400E0
S1132BF00D001600114B98474423E35C5BB201338C
S1132C000DD04523E35C5BB201330CD00C4B9847E9
S1132C10A36B002B0BD020000A4B984770BD0022F9
S1132C204423E254EDE700224523E254EEE720007A
S1132C30243032002900044B9847ECE7C11000000F
S1132C40D910000095260000F9330000084B1B68DA
S1132C501B68002B07D0064B1B68DB68DB685A68CF
S1132C60044B1A60704701225242024B1A60F9E782
S1132C70705100202052002070B504000D00174B45
S1132C801E68174B18680430164B9847631C13D002
S1132C903419134B1B685C60A64216D8124B186893
S1132CA00F4B19680431114B9847114B1B689C4218
S1132CB012D20F4B1C600FE0002DE9D0084B1968AD
S1132CC004310C480C4B984706E00C4B1868044B35
S1132CD019680431054B984770BDC04668520020FE
S1132CE06C51002043250000705100201525000080
S1132CF02052002040520020FD2400007451002086
S1132D00F0B5D6464F464646C0B5164B9946164BC7
S1132D109846164F01E0164B98474B461B68002B0C
S1132D2018D0144B9A46C047FB68DD68281DD0476D
S1132D30114A1368013B13600A4C2368013B23606A
S1132D400E4B9847286B0E4EB0472800B0472368B7
S1132D50002BE8D10B4B1B68012BDCD90A4B98479D
S1132D60D9E7C046E0510020C110000054520020B1
S1132D70CD4A000043250000DC510020D91000009A
S1132D808912000078510020A9100000F0B5C64651
S1132D9000B584B001900D000293970038005F4B9A
S1132DA09847061E00D189E058205C4B9847041EC2
S1132DB000D180E006633A00A5213000584B9847C3
S1132DC03A1F236B9C46624407239A4390462A7811
S1132DD02D33E2542B78002B0DD0013523003533ED
S1132DE020003E302A781A702A78002A03D0013550
S1132DF001338342F6D100223D23E2540A9F042F7B
S1132E0000D90427E762A7640026E664231D039320
S1132E101800444DA84720001830A8472461052312
S1132E20DB1BA361646226655423E654029A01996C
S1132E3040463D4B984720600B9B002B00D01C6004
S1132E403A4B98473A4A136801331360394B1B686D
S1132E50002B36D0384B1B68002B07D1354B1B6831
S1132E60DB6AE26A934201D8324B1C60334A13682E
S1132E70013313602364E36A314A1268934201D92F
S1132E802F4A13609800C01880002E4B181803991D
S1132E902D4B98472D4B9847274B1B680120002B3F
S1132EA005D0244B1B68DA6AE36A9A4231D304B032
S1132EB004BC9046F0BD3000254B984701204042A9
S1132EC0F5E71C4B1C601368012BCFD11D4F380054
S1132ED0204EB04738001430B04738002830B0478F
S1132EE038003C30B04738005030B0471A4B984651
S1132EF01800B047194F3800B0471948B04719486F
S1132F00B0471948B047194B42461A60184B1F6026
S1132F10ACE7184B98470120C9E7C0465D11000093
S1132F205F780000F724000025100000C1100000A5
S1132F30DC5100206C5100203C520020EC51002058
S1132F40F051002078510020FD240000D910000029
S1132F5089120000E1240000F451002008520020EE
S1132F60285200205452002040520020705100206A
S1132F7074510020A910000010B582B0114B0193C8
S1132F8000230093822210491048114CA0470128C5
S1132F9003D0431C13D002B010BD0E4B9847012838
S1132FA0F7D172B6012252420B4B1A6002320B4B1C
S1132FB01A6000220A4B1A600A4B9847EBE772B674
S1132FC0FEE7C0461C52002004830000012D0000CF
S1132FD08D2D0000A1360000205200203C5200201C
S1132FE06852002045100000024A13680133136040
S1132FF07047C046E8510020014B18687047C0462E
S113300068520020F0B583B03D4B1B68002B00D004
S11330106DE03C4B1D6801351D60002D12D13A4B0B
S11330201B681B68002B01D072B6FEE7364A116894
S1133030364B186810601960354A13680133136001
S1133040344B9847344B1B6800249D4233D30024EF
S11330502D4F3B681B68002B29D02B4B1B68DB686A
S1133060DE6873689D423FD3331D019318002B4BD8
S11330709847B36A002B03D030001830274B984789
S1133080F36A274A1268934201D9254A13609800CB
S1133090C0188000234B18180199234B9847234BE1
S11330A01B68F26ADB6A9A42D3D30124D1E7012276
S11330B05242194B1A601D4B1B68DA6A93009B1825
S11330C09B00184A9B58012B00D90124184B1B68FC
S11330D0002B01D1174B9847174B1B68002B00D0CE
S11330E00124200003B0F0BD0B4A1360E3E7104A4B
S11330F01368013313600F4B98470024ECE7C04674
S1133100E8510020685200207051002074510020C2
S1133110245200204D2C00002052002043250000A2
S1133120F051002078510020FD2400006C51002053
S1133130E4510020D94A00006C520020F8B5304B0D
S11331401B68002B01D172B6FEE72E4B98472C4B1F
S11331501A68013A1A601B680024002B03D12A4B19
S11331601B68002B03D1294B98472000F8BD284D3C
S11331702F002B68002B22D0FB68DC68200018305D
S1133180244B9847261D3000224B9847E36A224A75
S11331901268934201D9204A13609800C018800035
S11331A01E4B181831001E4B98471E4B1B68DB6AD8
S11331B0E26A9A42DDD301221B4B1A60D9E7002C44
S11331C001D01A4B98471A4B1C68002C0ED0194F8B
S11331D0154E012502E0013C002C04D0B84700281C
S11331E0F9D03560F7E70022114B1A600E4B1B68CB
S11331F00024002BB7D0104B98470134B3E7C046E6
S1133200E8510020C1100000DC510020D91000005A
S11332102852002043250000F0510020785100205E
S1133220FD2400006C5100206C5200204D2C000045
S1133230E451002005300000A910000070B505001D
S11332400C00002803D0002903D172B6FEE772B641
S1133250FEE7134B1B68002B01D072B6FEE7114B3F
S11332609847114B1B682A68A01893420FD28242D8
S113327011D92860834203D2C01A00210B4B98470E
S11332800B4B9847002801D10A4B984770BD8242E6
S113329003D8834201D32860F2E72860ECE7C046F4
S11332A0E8510020E92F000068520020792C00002A
S11332B03D310000A910000010B5041E0FD0094BC9
S11332C01B68002B01D072B6FEE7074B984700211C
S11332D02000064B9847064B9847002801D1054B20
S11332E0984710BDE8510020E92F0000792C000018
S11332F03D310000A910000010B52D4B1B68002BB8
S113330028D100222B4B1A602B4B1B681B6B2B4ABA
S11333101968914202D1596891421FD0264B18680E
S113332019683431264B9847264B1B689A00D218EB
S1133330920025495258002A17D1002B08D0013B8E
S11333409A00D21892005258002A0ED1002BF6D1BE
S113335072B6FEE70122174B1A6010BD99689142BC
S1133360DCD1DB689342D9D1DEE717489A00D11843
S1133370890041184C6864684C60D2189200083285
S1133380821894420BD09A00D21892000E498A18DF
S11333905268D168084A11600A4A1360DDE7606820
S11333A09A00D218920008498A185060EBE7C04688
S11333B0E85100206C5200206C510020A5A5A5A561
S11333C0DB4A0000F05100207851002010B50C00B9
S11333D0002801D172B6FEE7044B19681831044B7A
S11333E0984701212000034B984710BD6C510020E1
S11333F015250000792C000070B50C00150000287C
S11334000DD0084B19681831074B9847002D01D08F
S11334100124644229002000044B984770BD72B611
S1133420FEE7C0466C510020FD240000792C00000A
S113343070B5C368DC68002C27D025001835280037
S1133440154B9847154B1B68002B20D1251D2800D0
S1133450114B9847E36A124A1268934201D9104A01
S113346013609800C01880000E4B181829000E4BEA
S113347098470E4B1B68E26ADB6A00209A4203D924
S113348001220B4B1A60013070BD72B6FEE72900B1
S11334900848054B9847ECE743250000E851002015
S11334A0F051002078510020FD2400006C510020D0
S11334B06C52002028520020034B1B680360034B0E
S11334C01B6843607047C0462452002068520020A5
S11334D070B506000D0000281BD000291BD0134B2B
S11334E09847134B1A6871682B68581C1CD01148F4
S11334F000683468844202D001248A4205D2521AF8
S11335009A420AD300232B6001240B4B98472000D6
S113351070BD72B6FEE772B6FEE79B1A2B603000F0
S1133520064B98470024F0E70024EEE7C1100000A2
S11335306852002024520020D9100000B934000041
S11335400122014B1A6070476C520020054B1B6826
S11335500120002B04D0044B18684342584140001A
S11335607047C0463C520020E851002070B5041E4C
S11335702CD0184B1B68984201D072B6FEE7C36C7E
S1133580002B01D172B6FEE7013BC364C26A816CB1
S11335908A421DD00020002B17D1251D28000E4B78
S11335A09847A36CE3620522D21AA2610B4A1268FF
S11335B0934201D9094A13609A00D3189B00084822
S11335C0C0182900074B9847012070BD0020FCE774
S11335D00020FAE76C51002043250000F051002040
S11335E078510020FD24000010B541600061914233
S11335F00BD8D21A012483699A4211D2011D094BB6
S11336001868094B984700240AE09A4202D2012420
S1133610994205D2011D054B1868034B98470024B5
S1133620200010BD745200201525000070520020A7
S113363070B5104B9847104B1B68002B02D00F4BF2
S1133640984770BD0E4D28000E4EB0470E4C20001A
S1133650B0470E4B1D600E4B1C600022102105204C
S11336600C4B9847044B18600028E8D00A490B4BD0
S11336709847E4E7C1100000A4520020D9100000CC
S113368078520020E12400008C5200207052002067
S113369074520020C127000034830000BD2B0000B9
S11336A010B582B00B4B98470B4B1B68002B0ED008
S11336B00A4B0193042300930023822252000849F9
S11336C00848094CA047002801D002B010BD72B6CA
S11336D0FEE7C04631360000A4520020A852002064
S11336E03C8300005D3800008D2D0000F0B5C64617
S11336F000B580460D0017001E002C200B4B984788
S1133700041E0FD0002D01D172B6FEE7084B984776
S113371043462360A561E7612662069B6362201D20
S1133720044B9847200004BC9046F0BD5D11000096
S113373031360000F724000030B585B004001D00C8
S1133740002814D0134B1868002821D0009101924E
S11337500294052915DC104B9847022809D00D4B1B
S113376018680023002269460C4CA0470EE072B68C
S1133770FEE7084B18680023089A6946074CA047DF
S113378004E000232A006946054CA04705B030BD7B
S11337900020FBE7A45200204D3500000D28000056
S11337A099290000F0B5D6464F464646C0B582B0CA
S11337B08046234B98478246224B1B68984217D376
S11337C00023424613601F4B52461A60504602B013
S11337D01CBC90469946A246F0BD002300933A00D3
S11337E000212000184CA047002804D172B6FEE73F
S11337F0164D174B99462B681A68002A17D0DB68B8
S11338001F68DC68261D3000C8472000636A98479B
S1133810E369012BEFD1A369FB189F42DDD26360FA
S113382024610A4B186831000A4B9847E3E70A4AB7
S11338300649106808601360012342461360C2E71A
S1133840F92F0000A05200203937000070520020E8
S1133850432500001525000074520020F0B58DB0FA
S1133860594F5A4B1B681A68002A0ED0DB681C6833
S1133870574B984708A8574B98470500089B002BBF
S113388046D1A0421DD200220FE0514B984708A810
S1133890504B98470500089B002B39D14E4B1B68B1
S11338A01B685A425A41D2B20024611B4B4B186820
S11338B04B4B98474B4B9847002826D0474D4A4CD2
S11338C036E0484B9847414B1B68DB68DE68301D87
S11338D03D4B9847F369012B03D0736A3000984736
S11338E0ECE7B369E11823002A0030003F4DA847F4
S11338F00028F2D0002300932200002130003C4C29
S1133900A0470028E9D172B6FEE73A4B9847D5E7BD
S1133910344B9847D2E70B9B03930A9B0493099B70
S11339200593039904989847089B0393002B09DA9D
S1133930002208A92868A047002892D0089B039376
S1133940002BE8DB0A9E7369002B01D0301DB847B9
S113395007A8204B9847089B092BE9D89B00264AC7
S1133960D3589F46099BB269944663441900099B46
S1133970020030001D4CA0470028A0D03000736A1C
S11339809847F369012B9AD1099BB1698C4663442A
S11339901A000023009300213000154CA047002892
S11339A08DD172B6FEE70999B161002906D041189C
S11339B00300020030000D4CA04780E772B6FEE71A
S11339C030000E4B98477AE74325000070520020E0
S11339D0E92F0000A537000074520020A4520020F3
S11339E0ED2B00003D310000692A0000E93500009C
S11339F039370000A91000000C8300008912000070
S1133A0010B582B00400394A936910210B439361C5
S1133A10374B1B785BB21020002B03DBE3780730B5
S1133A20002B01D102B010BD22799A42FAD86279F2
S1133A309A42F7D82E4A13780E398B431370D379F0
S1133A405BB2002BFBDB63780020002BEAD001A9DA
S1133A50A3780B700330274B98470320264B9847D5
S1133A602378002B27D1E378013B2279002A26D042
S1133A701F490A78042002430A702279013A8240DD
S1133A8013431B49CA7952B2002AFBDBDBB2184A42
S1133A9053706379002B18D12378002B1FD0144A5C
S1133AA0137880210B431370114AD3795BB2002B36
S1133AB0FBDB0020B6E70320104B9847D3E70C4903
S1133AC00A78042082430A70DBE71100CA7952B2F3
S1133AD0002AFBDB013BDBB2054A9370DCE7044AB6
S1133AE0137802210B431370DEE7C0460004004044
S1133AF000100040BD47000031470000D9470000D6
S1133B00A522044B1A721A00D3795BB2002BFBDB9B
S1133B107047C0460010004010B50122034B9A7153
S1133B20034B1B68002B00D0984710BD00100040C9
S1133B303C53002010B582B004000E4B1B78002BC0
S1133B4007D0002905D10B4B5B78834210D01D2090
S1133B500CE001A90C701320074B98471320074B66
S1133B609847044B5C7001221A70002002B010BD0B
S1133B700020FBE7AC520020BD47000031470000A5
S1133B80404B984231D00AD93F4B98424DD03F4BDD
S1133B9098425AD03E4B984237D0002070473D4B54
S1133BA098420CD03C4B9842F7D1012917D00029F8
S1133BB05DD0022915D0032915D00020EEE7012994
S1133BC007D0002951D0022905D0032905D00020AF
S1133BD0E4E73248E2E73248E0E73248DEE73248D9
S1133BE0DCE73248DAE73248D8E7012907D0002970
S1133BF03FD0022905D0032905D00020CEE72D4867
S1133C00CCE72D48CAE72D48C8E7012907D0002989
S1133C1031D0022905D0032905D00020BEE7284869
S1133C20BCE72848BAE72848B8E7012907D00029A3
S1133C3023D0022905D0032905D00020AEE723486C
S1133C40ACE72348AAE72348A8E7012907D00029BD
S1133C5015D0022905D0032905D000209EE71E486F
S1133C609CE71E489AE71E4898E71E4896E70320FB
S1133C7094E71D4892E71D4890E71D488EE71D48CC
S1133C808CE7C0460010004200180042001C0042AD
S1133C900014004200080042000C0042030005002A
S1133CA003000600030007000300010003001E00D8
S1133CB003001F000300090003000A0003000B00B7
S1133CC003001100030012000300130003000D00A1
S1133CD003000E0003000F00030017000300180088
S1133CE0030019000300040003000800030010008F
S1133CF003000C000300160030B587B00B4B6A4676
S1133D0032CB32C232CB32C2009B83420BD001236E
S1133D109A0069465258824206D00133062BF7D1E5
S1133D20002007B030BD0023D8B2FAE74483000076
S1133D3070470000F0B50A4B1B78002B0CD1094FDB
S1133D40094E0A4D0024DE515A1914600433182B0D
S1133D50F9D10122024B1A708000024BC150F0BD10
S1133D60AE520020B0520020313D000040530020EC
S1133D7000B583B009236A461370013353700133CD
S1133D8093700133D3700133137101335371034BB7
S1133D9098476B46185603B000BDC046F93C000076
S1133DA010B5024B1B680020984710BDB05200208C
S1133DB010B5024B5B680120984710BDB05200203B
S1133DC010B5024B9B680220984710BDB0520020EA
S1133DD010B5024BDB680320984710BDB052002099
S1133DE010B5024B1B690420984710BDB052002047
S1133DF010B5024B5B690520984710BDB0520020F6
S1133E007047000030B5CB4B01229A604025595DC4
S1133E10022002242143C9B259555A6158604121F4
S1133E205A5C2243D2B25A54C34A9A62C34A9A622F
S1133E305861C34A9A62C34A9A6200230124023039
S1133E4001250133202B0AD022009A401042F8D0D9
S1133E50BD4A99180A782A43D2B20A70F1E7BB4BDB
S1133E60BB4A9A62B74A9A62002301248020400028
S1133E7001250133202B0AD022009A400242F8D0B7
S1133E80B44A99180A782A43D2B20A70F1E7AF4BC0
S1133E90B14A9A62AB4A9A620023012480208000CE
S1133EA001250133202B0AD022009A400242F8D087
S1133EB0A84A99180A782A43D2B20A70F1E79D4BAE
S1133EC08022D2055A605E20195C02252943C9B2BA
S1133ED01954A2489862A24999625A61802109063C
S1133EE059605F241A5D2A43D2B21A5598629D4ADA
S1133EF09A6259619C4A9A62924A9A6200235E3C91
S1133F00102001250133202B0AD022009A401042B0
S1133F10F8D08D4A99180A782A43D2B20A70F1E788
S1133F20844B924A9A62874A9A6200230124202091
S1133F3001250133202B0AD022009A401042F8D0E8
S1133F40814A99180A782A43D2B20A70F1E7794B68
S1133F50874A9A627B4A9A62002301244020012501
S1133F600133202B0AD022009A401042F8D0764A1E
S1133F7099180A782A43D2B20A70F1E7734B802168
S1133F800904996077201A5C022422431A54596167
S1133F90684B784A9A62784A9A620023013C8020EE
S1133FA0C00301250133202B0AD022009A4002428B
S1133FB0F8D0654A99180A782A43D2B20A70F1E710
S1133FC05C4B6C4A9A626D4A9A62002301248020F9
S1133FD0000401250133202B0AD022009A4002421A
S1133FE0F8D0594A99180A782A43D2B20A70F1E7EC
S1133FF0564B534A9A62534A9A620023012404207E
S113400001250133202B0AD022009A401042F8D017
S1134010504A99180A782A43D2B20A70F1E7454BFC
S11340208021090599605B201A5C022422431A54FA
S11340305961504A9A62524A9A620023013C802094
S1134040400201250133202B0AD022009A4002426B
S1134050F8D03D4A99180A782A43D2B20A70F1E797
S1134060344B444A9A62474A9A62002301248020CE
S1134070800201250133202B0AD022009A400242FB
S1134080F8D0314A99180A782A43D2B20A70F1E773
S1134090284B8021090199604B201A5C0224224399
S11340A01A549961384A9A62384A9A620023013C48
S11340B0B630FF3001250133202B0AD022009A406C
S11340C00242F8D0204A99180A782A43D2B20A70D8
S11340D0F1E7184B2E4A9A622C4A9A620023012473
S11340E08020C00001250133202B0AD022009A40F1
S11340F00242F8D0144A99180A782A43D2B20A70B4
S1134100F1E70C4B234A9A62204A9A620023012465
S113411080204000012505E00B4A99180A782A43BB
S1134120D2B20A700133202B36D022009A400242C8
S1134130F2D1F7E70044004102000650000006D027
S113414004000251000002D1404400418044004177
S113415000010251C0440041000202510000065017
S1134160004006D0008006D0100002512000025109
S11341704000025100000252400002D2800002D2EC
S1134180010002D2020002D200020252000002D256
S1134190000402520001025211498022D2038A60B3
S11341A076240B5D02200343DBB20B554A610D4BB1
S11341B0802292039A60213C195D0143C9B21955CA
S11341C05A6180214905596007341A5D0243D2B20D
S11341D01A55054A9A62054A9A62596130BDC04629
S11341E0804400410044004100000650001006D005
S11341F00C4B1B68002B06D1EFF31083002B07D068
S11342000022094B1A70074A136801331360704780
S113421072B6BFF35F8F0022044B1A700132024B57
S11342201A70F0E7C8520020CC5200200F00002082
S1134230084B1A68013A1A601B68002B09D1064B17
S11342401B78002B05D00122044B1A70BFF35F8F3B
S113425062B67047C8520020CC5200200F000020E4
S113426010B5082803D880001C4B1B589F4600201B
S113427032E01B4B18692FE01A4B1B6A9B059B0FFE
S11342801948D84028E0164B586925E0144B1B68A0
S113429000209B0720D513491022CB681A42FCD07A
S11342A00F4B1A6824231340042B01D00F4813E04A
S11342B000200F4B98470A4B9B681B041B0C584368
S11342C00AE05023074AD35C00205B0704D5044B63
S11342D0D86801E08020000210BDC0465C83000065
S11342E0D05200200008004000127A00006CDC026A
S11342F00948000070B50C490B6A04788578407849
S11343000122104080014026B34303432A40D201D6
S113431080208343134303222240120203480340B4
S113432013430B6270BDC04600080040FFFCFFFF52
S113433010B5037A9B061B0C42899205920D134318
S113434018494B608379C279134342888488224395
S113435013434278D20113430B600378042B11D02A
S1134360202B0ED1037B9B06028A1343C2891204BD
S11343700D490A4013430B4A936011680B4B0B43DE
S1134380136010BD037B9B06028A1343C289120487
S113439005490A401343034A9360136804210B43FD
S11343A01360EEE7D05200200000FF032404000055
S11343B0082803D88000254B1B589F46172044E04B
S11343C0234A136A02210B43136200203DE0204A72
S11343D0936902210B439361002036E01C4A138A3F
S11343E002210B43138200202FE0194A938A0221F1
S11343F00B439382002028E016490B6802221343E2
S11344000B60134B9A8419000E32CB681A42FCD00D
S1134410104A91680E4BD96252689A6200229A84BB
S113442019001032CB681A42FCD00A4B1B689BB2AD
S1134430074A9384002008E0054944228B5C02204B
S113444003438B54002000E0002070478083000069
S113445000080040D0520020F0B5CE46474680B553
S11344608BB0C222D2003C4B9A603C4A53681E2156
S11344708B435360022201AB1A700024384DE0B222
S113448001A9A8470134252CF9D105AB00211970E5
S11344900022598099809A71DA71063119825A7012
S11344A0304B1B689B0E3F2B54D005A8037280230E
S11344B09B004381FA3BFF3B03733833C3812A4B90
S11344C0984704A800254570012787700570274B7D
S11344D098470620264EB047264B984701AC0297D2
S11344E065700623994623702572657221000120A8
S11344F0214B984698470120204FB84765704B469A
S1134500237025726572FF23636021000420C04775
S11345100420B8470720B0470F491022CB681A423D
S1134520FCD0174A0023137253729372D37201A9F9
S113453001224A604B700B724B7207330B700020E0
S11345400D4B984700200D4B98470BB00CBC904680
S11345509946F0BD203BA8E7000800400040004118
S1134560BD4700002460800031430000F542000094
S1134570B143000085450000A945000061460000E4
S113458000040040064A936908210B439361012209
S1134590044B1A7019000B781342FCD17047C046C3
S11345A000040040000C004070B5060004000D78C3
S11345B02D0205434B78002B02D08023DB021D43E0
S11345C04B7A002B02D080231B031D43486801282B
S11345D010D9431E184234D1022830D902230022B4
S11345E001325B009842FBD812023243140080234C
S11345F05B031D430B7A002B02D080239B031D43D6
S1134600134A53785BB2002BFBDB124B9847124BD7
S11346101E700F4A53785BB2002BFBDB0C4B9C6083
S11346201A0053785BB2002BFBDB094A53688021E4
S113463049020B401D435560084B984770BD00224A
S1134640D2E70402344380239B021D43D2E7C046D1
S1134650000C0040F1410000080C00403142000011
S113466010B504000B4A53785BB2002BFBDB0A4BFA
S113467098470A4B1C70074A53785BB2002BFBDB4C
S1134680044A516880235B020B435360044B9847F0
S113469010BDC046000C0040F1410000040C004075
S11346A03142000070B504001A4A53785BB2002B03
S11346B0FBDB194B9847194B1C70164A53785BB2B5
S11346C0002BFBDB134E7068C004C00E144B9847DC
S11346D00500124B1C707668F602F60F114B1C7025
S11346E00C4A53785BB2002BFBDB0A4B9C68240218
S11346F0240C0D4B9847002E07D1012C07D921001B
S113470028000A4B9847050001E00134E5402800E1
S113471070BDC046000C0040F1410000040C004094
S113472061420000080C004031420000E14A0000F0
S113473010B50400064B9847064B1C70064A538874
S11347408021C9010B435380044B984710BDC046D8
S1134750F1410000020C0040000C00403142000016
S113476010B504000F4B98470F4B1C700F4A538829
S11347701B05180F53880E490B40538053880D496D
S11347800B40538011008022D2014B881342FCD18C
S113479006494A8803020648024013434B80064BED
S11347A0984710BDF1410000020C0040000C00408D
S11347B0FFF0FFFFFFBFFFFF3142000010B50C7890
S11347C024020443024B9847A4B2024B5C8010BD00
S11347D061470000000C004010B50400064B9847E8
S11347E0064B1C70064A5388C02109020B435380B0
S11347F0044B984710BDC046F1410000020C004034
S1134800000C00403142000010B50400064B9847EC
S1134810064B1C70064B5C882405240F054B9847F7
S11348202000054B984710BDF1410000020C0040E8
S1134830000C004031420000A546000030B5D3789A
S1134840002B35D11378802B29D01B0680246402D9
S1134850234354780225AC4306D19478002C20D10C
S11348608024A402234341605478013C012C1CD9C8
S11348700D042D0CA024E4052C431C4384620D0C70
S1134880D02424062C431C438462D478002C22D1E7
S11348905B031CD59378012B1ED0416117E00023E4
S11348A0D7E7C024E4022343DDE70D4C2340DFE7D0
S11348B041600C04240CA023DB05234383620C0C0D
S11348C0D0231B0623438362D378002B03D1537870
S11348D0013B012B02D930BD8161F8E78160FAE721
S11348E0FFFFFBFF10B50A00C1090023002904D112
S11348F04309DB0105498C4663441F242040012100
S113490081401800024B984710BDC0460044004146
S11349103D4800007047000010B5054B9847054B13
S11349209847054B9847054B9847054B984710BD4A
S113493059440000053E00001549000015490000D7
S113494015490000FEE70000F8B52A4A2A4B9A42AE
S113495011D01A00294B9A420DD2294A03339B1ACB
S11349609B0801339B000022234822498C58845021
S113497004329A42FAD1234A234B9A420AD2D343AD
S113498021495B1803218B4304339B18002102C285
S11349909342FCD11D4AFF211D4B8B439360FD398B
S11349A090235B001B4AD1501B4AD3780325AB43A9
S11349B002242343D370D3780C27BB430826334304
S11349C0D370164B987B3022904320221043987367
S11349D0997BB943314399739A7BAA4322439A73CF
S11349E00F4A536880210B4353600E4B98470E4B7C
S11349F09847FEE73885000000000020740000207E
S1134A0004000020740000205C53002000ED00E04E
S1134A1000000000007000410050004100480041C7
S1134A200040004105780000514A00000300064A96
S1134A301268002A04D0044A1068C318136070472F
S1134A400249014A1160F6E7E85200206073002031
S1134A5010B582B0144B9847144B984701236A460B
S1134A605370042269468A700832CA7000220A719F
S1134A704A710B7068460E4B984703218020400012
S1134A800C4B98478024A400022120000A4B98472D
S1134A9002212000094B984701212000084B984728
S1134AA0084B9847FEE7C04619490000013E000044
S1134AB0013A0000A123000005210000B5240000F4
S1134AC0AD210000792F000072B6FEE710B5014B4E
S1134AD0984710BD013B0000704772B6FEE7FEE741
S1134AE0002243088B4274D303098B425FD3030A29
S1134AF08B4244D3030B8B4228D3030C8B420DD33C
S1134B00FF22090212BA030C8B4202D312120902C9
S1134B1065D0030B8B4219D300E0090AC30B8B4207
S1134B2001D3CB03C01A5241830B8B4201D38B03B5
S1134B30C01A5241430B8B4201D34B03C01A52415A
S1134B40030B8B4201D30B03C01A5241C30A8B429D
S1134B5001D3CB02C01A5241830A8B4201D38B0288
S1134B60C01A5241430A8B4201D34B02C01A52412C
S1134B70030A8B4201D30B02C01A5241CDD2C3099E
S1134B808B4201D3CB01C01A524183098B4201D31A
S1134B908B01C01A524143098B4201D34B01C01A05
S1134BA0524103098B4201D30B01C01A5241C3087D
S1134BB08B4201D3CB00C01A524183088B4201D3EC
S1134BC08B00C01A524143088B4201D34B00C01AD8
S1134BD05241411A00D20146524110467047FFE744
S1134BE001B5002000F006F802BDC0460029F7D048
S1134BF076E770477047C0468446101C62468C4670
S1134C00191C634600E0C0461FB501F05BFE002896
S1134C1001D40021C8421FBD10B501F0B5FD4042CA
S1134C20013010BD10B501F04DFE002801DB00205D
S1134C3010BD012010BDC04610B501F043FE002890
S1134C4001DD002010BD012010BDC04610B501F0EB
S1134C50D5FD002801DC002010BD012010BDC04698
S1134C6010B501F0CBFD002801DA002010BD0120B1
S1134C7010BDC0468446081C6146FFE71FB500F01E
S1134C808BFB002801D40021C8421FBD10B500F0E1
S1134C901DFB4042013010BD10B500F07DFB002823
S1134CA001DB002010BD012010BDC04610B500F08E
S1134CB073FB002801DD002010BD012010BDC0469B
S1134CC010B500F029FB002801DC002010BD0120F4
S1134CD010BDC04610B500F01FFB002801DA00200B
S1134CE010BD012010BDC0469E2110B5C905041C8D
S1134CF0FFF7F0FF002803D1201C00F04BFE10BD8D
S1134D009E21201CC90500F0A9FC00F043FE80236D
S1134D101B069C466044F2E7F0B5C6464E024702C5
S1134D20760A7B0A4400C50FF7004800984600B590
S1134D30240E2A00DB00000EC90FBC468D4267D04A
S1134D40221A002A00DCA5E000283AD1002F00D165
S1134D5093E0511E002900D0BCE00124DB1B5A0162
S1134D6046D59B019E09300002F02EFD0538864091
S1134D70844200DD9DE0041B320020200134E24027
S1134D80041BA64033005E1EB341002413435A079C
S1134D9004D00F221A40042A00D004335A0129D522
S1134DA00134FF2C00D181E02A009B015B0AE4B2AC
S1134DB05B02E405580AD2072043104304BC904622
S1134DC0F0BDFF2CE3D080213800C9040843844699
S1134DD01B2A00DD82E020206146D140821A604611
S1134DE090400200501E82410A439B1A5A01B8D4D3
S1134DF05A07CED1DE082A00FF2C3AD1002E00D16A
S1134E00AEE08023DB0333435B025B0AFF24CFE77E
S1134E10211A002952DD002831D0FF2CB7D0802080
S1134E203E00C0040643B4461B2900DDAAE0202648
S1134E306046C840711A66468E4031004E1EB1412C
S1134E4001435B185901D3D50134FF2C00D187E00D
S1134E50012278491A405B080B40134397E7002C62
S1134E6000D0A7E0002B00D0B6E03B1E62D10026A4
S1134E70002273025B0AE4B29AE7140087E7002F6A
S1134E804DD0481E002857D1634401245A01AFD5A0
S1134E900224DDE7002A24D1621CD2B2012ADEDD1D
S1134EA0DE1B720135D5FE1A0D005CE72A000023D3
S1134EB07EE73300604A241A134068E7002963D16F
S1134EC0611CC8B201284EDDFF2949D063445B0848
S1134ED00C005CE7FF2A41D00A0079E701229B1A03
S1134EE084E7002C1DD0FF2822D08024E404524201
S1134EF023431B2A00DD8AE01C002025D440AA1A83
S1134F0093405A1E9341234362460400D31A0D0072
S1134F1025E7002E00D026E700220024A9E70C0094
S1134F2035E7002B4DD0D243002AEDD0FF28E0D145
S1134F306346FF240D002AE7FF290FD0010073E721
S1134F40002B61D0FF24002F00D120E780224146AE
S1134F50D203114202D0164200D13B00FF2416E7CF
S1134F60FF24002324E7002CEAD1002B58D0002F83
S1134F7000D10CE763445A0100D439E72E4A0C00EF
S1134F80134004E701215CE7002C1ED1002B40D024
S1134F90C94300290BD0FF2836D01B2947DC1C004D
S1134FA02026CC40711A8B40591E8B412343634405
S1134FB0040047E7002B18D13B1E2DD00D00FF2421
S1134FC0E5E63B0004000D00E1E6FF281CD0802448
S1134FD0E40449422343E0E7002F00D1D7E6DE1B77
S1134FE072011FD5FB1A0D00D1E6FF24002F00D15A
S1134FF0CDE680224046D2031042AFD01642ADD156
S11350003B000D00FF24C2E66346FF24BFE60123F4
S11350107AE73B000400BAE680260022F603F0E6B5
S11350203B00B4E6331E00D0E2E6002221E7012370
S1135030BDE7C046FFFFFF7DFFFFFFFBF0B557460E
S11350404E46DE464546E0B544024300C60F83B0F3
S11350500F1C640A1B0EB24653D0FF2B27D08022AC
S1135060E400D20414437F22524290469844002321
S113507099469B467D027800FB0F6D0A000E009353
S113508024D0FF2846D080230021ED00DB041D43FB
S11350907F384746381A4F460F43BF00B94633009E
S11350A0009A874F53404A46BA5801939746002CBA
S11350B04ED108239946F7339846FD3B9B467D0223
S11350C07800FB0F6D0A000E0093DAD1002D26D173
S11350D0002001213300009A7A4F53404246101AAF
S11350E04A460A439200BA581D009746009B2C007A
S11350F09A468B465B46022B31D15346FF2100244E
S113510038E0002C17D10423994600239846013334
S11351109B46AFE7FF20002D0BD10221DAE72800E0
S113512002F052FB431F9D4076235B42181A002174
S1135130AFE70321ADE7200002F046FB431F9C408C
S113514076235B421B1A9846002399469B4691E7B7
S11351500C239946F3339846FC3B9B468AE7032B82
S113516000D1A5E05546012B00D081E001230021A8
S113517000242B406402C905600ADB070843184376
S113518003B03CBC90469946A246AB46F0BD802491
S11351900023E403FF21EDE7FF210024EAE70123D4
S11351A0591A1B2966DD019A134000210024E1E706
S11351B08023DB031C4238D01D4251D01C436402BF
S11351C0640A3300FF21D5E763016C01A3423BD29B
S11351D01B260021013801251F0049005B00002F18
S11351E001DB9C4201D81B1B2943013E002EF3D155
S11351F01C00631E9C410C4301007F310029CEDD5D
S1135200630704D00F232340042B00D0043423016C
S113521003D501002C4B80311C40FE290DDD0123F8
S1135220019AFF2113400024A4E78023DB031C43DD
S11352306402640A3300FF219CE70123019AA4015C
S1135240640AC9B2134095E71B1B1A260121C2E761
S1135250009B8B469A4600244CE76302E5D5002563
S11352608024E4032C436402640A009BFF2181E749
S11352700195C1E723002020CB40411A8C40611ED8
S11352808C411C43630704D00F232340042B00D01C
S11352900434630105D50123019A0121134000243C
S11352A068E70123019AA401640A1340002161E71D
S11352B08023DB031C436402640A5346FF2159E73D
S11352C0A4830000E4830000FFFFFFF770B54200F1
S11352D045024E024C00C30F6D0A120E760A240ECC
S11352E0C90F0120FF2A06D0FF2C03D0A24201D10E
S11352F0B54206D070BD002DFCD1FF2CFAD1002E92
S1135300F8D18B4206D00120002AF3D12800451E93
S1135310A841EFE70020EDE7F0B5420045024C025A
S1135320C30F48006D0A120E640A000EC90FFF2A4B
S11353301ED0FF2821D0002A0AD16E426E41F6B257
S113534000280FD1002C0DD10020002D09D005E03C
S1135350002801D1002C01D08B4211D001215842E8
S11353600843F0BD002EF7D0012001390843F8E7C7
S1135370002DDED002204042F3E7002CDBD0F9E719
S11353808242EBDC04DBA542E8D80020A542E8D247
S11353900121581E0843E4E7F0B542004D024C00D9
S11353A04602760A120EC30F6D0A240EC90FFF2A95
S11353B016D0FF2C18D0002A0AD170427041C0B216
S11353C0002C15D0002805D0012001390843F0BD78
S11353D0002C13D0994214D001205B421843F6E705
S11353E00220002EF3D1E4E70220002DEFD1E2E702
S11353F0002DE7D10020002EE9D0EDE7002DE9D102
S1135400EAE7A24206DCDFDBAE4203D80020AE426C
S1135410DAD3DCE7012049420843D8E7F8B5574618
S11354204E464546DE46E0B54702460088467F0ABA
S1135430360EC40F002E47D0FF2E24D0FB00802749
S1135440FF041F43002399469A467F3E43465D026C
S11354505800DB0F6D0A000E984643D0FF283BD05E
S1135460EB0080250022ED041D437F383618731CA1
S113547041469B464B46614013430F2B64D8754805
S11354809B00C3589F46002F42D108239946063BF0
S1135490FF269A46DAE74146022A28D0032A00D199
S11354A0CEE0012A00D0ACE0114000200022CCB2B2
S11354B04002D205400AE407104320433CBC904616
S11354C09946A246AB46F8BD002F15D10423994650
S11354D0033B00269A46B9E7FF200222002DC5D0DF
S11354E00322C3E7002D19D100200122BEE70124C5
S11354F0FF220C400020DBE7380002F065F9762635
S1135500431F9F4000237642361A99469A469DE7E8
S11355100C239946093BFF269A4697E7280002F098
S113552053F9431F9D4076235B42181A00229DE7DE
S113553080200024C003FF22BAE73D005246ABE7B7
S11355403D0021005246A7E73B0C9C462A04120C5E
S11355502B0C1400604665463F043F0C7C434243D9
S11355605D437B43270C9B18FF18BA4203D9802361
S11355705B029C46654424043A04240C12199301EA
S11355805C1EA3413F0C920E7D191A43AD011543D5
S11355902B0104D501235E466A081D4015433200E1
S11355A07F32002A25DD6B0704D00F232B40042B08
S11355B000D004352B0103D53200274B80321D4027
S11355C0FE2A94DC0124A801400AD2B20C406FE701
S11355D08020C003074207D0054205D1284340027A
S11355E0400A4446FF2263E738434002400AFF2250
S11355F05EE70124A31A1B2B05DD0C4000220020CA
S113560056E75E46CBE72A002020DA40C31A9D40C5
S11356102B005D1EAB4113435A0704D00F221A40DE
S1135620042A00D004335A0104D5012401220C4079
S113563000203DE701249B01580A0C40002237E773
S113564080200124C00328434002400A0C40FF226A
S11356502EE7C04624840000FFFFFFF7F0B54F4655
S1135660D64646464400C0B5C20F47024802400A27
S1135670844666467B0A4800C90F9A46240E1500E4
S1135680DB00000E8946F600FF2800D18FE00121DF
S11356904F464F403900914266D0221A002A00DC5E
S11356A09DE000283DD1002E00D18BE0511E002941
S11356B000D0B5E001249B1B5A0144D59B019F09EE
S11356C0380002F081F805388740844200DD96E016
S11356D0041B3A0020200134E240041BA7403B0095
S11356E05F1EBB41002413435A0704D00F221A4003
S11356F0042A00D004335A0127D50134FF2C00D1E9
S113570079E001229B015B0AE4B22A405B02E405D2
S1135710580AD207204310431CBC90469946A2461F
S1135720F0BDFF2CE0D08021C9040E431B2A7BDC92
S113573031002020D140821A9640721E96410E43B9
S11357409B1B5A01BAD45A07D0D10122DF082A4040
S1135750FF2C33D1002F00D1A8E08023DB033B438F
S11357605B025B0AFF24D1E7211A00294CDD0028E3
S11357702AD0FF2CB8D08020C00406431B2900DDAA
S1135780AFE030002027C840791A8E40711E8E4148
S113579006439B195901D6D50134FF2C00D185E06D
S11357A001227A491A405B080B4013439CE7002E00
S11357B000D070E76BE73B1EC5D100227B025B0A79
S11357C0E4B2A3E714008FE7002E4DD0481E002852
S11357D057D19B1901245A01B5D50224E0E7002AC8
S11357E025D1621CD2B2012A72DD9F1B7A0135D504
S11357F0F71A0D0064E7012200232A4086E73B00E4
S1135800634A241A13406FE700296CD1611CC8B2A3
S113581001284EDDFF2949D09B195B080C0063E782
S1135820FF2A41D00A0081E701269B1B89E7002C4F
S11358301CD0FF2821D08024E404524223431B2A95
S113584000DD96E01C002025D440AA1A93405A1E7D
S113585093412343F31A04000D002DE7002F00D0D9
S11358602EE700220024A9E70C003DE7002B58D0C6
S1135870D243002AEED0FF28E1D13300FF240D00EB
S113588032E7FF2910D0010078E7002B6ED0FF2407
S1135890002E00D128E780225146D203114203D0C2
S11358A06146114200D13300FF241DE7FF24002389
S11358B02CE7002CE9D1002B63D0002E00D113E794
S11358C09B195A0100D43EE7314A0C0013400BE700
S11358D0002C1ED1002B2FD1002E4FD033000D00F1
S11358E002E7012655E7002C1FD1002B43D0C94302
S11358F000290BD0FF2839D01B2944DC1C002027A9
S1135900CC40791A8B40591E8B4123439B190400C8
S113591040E7002B1AD1002E24D180270022FF0358
S11359201BE7330004000D00DEE6FF281ED08024B0
S1135930E40449422343DFE7002E00D1D4E69F1B51
S11359407A0100D437E7F31A0D00CDE6FF24002EC8
S113595000D1C9E680225046D2031042A4D060464A
S11359601042A1D133000D00FF24BDE63300FF2413
S1135970BAE601236EE733000400B5E600270022EF
S11359801CE73300B0E60123C0E7C046FFFFFF7DFC
S1135990FFFFFFFB41024300C20F490A1B0E002018
S11359A07E2B0DDD9D2B0CDC802000040143952B08
S11359B00ADC9620C31AD9404842002A00D10800C4
S11359C07047034BD018FBE7963B9940F4E7C04679
S11359D0FFFFFF7F70B5002830D0C317C4185C40A8
S11359E0C50F200001F0F0FE9E231B1A962B0DDC40
S11359F09622D21A94402A006402640ADBB264023A
S1135A00DB05600AD2071843104370BD992B19DCDB
S1135A109922D21A002A29DD94402200144C144001
S1135A20510704D00F210A40042A00D00434620133
S1135A3013D4A401640ADBB22A00E0E700220023A5
S1135A400024DCE705222100121AD140B922D21A1F
S1135A509440621E94410C43DAE7054B2A001C4033
S1135A609F23A4011B1A640ADBB2C8E72200D5E70E
S1135A70FFFFFFFB10B5041E27D001F0A5FE9E23F7
S1135A801B1A962B0ADC9622D21A94406402640AEA
S1135A90DBB26402DB05600A184310BD992B17DCE6
S1135AA09922D21A002A27DD94402200134C144074
S1135AB0510704D00F210A40042A00D004346201A3
S1135AC012D4A401640ADBB2E3E700230024E0E774
S1135AD0B9222100D21A91400A00511E8A4105219F
S1135AE0091ACC401443DBE7044B1C409F23A40158
S1135AF01B1A640ADBB2CCE72200D7E7FFFFFFFBE7
S1135B00F8B54546DE4657464E460C03E0B54E0012
S1135B10C90F88460D00610A440F0C43C7001903DE
S1135B205800DB0F9B464B0A510F0B43760D400D7B
S1135B301900D200D84500D1AEE0351A002D00DCA2
S1135B40F6E000280FD1134300D1DBE06B1E002BDD
S1135B5000D037E1BA1A9742BF41641A7F42E41B6E
S1135B600126170024E0C64B9E424DD080231B041F
S1135B701943382D00DD07E11F2D00DD38E1202019
S1135B80431B9A460B0050468340994613004846EF
S1135B90EB401843030050468240501E8241E940C6
S1135BA01A43BA1A611A9742A441170064420C1BA3
S1135BB0230262D56402650A002D00D1DFE02800CB
S1135BC001F002FE0300083B1F2B00DDD2E020227F
S1135BD03C00D21A9D40D4409F4025439E4200DDA4
S1135BE0C4E09E1B731C1F2B00DDF1E02022380053
S1135BF02900D21AD840914097402C000143781EC6
S1135C008741DC4000260F437B0709D00F233B402C
S1135C10042B05D03B1DBB42BF417F42E4191F004A
S1135C2023022CD5964B01369E4200D19AE045467C
S1135C30944BFF081C406007760564020743240B5D
S1135C40760D00212403230B0C0D8F4A24051C43DD
S1135C501440330523435B00ED075B082B433800F6
S1135C6019003CBC90469946A246AB46F8BD644632
S1135C70044300D111E2040067467B07C6D14546C0
S1135C806007FF080743E4087D4B9E4230D024039D
S1135C907605240B760DD4E7331A9A46002B78DD6B
S1135CA0002831D076488642AED0802000040143DB
S1135CB05346382B00DCE9E00A43511E8A41002197
S1135CC0D219BA42BF4109197C4217000C192302A8
S1135CD0D3D56B4B01369E4200D13AE10120694B8A
S1135CE01C407B0807401F43E007074364088BE719
