S00B00004C43562E7372656334
S214000000B06000208DF800004DFC000047FC0000AA
S21400001000000000000000000000000000000000DB
S214000020000000000000000000000000FD7100005D
S214000030000000000000000031730000797300002B
S21400004085F9000085F9000025D0000085F900003C
S214000050C52A000085F9000085F90000C56D00007E
S21400006085F900003DE1000055E100006DE100006B
S21400007085E100009DE10000B5E1000085F9000083
S21400008085F9000085F9000085F9000085F9000073
S21400009085F900000000000000000000FD230000BD
S2140000A085F90000E529000085F9000085F90000C3
S2140000B00000000010B5064C2378002B07D1054B36
S2140000C0002B02D0044800E000BF0123237010BDBF
S2140000D03802002000000000E43B0100084B10B589
S2140000E0002B03D00749084800E000BF0748036814
S2140000F0002B00D110BD064B002BFBD09847F9E72C
S214000100000000003C020020E43B0100E43B01004C
S2140001100000000080B582B000AFEFF310837B6074
S2140001207B685A425341DBB23B6072B6BFF35F8FC7
S214000130034B00221A703B681800BD4602B080BD13
S214000140D201002080B582B000AF78607B685A1E6E
S2140001509341DBB21800BD4602B080BD80B582B0C8
S21400016000AF78607B681800064B9847031E05D0E2
S214000170054B01221A70BFF35F8F62B6C046BD46BC
S21400018002B080BD45010000D201002090B583B0CA
S21400019000AFBB1D00221A70564B00221A70BB1D02
S2140001A01A78554B52000021D152BB1D1A7853497C
S2140001B013009B009B185B00A1225A54BB1D1A78A3
S2140001C04E4913009B009B185B00CB18013320227E
S2140001D01A70BB1D1A78494913009B009B185B00D8
S2140001E0CB18023300221A80BB1D1B78002B03D1CC
S2140001F0FB1D00221A7003E0FB1D00221A70C04689
S214000200BB1D1A78FB1D1B7898B23C4913009B0057
S2140002109B185B00CB180433021C1A80BB1D1A788F
S214000220364913009B009B185B00CB18063302224E
S2140002301A80BB1D1A78314913009B009B185B007F
S214000240CB18083300221A80BB1D19782C4A0B00E5
S214000250DB005B1A995C002001409954D11848785D
S21400026000242040041C3E20404220434870D11801
S214000270887800242040041C012020438870D3186E
S214000280DA7800210A40DA70BB1D1A781C49130080
S214000290DB009B1ACB18043300221A70BB1D1A7899
S2140002A017491300DB009B1ACB18053300221A707F
S2140002B0BB1D1A7812491300DB009B1ACB180633B5
S2140002C008221A700F4B984703001A000123534068
S2140002D0DBB2002B01D0002307E0064B1B78DBB215
S2140002E00133DAB2034B1A7001231800BD4603B07F
S2140002F090BDC0466A0200205C020020600200201A
S21400030054020020A997000080B582B000AFFB1D04
S21400031000221A70354B00221A70FB1D1B78344AD7
S2140003200021D154FB1D1B78324A0021D154FB1DFD
S2140003301B78314A0021D154FB1D1A782F4B9200AE
S2140003400021D152FB1D1B782C4A9B00D318023388
S21400035000221A80FB1D1A78294B52000021D15228
S214000360FB1D1B781800274B9847FB1D1B78264A59
S2140003700021D154FB1D1B78244A0021D154FB1DBB
S2140003801A78234B92000021D152FB1D1B78204A7D
S2140003909B00D318023300221A80FB1D1A781D4BCF
S2140003A052000021D152FB1D1B7818001A4B9847AB
S2140003B003001A0001235340DBB2002B01D00023B8
S2140003C00FE00A4B1B78DBB20133DAB2074B1A7028
S2140003D0064B1B78DBB2012B02D1104B01221A70A0
S2140003E001231800BD4602B080BDC0466B02002047
S2140003F08C0700209007002084070020800700203C
S2140004008807002085080000FC040020F404002073
S214000410F0040020F8040020C90500006C0200204B
S21400042080B500AF044B1B78DBB2013BDAB2024B5F
S2140004301A70C046BD4680BD6A02002080B582B0F4
S21400044000AF0A4B1B78DBB2013BDAB2074B1A70DF
S214000450FB1D064A12781A70054B9847054B00227A
S2140004601A70C046BD4602B080BDC0466B02002072
S214000470C19700006C02002090B583B000AFFC1D51
S2140004802C4B9847030023702B4B1B785BB2002B3A
S2140004901EDA294B1B781A0060231340202B17D135
S2140004A0254B5B78212B13D1234BDB88072B01D000
S2140004B000233AE0FB1D1A781300DB009B1A1F4A44
S2140004C09A181D4B9A601C4B07229A8101232CE038
S2140004D0194B1B785BB2002B26DB174B1B781A00D8
S2140004E060231340202B1FD1134B5B78202B02D0A8
S2140004F0222B17D018E0104BDB88072B01D00023E7
S21400050013E00D4B0E4A1A61FB1D1A781300DB0030
S2140005109B1A0A4A9A18084B9A60074B07229A8138
S214000520012302E0012300E000231800BD4603B0CB
S21400053090BDC04679050000F03E00205402002021
S214000540AD05000080B500AF00231800BD4680BD95
S21400055080B500AF00231800BD4680BD80B500AF53
S214000560034B1B781800034B9847C046BD4680BD1A
S214000570910700208508000080B582B000AF0A4BC6
S2140005809B881A00FF23134003D1FB1D00221A701C
S21400059003E0FB1D00221A70C046FB1D1B781800E6
S2140005A0BD4602B080BDC046F03E002090B583B088
S2140005B000AFFC1D034B984703002370C046BD46A2
S2140005C003B090BD7905000090B589B002AF020077
S2140005D0FB1D1A70FB1D00221A703C4B9847030047
S2140005E03B61FB1D1A780F23FB1839498A5C1A7089
S2140005F0FB1D1B78374AD35CDBB2002B12D1FB1DE8
S2140006001A78354B5200D35A9AB2FB1D18780F232E
S214000610FB181978314B400041184900CB5A9BB261
S2140006209A4205D23B6918002D4B9847002349E0B3
S214000630FB1D1A78284B52000021D152FB1D1B7857
S2140006400F22BA18127851424A41D2B21100204AFB
S214000650D154FB1D1B781F4A0121D1543B69180059
S2140006601F4B9847FB1D1B7818001E4B9847FB1D19
S2140006701B78002B04D11723FB1802221A7004E003
S2140006801723FB1802221A70C046FB1D19780F2389
S214000690FB181B781A009200D21893011A000B0060
S2140006A09B005B18DB01D2180F4BD218A023590011
S2140006B01723FB1818780D4B00930B0001210C4CE8
S2140006C0A04703001800BD4607B090BD1501000006
S2140006D0F4040020FC040020F8040020F0040020AD
S2140006E05D010000390B000070020020F5060000D6
S2140006F0D146000090B587B002AF39601100FB1DEF
S214000700021C1A70BB1D0A1C1A70BB1D1B78022B1C
S21400071004D10F23FB1800221A7004E00F23FB18E5
S21400072000221A70C046FB1D1B78002B46D10F23F3
S214000730FB181B78234AD35CDBB25A425341DAB229
S2140007400E23FB181A703B68002B1CD10F23FB18D6
S21400075019780E23FB181B781A009200D218930102
S2140007601A000B009B005B18DB01D218164BD21840
S214000770A0235900BB1D1878144B00930B000121D1
S214000780134CA0471BE00F23FB1819780E23FB1809
S2140007901A783B6898B20F4B49008A185200011C21
S2140007A0D1520F23FB181B780B4A0021D1540F237C
S2140007B0FB181B781800094B984700E0C046BD465A
S2140007C005B090BDF404002070020020F50600007D
S2140007D0D1460000F0040020FC040020C9050000FB
S2140007E080B584B000AF39601100FB1D021C1A7082
S2140007F0BB1D0A1C1A70BB1D1B78812B04D10F234E
S214000800FB1800221A7004E00F23FB1800221A704F
S214000810C046FB1D1B78002B25D10F23FB181A782A
S2140008200F23FB181B781249CB5CDBB259424B41B5
S214000830DBB219000F4B5200521852000021D15261
S2140008400F23FB181B780C4A0021D1540F23FB18EA
S2140008501B780A4A0021D1540F23FB181B78180076
S214000860074B984700E0C046BD4604B080BDC04672
S2140008708407002080070020900700208C070020B7
S2140008808508000090B589B002AF0200FB1D1A7003
S214000890FB1D00221A70FB1D1B787A4AD35CDBB264
S2140008A0002B00D0E7E0784B9847031E0AD0FB1DCC
S2140008B01A78764B5200D45A754B984703009C42E0
S2140008C00BD1DBE0FB1D1A78704B5200D45A714BEB
S2140008D0984703009C4200D1CFE06F4B9847030037
S2140008E03B61FB1D1A781723FB186C498A5C1A704B
S2140008F0FB1D19781723FB181A78694B49008A18CC
S2140009005200D35A002B20D1664B1B8801339AB273
S214000910644B1A805C4B984703001A00012353402F
S214000920DBB2002B03D05F4B1B88632B08D9564BDA
S2140009309847031E09D05B4B1B885B4A934204D83A
S2140009403B691800594B984798E0564B00221A808E
S214000950FB1D1B78564AD35CDBB201225340DBB248
S214000960002B0BD0FB1D1B781722BA1812785142A9
S2140009704A41D2B21100494AD15408E01723FB1865
S2140009801B785A425341DAB21723FB181A70FB1D24
S2140009901B783C4A0121D1543B691800434B9847C9
S2140009A0FB1D19781723FB181A783D4B49008A1847
S2140009B05200D25A0F23FB18413AFF3A511E8A4181
S2140009C01A700F23FB181B78002B17D02E4B984756
S2140009D0031E09D0FB1D1C782D4B984703001900F9
S2140009E02A4B6200D1520FE0FB1D1C78294B98471A
S2140009F003001900254B6200D15205E0FB1D1A7852
S214000A00224B52000021D152FB1D1B78002B04D133
S214000A101623FB1881221A7004E01623FB18812285
S214000A201A70C046FB1D19781723FB181B781A008E
S214000A309200D21893011A000B009B005B18DB0192
S214000A40D2181C4BD418FB1D19781723FB181A78DC
S214000A50134B49008A185200D35A1A000F23FB186A
S214000A6019781623FB181878134B009313002200EE
S214000A70124CA04702E0C04600E0C046BD4607B0A4
S214000A8090BDC0468C070020294300008807002040
S214000A905143000035430000150100008407002084
S214000AA080070020920700201F0300005D01000061
S214000AB09007002000050020E1070000D146000056
S214000AC080B586B000AF0200FB1D1A70FB1D002229
S214000AD01A70144B984703007B61FB1D197812238C
S214000AE0FB18114A49008A5A1A80FB1D1A78FB1D0A
S214000AF01B780E49CB5CDBB219000D4B5200521826
S214000B005200D35A9BB21A001223FB181B88D31A22
S214000B10FB607B691800074B9847FB681800BD46CA
S214000B2006B080BD15010000F8040020F404002083
S214000B30F00400205D01000080B582B000AF020026
S214000B40FB1D1A70FB1D1B781800054B9847030009
S214000B505A1E9341DBB21800BD4602B080BDC046A7
S214000B60C10A000080B586B000AF0200FB1D1A70F7
S214000B70FB1D00221A70274B984703003B61FB1DA4
S214000B801A780F23FB1824498A5C1A70FB1D197803
S214000B900F23FB181A78214B49008A185200D35AA3
S214000BA07B617A69A0235B009A4225D1FB1D1B78E6
S214000BB01B4AD35CDBB201225340DBB2002B1BD0B6
S214000BC0FB1D1B78174AD35CDBB201225340DBB215
S214000BD0002B11D0FB1D1B78124A0121D154FB1D9E
S214000BE01B780F22BA18127851424A41D2B211002D
S214000BF0094AD15400237B617B69A0225200D31A94
S214000C00BB603B691800084B9847BB681800BD4698
S214000C1006B080BD15010000840700208007002074
S214000C208C070020900700205D01000080B582B090
S214000C3000AF0200FB1D1A70FB1D1B781800054B49
S214000C40984703005A1E9341DBB21800BD4602B017
S214000C5080BDC046650B000080B500AF0020034B8A
S214000C60984703001800BD4680BDC0462D0C000006
S214000C70F0B587B000AF02003960FB1D1A70FB1D8F
S214000C8000221A70FB1D1A7839491300DB009B1AE4
S214000C90CB1806331A781723FB18093A51424A41F3
S214000CA01A70FB1D1B781800324B984703001A0079
S214000CB001235340DBB2002B10D02F4B1B78DBB246
S214000CC001225340DBB2002B01D000234BE0172358
S214000CD0FB181722BA1812781A70E2E7274B9847C3
S214000CE003003B61FB1D1A780F23FB1824498A5C1E
S214000CF01A70FB1D19780F23FB181878FB1D1A783D
S214000D000F23FB181B781F4C5500ED186D002C5B4D
S214000D10651CAEB21B4D5200D3185B00321C5A53F2
S214000D2025003B68DEB2184C0200920012189301B0
S214000D301A000B009B005B18DB01D318E318321C6B
S214000D405A553B691800114B98471723FB181B7818
S214000D50002B07D01723FB1800221A703B681B12C3
S214000D603B609EE701231800BD4607B0F0BDC046B5
S214000D70540200202D0C00006C020020150100001B
S214000D808407002080070020000500205D01000089
S214000D9080B582B000AF78607B6819000020034BF6
S214000DA0984703001800BD4602B080BD710C0000D5
S214000DB080B500AF074B1B681A68064B1B681B689C
S214000DC09978DB781B020B439BB2D3181800BD46FC
S214000DD080BDC046A007002080B584B000AF786014
S214000DE00A00FB1C1A70144B98470300FB607B68D4
S214000DF01B781A007B689B187B6011E07B685B7829
S214000E00042B12D07B685B78FA1C12789A4201D1C8
S214000E107B680CE07B681B781A007B689B187B60FD
S214000E20FA687B689A42E9D800E0C04600231800BA
S214000E30BD4604B080BDC046B10D000080B584B08C
S214000E4000AF0200FB1D1A70BB1D0A1C1A70204B57
S214000E501B78002B01D1002336E01E4B1B681B6855
S214000E601B79FA1D12789A4201D300232CE0194B05
S214000E701B681A68184B1A60184B98470300FB60EB
S214000E801CE0154B1B685B78042B0FD1124B1B68BC
S214000E909B78FA1D12789A4208D10F4B1B68DB78B4
S214000EA0BA1D12789A4201D101230DE00A4B1A6846
S214000EB0094B1B681B78D218074B1A60064B1B6839
S214000EC0FA689A42DDD800231800BD4604B080BDFB
S214000ED09C070020A0070020A4070020B10D0000FA
S214000EE080B584B000AF0200FB1D1A70FB1D1B7896
S214000EF000211800214B984703001A000123534095
S214000F00DBB2002B01D0002334E01D4B1B685A686F
S214000F10FB1D1B789B00D3181B68BB60BB68DB6897
S214000F20984703001A00FB1D1B7811001800134B8E
S214000F30984703001A0001235340DBB2002B01D070
S214000F40002317E00F4B1B68FB60FB6805211800A9
S214000F500D4B98470300FB60FB68002B05D0FB6831
S214000F609B781800094B9847EFE7C046BB685B685C
S214000F70984701231800BD4604B080BD3D0E000012
S214000F80A0070020A4070020D90D00006D43000034
S214000F9080B584B000AF0200FB1D1A70BB1D0A1C92
S214000FA01A70BB1D1A78FB1D1B78110018001F4B0A
S214000FB0984703001A0001235340DBB2002B01D0F0
S214000FC000232EE01A4B1B68FB60FB680521180007
S214000FD0184B98470300FB60FB68002B15D0FB6896
S214000FE09878FB68D978FB681A795B791B021343FB
S214000FF09BB21A00104B984703001A000123534077
S214001000DBB2002BE1D000230BE0C0460B4B1B6885
S2140010105A68FB1D1B789B00D3181B681B689847F3
S21400102003001800BD4604B080BDC0463D0E00005B
S214001030A4070020D90D0000F9430000A0070020F7
S21400104080B500AF024B9847C046BD4680BDC0463F
S214001050CD51000080B582B000AF124B1B78002B3C
S21400106015D0FB1D00221A7009E0FB1D1B78180026
S2140010700D4B9847FB1D1A78FB1D01321A700B4B5F
S2140010801B681B681B79FA1D12789A42EDD3054B34
S21400109000221A70064B01221A80C046BD4602B0D6
S2140010A080BDC0469C070020E10E0000A00700207F
S2140010B09407002080B582B000AF174B1B78002B3A
S2140010C025D0FB1D00221A7019E0144B1B685A68C5
S2140010D0FB1D1B789B00D3181B681B69002B09D0CF
S2140010E00E4B1B685A68FB1D1B789B00D3181B68A9
S2140010F01B699847FB1D1A78FB1D01321A70074BB7
S2140011001B681B681B79FA1D12789A42DDD3C0460D
S214001110BD4602B080BDC0469C070020A007002048
S21400112080B500AF074BDB88022B01D0002305E01B
S214001130054B02211800054B984701231800BD46B1
S21400114080BDC046F03E002094070020014A000003
S21400115080B500AF0C4BDB88022B01D000230FE0DC
S214001160094B9B88DBB21800084B984703009AB2DD
S214001170074B1A80064B02211800064B984701239E
S2140011801800BD4680BDC046F03E0020A1450000C8
S214001190A8070020014A000080B500AF0B4BDB8893
S2140011A0002B01D000230DE0084B5B88012B08D1F3
S2140011B0074B1B88022293439AB2054B1A800123E1
S2140011C000E000231800BD4680BDC046F03E00206B
S2140011D09407002080B500AF0A4BDB88002B01D0B7
S2140011E000230CE0074B5B88002B07D1054B9B8840
S2140011F0DBB21800044B9847030000E000231800F9
S214001200BD4680BDF03E00202546000080B500AFFC
S214001210084BDB88002B01D0002307E0054B5B88DA
S214001220012B02D0C046002300E000231800BD4674
S21400123080BDC046F03E002080B500AF0D4BDB8879
S214001240002B01D0002312E00A4B5B88002B0DD147
S214001250084B9B88DBB21800074B9847054B9B88CA
S214001260DBB21800054B9847030000E00023180087
S214001270BD4680BDF03E0020B9420000CD450000CE
S21400128080B500AF054B5B88DBB27F221340DBB234
S2140012901800034B9847C046BD4680BDF03E002070
S2140012A0B949000080B500AF064BDB88002B01D0A3
S2140012B0002303E0034B044A1A6101231800BD46CD
S2140012C080BDC046F03E00208112000080B582B08E
S2140012D000AFBB1D00221A70224B5B881A00FF234A
S2140012E013400AD1204B04211800204B9847C046D3
S2140012F0BB1D1B78002B2FD001E000232DE0FB1D2B
S21400130000221A7012E0FB1D1B78FA1D127839684D
S2140013108A18127891B2164A5B00D31802330A1C58
S2140013201A80FB1D1A78FB1D01321A70FA1DBB1DB0
S21400133012781B789A42E6D3BB1D1B780133DBB2CA
S214001340DB18DAB20A4B1A70094B1B789AB2084BB4
S21400135011001800054B984701231800BD4602B03F
S21400136080BDC046F03E0020B4000020014A0000C8
S214001370B800002080B582B000AF394B5A88FB1DFC
S2140013801A70374B5B881B0A9BB2DBB2022B13D05A
S21400139002DC012B05D051E0032B44D00F2B2FD0BD
S2140013A04CE0304B1A682F4B1B681B789BB2190019
S2140013B010002D4B984744E02A4B1B685B7CFA1DB7
S2140013C012789A4201D3002346E0264B5A68FB1D4A
S2140013D01B78DB00D3181868224B5A68FB1D1B7855
S2140013E0DB00D3181B689A78DB781B0213439BB28A
S2140013F019001D4B98471A4B9B6802225A7020E032
S214001400184B9B68002B01D1002325E0154B9868EC
S214001410144B9B689A78DB781B0213439BB2190027
S214001420114B98470DE0114B984703001A00012313
S2140014305340DBB2002B03D000230DE000230BE06B
S214001440C046074BDA88064B9B899A4203D2044B68
S214001450DA88034B9A8101231800BD4602B080BD8E
S214001460F03E0020A8000020014A0000CD12000037
S21400147080B500AF074BDB88012B01D0002305E0C9
S214001480054B01211800054B984701231800BD465F
S21400149080BDC046F03E00209C070020014A0000A8
S2140014A080B582B000AF2A4BDB88002B01D000232A
S2140014B04AE0284B9847031E01D1002344E0244B02
S2140014C05B881A00FF231A40234B1B685B7C9A42FA
S2140014D001DD002338E0214B98471D4B5B88DAB2CC
S2140014E01F4B1A701E4B1B78002B01D101232BE0DB
S2140014F0194B5A681A4B1B781A498C466344DB0012
S214001500D218194B1A60FB1D00221A7013E0FB1D3F
S2140015101B7800211800154B984703001A0001237A
S2140015205340DBB2002B01D000230DE0FB1D1A78E0
S214001530FB1D01321A700C4B1B681B681B79FA1DC9
S21400154012789A42E3D301231800BD4602B080BD4C
S214001550F03E0020E5490000A800002055100000DD
S2140015609C070020FFFFFF1FA0070020910F000030
S21400157080B582B000AF214BDB88012B01D0002361
S21400158038E01F4B1B78002B01D1002332E01B4BA9
S2140015909A88FB1D1A701B4B1B681B681B79FA1D6B
S2140015A012789A4201D3002324E0FB1D1B78002109
S2140015B01800154B984703001A0001235340DBB26E
S2140015C0002B01D0002315E00E4B1B685A68FB1D4C
S2140015D01B789B00D3181B683B603B68DB6898470A
S2140015E003001A00094B1A70084B01211800084B1B
S2140015F0984701231800BD4602B080BDF03E00208B
S2140016009C070020A00700203D0E00009807002041
S214001610014A000080B582B000AF174BDB88002B74
S21400162001D0002324E0154B1B78002B01D10023AA
S2140016301EE0114B9A88FB1D1A700F4B5A88BB1D73
S2140016401A70FB1D1B7818000D4B984703001A00F4
S21400165001235340DBB2002B01D0002308E0BB1D62
S2140016601A78FB1D1B7811001800064B98470300DC
S2140016701800BD4602B080BDF03E00209C0700204A
S214001680E10E0000910F000080B500AF474B1B78BD
S2140016905BB2002B40DA454BDB88002B01D10023E0
S2140016A081E0424B1B781A001F23134014D13F4B96
S2140016B05B78062B08D0082B0AD0002B00D00BE056
S2140016C03B4B984703006EE03A4B984703006AE0AE
S2140016D0394B9847030066E0344B1B781A001F23EB
S2140016E01340012B08D1314B5B780A2B00D003E066
S2140016F0324B9847030056E02C4B1B781A001F23EA
S2140017001340022B4ED1294B5B78002B00D049E0CA
S2140017102B4B9847030046E0244B1B781A001F23E8
S214001720134019D1214B5B78092B14D89A00254B0E
S214001730D3181B689F46244B9847030033E0234B7F
S214001740984703002FE0224B984703002BE0214BDD
S2140017509847030027E0C046144B1B781A001F2347
S2140017601340012B08D1114B5B780B2B00D003E004
S214001770194B9847030016E00C4B1B781A001F23E2
S2140017801340022B0ED1094B5B78012B02D0032BA2
S21400179004D007E0114B9847030004E0104B98472D
S2140017A0030000E000231800BD4680BDF03E002088
S2140017B0211100007513000071140000711500005F
S2140017C05111000078360100A512000099110000A2
S2140017D00D120000A114000015160000D51100001F
S2140017E03912000080B582B000AF244B1B78002B66
S2140017F001D100233DE0224B9A88FB1D1A70214B35
S2140018001B681B681B79FA1D12789A4201D30023C5
S2140018102FE0FB1D1B78002118001B4B9847030088
S2140018201A0001235340DBB2002B01D0002320E036
S214001830144B1B685A68FB1D1B789B00D3181B684B
S2140018403B603B68DB68984703001A00FB1D1B786B
S214001850110018000C4B984703001A000123534050
S214001860DBB2002B01D0002303E03B689B6898475F
S21400187003001800BD4602B080BDC0469C0700208D
S214001880F03E0020A00700203D0E000080B582B08C
S21400189000AF224B1B78002B01D1002339E0204BF0
S2140018A09A88FB1D1A70FB1D00221A7028E01D4B3B
S2140018B01B685A68FB1D1B789B00D3181B683B608F
S2140018C03B68DB68984703001A00FB1D1B78110075
S2140018D01800154B984703001A0001235340DBB24B
S2140018E0002B01D0002314E03B689B689847031E3A
S2140018F001D001230DE0FB1D1A78FB1D01321A7082
S214001900084B1B681B681B79FA1D12789A42CED3C7
S21400191000231800BD4602B080BDC0469C070020CC
S214001920F03E0020A00700203D0E000080B500AF6E
S2140019301E4B00229A811D4B00221A611B4B00226F
S2140019405A611A4B1B785BB2002B05DA174BDB8803
S214001950002B01D1002326E0144B1B781A006023CD
S214001960134005D1124B9847031E01D001231AE0FD
S2140019700E4B1B781A001F231340012B05D10D4B6D
S2140019809847031E01D001230DE0084B1B781A0070
S2140019901F231340022B05D1074B9847031E01D087
S2140019A0012300E000231800BD4680BDF03E002065
S2140019B089160000E51700008D18000080B582B07B
S2140019C000AF78607B6800221A70C046BD4602B041
S2140019D080BD000080B582B000AF02003960FB1DFC
S2140019E01A70FB1D1B78012B0AD0022B0FD0002B80
S2140019F014D10E4B0D4A91693A680A439A610FE07A
S214001A000A4B0A4AD1693A680A43DA6108E0074B8A
S214001A10064A116A3A680A431A6201E0172300E090
S214001A2000231800BD4602B080BDC046000400403A
S214001A3080B582B000AF78607B6880221A707B68C1
S214001A4000225A707B6801229A707B680022DA7046
S214001A50C046BD4602B080BD80B582B000AF020071
S214001A60FB1D1A70FB1D1B78002B02D0012B07D024
S214001A700DE0084B074A126C02210A431A6406E07E
S214001A80044B044A126C04210A431A64C046BD463D
S214001A9002B080BD0008004080B584B000AF78601A
S214001AA07B681B68FB60FB685B7EDBB25BB2002B6F
S214001AB001DA012300E000231800BD4604B080BD13
S214001AC080B582B000AF78607B6800221A707B68B1
S214001AD000225A707B6800225A807B6800221A71A6
S214001AE07B6800221A767B6800221A627B680022D6
S214001AF0DA617B6800229A607B6800221A737B6832
S214001B00C0225201DA817B6800221A747B680022A8
S214001B105A747B6800229A747B680022DA747B68A9
S214001B2000221A757B682A22002199547B680022BD
S214001B305A757B6800229A757B6824220021995486
S214001B407B680022DA847B6800221A857B68002284
S214001B50DA757B682B22002199547B682C220021A1
S214001B609954C046BD4602B080BD000080B598B00E
S214001B7000AF78600C23FA18154B1000190050239C
S214001B801A00144B9847144BFB657B68132B1AD826
S214001B900C23FB187A689200D358FB650823FB18C1
S214001BA018000E4B98470823FB1800229A7008234B
S214001BB0FB1801221A70FB6DDBB20822BA1811005E
S214001BC01800074B9847C046BD4618B080BDC046B3
S214001BD0A0360100B12D0100FFFF0000311A000001
S214001BE005F80000F0B589B000AF786039601F23B3
S214001BF0FB1800221A701023BB611723FB18002263
S214001C001A707B681B683B610C23FB181800CE4BD0
S214001C1098473B681A780C23FB181A700C23FB189D
S214001C2019001E20C94B98471E20C94B98473B6891
S214001C302C229B5C002B40D01623FB183A682B21E5
S214001C40525C1A703B68197B1523FB181622BA18CB
S214001C5012788A181A703B682C22995C0F23FB189E
S214001C601522BA1812788A181A7018E01623FB186C
S214001C701B780F2213403A68127B9B181800B54B4E
S214001C8098471523FB181A781523FB1801321A708B
S214001C901623FB181A781623FB1801321A70152320
S214001CA0FA180F23FB1812781B789A42DED33B688B
S214001CB0DB891800A74B984709E03B681B7B180098
S214001CC0A44B98473B68DB891800A24B98473B68B3
S214001CD05B7D9B00DAB23B691A703B689B7DDB013B
S214001CE05AB23B685B785BB213435BB2DAB23B69CD
S214001CF05A703B681B79342B46D89A00964BD318FB
S214001D001B689F461F23FB183A68527C1A701723DD
S214001D10FB183A68127C1A701023BB6136E01F234A
S214001D20FB1801221A701723FB1802221A701023C0
S214001D30BB612BE01F23FB1802221A701723FB1827
S214001D4004221A701023BB6120E01F23FB18012217
S214001D501A701723FB1806221A701023BB6115E0B1
S214001D601F23FB1800221A701723FB1808221A706C
S214001D701023BB610AE03023BB6107E02023BB6170
S214001D8004E00023BB6101E01723AEE11F23FB182C
S214001D901B781B01DBB270221340DAB21723FB1844
S214001DA01B781343DAB23B699A703B68DB7D3F2BA6
S214001DB001D9172399E13B68DA7D3B69DA70C046A2
S214001DC07B681800654B9847031EF9D13B685A8814
S214001DD0BB699BB213439AB23B6824215B5C9BB2FF
S214001DE0DB009BB213439AB23B681B7D9BB29B0001
S214001DF09BB213439AB23B689B7C9BB2DB189BB2A8
S214001E0013439AB23B68DB7C9BB213439AB23B699E
S214001E109A803B681B7E002B00D1C4E0BB69102B68
S214001E2000D176E002D8002B4DD0BCE0202B23D08A
S214001E30302B00D0B7E03B68DB7C002B11D03B6832
S214001E40DB697F2B0BDC3B68DB69803307DB3B6899
S214001E501B6A7F2B03DC3B681B6A803301DA17237F
S214001E6043E13B68DB69FF2B04DC3B681B6AFF2B06
S214001E7000DC91E0172338E13B68DB7C002B15D0B3
S214001E803B68DB69364A93420EDC3B68DB69354AC1
S214001E90934209DB3B681B6A314A934204DC3B6889
S214001EA01B6A304A934201DA17231EE13B68DB695E
S214001EB02D4A934205DC3B681B6A2B4A934200DCA2
S214001EC06CE0172311E13B68DB7C002B15D03B68E8
S214001ED0DB69264A93420EDC3B68DB69244A934260
S214001EE009DB3B681B6A214A934204DC3B681B6A99
S214001EF01F4A934201DA1723F7E03B68DB691D4A65
S214001F00934204DC3B681B6A1A4A934248DD172357
S214001F10EBE03B68DB7C002B32D03B68DB69164A83
S214001F2093420EDC3B68DB69144A934209DB3B684C
S214001F301B6A114A934204DC3B681B6A0F4A9342B1
S214001F401EDA1723D1E0C046BD190000D1F4000008
S214001F5015F500006D1B0000F0360100991A000010
S214001F60FF01000000FEFFFFFF030000FF07000068
S214001F7000F8FFFFFF0F0000FF7F00000080FFFF5C
S214001F803B68DB695B4A934204DC3B681B6A594A40
S214001F90934207DD1723A8E0C04604E0C04602E0EF
S214001FA0C04600E0C046C0467B681800524B9847C3
S214001FB0031EF9D13B681A7E3B691A72C0467B68DD
S214001FC018004D4B9847031EF9D13B68DB699AB25F
S214001FD03B699A83C0467B681800474B9847031EA8
S214001FE0F9D13B681B6A9AB23B691A841423FB1822
S214001FF03A682C21525C1A701423FB181B78002BAD
S21400200006D01423FB181A781423FB18013A1A700A
S2140020101423FB181B780F2B04D83B682B229B5CE1
S2140020200F2B01D9172360E0C0467B681800324B9F
S2140020309847031EF9D13B689B683A682B21525C8F
S214002040120513431422BA181278120413433A687E
S214002050D28913433A68127B1A433B691A613B687C
S2140020602A229A5C3B691A753B690F229A753B686F
S21400207024229B5C002B1ED03B68DB8C1F4A9342BD
S21400208001D9172331E03B68DA8C3B699A843B68B8
S21400209028229B5E1A4A934205DC3B6828229B5EF8
S2140020A0184A934201DA17231FE03B6828229B5EFA
S2140020B09AB23B69DA84144B1B68DB089BB21B029E
S2140020C09AB2E023DB0013409AB2104B5C681B68A0
S2140020D06101DD0E0D43E60EABB2FF210B409BB255
S2140020E013439AB23B691A8500231800BD4609B00F
S2140020F0F0BDC046FFFF0000991A0000FF0F000069
S214002100FF07000000F8FFFF2460800020608000CA
S21400211080B586B000AFF860B9607A60FB68BA68D0
S2140021201A6080235B0219000220324B9847BB6876
S2140021301B78DBB21A000123134001D0052355E0BB
S214002140BB681B78DBB21A000223134001D01C23A5
S2140021504CE07B685A78FB681A71FB681B79002B89
S21400216002D10120244B98471723FB1800221A702F
S2140021700EE01723FB181A78FB6802329200002143
S214002180D1501723FB181A781723FB1801321A7040
S2140021901723FB181B78022BEBD9FB6800229A76D4
S2140021A0FB680022DA76FB6800221A83FB680022AE
S2140021B01A77124BFA681A607B682A229B5C002BFF
S2140021C00AD17B681B7D01225340DBB2002B03D073
S2140021D0FB6801225A7702E0FB6800225A777A6889
S2140021E0FB6811001800064B984703001800BD4610
S2140021F006B080BDD5190000591A00007C3C0020AE
S214002200E51B000080B584B000AF78607B681B6873
S214002210FB60FB685B7EDBB25BB2002B01DA01235E
S21400222000E000231800BD4604B080BD80B584B031
S21400223000AF78607B681B68FB60C0467B68180050
S2140022400B4B9847031EF9D1FB681B7BDBB20222BF
S2140022501343DAB2FB681A73C0467B681800044B57
S2140022609847031EF9D1C046BD4604B080BDC0469F
S2140022700522000080B584B000AF78600A00FB1C21
S2140022801A707B681B68FB60FB68FA1C1278DA75AC
S214002290C046BD4604B080BD80B584B000AF78604F
S2140022A00A00FB1C1A707B681B68FB60FB68FA1C44
S2140022B012789A75C046BD4604B080BD80B584B01D
S2140022C000AF0200FB1D1A70FB1D1A78474B9200E8
S2140022D0D358FB60FB681B681B7EDAB2FB681B6882
S2140022E0DB7DDBB21340DBB2BB60BB680122134070
S2140022F045D0FB681B6801221A76C046FB681800AA
S2140023003B4B9847031EF9D1FB685B69991CFA683A
S2140023105161FA681268528B92B21A80FB681B8B66
S2140023209BB2013B9BB2FA68191C1183002B08D0A4
S214002330FB685B7F002B22D0FB6818002D4B98476C
S2140023401DE0FB68012118002B4B9847FB681B7F9C
S214002350DBB2052B13D1FB6800221A77FB68DB7E05
S2140023601A00012313400AD0FB689B7E1A00012343
S214002370134004D0FB689B68FA6810009847BB6857
S2140023800422134014D0FB681B6804221A76FB68EC
S214002390DB7E1A00022313400AD0FB689B7E1A00DD
S2140023A00223134004D0FB68DB68FA6810009847E5
S2140023B0BB680222134014D0FB681B6802221A7600
S2140023C0FB68DB7E1A00042313400AD0FB689B7E62
S2140023D01A000423134004D0FB681B69FA68100037
S2140023E09847C046BD4604B080BDC0467C3C002031
S2140023F0052200002D2200009922000080B500AFC3
S2140024000020024B9847C046BD4680BDBD22000056
S21400241080B584B000AFF860B960FB1D1A70FB1D74
S2140024201A78FB6802329200B968D150FB689B7E2E
S2140024305AB2FB1D1B78012199400B005BB2134377
S2140024405BB2DAB2FB689A76C046BD4604B080BD81
S21400245080B584B000AFF860B960BB1D1A80FB6819
S2140024601B8B9BB2002B04D1FB681B7FDBB2052BBA
S21400247001D1052317E0FB6805221A77FB68BA1D11
S21400248012881A83FB68BA685A61FB680121180033
S214002490074B9847FB685B7F002B03D0FB68180050
S2140024A0044B984700231800BD4604B080BDC046C4
S2140024B0752200002D22000080B582B000AF786043
S2140024C00A00FB1C1A70FB1C1B78002B03D17B68D0
S2140024D01B7FDBB200E017231800BD4602B080BDAC
S2140024E080B582B000AF78607B6800221A70C04664
S2140024F0BD4602B080BD000080B582B000AF0200CD
S2140025003960FB1D1A70FB1D1B78012B0AD0022BAD
S2140025100FD0002B14D10E4B0D4A91693A680A432E
S2140025209A610FE00A4B0A4AD1693A680A43DA61AF
S21400253008E0074B064A116A3A680A431A6201E045
S214002540172300E000231800BD4602B080BDC04639
S2140025500004004080B582B000AF78607B688022BF
S2140025601A707B6800225A707B6801229A707B681A
S2140025700022DA70C046BD4602B080BD80B582B08B
S21400258000AF0200FB1D1A70FB1D1B78002B02D04B
S214002590012B07D00DE0084B074A126C02210A43B4
S2140025A01A6406E0044B044A126C04210A431A64B7
S2140025B0C046BD4602B080BD0008004080B586B06B
S2140025C000AF786039607B681B68FB603B685A78B0
S2140025D07B681A717B6800229A7100237B61002356
S2140025E03B613B689B79002B03D07B690422134335
S2140025F07B613B681B781A003B6913433B613B6871
S2140026009B78002B03D03B69042213433B613B6855
S2140026101B79002B03D03B69102213433B613B68B8
S2140026205B79002B03D03B69082213433B617B692F
S214002630DAB2FB681A70C0467B681800054B9847EC
S214002640031EF9D13B69DAB2FB685A70C046BD4634
S21400265006B080BD5926000080B584B000AF786013
S2140026607B681B68FB60FB68DB79DBB25BB2002B28
S21400267001DA012300E000231800BD4604B080BD47
S21400268080B582B000AF78607B6800221A707B68E5
S21400269001225A707B6800229A707B6800221A71A9
S2140026A07B6800225A717B680022DA707B68002201
S2140026B09A71C046BD4602B080BD000080B586B0A7
S2140026C000AFF860B9607A60FB68BA681A60802369
S2140026D0DB0219000220354B9847BB681B78DBB23B
S2140026E01A000223134001D01C235BE0BB681B7852
S2140026F0DBB21A000123134001D0052352E0142355
S214002700FB1818002A4B98477B68DA781423FB18C6
S2140027101A701423FB1819002120264B98472120F5
S214002720254B98471023FB181800244B9847102376
S214002730FB1801221A701023FB1800225A7010236F
S214002740FB1800229A701023FB18190002201C4B5D
S21400275098477A68FB68110018001A4B98477B6800
S2140027601A78FB685A711723FB1800221A7010E0BB
S2140027701723FB181B78FA6804339B00D31804331E
S21400278000221A601723FB181A781723FB18013249
S2140027901A701723FB181B78022BE9D90A4BFA6824
S2140027A01A6000231800BD4606B080BDF92400005C
S2140027B0E1240000D1F4000015F5000055250000C6
S2140027C005F80000BD250000803C002080B584B0E0
S2140027D000AF78607B681B68FB60FB685B78DAB2EA
S2140027E07B681B791343DAB2FB685A70C0467B6875
S2140027F018000B4B9847031EF9D1FB681B78DBB219
S21400280002221343DAB2FB681A707B685B79002BEE
S21400281002D10120034B9847C046BD4604B080BD98
S214002820592600007D25000080B582B000AF786094
S214002830C046BD4602B080BD80B584B000AFF8602B
S2140028407A600B23FB180A1C1A70C046BD4604B0FB
S21400285080BD80B582B000AF78600A00FB1C1A709D
S214002860C046BD4602B080BD80B584B000AF78607B
S21400287008001100FB1C021C1A703B000A1C1A8080
S2140028807B681B68FB60C0467B6818000A4B98474D
S214002890031EF9D17B689B79002B04D0FB683A00B5
S2140028A012889A8103E0FB683A0012881A81002396
S2140028B01800BD4604B080BD5926000080B582B021
S2140028C000AF0200FB1D1A70074AFB1D1B7819009B
S2140028D01F230B40012199400B0019008023D15083
S2140028E0C046BD4602B080BD00E100E080B584B0C1
S2140028F000AF0200FB1D1A70FB1D1A78374B9200C2
S214002900D358FB60FB681B68BB60BB689B79DBB277
S2140029101A00012313400ED0BB6801229A71FB688F
S2140029201433002B07D0FB685B7C002B03D0FB68BE
S2140029309B6900209847BB689B79DBB21A0002238C
S214002940134047D0BB6802229A71FB689B899BB2F2
S214002950002B33D0FB689A68FB68DB899BB2591C56
S21400296088B2F968C8815B00D3181B889AB2BB6826
S2140029709A81FB689B899BB2013B9AB2FB689A815D
S214002980FB689B899BB2002B18D1FB682022002194
S2140029909954BB6802221A71BB6802229A711920E8
S2140029A00F4B9847FB681433002B07D0FB689B7CC3
S2140029B0002B03D0FB68DB6900209847FB681433C4
S2140029C0002B07D0FB681B7C002B03D0FB685B69E1
S2140029D000209847C046BD4604B080BD803C00201D
S2140029E0BD28000080B500AF0020024B9847C046C7
S2140029F0BD4680BDED28000080B584B000AF020063
S214002A00FB1D1A700F23FB18FA1D127852091A7054
S214002A100F23FB181B78002B0CD1094BBB600F2330
S214002A20FB181B789B0010229446BC446344083B6A
S214002A301B6800E000231800BD4604B080BDC046F9
S214002A400018004080B584B000AF0200FB1D1A706D
S214002A50FB1D1B7818000B4B98470300FB60FB1D03
S214002A601B781F22134001229A401300BB60FB68AC
S214002A701B69BA6813405A1E9341DBB21800BD4664
S214002A8004B080BDF929000080B584B000AF020014
S214002A90FB1D1A70FB1D1B781800094B9847030096
S214002AA0FB60FB1D1B781F22134001229A40130077
S214002AB0BB60FB68BA681A61C046BD4604B080BDFC
S214002AC0F929000080B500AF154B00221A7020E0EF
S214002AD0134B1B781800134B9847031E13D0104B4C
S214002AE01B781800104B98470D4B1B781A000F4B9D
S214002AF09200D358002B06D0094B1B781A000B4BBC
S214002B009200D3589847064B1B780133DAB2044B31
S214002B101A70034B1B780F2BDAD9C046BD4680BD12
S214002B20843C0020452A0000892A0000883C0020BA
S214002B3080B582B000AF78607B6800221A70C0460D
S214002B40BD4602B080BD000080B582B000AF020076
S214002B503960FB1D1A70FB1D1B78012B0AD0022B57
S214002B600FD0002B14D10E4B0D4A91693A680A43D8
S214002B709A610FE00A4B0A4AD1693A680A43DA6159
S214002B8008E0074B064A116A3A680A431A6201E0EF
S214002B90172300E000231800BD4602B080BDC046E3
S214002BA00004004080B582B000AF0200FB1D1A7022
S214002BB0064BFA1D127811001F220A40012191408F
S214002BC00A001A60C046BD4602B080BD00E100E0C3
S214002BD080B582B000AF0F4B3B6000237B6011E0F6
S214002BE07B689B0008229446BC446344083B1B68F1
S214002BF05B78DBB25BB2002B01DA012306E07B6870
S214002C0001337B607B68002BEAD000231800BD46AA
S214002C1002B080BD0018004080B584B000AF2D4BD8
S214002C207B60402100202C4B98473B0018002B4B24
S214002C3098473B0000221A703B0019000520284BDD
S214002C4098470520274B98470023FB6018E0FB6851
S214002C509B0010229446BC4463440C3B1A68FB68F5
S214002C609B0010218C46BC4463440C3B1B681B78BD
S214002C70DBB201210B43DBB21370FB680133FB6050
S214002C80FB68002BE3D0C046174B9847031EFBD1CA
S214002C900B23FB1800221A700DE00B23FB181A7882
S214002CA0124B92000021D1500B23FB181A780B23ED
S214002CB0FB1801321A700B23FB181B780F2BECD96C
S214002CC004200B4B98470B4B9847C046BD4604B0B4
S214002CD080BDC04600180040492B0000312B000084
S214002CE0D1F4000015F50000D12B0000883C002030
S214002CF0A52B0000F92C000080B582B000AF154B64
S214002D003B6000237B6018E07B689B0008229446AB
S214002D10BC446344083B1A687B689B0008218C46C9
S214002D20BC446344083B1B681B78DBB202210B43A0
S214002D30DBB213707B6801337B607B68002BE3D0CB
S214002D40C046054B9847031EFBD1C046BD4602B0A1
S214002D5080BDC04600180040D12B000080B582B070
S214002D6000AF78607B6800221A70C046BD4602B08D
S214002D7080BD000080B582B000AF02003960FB1D48
S214002D801A70FB1D1B78012B0AD0022B0FD0002BCC
S214002D9014D10E4B0D4A91693A680A439A610FE0C6
S214002DA00A4B0A4AD1693A680A43DA6108E0074BD7
S214002DB0064A116A3A680A431A6201E0172300E0DD
S214002DC000231800BD4602B080BDC0460004004087
S214002DD080B582B000AF78607B6880221A707B680E
S214002DE000225A707B6801229A707B680022DA7093
S214002DF0C046BD4602B080BD80B500AF054B9B788F
S214002E00DBB21A00022313405A1E9341DBB21800AD
S214002E10BD4680BD00200041F0B597B000AF786198
S214002E2039610023FB6300233B650023FB643B23DF
S214002E3010229446BC44634400221A707B691B68C7
S214002E40BB637B691B687B6323231022BA18D418E4
S214002E507B6B1800C04B9847030023700C2310228E
S214002E609446BC4463441800BC4B98473B69DB69F6
S214002E707B643B691B6A3B647B6C002B06D17B6BD7
S214002E8000211800B64B984703007B647B6CDAB2CF
S214002E900C2310218C46BC4463441A700C23102269
S214002EA09446BC44634402225A707B6C1B0CDBB213
S214002EB00C2210218C46BC44624411001800A94B19
S214002EC098473B6C002B06D17B6B01211800A44B66
S214002ED0984703003B643B6CDAB20C2310218C4607
S214002EE0BC4463441A700C2310229446BC446344CA
S214002EF002225A703B6C1B0CDBB20C2210218C4653
S214002F00BC44624411001800964B98473B699A8A65
S214002F107B69DA803B69DA8A7B691A813B691B7EAA
S214002F20002B03D1904B9847031E02D080237B656D
S214002F3001E000237B653B691B69002B04D03B69DD
S214002F401B697A6D13437B653B699B687A6D1343F7
S214002F507B653B6924229B5C002B04D07B6D802222
S214002F60D20513437B653B699B6A002B04D03B6903
S214002F709B6A7A6D13437B653B692C229B5C002B16
S214002F8005D13B699A6880239B049A4204D17B6DE5
S214002F908022120513437B653B692D229B5C002B28
S214002FA004D07B6D8022120413437B653B692E227E
S214002FB09B5C002B04D07B6D8022D20313437B6581
S214002FC0BB6B1A687B6D1A43BB6B1A60BB6B8022A7
S214002FD052005A60232310229446BC4463441B7854
S214002FE01433DBB21800614B98470300FB623B6961
S214002FF01B68FA2292005343BB623B695B68FA2265
S214003000920053437B623B691B8E3B62584BF86AC7
S214003010984705000E00564BB86A9847B860F960A6
S214003020534BF86A9847534C534A544BA0470300F7
S2140030300C003B607C604E4B386A984702000B00E1
S2140030404C4C38687968A04703000C001800210033
S2140030504B4C00224B4BA04703000C001A002300E9
S214003060444CB868F968A04703000C001A00230017
S214003070454C28003100A04703000C001D00260028
S214003080BB6A5A003A4B1000984702000B003C4CB3
S21400309028003100A04703000C00180021003A4C1D
S2140030A000223A4BA04703000C001D002600BB6A16
S2140030B05A002F4B1000984702000B00344C280093
S2140030C03100A04703000C0019002200314B080015
S2140030D0110098470300FB633B699A6880239B04B2
S2140030E09A426AD1224BF86A9847254C02000B0098
S2140030F0A04703000C001D0026001D4B786A984769
S2140031001C4C0022244BA04703000C001A0023008E
S2140031101F4C28003100A04703000C0018002100B7
S214003120194C0022194BA04703000C00190022007E
S214003130184B0800110098470300FB64FB6C002B3B
S2140031402ED0164B796AF86A984703009A1EFB6CD5
S214003150D31A3B6531E0C04629E00000D12D0000BF
S2140031606DDE000005F80000F92D00003DF60000B9
S214003170AD280100951C010095D626E80B2E113EC1
S2140031800D10010000002440952101000000F03FD2
S2140031902D160100C12701000000084055FC000064
S2140031A07B6A5A00FB6AD3185A1E7B6A59001D4B6D
S2140031B0100098470300013B3B65FB6BFF2B08DCC8
S2140031C0FB6B002B05DB3B6DFF2B02DC3B6D002B06
S2140031D006DA3B2310229446BC44634440221A700D
S2140031E03B2310229446BC4463441B78402B0ED0ED
S2140031F0FB6BFF221A403B6D1B041900FF231B04C8
S2140032000B401343FA6C12061A43BB6BDA603B237F
S21400321010229446BC4463441B781800BD4617B081
S214003220F0BDC04655FC000090B58BB000AFF8600E
S214003230B9607A60FB68BA681A60FB681B687B62D4
S214003240FB681B6818003B4B984703003B623B6AD1
S2140032500233FB613B6A1433BB610122FB699A406F
S214003260130019000220344B98471423FB1818004B
S214003270324B98477B681A7B1423FB181A70BB697D
S214003280DBB21422BA18110018002D4B9847BB6900
S214003290DBB218002B4B98477B681B7B002118007D
S2140032A0294B98477B6A1B680222134001D01C23D7
S2140032B03BE07B6A1B680122134001D0052334E003
S2140032C0FB681B681722BC1818001A4B98470300A7
S2140032D023701E4A1723FB181B78110018001C4B7E
S2140032E098471723FB181A781A4B9200F968D150A2
S2140032F0FB6800221A76FB6800225A76FB680022DA
S2140033005A83FB6800229A83FB6825220021995481
S214003310FB6800221A627B6A14221A607A68FB68CD
S214003320110018000C4B984703001800BD460BB060
S21400333090BDC04629E00000752D00005D2D000000
S214003340D1F4000015F50000E1DD0000A139000011
S2140033508DE0000090400020192E000080B584B05B
S21400336000AF78607B681B68FB60FB681B7EDBB287
S2140033701A00022313400BD0FB6802221A76FB6861
S2140033805B8B9BB21A000223134011D0412310E03E
S214003390FB685B8B9BB21A000423134008D0FB68C3
S2140033A05B68C02292021A43FB685A60182300E04A
S2140033B000231800BD4604B080BD80B584B000AFC1
S2140033C078607B681B68BB600E23FB1800221A809F
S2140033D00FE00E23FB180E22BA18128801321A804C
S2140033E07B681B890E22BA1812889A4201D31223D0
S2140033F00EE0BB681B7EDBB21A000123134006D129
S214003400BB681B7EDBB21A0002231340E1D0002308
S2140034101800BD4604B080BD90B585B000AF78609A
S2140034200A00FB1C1A707B681B68FB60FB685B6805
S2140034308022D2021A43FB685A60FB1C1A78FB688B
S2140034405A620B23FC187B681800074B984703004A
S2140034502370FB6801221A760B23FB181B781800D2
S214003460BD4605B090BDC046BB33000080B584B0F5
S21400347000AF78607B681B68FB60FB68DB6907222F
S21400348013405A1E9341DBB21800BD4604B080BDFF
S21400349080B582B000AF7860C0467B681800044BE9
S2140034A09847031EF9D1C046BD4602B080BDC0464F
S2140034B06D34000080B584B000AF78607B681B6810
S2140034C0FB60FB681B681B01DB0FDBB21A000B23DB
S2140034D0FB18511E8A411A700823FB187A68528B13
S2140034E01A807B689B8B9AB20823FB1808217918F0
S2140034F009888A1A1A807B689B8B9BB2013B9AB21A
S2140035007B689A830B23FB181B78002B10D07B68F4
S214003510DB7A002B1CD07B689B8B9BB2012B17D1D0
S214003520FB685B688022D2021A43FB685A600FE091
S2140035307B68DB7A002B0BD07B689B8B9BB2002BC7
S21400354006D1FB685B688022D2021A43FB685A6089
S2140035507B689B8B9BB2002B0ED17B689B7A002BE3
S2140035600AD07B6818000E4B9847FB685B68C02241
S21400357092021A43FB685A607B681800084B98470B
S2140035807B681A6A0823FB181B88D318FA68282158
S214003590525CD2B21A70C046BD4604B080BDC0466A
S2140035A09134000080B584B000AF78607B681B68FB
S2140035B0FB60FB685B8B9BB21A000423134004D0AD
S2140035C07B6825221E21995424E00A23FB187A687A
S2140035D0528B1A807B689B8B9AB20A23FB180A21AF
S2140035E0791809888A1A1A807B689B8B9BB2013BE4
S2140035F09AB27B689A837B681800084B98477B686A
S2140036001A6A0A23FB181B88D3181B78D9B2FB68E2
S21400361028229954BD4604B080BDC04691340000AF
S21400362080B584B000AF78607B681B68FB60FB6881
S2140036301B7EDBB21A00012313402BD0FB6801224D
S2140036401A76FB685B8B9BB21A000223134004D0E9
S2140036507B682522412199541CE0FB685B8B9BB25A
S2140036601A000423134015D07B682522182199548C
S2140036707B6800229A837B689B7A002B0AD07B6843
S2140036801800134B9847FB685B68C02292021A43E7
S214003690FB685A607B689B8B9AB27B685A837B6810
S2140036A025229B5CDBB2052B0ED17B6824229B5C1B
S2140036B0DBB2002B04D17B681800064B984703E06A
S2140036C07B681800044B9847C046BD4604B080BDD2
S2140036D091340000A5350000B534000080B584B0F4
S2140036E000AFF860B960FB1D1A70FB1D1B78FA6806
S2140036F002339B00D3180433BA681A60FB681B7E3B
S214003700DBB25AB2FB1D1B78012199400B005BB25D
S21400371013435BB2DAB2FB681A76C046BD4604B005
S21400372080BD000090B587B000AF786039607B68D8
S2140037301B683B613B685A687B681A623B685A881C
S2140037407B689A837B682422012199547B68252212
S214003750052199543B691B681B01DB0FDBB21A007D
S2140037600F23FB18511E8A411A703B685B7A002BA8
S21400377006D03B689A7A7B68110018003B4B984746
S2140037800F23FB181B78002B0BD03B685B88012BA4
S21400379007D13B695B688022D2021A433B695A60B4
S2140037A005E03B695B68324A1A403B695A603B68F1
S2140037B01B7A002B45D03B681B885A003B685B7A17
S2140037C09B0313431A0080231B021A433B695A6269
S2140037D01723FC187B681800264B984703002370B5
S2140037E03B695B68224A1A403B695A601723FB18FC
S2140037F01B78002B07D11723FC187B6818001E4B7C
S2140038009847030023701723FB181B78002B14D14E
S2140038103B6903229A753B681B881B0A9BB2782279
S21400382013439BB25A003B685B7A9B031343012207
S21400383013431A003B695A6212E01723FB181B78E1
S2140038400FE03B6903229A753B681B885B000122E8
S2140038501A433B685B7A9B0313431A003B695A6220
S21400386000231800BD4607B090BDC04619340000BE
S214003870FFFFFBFFBB3300005D33000080B582B066
S21400388000AF786039607B689B8B9BB2002B01D0C1
S21400389005230CE07B6801229A727B680122DA72AB
S2140038A03A687B6811001800034B9847030018001D
S2140038B0BD4602B080BDC0462537000080B584B046
S2140038C000AF786039607B681B68FB603B685B7A9A
S2140038D0002B06D03B689A7A7B68110018001E4BB6
S2140038E09847FB685B681D4A1A40FB685A603B684D
S2140038F05A687B681A623B685A887B689A837B683A
S2140039002422002199547B68252205219954FB68BE
S21400391003229A753B681B7A002B0DD03B681B88E8
S2140039205A003B685B7A9B0313431A0080231B02F2
S2140039301A43FB685A6209E03B681B885A003B68DA
S2140039405B7A9B0313431A00FB685A620023180035
S214003950BD4604B080BDC04619340000FFFFFBFF23
S21400396080B582B000AF786039607B689B8B9BB275
S214003970002B01D005230CE07B6801229A727B683D
S2140039800122DA723A687B6811001800034B9847E8
S21400399003001800BD4602B080BDC046BD3800001A
S2140039A080B586B000AF0200FB1D1A70FB1D1A78AA
S2140039B0934B9200D3587B617B691B683B613B69E4
S2140039C01B681B01DB0FDBB21A000F23FB18511E0E
S2140039D08A411A700E23FB187A69527E1A707B6928
S2140039E01B7EDAB20E23FB180E21791809780A40DE
S2140039F01A707B695B8B9BB2002B09D17B699B8B12
S214003A009BB2002B04D07B6918007E4B984770E071
S214003A107B695B8B9BB2002B39D07B699B8B9BB2FF
S214003A20002B34D17B6925229B5CDBB2052B2ED183
S214003A307B6924229B5CDBB2002B28D13B690322E6
S214003A401A757B6900225A837B69252200219954C6
S214003A507B699B7A002B0BD07B6918006A4B9847D2
S214003A603B695B68C02292021A433B695A6002E0D7
S214003A703B6901221A760E23FB181B78012213409D
S214003A8037D07B69DB687A691000984731E07B693C
S214003A905B8B9BB2002B2CD07B699B8B9BB2002B45
S214003AA027D03B695B8B9BB21A002023134011D1B1
S214003AB00F23FB181B7801225340DBB2002B04D1E6
S214003AC07B699B8B9BB2012B04D07B69252241210D
S214003AD099540EE07B6924229B5CDBB2002B04D158
S214003AE07B691800494B984703E07B691800484BF0
S214003AF098477B695B8B9BB2002B47D07B699B8B7F
S214003B009BB2002B42D17B6925229B5CDBB2052B46
S214003B103CD17B6924229B5CDBB2012B36D13B690E
S214003B201B7EDBB21A000223134002D03B6902223E
S214003B301A763B6903221A757B6900225A837B69D1
S214003B402522002199540E23FB181B7802221340CD
S214003B500BD07B6924229B5CDBB2012B05D17B69F1
S214003B601B697A691000984710E00E23FB181B7833
S214003B70012213400AD07B6924229B5CDBB2002B17
S214003B8004D17B69DB687A69100098477B69252237
S214003B909B5CDBB2052B2ED07B6925229B5CDBB2BF
S214003BA0002B28D03B6903221A757B6900225A83B2
S214003BB07B6900229A837B6925229B5CDBB2412BC2
S214003BC00ED07B699B7A002B0AD07B6918000E4BBF
S214003BD098473B695B68E022D2021A433B695A6009
S214003BE00E23FB181B780422134004D07B695B6904
S214003BF07A6910009847C046BD4606B080BDC046EC
S214003C00904000202136000091340000A5350000C9
S214003C10B534000080B582B000AFEFF310837B6050
S214003C207B685A425341DBB23B6072B6BFF35F8F8C
S214003C30034B00221A703B681800BD4602B080BDD8
S214003C40D201002080B582B000AF78607B685A1E33
S214003C509341DBB21800BD4602B080BD80B582B08D
S214003C6000AF78607B681800064B9847031E05D0A7
S214003C70054B01221A70BFF35F8F62B6C046BD4681
S214003C8002B080BD453C0000D201002080B582B065
S214003C9000AF78607B681A687B681B681B899BB2DC
S214003CA001218B439BB21381C046BD4602B080BD46
S214003CB080B582B000AF78607B681B689B7A5B0635
S214003CC05B0EDBB21800BD4602B080BD80B582B088
S214003CD000AF78600A00FB1C1A707B681B68FA1C31
S214003CE01278802149420A43D2B29A72C046BD4633
S214003CF002B080BD80B582B000AF78607B681B687C
S214003D001B8A9B045B0D9BB21800BD4602B080BDAB
S214003D1080B582B000AF78607B681B681B8A9BB258
S214003D201800BD4602B080BD80B582B000AF786096
S214003D300A00FB1C1A707B681A68FB1C1B780321A0
S214003D400B40D9B21389081C03210140880205499B
S214003D500B40191C031C0B431381C046BD4602B022
S214003D6080BDC046FFF3FFFF80B584B000AF020001
S214003D70FB1D1A70FB1D1B780C4AD35CFF2B00D171
S214003D80FEE70B4B98470300FB60FB1D1B78074ABA
S214003D90D25C0132D1B2054AD154FB681800054BFB
S214003DA09847C046BD4604B080BDC046743C00205F
S214003DB0153C00005D3C000080B584B000AF0200FA
S214003DC0FB1D1A70FB1D1B780C4AD35C002B00D120
S214003DD0FEE70B4B98470300FB60FB1D1B78074A6A
S214003DE0D25C013AD1B2054AD154FB681800054BA3
S214003DF09847C046BD4604B080BDC046743C00200F
S214003E00153C00005D3C000080B500AF0C4B9B8C61
S214003E109BB21A002023134007D1C046084BDB682C
S214003E20D0221340D02BF9D106E0C046044BDB6805
S214003E3010221340102BF9D1C046BD4680BDC046A7
S214003E400008004080B584B000AF0200FB1D1A7069
S214003E500C23FB18154A12681A60154B1B78FA1DBE
S214003E6012789A421DD0FB1D1B78002B07D0FB1D35
S214003E701B780C22BA18D35C18000E4B98470C4BD4
S214003E801B78002B08D00A4B1B781A000C23FB1853
S214003E909B5C1800084B9847054BFA1D12781A7061
S214003EA000E0C046BD4604B080BDC046C437010031
S214003EB028080020693D0000B93D000080B582B0AA
S214003EC000AF0200FB1D1A70FB1D1B78002B03D0F1
S214003ED0FB1D1B78802B01D1002312E0FB1D1B78F5
S214003EE00F2213405B00FA1D127852B2D2B2D209EA
S214003EF0D2B29B189A1E13009B009B189B00034A85
S214003F009B181800BD4602B080BDC046B007002012
S214003F1090B589B000AF78607B68BB611723FB184B
S214003F20BA6992791A701723FB181B781800544B3D
S214003F30984703003B610F23FB181722BA18127824
S214003F400F210A401A700C23FB183A69128A1A804D
S214003F500A23FB18BA6952881A803B69DA680A2372
S214003F60FB181B88D2183B69DA603B69DA683B6944
S214003F709B689A4254D03B699B6899B23B69DB6860
S214003F809AB21E23FB188A1A1A801E23FB181B8857
S214003F903C4A93420DD90C23FB181A8839483A4BF1
S214003FA0110098470B009AB21E23FB1835498A1A4F
S214003FB01A803B699B7C02221340DBB2002B0ED09A
S214003FC01E23FA180C23FB18128819882F4B100092
S214003FD098470B009BB2002B01D1012300E0002381
S214003FE0DBB21A1C01231340DAB23B6901210A40F6
S214003FF090189A7C02218A43111C021C0A439A7468
S2140040003B695A683B69DB68D2181E23FB181C887C
S2140040100F23FB1819781E4823001E4CA0472BE0E0
S2140040203B699B7C02221340DBB2002B11D03B691C
S2140040309A7C02218A439A743B695A683B69DB681A
S214004040D2180F23FB18197811480023114CA047EB
S21400405012E03B699A7C01218A439A743B691B688B
S214004060002B09D03B691C683B69D9681723FB18ED
S2140040701B781A000020A047BD4609B090BDC04678
S214004080BD3E0000FF1F000035FF000061FD000080
S214004090883D002065660000B0B588B000AF786047
S2140040A07B68BB611723FB18BA6992791A701723CD
S2140040B0FB181B781800664B984703003B610F23DC
S2140040C0FB181722BA1812780F210A401A700C2310
S2140040D0FB183A69128A1A800A23FB18BA691288F2
S2140040E01A803B699B7C04221340DBB2002B19D05C
S2140040F03B695A683B69DB68D4180F23FB181B78AA
S214004100013B9A01534BD5183B699A680C23FB1860
S2140041101988514B100098470B001A002900200000
S2140041204E4B98473B69DA680A23FB181B88D2185F
S2140041303B69DA603B69DA683B699B689A4203D957
S2140041403B699A683B69DA60BB699B880A22BA18A1
S21400415012889A4265D13B69DA683B699B689A4245
S2140041605FD03B699B6899B23B69DB689AB21E23B5
S214004170FB188A1A1A801E23FB181B88384A93429B
S2140041800ED90C23FB181A883548364B1100984771
S2140041900B009AB21E23FB1831498A1A1A8011E0C6
S2140041A01E23FA180C23FB18128819882A4B1000B5
S2140041B098470B009AB21E23FB181E21791809880F
S2140041C08A1A1A801E23FA180C23FB1812881B88DA
S2140041D09A4216D23B699A7C04210A439A740F23AA
S2140041E0FB181B78013B9A011A4BD2180C23FB18BC
S2140041F01C880F23FB1819781B4823001B4CA0476C
S21400420022E03B695A683B69DB68D2181E23FB181C
S2140042101C880F23FB18197813482300134CA0475B
S21400422012E03B699A7C01218A439A743B691B68B9
S214004230002B09D03B691C683B69D9681723FB181B
S2140042401B781A000020A047BD4608B0B0BDC04687
S214004250BD3E0000C83C002061FD0000B12D0100FD
S214004260FF1F000035FF0000883D00201967000092
S21400427080B584B000AF786039603B68FB600B2384
S214004280FB18FA6892791A700B23FB181B785BB23E
S214004290002B04DA3B681800054B984703E03B68A0
S2140042A01800044B9847C046BD4604B080BDC046C3
S2140042B0113F00009940000090B585B000AF0200A5
S2140042C0FB1D1A70FB1D1A78144B11001800144BB6
S2140042D09847FB1D1B781800124B98470300FB609D
S2140042E0FB689B7C01221340DBB2002B12D0FB68DC
S2140042F09A7C01218A439A74FB681B68002B0AD0BB
S214004300FB681C68FB68D968FB1D1B781A00012037
S214004310A04700E0C046BD4605B090BD883D0020E1
S214004320E1630000BD3E000080B500AF002318002A
S214004330BD4680BD80B500AF034B1800034B9847C1
S21400434003001800BD4680BD883D0020F53C0000F7
S21400435080B500AF034B1800034B984703001800C6
S214004360BD4680BD883D0020113D000080B584B06C
S21400437000AF0200FB1D1A700823FB181800184B2C
S21400438098470F23FB18FA1D12780F210A401A705F
S214004390FB1D1B781800134B98470823FB18FA1DC3
S2140043A012781A700823FB180022DA700823FA180D
S2140043B00D4B110018000D4B98470F23FB1819786A
S2140043C0094B002218000A4B9847FB1D1978064B2C
S2140043D000221800074B9847C046BD4604B080BD73
S2140043E0C15E0000B9420000883D0020E95E000082
S2140043F0095B00001D5D000090B587B000AF0400AB
S21400440008001100FB1D221C1A70BB1D021C1A702E
S2140044103B1D0A1C1A800C23FB181800584B9847A3
S2140044200C23FB18FA1D12781A703B1D1B88082BEC
S21400443004D80C23FB1800225A7045E03B1D1B884D
S214004440102B04D80C23FB1801225A703CE03B1DAD
S2140044501B88202B04D80C23FB1802225A7033E04A
S2140044603B1D1B88402B04D80C23FB1803225A70D4
S2140044702AE03B1D1B88802B04D80C23FB18042243
S2140044805A7021E03B1D1A8880235B009A4204D8AC
S2140044900C23FB1805225A7016E03B1D1A88802351
S2140044A09B009A4204D80C23FB1806225A700BE095
S2140044B03B1D1B88334A934204D80C23FB18072263
S2140044C05A7001E0002357E0FB1D1B7818002E4BA6
S2140044D0984703007B617B693A1D12881A82BB1DD0
S2140044E0BA1D127803210A401A70BB1D1B78012BD7
S2140044F004D10C23FB180222DA7013E0BB1D1B78D4
S214004500022B04D10C23FB180322DA700AE0BB1D31
S2140045101B78032B04D10C23FB180422DA7001E06D
S214004520002329E01323FB18FA1D12780F210A40F6
S2140045301A700C23FA18154B11001800144B9847E4
S214004540031E01D0002317E0124A1323FB18197824
S2140045500E4813000022104CA047FB1D19780B4B89
S214004560002218000D4B9847FB1D1978074B0122B7
S21400457018000A4B984701231800BD4607B090BDA7
S214004580C15E0000FF030000BD3E0000883D002025
S214004590E95E000071420000895A0000815B00005D
S2140045A080B582B000AF0200FB1D1A70FB1D1A78A2
S2140045B0044B11001800044B984703001800BD4632
S2140045C002B080BD883D00206964000080B584B0DC
S2140045D000AF0200FB1D1A700F23FB18FA1D12789D
S2140045E00F210A401A700F23FB181B78032B01D9E2
S2140045F000230CE0FB1D1A78074B11001800074B30
S2140046009847FB1D1B781800054B98470123180098
S214004610BD4604B080BDC046883D0020DD64000075
S214004620B942000080B584B000AF0200FB1D1A70CE
S2140046300F23FB18FA1D12780F210A401A700F2359
S214004640FB181B78032B01D900231DE0FB1D1B78EC
S21400465018000F4B98470300BB60FB1D1A780D4BE4
S214004660110018000C4B9847BB689B7C0122134036
S214004670DBB2002B07D0BB689A7C01218A439A7470
S214004680BB681B68984701231800BD4604B080BD70
S214004690BD3E0000883D00203965000080B500AFB3
S2140046A0074B05221A70074B80211800064B9847C7
S2140046B0044B00211800054B9847C046BD4680BDF8
S2140046C0AA070020883D0020DD6400003965000050
S2140046D090B589B000AFBA607B600F23FB18021C50
S2140046E01A700E23FB180A1C1A701D23FB180F22C3
S2140046F0BA1812780F210A401A701D23FB181B786F
S214004700032B07D80F23FB181B7818009F4B9847DE
S214004710031E01D0002334E10F23FB181B7818007A
S2140047209B4B98470300BB619A4B984703007B61FD
S214004730BB699B7C01221340DBB2002B05D07B6952
S2140047401800954B984700231BE1BB699A7C012112
S2140047500A439A747B6918008F4B9847BB69BA68FE
S2140047605A60BB697A689A60BB690022DA60BB69E6
S2140047703A6B1A60BB690E22BA18127801210A40F9
S21400478090189A7C02218A43111C021C0A439A74D0
S214004790BB699A7C04218A439A740F23FB181B7802
S2140047A05BB2002B00DB78E0BB699B68002B3FD038
S2140047B0BB699A681E23FB181A801E23FB181B88E9
S2140047C0764A93420DD9BB691B8A1900734A744B0B
S2140047D0100098470B009AB21E23FB186F498A1ADE
S2140047E01A80BB699B7C02221340DBB2002B0DD0E3
S2140047F0BB69198A1E23FB181A886A4B1000984753
S2140048000B009BB2002B01D1012300E00023DBB29A
S2140048101A1C01231340DAB2BB6901210A40901822
S2140048209A7C02218A43111C021C0A439A7423E0D4
S214004830BB699B7C02221340DBB2002B09D0BB690C
S2140048409A7C02218A439A741E23FB1800221A803F
S21400485012E0BB699A7C01218A439A74BB691B6883
S214004860002B07D0BB691B680F22BA1812780021EC
S21400487000209847012384E0BB695A681E23FB1872
S2140048801C881D23FB18197847482300474CA0476F
S21400489003005A425341DBB273E0BB699B68002BAE
S2140048A05DD0BB699A681E23FB181A801E23FB186E
S2140048B01B883A4A93420ED9BB691B8A1900374AAD
S2140048C0374B100098470B009AB21E23FB1833494B
S2140048D08A1A1A8010E0BB69198A1E23FB181A88E8
S2140048E0304B100098470B009AB21E23FB181E216F
S2140048F0791809888A1A1A80BB691B8A1E22BA1878
S21400490012889A421AD2BB699A7C04210A439A7486
S2140049101D23FB181B78013B9A01254BD218BB6957
S2140049201B8A1C001D23FB1819781F482300214CE6
S214004930A04703005A425341DBB222E0BB695A68E3
S2140049401E23FB181C881D23FB1819781648230005
S214004950184CA04703005A425341DBB211E0BB6932
S2140049609A7C01218A439A74BB691B68002B07D086
S214004970BB691B680F22BA181278002100209847DE
S21400498001231800BD4609B090BDC046A1450000F1
S214004990BD3E0000153C00005D3C0000FF1F00000F
S2140049A035FF000061FD0000883D002065660000C0
S2140049B0C83C00201967000080B582B000AF020036
S2140049C0FB1D1A70FB1D1A78044B11001800044BCF
S2140049D09847C046BD4602B080BDC046883D002010
S2140049E0CD3C000080B500AF034B1800034B984742
S2140049F003001800BD4680BD883D0020B13C000085
S214004A0080B582B000AF78600A00BB1C1A80054BE8
S214004A107A689A60034BBA1C12889A81C046BD46D3
S214004A2002B080BDF03E002080B500AF174B1A786C
S214004A30174B1A70154B5A78154B5A70134BDB7878
S214004A409BB21B029AB2114B9B789BB2D3189AB2B8
S214004A500F4B5A800D4B5B799BB21B029AB20B4BE5
S214004A601B799BB2D3189AB2094B9A80074BDB7915
S214004A709BB21B029AB2054B9B799BB2D3189AB293
S214004A80034BDA80C046BD4680BDC046083F0020C6
S214004A90F03E0020B0B500AF094B03221A70094A59
S214004AA0094B11001800094B9847094B9A680648AD
S214004AB000230021074CA047C046BD46B0BDC046F7
S214004AC0AA070020083F0020883D0020C967000094
S214004AD0F03E00206566000090B583B000AF304B16
S214004AE09989304B1A88BB1D8A1A1A80BB1D1B88F1
S214004AF0002B30D12C4B1A882A4B1B88D3189AB21D
S214004B00294B1A80264BDA88274B1B889A4203D0FB
S214004B10264B1B78002B09D0254B04221A70254AF9
S214004B20254B11001800254B984735E01C4B5B6958
S214004B30002B10D01A4B5B69984703001A0001231C
S214004B405340DBB2002B06D1164B00221A80BB1D49
S214004B50134A92891A80BB1D1B883F2B06D9BB1DA2
S214004B6040221A80114B00221A7002E00F4B0122DD
S214004B701A700B4B9B680B4A12889A18BB1D1B8831
S214004B800D4800210E4CA047064B1A88BB1D1B88FB
S214004B90D3189AB2034B1A80BD4603B090BDC046E8
S214004BA0F03E0020AE070020AC07002029080020B9
S214004BB0AA070020083F0020883D0020C9670000A3
S214004BC06566000090B585B000AF78607B68BB6016
S214004BD00E23FB18BA6812881A80454B9B891A0068
S214004BE0444B1B8819000E23FB181B88CB189A42CF
S214004BF007DA3F4B99893F4B1A880E23FB188A1A0F
S214004C001A803B4B9B683B4A128898180E23FB1869
S214004C101A88394B1900394B9847364B1A880E2399
S214004C20FB181B88D3189AB2324B1A800E23FB1837
S214004C301B88402B0AD12E4BDB881A00304B1B8872
S214004C4019002C4B1B88CB189A421BDC294B1A8860
S214004C50274B9A81264B5B69002B10D0244B5B694F
S214004C60984703001A0001235340DBB2002B06D0FE
S214004C70244B05221A700020234B984735E0234B1F
S214004C80984732E01A4B9A891A4B1B889A4226D1CB
S214004C90174B5B69002B06D11A4B05221A700020B1
S214004CA0194B984721E0124B5B69984703001A009E
S214004CB001235340DBB2002B06D0124B05221A709C
S214004CC00020114B984710E00D4B1A88094B1B88A3
S214004CD0D3189AB20A4B1A80064B00221A80064A4C
S214004CE00B48402300210B4CA047BD4605B090BDA5
S214004CF0F03E0020AE070020083F0020B12D010046
S214004D00AC070020AA070020CD450000954A000009
S214004D10883D00201967000090B585B000AF786028
S214004D2039603B68FB60294B1B78002B09D0284B69
S214004D301B69002B02D0264B1B699847234B002289
S214004D401A70FB681B88082B02D0224B98473AE063
S214004D50214B9847214B984703001A0001235340E4
S214004D60DBB2002B02D01B4B98472CE0184B1B786D
S214004D705BB2002B11DA1A4B00221A80194B002264
S214004D801A80124B02221A70174A18484023002134
S214004D90174CA047174B984715E00D4BDB88002BA8
S214004DA002D1154B98470EE00D4B00221A800D4B92
S214004DB000221A80054B01221A700B4A0B4840232A
S214004DC000210B4CA047BD4605B090BDAA070020A9
S214004DD0F03E00209D460000294A00002D190000E4
S214004DE0AC070020AE070020083F0020883D0020CA
S214004DF019670000D94A0000954A000080B584B0C3
S214004E0000AF78607B68FB600A4B1B78012B02D1F1
S214004E10094B98470AE0074B1B78042B06D1FB6822
S214004E209A79064B11001800054B9847C046BD46B8
S214004E3004B080BDAA070020954A0000883D0020E7
S214004E40DD64000080B584B000AF78607B68FB60EE
S214004E500B4B1B78022B03D1094B04221A700AE075
S214004E60074B1B78032B06D1FB689A79054B11007C
S214004E701800054B9847C046BD4604B080BDC046E6
S214004E80AA070020883D0020DD64000080B584B0BD
S214004E9000AF786039603B68FB60FB689B795BB26B
S214004EA0002B04DA3B681800054B984703E03B6884
S214004EB01800044B9847C046BD4604B080BDC046A7
S214004EC0FD4D0000454E000080B582B000AF786012
S214004ED039600F4B1B78012B04D13B6818000D4B33
S214004EE0984710E00A4B1B78022B02D10A4B9847D2
S214004EF009E00A4B1B69002B02D0084B1B69984738
S214004F00034B00221A70C046BD4602B080BDC046A4
S214004F10AA070020C54B0000D94A0000F03E00203A
S214004F2090B585B000AF78600C23FB181800214BB5
S214004F3098470C23FB1803225A700C23FA187B6838
S214004F40110018001C4B98471C4A7B68110018007B
S214004F501B4B98471B4B7868022200211A4CA0472F
S214004F601A4B786800220021174CA047184B786827
S214004F7001220021144CA0477B6802220021180061
S214004F80144B98477B68002200211800114B984765
S214004F907B680122002118000E4B98477B68012190
S214004FA018000D4B98470D4B00221A70C046BD46A0
S214004FB005B090BDC15E0000E95E0000083F00201D
S214004FC0C9670000194D0000895A0000C94E00004C
S214004FD08D4E0000815B0000293D0000AA070020DE
S214004FE080B582B000AF78603960084B04211800A5
S214004FF0074B9847054B02211800064B984701209F
S214005000054B9847C046BD4602B080BD883D00208F
S214005010355A0000D9590000453E000080B584B0DE
S21400502000AF786039603B68FB600B4B06211800C8
S2140050300A4B9847084B04211800084B9847064B24
S21400504002211800064B98470220064B9847C04698
S214005050BD4604B080BDC046883D0020355A0000DD
S214005060D9590000453E000080B582B000AF786098
S2140050703960034B9847C046BD4602B080BDC04667
S214005080B510000080B582B000AF78603960074B7D
S21400509098477B6800211800054B98477B681800E6
S2140050A0044B9847C046BD4602B080BD5510000070
S2140050B0CD3C0000214F000080B582B000AF786084
S2140050C039600F4B98470F4B022118000E4B98473C
S2140050D00C4B042118000D4B98470D4A094B06212E
S2140050E018000C4B9847074B06211800074B9847AB
S2140050F00320094B9847C046BD4602B080BDC04657
S214005100093E0000883D0020355A0000D9590000AD
S2140051101D50000089590000453E000080B500AFD4
S2140051200320204B9847204B1800204B9847204AD6
S2140051301D4B042118001F4B98471F4A1A4B00218D
S21400514018001C4B98471D4A174B01211800194B95
S21400515098471B4A144B02211800164B9847124BCF
S21400516004211800174B98470F4B00211800154BC9
S21400517098470D4B01211800124B98470A4B022105
S2140051801800104B9847104A074B06211800094B89
S2140051909847054B062118000A4B9847C046BD465F
S2140051A080BDC046453E0000883D00208D3C000086
S2140051B0E14F00008959000069500000855000004A
S2140051C0B9500000D95900001D50000080B582B0CB
S2140051D000AF124B984703007B603B001800104B53
S2140051E098473B0000229A703A000E490E4B180072
S2140051F00E4B98470C4B18000D4B98470D4B984795
S21400520001200D4B98470D4B98477B6818000C4BB8
S2140052109847C046BD4602B080BDC046153C00005B
S214005220F96D000000500041883D0020216E00000E
S214005230916D0000093E0000453E00001D51000033
S2140052405D3C000080B582B000AF78607B680022CD
S2140052501A70C046BD4602B080BD000080B582B060
S21400526000AF02003960FB1D1A70FB1D1B78012B76
S2140052700AD0022B0FD0002B14D10E4B0D4A916989
S2140052803A680A439A610FE00A4B0A4AD1693A68BB
S2140052900A43DA6108E0074B064A116A3A680A438D
S2140052A01A6201E0172300E000231800BD4602B092
S2140052B080BDC0460004004080B582B000AF786074
S2140052C07B6880221A707B6800225A707B680122F5
S2140052D09A707B680022DA70C046BD4602B080BD78
S2140052E080B582B000AF0200FB1D1A70064BFA1D97
S2140052F0127811001F220A40012191400A001A600C
S214005300C046BD4602B080BD00E100E080B582B078
S21400531000AFA44B1B681B681B8C9BB2002B0AD0EB
S214005320A04B1B681B681B8C9BB21A009E4B100080
S2140053309847030000E020237B607B681F2B00D982
S21400534004E2984B1B681A687B6808335B01D31825
S21400535007331B78DBB23B603B680322134000D167
S21400536088E001227B689A401300DB431A008F4BCB
S2140053701B681A408D4B1A608A4B1B681A687B683C
S21400538008335B01D318073303221A70854B1A685B
S214005390AE217B68D3185B181B781A0001231340D4
S2140053A068D07B68DAB2824B1A707E4B1B681B682B
S2140053B07A6808325201D35C9B079B0FDBB2012B45
S2140053C01ED17C4A7B685B01D3185B689B049B0CF0
S2140053D09BB21A00764B5A80764A7B685B01D318DC
S2140053E05B681B019B0C9BB21A00714B9A80714A3A
S2140053F07B685B01D3185A68920B92035A602CE0C4
S2140054006C4A7B685B01D3185B681B019B0C9BB2E4
S2140054101A00674B5A80674A7B685B01D3185B6843
S2140054209B049B0C9BB21A00614B9A80614A7B6876
S2140054305B01D3185A6860490A405A605C4B5B8827
S214005440002B0AD15B4A7B685B01D3185B689B0420
S2140054509B0C9BB21A00564B5A80524B1A687B68BC
S21400546002331B01D31804331A684E4B1B6850498D
S214005470180090473B680422134000D1AFE0494B28
S2140054801B681B687A6808325201D35C9B065B0F68
S214005490DBB2022B51D1434B1B681B687A6808327B
S2140054A05201D35C9B079B0FDBB2012B45D1414ACF
S2140054B07B685B01D31808339B78DB07DB0FDBB216
S2140054C0002B3AD001227B689A401300DB431A0077
S2140054D0364B1B681A40354B1A60364A7B685B01B0
S2140054E0D3180A3300221A702E4B1B681A687B6882
S2140054F008335B01D318073304221A70294B1A6845
S214005500AE217B68D3185B181B781A000223134061
S21400551065D07B68DAB2264B1A70254B10225A707B
S214005520204B1A687B681B01D31828331A681D4B5A
S2140055301B681F491800904751E01A4B1B681B68F0
S2140055407A6808325201D35C9B065B0FDBB2032BF2
S21400555034D1144B1B681B687A6808325201D35C3E
S2140055609B079B0FDBB2012B28D1124A7B685B019D
S214005570D3180A3300221A700A4B1B681A687B6815
S21400558008335B01D318073304221A70054B1B68D7
S2140055901A687B6808335B01D318053310221A702B
S2140055A01DE0C0462C080020F1FF00004408002043
S2140055B030080020483F0020FF3F00F0834A7B6809
S2140055C05B01D3180A3300221A70814B1B681A68D5
S2140055D07B6808335B01D318073304221A703B68D4
S2140055E0082213403CD001227B689A401300DB431C
S2140055F01A00784B1B681A40764B1A60744B1B686F
S2140056001A687B6808335B01D318073308221A70C0
S2140056106F4B1A68AE217B68D3185B181B781A008C
S214005620022313401CD07B68DAB26B4B1A70674AB1
S2140056307B685B01D3180E331B889BB2DBB21F223C
S2140056401340DAB2644B5A70614B1A687B681B01D0
S214005650D31828331A685E4B1B685F4918009047BA
S2140056603B68102213403AD001227B689A40130010
S214005670DB431A00574B1B681A40564B1A60544BB4
S2140056801B681A687B6808335B01D318073310223F
S2140056901A704F4B1A68AE217B68D3185B181B78BC
S2140056A01A00042313401AD07B68DAB24A4B1A70E9
S2140056B0464A7B685B01D3185B681B019B0C9BB258
S2140056C01A00454B5A80424B1A687B681B01D31858
S2140056D02C331A683E4B1B680021180090473B6825
S2140056E02022134000D146E101227B689A40130035
S2140056F0DB431A00374B1B681A40364B1A60344B94
S2140057001B681A687B6808335B01D31807332022AE
S2140057101A702F4B1A68AE217B68D3185B181B785B
S2140057201A000823134000D125E17B68DAB22A4B21
S2140057301A70274B1A687B681B01D31830331A6817
S214005740234B1B6824491800904714E1204B1B6824
S2140057501B689B8B9BB23B603B680422134053D074
S2140057601B4B1B681B6804229A8301237B6039E06D
S21400577001227B689A4013001A00164B1B681340E0
S21400578022D0134B1B681B687A6808325201D35C20
S2140057909B065B0FDBB2032B20D10D4B1B681B68EF
S2140057A07A6808325201D35C9B079B0FDBB2012B51
S2140057B014D1074B1B681A687B6808335B01D31843
S2140057C0043310221A700AE0C04608E0483F002062
S2140057D02C0800204408002030080020C0467B68C3
S2140057E001337B607B68072BC2D9654B1B68A522FB
S2140057F09B5C1A000123134006D0614B1B685A6855
S2140058005F4B1B68180090473B680822134016D071
S2140058105C4B00221A605A4B1B681B6808229A834E
S214005820574B1B68A5229B5C1A000223134006D028
S214005830534B1B689A68524B1B68180090473B688E
S2140058404022134013D04E4B1B681B6840229A839D
S2140058504B4B1B68A5229B5C1A001023134006D0F6
S214005860474B1B685A69464B1B68180090473B68B5
S2140058702022134013D0424B1B681B6820229A83B9
S2140058803F4B1B68A5229B5C1A000823134006D0DA
S2140058903B4B1B681A693A4B1B68180090473B68DD
S2140058A01022134013D0364B1B681B6810229A83B5
S2140058B0334B1B68A5229B5C1A000423134006D0BA
S2140058C02F4B1B68DA682E4B1B68180090473B6806
