S00B00004C43562E7372656334
S11300008075002065A70000A9A90000A3A900002D
S113001000000000000000000000000000000000DC
S11300200000000000000000000000008920000023
S11300300000000000000000C121000009220000AF
S11300405DA800005DA80000357F00005DA80000E9
S11300505DA800005DA800005DA800005DA8000088
S11300605DA800004D900000659000007D900000A8
S113007095900000AD900000C59000005DA80000C0
S11300805DA800005DA800005DA800005DA8000058
S11300905DA800000000000000000000550B0000F7
S11300A05DA800003D1100005DA800005DA80000EF
S11300B00000000010B5064C2378002B07D1054B37
S11300C0002B02D0044800E000BF0123237010BDC0
S11300D088010020000000009CE60000084B10B5D9
S11300E0002B03D00749084800E000BF0748036815
S11300F0002B00D110BD064B002BFBD09847F9E72D
S1130100000000008C0100209CE600009CE600003A
S11301100000000080B582B000AF78607B680022E8
S11301201A70C046BD4602B080BD000080B582B0E2
S113013000AF02003960FB1D1A70FB1D1B78012BF8
S11301400AD0022B0FD0002B14D10E4B0D4A91690B
S11301503A680A439A610FE00A4B0A4AD1693A683D
S11301600A43DA6108E0074B064A116A3A680A430F
S11301701A6201E0172300E000231800BD4602B014
S113018080BDC0460004004080B582B000AF7860F6
S11301907B6880221A707B6800225A707B68012277
S11301A09A707B680022DA70C046BD4602B080BDFA
S11301B080B582B000AF0200FB1D1A70FB1D1B78D6
S11301C0002B02D0012B07D00DE0084B074A126C1C
S11301D002210A431A6406E0044B044A126C042107
S11301E00A431A64C046BD4602B080BD0008004000
S11301F080B584B000AF78607B681B68FB60FB68E7
S11302005B7EDBB25BB2002B01DA012300E000234A
S11302101800BD4604B080BD80B582B000AF7860E0
S11302207B6800221A707B6800225A707B68002267
S11302305A807B6800221A717B6800221A767B68D8
S113024000221A627B680022DA617B6800229A60CD
S11302507B6800221A737B68C0225201DA817B68B2
S113026000221A747B6800225A747B6800229A74F4
S11302707B680022DA747B6800221A757B682A2264
S1130280002199547B6800225A757B6800229A7574
S11302907B682422002199547B680022DA847B68DD
S11302A000221A857B680022DA757B682B220021E4
S11302B099547B682C2200219954C046BD4602B053
S11302C080BD000080B598B000AF78600C23FA18A8
S11302D0154B1000190050231A00144B9847144B67
S11302E0FB657B68132B1AD80C23FB187A689200E1
S11302F0D358FB650823FB1818000E4B98470823B6
S1130300FB1800229A700823FB1801221A70FB6D57
S1130310DBB20822BA1811001800074B9847C046F0
S1130320BD4618B080BDC04684E10000BDD80000C1
S1130330FFFF000089010000DDA60000F0B589B0D0
S113034000AF786039601F23FB1800221A70102355
S1130350BB611723FB1800221A707B681B683B6182
S11303600C23FB181800CE4B98473B681A780C23D3
S1130370FB181A700C23FB1819001E20C94B984750
S11303801E20C94B98473B682C229B5C002B40D015
S11303901623FB183A682B21525C1A703B68197BB0
S11303A01523FB181622BA1812788A181A703B689B
S11303B02C22995C0F23FB181522BA1812788A187C
S11303C01A7018E01623FB181B780F2213403A68A2
S11303D0127B9B181800B54B98471523FB181A7805
S11303E01523FB1801321A701623FB181A781623EA
S11303F0FB1801321A701523FA180F23FB18127810
S11304001B789A42DED33B68DB891800A74B9847D8
S113041009E03B681B7B1800A44B98473B68DB89C9
S11304201800A24B98473B685B7D9B00DAB23B699E
S11304301A703B689B7DDB015AB23B685B785BB208
S113044013435BB2DAB23B695A703B681B79342BB5
S113045046D89A00964BD3181B689F461F23FB1857
S11304603A68527C1A701723FB183A68127C1A7087
S11304701023BB6136E01F23FB1801221A701723D7
S1130480FB1802221A701023BB612BE01F23FB18F8
S113049002221A701723FB1804221A701023BB615E
S11304A020E01F23FB1801221A701723FB180622D1
S11304B01A701023BB6115E01F23FB1800221A7069
S11304C01723FB1808221A701023BB610AE030239B
S11304D0BB6107E02023BB6104E00023BB6101E0B2
S11304E01723AEE11F23FB181B781B01DBB270221C
S11304F01340DAB21723FB181B781343DAB23B69B3
S11305009A703B68DB7D3F2B01D9172399E13B6847
S1130510DA7D3B69DA70C0467B681800654B984702
S1130520031EF9D13B685A88BB699BB213439AB244
S11305303B6824215B5C9BB2DB009BB213439AB201
S11305403B681B7D9BB29B009BB213439AB23B68F2
S11305509B7C9BB2DB189BB213439AB23B68DB7C57
S11305609BB213439AB23B699A803B681B7E002B73
S113057000D1C4E0BB69102B00D176E002D8002B77
S11305804DD0BCE0202B23D0302B00D0B7E03B680B
S1130590DB7C002B11D03B68DB697F2B0BDC3B68D9
S11305A0DB69803307DB3B681B6A7F2B03DC3B681A
S11305B01B6A803301DA172343E13B68DB69FF2BB5
S11305C004DC3B681B6AFF2B00DC91E0172338E155
S11305D03B68DB7C002B15D03B68DB69364A9342D1
S11305E00EDC3B68DB69354A934209DB3B681B6AD6
S11305F0314A934204DC3B681B6A304A934201DA75
S113060017231EE13B68DB692D4A934205DC3B68F6
S11306101B6A2B4A934200DC6CE0172311E13B6810
S1130620DB7C002B15D03B68DB69264A93420EDC49
S11306303B68DB69244A934209DB3B681B6A214A15
S1130640934204DC3B681B6A1F4A934201DA172376
S1130650F7E03B68DB691D4A934204DC3B681B6A94
S11306601A4A934248DD1723EBE03B68DB7C002BFE
S113067032D03B68DB69164A93420EDC3B68DB6987
S1130680144A934209DB3B681B6A114A934204DC17
S11306903B681B6A0F4A93421EDA1723D1E0C04617
S11306A015010000A9A30000EDA30000C50200008D
S11306B0D4E10000F1010000FF01000000FEFFFF93
S11306C0FF030000FF07000000F8FFFFFF0F00001A
S11306D0FF7F00000080FFFF3B68DB695B4A9342B9
S11306E004DC3B681B6A594A934207DD1723A8E0E0
S11306F0C04604E0C04602E0C04600E0C046C04632
S11307007B681800524B9847031EF9D13B681A7E48
S11307103B691A72C0467B6818004D4B9847031E0C
S1130720F9D13B68DB699AB23B699A83C0467B681E
S11307301800474B9847031EF9D13B681B6A9AB2CD
S11307403B691A841423FB183A682C21525C1A70F2
S11307501423FB181B78002B06D01423FB181A78DB
S11307601423FB18013A1A701423FB181B780F2B5F
S113077004D83B682B229B5C0F2B01D9172360E024
S1130780C0467B681800324B9847031EF9D13B687A
S11307909B683A682B21525C120513431422BA1841
S11307A01278120413433A68D28913433A68127BCD
S11307B01A433B691A613B682A229A5C3B691A75A1
S11307C03B690F229A753B6824229B5C002B1ED048
S11307D03B68DB8C1F4A934201D9172331E03B6805
S11307E0DA8C3B699A843B6828229B5E1A4A9342BE
S11307F005DC3B6828229B5E184A934201DA1723E2
S11308001FE03B6828229B5E9AB23B69DA84144B52
S11308101B68DB089BB21B029AB2E023DB00134087
S11308209AB2104B5C681B686101DD0E0D43E60E45
S1130830ABB2FF210B409BB213439AB23B691A85BA
S113084000231800BD4609B0F0BDC046FFFF0000FC
S1130850F1010000FF0F0000FF07000000F8FFFF98
S1130860246080002060800080B586B000AFF8600E
S1130870B9607A60FB68BA681A6080235B02190069
S11308800220324B9847BB681B78DBB21A00012365
S1130890134001D0052355E0BB681B78DBB21A0076
S11308A00223134001D01C234CE07B685A78FB6878
S11308B01A71FB681B79002B02D10120244B984745
S11308C01723FB1800221A700EE01723FB181A785E
S11308D0FB68023292000021D1501723FB181A78CA
S11308E01723FB1801321A701723FB181B78022BED
S11308F0EBD9FB6800229A76FB680022DA76FB6863
S113090000221A83FB6800221A77124BFA681A60D5
S11309107B682A229B5C002B0AD17B681B7D012209
S11309205340DBB2002B03D0FB6801225A7702E06C
S1130930FB6800225A777A68FB6811001800064B9E
S1130940984703001800BD4606B080BD2D01000085
S1130950B1010000105500203D03000080B584B0B3
S113096000AF78607B681B68FB60FB685B7EDBB272
S11309705BB2002B01DA012300E000231800BD461E
S113098004B080BD80B584B000AF78607B681B681C
S1130990FB60C0467B6818000B4B9847031EF9D1D7
S11309A0FB681B7BDBB202221343DAB2FB681A73C7
S11309B0C0467B681800044B9847031EF9D1C04613
S11309C0BD4604B080BDC0465D09000080B584B05A
S11309D000AF78600A00FB1C1A707B681B68FB6020
S11309E0FB68FA1C1278DA75C046BD4604B080BDB7
S11309F080B584B000AF78600A00FB1C1A707B6875
S1130A001B68FB60FB68FA1C12789A75C046BD46E9
S1130A1004B080BD80B584B000AF0200FB1D1A7025
S1130A20FB1D1A78474B9200D358FB60FB681B6888
S1130A301B7EDAB2FB681B68DB7DDBB21340DBB2E2
S1130A40BB60BB680122134045D0FB681B680122D0
S1130A501A76C046FB6818003B4B9847031EF9D131
S1130A60FB685B69991CFA685161FA681268528BD9
S1130A7092B21A80FB681B8B9BB2013B9BB2FA6853
S1130A80191C1183002B08D0FB685B7F002B22D03C
S1130A90FB6818002D4B98471DE0FB6801211800E6
S1130AA02B4B9847FB681B7FDBB2052B13D1FB68EC
S1130AB000221A77FB68DB7E1A00012313400AD058
S1130AC0FB689B7E1A000123134004D0FB689B68DB
S1130AD0FA6810009847BB680422134014D0FB68DE
S1130AE01B6804221A76FB68DB7E1A00022313407B
S1130AF00AD0FB689B7E1A000223134004D0FB68D3
S1130B00DB68FA6810009847BB680222134014D0CF
S1130B10FB681B6802221A76FB68DB7E1A0004233A
S1130B2013400AD0FB689B7E1A000423134004D0B0
S1130B30FB681B69FA6810009847C046BD4604B0BC
S1130B4080BDC046105500205D09000085090000E5
S1130B50F109000080B500AF0020024B9847C04661
S1130B60BD4680BD150A000080B584B000AFF860B2
S1130B70B960FB1D1A70FB1D1A78FB6802329200E3
S1130B80B968D150FB689B7E5AB2FB1D1B780121CA
S1130B9099400B005BB213435BB2DAB2FB689A76FE
S1130BA0C046BD4604B080BD80B584B000AFF860D7
S1130BB0B960BB1D1A80FB681B8B9BB2002B04D150
S1130BC0FB681B7FDBB2052B01D1052317E0FB6813
S1130BD005221A77FB68BA1D12881A83FB68BA6863
S1130BE05A61FB6801211800074B9847FB685B7F3B
S1130BF0002B03D0FB681800044B9847002318000F
S1130C00BD4604B080BDC046CD0900008509000082
S1130C1080B582B000AF78600A00FB1C1A70FB1C20
S1130C201B78002B03D17B681B7FDBB200E017230A
S1130C301800BD4602B080BD80B582B000AF7860B8
S1130C407B6800221A70C046BD4602B080BD000019
S1130C5080B582B000AF02003960FB1D1A70FB1D25
S1130C601B78012B0AD0022B0FD0002B14D10E4B72
S1130C700D4A91693A680A439A610FE00A4B0A4A9D
S1130C80D1693A680A43DA6108E0074B064A116AF7
S1130C903A680A431A6201E0172300E000231800AF
S1130CA0BD4602B080BDC0460004004080B582B09D
S1130CB000AF78607B6880221A707B6800225A70CB
S1130CC07B6801229A707B680022DA70C046BD46B8
S1130CD002B080BD80B582B000AF0200FB1D1A7067
S1130CE0FB1D1B78002B02D0012B07D00DE0084B15
S1130CF0074A126C02210A431A6406E0044B044AB0
S1130D00126C04210A431A64C046BD4602B080BD79
S1130D100008004080B586B000AF786039607B6819
S1130D201B68FB603B685A787B681A717B680022F9
S1130D309A7100237B6100233B613B689B79002B04
S1130D4003D07B69042213437B613B681B781A0040
S1130D503B6913433B613B689B78002B03D03B69A1
S1130D60042213433B613B681B79002B03D03B698E
S1130D70102213433B613B685B79002B03D03B6932
S1130D80082213433B617B69DAB2FB681A70C046E0
S1130D907B681800054B9847031EF9D13B69DAB20A
S1130DA0FB685A70C046BD4606B080BDB10D000058
S1130DB080B584B000AF78607B681B68FB60FB681B
S1130DC0DB79DBB25BB2002B01DA012300E0002304
S1130DD01800BD4604B080BD80B582B000AF786015
S1130DE07B6800221A707B6801225A707B6800229B
S1130DF09A707B6800221A717B6800225A717B68A2
S1130E000022DA707B6800229A71C046BD4602B0A7
S1130E1080BD000080B586B000AFF860B9607A602C
S1130E20FB68BA681A608023DB0219000220354B84
S1130E309847BB681B78DBB21A000223134001D029
S1130E401C235BE0BB681B78DBB21A000123134050
S1130E5001D0052352E01423FB1818002A4B9847AD
S1130E607B68DA781423FB181A701423FB18190012
S1130E702120264B98472120254B98471023FB1807
S1130E801800244B98471023FB1801221A701023D2
S1130E90FB1800225A701023FB1800229A701023AA
S1130EA0FB18190002201C4B98477A68FB68110054
S1130EB018001A4B98477B681A78FB685A711723F5
S1130EC0FB1800221A7010E01723FB181B78FA682D
S1130ED004339B00D318043300221A601723FB1831
S1130EE01A781723FB1801321A701723FB181B7882
S1130EF0022BE9D90A4BFA681A6000231800BD4690
S1130F0006B080BD510C0000390C0000A9A30000FC
S1130F10EDA30000AD0C0000DDA60000150D0000DF
S1130F201455002080B584B000AF78607B681B68DE
S1130F30FB60FB685B78DAB27B681B791343DAB237
S1130F40FB685A70C0467B6818000B4B9847031E19
S1130F50F9D1FB681B78DBB202221343DAB2FB68D7
S1130F601A707B685B79002B02D10120034B9847F0
S1130F70C046BD4604B080BDB10D0000D50C0000D4
S1130F8080B582B000AF7860C046BD4602B080BD77
S1130F9080B584B000AFF8607A600B23FB180A1C9C
S1130FA01A70C046BD4604B080BD80B582B000AFA3
S1130FB078600A00FB1C1A70C046BD4602B080BDB2
S1130FC080B584B000AF786008001100FB1C021CDF
S1130FD01A703B000A1C1A807B681B68FB60C046C1
S1130FE07B6818000A4B9847031EF9D17B689B79EC
S1130FF0002B04D0FB683A0012889A8103E0FB6856
S11310003A0012881A8100231800BD4604B080BD3E
S1131010B10D000080B582B000AF0200FB1D1A7054
S1131020074AFB1D1B7819001F230B40012199401F
S11310300B0019008023D150C046BD4602B080BDCC
S113104000E100E080B584B000AF0200FB1D1A701F
S1131050FB1D1A78374B9200D358FB60FB681B6862
S1131060BB60BB689B79DBB21A00012313400ED02E
S1131070BB6801229A71FB681433002B07D0FB680C
S11310805B7C002B03D0FB689B6900209847BB68FE
S11310909B79DBB21A000223134047D0BB680222BB
S11310A09A71FB689B899BB2002B33D0FB689A68CA
S11310B0FB68DB899BB2591C88B2F968C8815B0064
S11310C0D3181B889AB2BB689A81FB689B899BB230
S11310D0013B9AB2FB689A81FB689B899BB2002B07
S11310E018D1FB68202200219954BB6802221A718E
S11310F0BB6802229A7119200F4B9847FB6814337E
S1131100002B07D0FB689B7C002B03D0FB68DB69BA
S113111000209847FB681433002B07D0FB681B7C26
S1131120002B03D0FB685B6900209847C046BD468E
S113113004B080BD145500201510000080B500AF28
S11311400020024B9847C046BD4680BD45100000B4
S113115080B582B000AF78607B6800221A70C04608
S1131160BD4602B080BD000080B582B000AF020071
S11311703960FB1D1A70FB1D1B78012B0AD0022B52
S11311800FD0002B14D10E4B0D4A91693A680A43D3
S11311909A610FE00A4B0A4AD1693A680A43DA6154
S11311A008E0074B064A116A3A680A431A6201E0EA
S11311B0172300E000231800BD4602B080BDC046DE
S11311C00004004080B582B000AF78607B68802264
S11311D01A707B6800225A707B6801229A707B68BF
S11311E00022DA70C046BD4602B080BD80B500AFB3
S11311F0054B9B78DBB21A00022313405A1E93411D
S1131200DBB21800BD4680BD00200041F0B597B0A8
S113121000AF786139610023FB6300233B65002341
S1131220FB643B2310229446BC44634400221A709E
S11312307B691B68BB637B691B687B632323102268
S1131240BA18D4187B6B1800C04B9847030023705E
S11312500C2310229446BC4463441800BC4B9847AA
S11312603B69DB697B643B691B6A3B647B6C002BD9
S113127006D17B6B00211800B64B984703007B64B2
S11312807B6CDAB20C2310218C46BC4463441A7084
S11312900C2310229446BC44634402225A707B6C93
S11312A01B0CDBB20C2210218C46BC44624411009E
S11312B01800A94B98473B6C002B06D17B6B01218E
S11312C01800A44B984703003B643B6CDAB20C2330
S11312D010218C46BC4463441A700C23102294469B
S11312E0BC44634402225A703B6C1B0CDBB20C22DC
S11312F010218C46BC44624411001800964B984758
S11313003B699A8A7B69DA803B69DA8A7B691A814C
S11313103B691B7E002B03D1904B9847031E02D0E0
S113132080237B6501E000237B653B691B69002BFF
S113133004D03B691B697A6D13437B653B699B68E9
S11313407A6D13437B653B6924229B5C002B04D09C
S11313507B6D8022D20513437B653B699B6A002B1E
S113136004D03B699B6A7A6D13437B653B692C22ED
S11313709B5C002B05D13B699A6880239B049A42AD
S113138004D17B6D8022120513437B653B692D22BA
S11313909B5C002B04D07B6D8022120413437B657D
S11313A03B692E229B5C002B04D07B6D8022D203F0
S11313B013437B65BB6B1A687B6D1A43BB6B1A6066
S11313C0BB6B802252005A60232310229446BC44F3
S11313D063441B781433DBB21800614B9847030055
S11313E0FB623B691B68FA2292005343BB623B6970
S11313F05B68FA22920053437B623B691B8E3B621B
S1131400584BF86A984705000E00564BB86A98473F
S1131410B860F960534BF86A9847534C534A544B9D
S1131420A04703000C003B607C604E4B386A984731
S113143002000B004C4C38687968A04703000C008C
S1131440180021004B4C00224B4BA04703000C001A
S11314501A002300444CB868F968A04703000C0044
S11314601A002300454C28003100A04703000C005B
S11314701D002600BB6A5A003A4B10009847020030
S11314800B003C4C28003100A04703000C0018005E
S113149021003A4C00223A4BA04703000C001D00E7
S11314A02600BB6A5A002F4B1000984702000B001D
S11314B0344C28003100A04703000C00190022001E
S11314C0314B0800110098470300FB633B699A689D
S11314D080239B049A426AD1224BF86A9847254C90
S11314E002000B00A04703000C001D0026001D4B4A
S11314F0786A98471C4C0022244BA04703000C0038
S11315001A0023001F4C28003100A04703000C00E0
S113151018002100194C0022194BA04703000C00AD
S113152019002200184B0800110098470300FB64BF
S1131530FB6C002B2ED0164B796AF86A984703008F
S11315409A1EFB6CD31A3B6531E0C046398F00000C
S1131550C51100007D8D0000DDA60000ED11000026
S113156015A50000F9D50000E1C9000095D626E8CC
S11315700B2E113E59BB000000002440E1CE0000B8
S11315800000F03F79C100000DD5000000000840C4
S1131590B1A900007B6A5A00FB6AD3185A1E7B6A01
S11315A059001D4B100098470300013B3B65FB6B42
S11315B0FF2B08DCFB6B002B05DB3B6DFF2B02DCF8
S11315C03B6D002B06DA3B2310229446BC44634453
S11315D040221A703B2310229446BC4463441B7877
S11315E0402B0ED0FB6BFF221A403B6D1B041900ED
S11315F0FF231B040B401343FA6C12061A43BB6B04
S1131600DA603B2310229446BC4463441B781800E0
S1131610BD4617B0F0BDC046B1A9000090B58BB06F
S113162000AFF860B9607A60FB68BA681A60FB685A
S11316301B687B62FB681B6818003B4B98470300E0
S11316403B623B6A0233FB613B6A1433BB61012298
S1131650FB699A40130019000220344B9847142365
S1131660FB181800324B98477B681A7B1423FB182D
S11316701A70BB69DBB21422BA18110018002D4B82
S11316809847BB69DBB218002B4B98477B681B7BE0
S113169000211800294B98477B6A1B6802221340DB
S11316A001D01C233BE07B6A1B680122134001D05C
S11316B0052334E0FB681B681722BC1818001A4B7A
S11316C09847030023701E4A1723FB181B78110048
S11316D018001C4B98471723FB181A781A4B9200D2
S11316E0F968D150FB6800221A76FB6800225A760A
S11316F0FB6800225A83FB6800229A83FB68252238
S113170000219954FB6800221A627B6A14221A6031
S11317107A68FB68110018000C4B98470300180006
S1131720BD460BB090BDC046398F00006911000062
S113173051110000A9A30000EDA30000F18C0000EA
S1131740951D00009D8F0000605500200D120000C3
S113175080B584B000AF78607B681B68FB60FB6871
S11317601B7EDBB21A00022313400BD0FB6802225B
S11317701A76FB685B8B9BB21A000223134011D0CC
S1131780412310E0FB685B8B9BB21A0004231340D7
S113179008D0FB685B68C02292021A43FB685A6057
S11317A0182300E000231800BD4604B080BD80B5B6
S11317B084B000AF78607B681B68BB600E23FB18A5
S11317C000221A800FE00E23FB180E22BA1812888A
S11317D001321A807B681B890E22BA1812889A4239
S11317E001D312230EE0BB681B7EDBB21A00012377
S11317F0134006D1BB681B7EDBB21A0002231340E0
S1131800E1D000231800BD4604B080BD90B585B07A
S113181000AF78600A00FB1C1A707B681B68FB60D1
S1131820FB685B688022D2021A43FB685A60FB1C87
S11318301A78FB685A620B23FC187B681800074B64
S1131840984703002370FB6801221A760B23FB18C8
S11318501B781800BD4605B090BDC046AF17000008
S113186080B584B000AF78607B681B68FB60FB6860
S1131870DB69072213405A1E9341DBB21800BD46B0
S113188004B080BD80B582B000AF7860C0467B688C
S11318901800044B9847031EF9D1C046BD4602B058
S11318A080BDC0466118000080B584B000AF786088
S11318B07B681B68FB60FB681B681B01DB0FDBB2EA
S11318C01A000B23FB18511E8A411A700823FB18B7
S11318D07A68528B1A807B689B8B9AB20823FB1818
S11318E00821791809888A1A1A807B689B8B9BB215
S11318F0013B9AB27B689A830B23FB181B78002B5D
S113190010D07B68DB7A002B1CD07B689B8B9BB24E
S1131910012B17D1FB685B688022D2021A43FB6853
S11319205A600FE07B68DB7A002B0BD07B689B8BC3
S11319309BB2002B06D1FB685B688022D2021A435B
S1131940FB685A607B689B8B9BB2002B0ED17B6833
S11319509B7A002B0AD07B6818000E4B9847FB68D3
S11319605B68C02292021A43FB685A607B681800C5
S1131970084B98477B681A6A0823FB181B88D318FE
S1131980FA682821525CD2B21A70C046BD4604B02F
S113199080BDC0468518000080B584B000AF786073
S11319A07B681B68FB60FB685B8B9BB21A0004239B
S11319B0134004D07B6825221E21995424E00A2375
S11319C0FB187A68528B1A807B689B8B9AB20A2325
S11319D0FB180A21791809888A1A1A807B689B8B5C
S11319E09BB2013B9AB27B689A837B681800084BD0
S11319F098477B681A6A0A23FB181B88D3181B783C
S1131A00D9B2FB6828229954BD4604B080BDC046B3
S1131A108518000080B584B000AF78607B681B68CF
S1131A20FB60FB681B7EDBB21A00012313402BD042
S1131A30FB6801221A76FB685B8B9BB21A000223B7
S1131A40134004D07B682522412199541CE0FB6893
S1131A505B8B9BB21A000423134015D07B682522AC
S1131A60182199547B6800229A837B689B7A002B07
S1131A700AD07B681800134B9847FB685B68C02248
S1131A8092021A43FB685A607B689B8B9AB27B680C
S1131A905A837B6825229B5CDBB2052B0ED17B68C5
S1131AA024229B5CDBB2002B04D17B681800064B1C
S1131AB0984703E07B681800044B9847C046BD462E
S1131AC004B080BD8518000099190000A918000011
S1131AD080B584B000AFF860B960FB1D1A70FB1DBF
S1131AE01B78FA6802339B00D3180433BA681A606F
S1131AF0FB681B7EDBB25AB2FB1D1B7801219940A7
S1131B000B005BB213435BB2DAB2FB681A76C046D1
S1131B10BD4604B080BD000090B587B000AF7860CA
S1131B2039607B681B683B613B685A687B681A6252
S1131B303B685A887B689A837B68242201219954E4
S1131B407B682522052199543B691B681B01DB0F27
S1131B50DBB21A000F23FB18511E8A411A703B682E
S1131B605B7A002B06D03B689A7A7B6811001800D8
S1131B703B4B98470F23FB181B78002B0BD03B687B
S1131B805B88012B07D13B695B688022D2021A4330
S1131B903B695A6005E03B695B68324A1A403B691D
S1131BA05A603B681B7A002B45D03B681B885A005F
S1131BB03B685B7A9B0313431A0080231B021A437E
S1131BC03B695A621723FC187B681800264B984718
S1131BD0030023703B695B68224A1A403B695A60E0
S1131BE01723FB181B78002B07D11723FC187B68DD
S1131BF018001E4B9847030023701723FB181B780B
S1131C00002B14D13B6903229A753B681B881B0A7D
S1131C109BB2782213439BB25A003B685B7A9B03C6
S1131C201343012213431A003B695A6212E017233B
S1131C30FB181B780FE03B6903229A753B681B88ED
S1131C405B0001221A433B685B7A9B0313431A002F
S1131C503B695A6200231800BD4607B090BDC046D8
S1131C600D180000FFFFFBFFAF1700005117000025
S1131C7080B582B000AF786039607B689B8B9BB283
S1131C80002B01D005230CE07B6801229A727B684B
S1131C900122DA723A687B6811001800034B9847F6
S1131CA003001800BD4602B080BDC046191B0000E9
S1131CB080B584B000AF786039607B681B68FB60D6
S1131CC03B685B7A002B06D03B689A7A7B681100EC
S1131CD018001E4B9847FB685B681D4A1A40FB6856
S1131CE05A603B685A687B681A623B685A887B680A
S1131CF09A837B682422002199547B68252205213C
S1131D009954FB6803229A753B681B7A002B0DD00B
S1131D103B681B885A003B685B7A9B0313431A0099
S1131D2080231B021A43FB685A6209E03B681B8844
S1131D305A003B685B7A9B0313431A00FB685A62A0
S1131D4000231800BD4604B080BDC0460D18000035
S1131D50FFFFFBFF80B582B000AF786039607B681D
S1131D609B8B9BB2002B01D005230CE07B680122E6
S1131D709A727B680122DA723A687B681100180053
S1131D80034B984703001800BD4602B080BDC0460F
S1131D90B11C000080B586B000AF0200FB1D1A70B4
S1131DA0FB1D1A78934B9200D3587B617B691B68A7
S1131DB03B613B691B681B01DB0FDBB21A000F237D
S1131DC0FB18511E8A411A700E23FB187A69527E41
S1131DD01A707B691B7EDAB20E23FB180E21791868
S1131DE009780A401A707B695B8B9BB2002B09D17E
S1131DF07B699B8B9BB2002B04D07B6918007E4BC4
S1131E00984770E07B695B8B9BB2002B39D07B6970
S1131E109B8B9BB2002B34D17B6925229B5CDBB26C
S1131E20052B2ED17B6924229B5CDBB2002B28D1AD
S1131E303B6903221A757B6900225A837B69252238
S1131E40002199547B699B7A002B0BD07B69180085
S1131E506A4B98473B695B68C02292021A433B690C
S1131E605A6002E03B6901221A760E23FB181B78A4
S1131E700122134037D07B69DB687A6910009847E8
S1131E8031E07B695B8B9BB2002B2CD07B699B8BF5
S1131E909BB2002B27D03B695B8B9BB21A0020239B
S1131EA0134011D10F23FB181B7801225340DBB2DE
S1131EB0002B04D17B699B8B9BB2012B04D07B69E3
S1131EC02522412199540EE07B6924229B5CDBB2DC
S1131ED0002B04D17B691800494B984703E07B69C8
S1131EE01800484B98477B695B8B9BB2002B47D00B
S1131EF07B699B8B9BB2002B42D17B6925229B5C27
S1131F00DBB2052B3CD17B6924229B5CDBB2012B29
S1131F1036D13B691B7EDBB21A000223134002D088
S1131F203B6902221A763B6903221A757B690022F7
S1131F305A837B692522002199540E23FB181B78B0
S1131F40022213400BD07B6924229B5CDBB2012B61
S1131F5005D17B691B697A691000984710E00E234C
S1131F60FB181B78012213400AD07B6924229B5C56
S1131F70DBB2002B04D17B69DB687A6910009847D7
S1131F807B6925229B5CDBB2052B2ED07B69252245
S1131F909B5CDBB2002B28D03B6903221A757B695A
S1131FA000225A837B6900229A837B6925229B5CE9
S1131FB0DBB2412B0ED07B699B7A002B0AD07B6964
S1131FC018000E4B98473B695B68E022D2021A4323
S1131FD03B695A600E23FB181B780422134004D07B
S1131FE07B695B697A6910009847C046BD4606B0B4
S1131FF080BDC04660550020151A000085180000F9
S113200099190000A918000080B584B000AFF860E9
S1132010B9607A60FB68043BFB60FB688022520471
S11320201A60FB68043BFB60BA68FB681A60FB68D3
S1132030043BFB60084AFB681A60FB68143BFB60C6
S11320407A68FB681A60FB68203BFB60FB68180039
S1132050BD4604B080BDC0465D20000080B582B09E
S113206000AF00237B60074B1B68013301D072B6BD
S1132070FEE772B6C0467B68002BFCD0C046BD4666
S113208002B080BD0C00002080B500AFC046BD4644
S113209080BD0000000000000000000000000000FF
S11320A00B4A13681868203080F30988022080F3F3
S11320B01488BFF36F8F3FBCAE4608BC04BC62B645
S11320C01847C046C046C046C046C046C046C04683
S11320D088530020C046C04680B500AF0E4B0E4A60
S11320E01268FF2109040A431A600B4B0A4A12685A
S11320F0FF2109060A431A60084B9847084B00223F
S11321001A60084B9847084B9847084B9847002398
S11321101800BD4680BDC04620ED00E04922000005
S11321200C000020A1200000B56F00005D2000001D
S113213080B500AF054B802252051A60BFF34F8F64
S1132140BFF36F8FC046BD4680BDC04604ED00E0BE
S113215080B500AF72B6064B1B685A1C044B1A605C
S1132160BFF34F8FBFF36F8FC046BD4680BDC046DF
S11321700C00002080B500AF094B1B68002B01D177
S113218072B6FEE7064B1B685A1E054B1A60044BD9
S11321901B68002B00D162B6C046BD4680BDC04658
S11321A00C000020EFF3108072B67047C046180090
S11321B080F310887047C046000000000000000053
S11321C0EFF309800E4B1A6820381060F0C04446C3
S11321D04D4656465F46F0C008B572B604F0EAFEB6
S11321E062B60CBC116808681030F0C8A046A94655
S11321F0B246BB4680F309882038F0C81847C04669
S113220088530020C046C04680B582B000AF0A4B58
S1132210984703007B60094B9847031E03D0084B83
S1132220802252051A607B681800064B9847C04606
S1132230BD4602B080BDC046A52100002D6E000041
S113224004ED00E0B121000080B500AF074B00228F
S11322501A60074B00221A60064B074A1A60034BA8
S113226007221A60C046BD4680BDC04610E000E0AB
S113227018E000E014E000E07FBB000080B586B009
S113228000AF78600023FB604C4B98474C4B1B68B5
S1132290002B01D14B4B98474B4B1B687A6813407A
S11322A000D079E07B68002B12D008227B689B1851
S11322B07B607B68072213400AD07B680722934324
S11322C008337B607B680722134001D072B6FEE7B7
S11322D07B68002B60D03D4B1B687A689A425BD8C0
S11322E03B4B3B613A4B1B687B6104E07B693B6180
S11322F07B691B687B617B695A687B689A4203D25D
S11323007B691B68002BF1D12D4B1B687A699A42BB
S113231042D03B691B6808229B18FB607B691A68E2
S11323203B691A607B695A687B68D21A08235B0090
S11323309A4216D97A697B68D318BB60BB680722B6
S1132340134001D072B6FEE77B695A687B68D21AE3
S1132350BB685A607B697A685A60BB6818001D4B79
S113236098471A4B1A687B695B68D21A174B1A6034
S1132370164B1A68184B1B689A4203D2134B1A68FF
S1132380154B1A607B695A680F4B1B681A437B69AB
S11323905A607B6900221A60104B9847FB68002B37
S11323A001D10F4B9847FB680722134001D072B646
S11323B0FEE7FB681800BD4606B080BDC56C000092
S11323C0CC4F002081240000D84F0020D04F0020A3
S11323D0C44F002041250000D44F0020DD6C0000D4
S11323E075A9000080B584B000AF78607B68FB609D
S11323F07B68002B35D008235B42FA68D318FB6056
S1132400FB68BB60BB685A68184B1B68134001D15A
S113241072B6FEE7BB681B68002B01D072B6FEE7FC
S1132420BB685A68114B1B6813401AD0BB681B6801
S1132430002B16D1BB685A680C4B1B68DB431A404F
S1132440BB685A600A4B9847BB685A68094B1B68BB
S1132450D218084B1A60BB681800074B9847074B03
S11324609847C046BD4604B080BDC046D84F002042
S1132470C56C0000D04F002041250000DD6C000039
S113248080B584B000AF274BBB60274BFB60FB6873
S1132490072213400CD0FB680733FB60FB6807225C
S11324A09343FB60BA68FB68D21A1F4BD318BB6016
S11324B0FB687B601D4B7A681A601C4B00225A60D3
S11324C07A68BB68D318FB600822FB689B1AFB6020
S11324D0FB6807229343FB60FA68154B1A60144BA0
S11324E01B6800225A60124B1B6800221A607B682A
S11324F03B603B68FA68D21A3B685A600C4B1A6816
S11325003B681A603B685A680A4B1A603B685A6811
S1132510094B1A60094B802212061A60C046BD4658
S113252004B080BD204E0000A4010020C44F002050
S1132530CC4F0020D44F0020D04F0020D84F002093
S113254080B584B000AF7860274BFB6002E0FB6885
S11325501B68FB60FB681A687B689A42F7D3FB68C8
S1132560BB60FB685B68BA68D2187B689A4208D182
S1132570FB685A687B685B68D218FB685A60FB6822
S11325807B607B68BB607B685B68BA68D218FB6859
S11325901B689A4218D1FB681A68144B1B689A424C
S11325A00DD07B685A68FB681B685B68D2187B682F
S11325B05A60FB681B681A687B681A6008E00B4B5A
S11325C01A687B681A6003E0FB681A687B681A6003
S11325D0FA687B689A4202D0FB687A681A60C0463F
S11325E0BD4604B080BDC046C44F0020CC4F00207F
S11325F080B582B000AF0200FB1D1A70064BFA1DB5
S1132600127811001F220A40012191400A001A6029
S1132610C046BD4602B080BD00E100E080B584B094
S113262000AF78607B681B68FB60FB685B7EDBB295
S11326305BB2002B01DA012300E000231800BD4641
S113264004B080BD80B584B000AF78607B681B683F
S1132650FB60C0467B681800104B9847031EF9D1F5
S113266017200F4B9847FB680F229A75FB680F22BF
S11326701A76FB681B78DBB202221343DAB2FB68DA
S11326801A70C0467B681800044B9847031EF9D1A2
S113269000231800BD4604B080BDC0461D260000BE
S11326A0F125000080B584B000AF78600A00FB1CFF
S11326B01A707B681B68FB60FB68FA1C1278DA7579
S11326C0C046BD4604B080BD80B582B000AF78601E
S11326D00A00FB1C1A707B68DB7E5AB2FB1C1B7859
S11326E0012199400B005BB213435BB2DAB27B6801
S11326F0DA76FB1C1B78012B04D17B6804211800BB
S1132700074B9847FB1C1B78022B04D17B680221E2
S11327101800034B9847C046BD4602B080BDC04672
S1132720A526000080B582B000AF78607B680021E8
S11327301800134B9847031E1DD1124B1B889AB2E5
S1132740114B1A800F4B5B889AB2104B1A800D4BB9
S11327509B889AB20E4B1A800A4BDB889AB20C4BB8
S11327605A80084B1B899AB2094B9A80054B1B8AE5
S11327709AB2084B1A80C046BD4602B080BDC0461E
S1132780110C0000FC4F00201850002016500020AF
S1132790105000201A50002080B58CB000AF3B00D0
S11327A01800214B98473B0002221A733B00C022B9
S11327B05201DA813B000022DA743B0001221A70D4
S11327C03B00C022D2005A803B0000229A603B00AA
S11327D000221A713B0003225A703B002B22002175
S11327E099543B002C22092199543A000F49104B6B
S11327F01800104B98470E4B18000F4B98470F4981
S11328000B4B002218000E4B9847094B002118006F
S11328100C4B98470C4B01221A700C4B9847C0463E
S1132820BD460CB080BDC046190200000040004205
S1132830DC4F002069080000452600002527000021
S1132840690B0000C92600001C500020512800001C
S113285080B500AF064B1B78DBB2002B05D00549D1
S1132860054B09221800054B9847C046BD4680BD5C
S11328701C500020FC4F0020DC4F0020A90B00005E
S113288090B587B000AF0200FB1D1A70FB1D1B78CA
S1132890022B01D900235EE0FB1D19781623FB18D7
S11328A02F4A49008A5A1A801623FB181A882D4B7E
S11328B0100098472C4C00222C4BA04703000C001E
S11328C0180021002A4C2B4A2B4BA04703000C0074
S11328D018002100264C294A294BA04703000C006C
S11328E019002200274B080011009847031C3B6184
S11328F0254B38699847254C0022254BA0470300F7
S11329000C00180021001A4C0022224BA04703009F
S11329100C0018002100144C00221F4BA047030098
S11329200C0019002200174B080011009847031CE3
S1132930FB60154BF86898470D4C184A184BA04794
S113294003000C00190022000E4B080011009847E8
S1132950031CBB60BB68181CBD4607B090BDC046D5
S11329601050002075D5000079C1000000FEAF4072
S1132970E1C900006666666666660A40F6285C8FF2
S1132980C2F5F83F0DD7000069D60000E1CE000083
S11329900000E03F0000144000001040CFF753E374
S11329A0A5935140F0B589B000AF0023FB610CE062
S11329B0FB69DBB218006A4B9847011C3B00FA69BB
S11329C09200D150FB690133FB61FB69022BEFDDFF
S11329D00023BB610023FB6124E0624BB869984784
S11329E005000E003B00FA699200D2585D4B101CA2
S11329F098475D4C5D4A5E4BA04703000C001A00EB
S1132A0023005C4C28003100A04703000C0019008F
S1132A102200594B080011009847031CBB61FB6955
S1132A200133FB61FB69022BD7DD1723FB1800225E
S1132A301A7000233B610023FB6124E03B00FA6928
S1132A409200D2584D4B111CB8699847031C1A1CAC
S1132A504B4B101C98470300D9175A184A40494B4E
S1132A6010009847031CFB60474B3969F868984786
S1132A70031E05D0FB683B611723FB18FA691A7023
S1132A80FB690133FB61FB69022BD7DD0023BB61CA
S1132A900023FB612AE01723FB181A78FB699A428A
S1132AA021D0304BB869984705000E003B00FA6905
S1132AB09200D2582B4B101C98472B4C0022334BBE
S1132AC0A04703000C001A0023002A4C2800310000
S1132AD0A04703000C0019002200274B0800110036
S1132AE09847031CBB61FB690133FB61FB69022B43
S1132AF0D1DD1723FB181A783B009200D2581F4BE4
S1132B00B969101C9847031C1A1C1D4B101C9847CC
S1132B100300D9175A184A401D4B10009847050066
S1132B200E00104BB86998470F4C1A4A1A4BA0472D
S1132B3003000C001A002300184C28003100A047A1
S1132B40031E04D001210220154B984703E0002105
S1132B500220134B9847BB69181CBD4609B0F0BD51
S1132B608128000069D60000E1C90000BEA4315AE2
S1132B704755D53F59BB00000DD7000041B70000B1
S1132B8079BA0000B9BA000091AB00000000E03F40
S1132B9075D500009A9999999999C93F1DAB000080
S1132BA0F92B0000B0B500AF0B4B1B889BB21A0089
S1132BB00A4B100098470A4C00220A4BA047030016
S1132BC00C0019002200084B080011009847031C50
S1132BD0181CBD46B0BDC0461650002075D5000077
S1132BE079C1000000FEAF400DD7000080B500AFF2
S1132BF00023181CBD4680BD80B582B000AF020022
S1132C00FB1D1A70BB1D0A1C1A70FB1D1B781F2BA1
S1132C101CD8BB1D1B78002B0BD0FB1D1B7801227D
S1132C209A4013001A000B4B1B681A43094B1A6095
S1132C300DE0FB1D1B7801229A401300DB431A00B0
S1132C40044B1B681A40034B1A6000E0C046BD46A3
S1132C5002B080BD2050002080B582B000AF0200D9
S1132C60FB1D1A70FB1D1B781F2B01D900230BE0E1
S1132C70FB1D1B7801229A4013001A00044B1B68A9
S1132C8013405A1E9341DBB21800BD4602B080BD0A
S1132C902050002080B500AF034B1B685A1E93419F
S1132CA0DBB21800BD4680BD20500020B0B588B00E
S1132CB000AFF860B9607A603B60BA68FB68D31A09
S1132CC0BB61FB68FB613B681A68BB699A422CDDF7
S1132CD07B689A683B681A61544BB8699847041C2E
S1132CE03B681A68514B10009847021C504B111C4A
S1132CF0201C9847031C7B613B681C697B68DA686D
S1132D007B689B68D21A494B10009847021C494BB8
S1132D107969101C9847031C1A1C474B101C9847D0
S1132D200300E2183B681A617BE03B681A683B6861
S1132D305B68D218BB699A4204DD7B68DA683B6839
S1132D401A616EE03B681A683B685B68D2183B689E
S1132D509B68D218BB699A423DDD7B68DA683B68A0
S1132D601A613B681A683B685B68D318BA69D21A5F
S1132D702E4B10009847031C3B613B681A692B4B90
S1132D8010009847041C3B689A68284B1000984729
S1132D90021C274B111C38699847031C1D1C7B68B7
S1132DA09A687B68DB68D21A204B10009847021C93
S1132DB0204B111C281C9847031C1A1C1F4B111C68
S1132DC0201C9847031C1A1C1B4B101C984702001C
S1132DD03B681A6125E03B681A683B685B68D21857
S1132DE03B689B68D2183B68DB68D218BB699A427F
S1132DF004DD7B689A683B681A6112E07B689A6814
S1132E003B681A613B681A683B685B68D2183B6888
S1132E109B68D2183B68DB68D3181A00FB68D31888
S1132E20FB61FB691800BD4608B0B0BDB9BA00002B
S1132E3021B1000001B5000079BA0000FDAD000029
S1132E40F0B589B000AFF860B960FB681A69FB6837
S1132E505B69D21A7D4B10009847031CBB617C4B05
S1132E607B617C4B1A687C4B111CB8699847031C26
S1132E701A1C7A4B7969101C9847031C1A1C784B4E
S1132E80101C984705000E00754B7869984702009E
S1132E900B00744C00207449A04703000C003B60F5
S1132EA07C60724B1A686E4B101C984702000B0032
S1132EB06F4C38687968A04703000C001A0023009F
S1132EC06C4C28003100A04703000C0019002200BC
S1132ED0694B080011009847021C644B1A60674B49
S1132EE0B86998470300D9175A184A40574B10003D
S1132EF09847BB685A69624B111C9847031E49D016
S1132F00604B1A68604BB969101C9847031C1A1C63
S1132F105C4B1A60BB689A685A4B19684F4B101C7B
S1132F209847031C1A1C554B101C98470300D917CB
S1132F305A184A40454B10009847BB681A69534BCE
S1132F40111C9847031E28D04E4B1C684D4B1A6821
S1132F504A4B101C98470300D9175A184A403B4B58
S1132F6010009847021C4A4B111C201C9847031C54
S1132F70181CBB681A69394B111C9847031C181C90
S1132F80BB689A68424B111C9847031C1A1C3D4BA2
S1132F901A6002E03B4B00221A60BB681C68FB68A5
S1132FA01A692A4B10009847021C2C4B111C201C38
S1132FB09847031C1C1CBB685A68284BB969101C31
S1132FC09847031C1A1C304B111C201C9847031CE7
S1132FD01C1CBB689A682B4B1968204B101C984723
S1132FE0031C1A1C284B111C201C9847031C1C1C76
S1132FF0BB68DA681D4B1968184B101C9847031CF2
S11330001A1C214B111C201C9847031CFB61BB6834
S11330109A691B4BF969101C9847031E02D0BB68C0
S11330209B69FB61BB68DA69184BF969101C984706
S1133030031E02D0BB68DB69FB61064BBA691A60E8
S1133040FB69181CBD4609B0F0BDC046B9BA000002
S11330503333333F2450002041B7000001B5000052
S113306069D60000E1CE00000000F03F28500020A7
S1133070E1C9000059BB00000DD7000079BA000077
S113308069AB00002C500020FDAD000091AB0000A6
S113309021B10000F0B587B000AF786039607B687B
S11330A01A696B4B1000984702000B00694C002012
S11330B06949A04703000C0019002200674B08006F
S11330C011009847031C7B613B689A683B681B6846
S11330D0D218634B10009847021C624B111C78698C
S11330E09847031C3B61604B002138699847031ED5
S11330F004D0012106205D4B984703E000210620FF
S11331005A4B98477B685B780A2B51D9584B3869DE
S1133110984705000E007B685B781A004C4B100042
S11331209847544C544A554BA04703000C001800D0
S11331302100534C0022534BA04703000C001A00FB
S11331402300444C28003100A04703000C00190060
S11331502200424B080011009847031CFB60444BBB
S1133160F868984705000E007B685B781A00384BB6
S1133170100098473F4C404A404BA04703000C00C6
S11331801A0023003B4C28003100A04703000C0028
S1133190190022003C4B08001100984702003B68CC
S11331A0DA603A4BF868984702003B685A604BE093
S11331B07B685B781A00264B100098472D4C2E4AEA
S11331C02E4BA04703000C001A002300214C0020C2
S11331D02C49A04703000C00190022001F4B0800D3
S11331E011009847031CBB60214B386998470500C0
S11331F00E001F4BB8689847214C0022214BA04772
S113320003000C001A002300124C28003100A047D0
S113321003000C0019002200104B0800110098470D
S1133220031CFB601A4BB968F8689847031C1A1C06
S1133230164B101C984702003B685A60134BF86801
S1133240984702003B68DA60C046BD4607B0F0BD4F
S113325075D5000079C10000004CED400DD7000089
S1133260B9BA000041B7000069AB0000F92B0000B7
S113327069D60000E1C900009A9999999999B93FD2
S113328059BB00000000F03F0DD5000079BA0000E2
S113329001B5000090B587B000AFF860B9607A60FE
S11332A01D4B984703007B611C4B1B780122534044
S11332B0DBB2002B09D0FB681B7D01221340DBB27B
S11332C0002B02D07A69164B1A60154B1B68180044
S11332D0BB68FA687969134CA04703001A00104BC5
S11332E01A607A68BB68110018000F4B9847031CDA
S11332F03B610E4B7A691A60FB681B7DDB07DB0FB1
S1133300DBB2DA17D31ADB0FDAB2044B1A703B695B
S1133310181CBD4607B090BD116E0000305000204F
S113332034500020AD2C0000412E00003850002005
S113333080B586B000AF786039601323FB18002293
S11333401A707B68FB60FB68002B18D000237B613C
S113335011E0FB685A1CFA601A781323FB181B78D7
S11333605340DBB219001323FB18084A525C1A704D
S11333707B6901337B617A693B689A42E9D3132301
S1133380FB181B781800BD4606B080BD1000002055
S113339080B582B000AF0200FB1D1A70064BFA1D07
S11333A0127811001F220A40012191400A001A607C
S11333B0C046BD4602B080BD00E100E080B584B0E7
S11333C000AF78607B681B68FB60FB68DB690722E1
S11333D013405A1E9341DBB21800BD4604B080BDB1
S11333E080B582B000AF7860C0467B681800044B9B
S11333F09847031EF9D1C046BD4602B080BDC04601
S1133400BD33000080B582B000AF78607B68642271
S11334101A607B681B4A5A607B6800229A607B684A
S113342000221A737B6800221A767B68802292033A
S11334301A617B6801225242DA827B68012252427D
S11334409A827B680022DA617B6800221A627B68B8
S11334502422002199547B6800229A627B682C22E2
S1133460002199547B682D22002199547B682E22D7
S1133470002199547B68D7221A86C046BD4602B003
S113348080BDC046480D000080B584B000AF7860B0
S11334907B681B68BB600023FB607B681800144BCF
S11334A09847BB681B6802221A43BB681A607B6892
S11334B01B6818000F4B9847030018000E4B9847E1
S11334C00CE0FB680133FB607B68DB881A00FB6857
S11334D09A4203D8BB6810225A8306E0BB685B8B10
S11334E09BB21A0010231340EBD0BD4604B080BD3C
S11334F0E1330000099000009133000080B582B0F0
S113350000AF78600A00FB1C1A707B685B7EDBB23C
S11335105AB2FB1C1B78012199400B005BB2134388
S11335205BB2DAB27B685A76C046BD4602B080BD53
S113353080B582B000AF7860154B1B78DBB21B02FC
S1133540134A5278D2B29B181B02114A9278D2B213
S11335509B181B020E4AD278D2B29A180D4B1A60ED
S11335600B4B1B79DBB21B02094A5279D2B29B186E
S11335701B02074A9279D2B29B181B02044AD279E1
S1133580D2B29A18034B5A60C046BD4602B080BD01
S11335906C5000206450002080B58EB000AF3B1DFD
S11335A01800214B98473B1D01221A733B1D5022E2
S11335B01A603B1D01225242DA823B1D1622DA6157
S11335C03B1D17221A62C0463A1D1849184B1800B1
S11335D0184B9847031EF7D1154B1800164B984704
S11335E01649134B01221800154B9847104B012123
S11335F01800144B9847144B01221A80124B134A9B
S11336005A60114B01225A800F4B00225A720E4B02
S113361000221A720C4A064B110018000C4B9847F2
S1133620C046BD460EB080BD053400000014004203
S11336303C5000201D160000893400003135000084
S1133640D11A0000FD340000805000201001002039
S1133650551D000080B500AF0B4B01221A800A4BA8
S11336600A4A5A60084B01225A80074B00225A72B8
S1133670054B00221A72044A054B11001800054B31
S11336809847C046BD4680BD8050002011010020EF
S11336903C500020551D000080B500AF0B4B0122AB
S11336A01A800A4B0A4A5A60084B08225A80074B70
S11336B000225A72054B00221A72044A054B11006B
S11336C01800054B9847C046BD4680BD7450002085
S11336D06C5000203C500020711C000080B582B06A
S11336E000AF78607B68034A03CA03C3C046BD4683
S11336F002B080BD6450002080B584B000AF0200E9
S1133700FB1D1A700F23FB18FA1D1278D2091A70C8
S11337100E23FB18FA1D127852091A700D4BBB6068
S11337200F23FB181B78002B0FD10F23FB181B78DA
S11337309B0010229446BC446344083B1A680E2341
S1133740FB181B78DB01D31800E000231800BD46EA
S113375004B080BD0044004180B582B000AF0200D7
S1133760FB1D1A70FB1D1B781800034B98470300C0
S11337701800BD4602B080BDF936000080B582B0A5
S113378000AF78607B6800221A707B6801225A704F
S11337907B6800229A70C046BD4602B080BD00001E
S11337A080B584B000AF0200FB1D1A70BB1D0A1C5B
S11337B01A70FB1D1B7818000D4B98470300FB6023
S11337C0FB1D1B781F22134001229A401300BB608B
S11337D0BB1D1B78002B03D0FB68BA689A6102E01A
S11337E0FB68BA685A61C046BD4604B080BDC04695
S11337F05937000080B582B000AF78607B680A2238
S11338001A707B6800225A707B6800229A70C04646
S1133810BD4602B080BD000080B584B000AF7860C2
S113382039603B681A787B681A703B685A787B6801
S11338305A703B689A787B689A700C23FB181800BE
S11338400B4B98470C23FB1801221A707B681B78DA
S11338500C22BA1811001800064B98477B681B7895
S113386001211800044B9847C046BD4604B080BDF2
S11338707D37000011910000A137000090B589B098
S113388000AF786039603B68162B5AD11F23FB18B0
S11338907A68527D1A707B6803331E22BC18122189
S11338A018002A4B9847030023701E23FA181F237D
S11338B0FB1812781B789A4243D17B6803331B7838
S11338C01A1C01231340DAB20823FB1801210A4011
S11338D010001A7801218A43111C021C0A431A7031
S11338E07B681A790823FB185A707B68591D0823D2
S11338F0FB18043304221800154B98477B680933DE
S113390019000823FB18083304221800104B9847A9
S11339107B680D3319000823FB180C3304221800AC
S11339200B4B98477B68113319000823FB1810339D
S113393004221800064B98470823FB181800054B6F
S11339409847C046BD4609B090BDC046313300001B
S1133950BDD80000054B000080B582B000AF786090
S11339603960C046BD4602B080BD0000F0B587B0E6
S113397000AFFB1D06221A700823FB18FA1D5A60BB
S11339800823FB1801229A600823FB181A4ADA60FC
S11339900823FB18194A1188198092789A70082311
S11339A0FB18186859689A68DB68154CA047002012
S11339B0144B984703001D0000231E00124C3222B2
S11339C0002328003100A04703000C001900220046
S11339D00E4B0024C9186241080011000C4C0D4A1A
S11339E00023A04703000C0018000B4B9847C04667
S11339F0BD4607B0F0BDC046593900008C500020C8
S1133A008D460000D1A20000F9AB0000BFCF6A00D0
S1133A10B9AB0000C0CF6A000100002080B582B0BD
S1133A2000AF094B98473B1D1800084B98473B1DB6
S1133A300B221A703A1D064B11001800054B9847CB
S1133A40C046BD4602B080BDF1450000F537000018
S1133A508C5000201938000090B58BB000AF26239D
S1133A60FB1800221A801023FB1803221A70262345
S1133A70FB181B881B0A9BB2DAB21023FB185A707E
S1133A802623FB181B88DAB21023FB189A703B001C
S1133A901022BA185A603B0016229A603B000A4A68
S1133AA0DA603B00094A1188198092789A703B00C9
S1133AB0186859689A68DB68054CA0470300180029
S1133AC0BD460BB090BDC0467D3800008C50002030
S1133AD08D46000090B58DB000AF78603D4B98479F
S1133AE02E23FB1800221A801823FB1802221A70B6
S1133AF02E23FB181B881B0A9BB2DAB21823FB186F
S1133B005A702E23FB181B88DAB21823FB189A70FC
S1133B107B681B78DB07DB0FDBB21A001823FB186A
S1133B20DA707B685A781823FB181A717B68191DA0
S1133B301823FB18053304221800274B98477B6889
S1133B40083319001823FB18093304221800224BE8
S1133B5098477B680C3319001823FB180D33042293
S1133B6018001D4B98477B68103319001823FB1865
S1133B70113304221800184B98471823FB180333F9
S1133B8012211800154B984703001A001823FB183C
S1133B905A750823FB181822BA185A600823FB1810
S1133BA016229A600823FB180D4ADA600823FB18D2
S1133BB00C4A1188198092789A700823FB181868A7
S1133BC059689A68DB68084CA04703001800BD4692
S1133BD00DB090BD6D390000BDD800003133000038
S1133BE0593900008C5000208D46000090B585B0F6
S1133BF000AF1A4B28221A80184B194A5A60174BE7
S1133C0002225A80154B00225A72144B00221A7257
S1133C103B1D124A13CA13C33B1D186859689A689E
S1133C20104B98470820104B984728200F4B984773
S1133C300F4B1C680E4B1B6818000E4B9847020074
S1133C400D4B210018000D4B984700200C4B984752
S1133C50C0461800BD4605B090BDC046B450002013
S1133C6018010020B9540000B93E0000393E00009C
S1133C701401002089D9000028510020BDD800007B
S1133C80853C000090B587B000AF0200FB1D1A70A0
S1133C90FB1D1B78002B18D15549564B14221800D4
S1133CA0554B98475549564B14221800524B984788
S1133CB05449554B142218004F4B98475349544BC1
S1133CC0142218004C4B98471EE0FB1D1B78012B57
S1133CD018D15049474B14221800474B98474E4976
S1133CE0474B14221800444B98474C49464B142226
S1133CF01800414B98474A49454B142218003E4B43
S1133D00984701E000236FE000237B6118E0394A03
S1133D107B69D3181B78062B04D8364A7B69D318E1
S1133D2020221A70384A7B69D3181B78062B04D8D2
S1133D30354A7B69D31820221A707B6901337B6171
S1133D407B69272BE3DD374B28221A80354B364A13
S1133D505A60344B03225A80324B00225A72314B40
S1133D6000221A720823FB182E4A13CA13C308230D
S1133D70FB18186859689A682C4B98472C4B2822D2
S1133D801A802B4B1B4A5A60294B28225A80284BF5
S1133D9000225A72264B00221A720823FB18244A66
S1133DA013CA13C30823FB18186859689A681F4B71
S1133DB09847204B28221A801E4B134A5A601D4BE9
S1133DC028225A801B4B00225A721A4B00221A7264
S1133DD00823FB18174A13CA13C30823FB181868CF
S1133DE059689A68114B98471800BD4607B090BDB2
S1133DF02851002078510020BDD8000050510020E7
S1133E008C5100203C510020A0510020645100201E
S1133E10B4510020D850002000510020EC50002064
S1133E2014510020A85000201C010020B9540000A7
S1133E30905000209C50002090B587B000AF020045
S1133E40FB1D1A70FB1D1B78002B03D0FB1D1B7878
S1133E50322B01D9002325E0144BFE221A70134B98
S1133E6052225A70114BFA1D12789A70104B282264
S1133E701A800F4B0D4A5A600D4B03225A800C4B8B
S1133E8000225A720A4B00221A720C23FB18084AA9
S1133E9013CA13C30C23FB18186859689A68054B96
S1133EA0984701231800BD4607B090BDC8510020B3
S1133EB0C0500020B954000090B587B000AF020094
S1133EC0FB1D1A70FB1D1B78002B03D0FB1D1B78F8
S1133ED0082B01D9002325E0144BFE221A70134B42
S1133EE053225A70114BFA1D12789A70104B2822E3
S1133EF01A800F4B0D4A5A600D4B03225A800C4B0B
S1133F0000225A720A4B00221A720C23FB18084A28
S1133F1013CA13C30C23FB18186859689A68054B15
S1133F20984701231800BD4607B090BDCC5100202E
S1133F30CC500020B954000090B58DB002AF786029
S1133F400A00FB1C1A700C23FB181800594B9847E5
S1133F5000237B6207E0584A7B6AD31820221A7038
S1133F607B6A01337B627B6A4F2BF4DD0C23FB18E5
S1133F701B7801221340DBB2002B04D04E4B4F4A76
S1133F8003CA03C305E04C4B4D4A03CA03C312786A
S1133F901A700C23FB185B684A4A4B480A214B4CA5
S1133FA0A0470C23FB189B68494A4A480D21474CFB
S1133FB0A0470C23FB185A782323FC18464B0A21EC
S1133FC010009847030023700C23FB18597823230F
S1133FD0FB181B780A2252425343DAB22223FB18FD
S1133FE08A181A702323FB1819782223FB181B78CC
S1133FF03A4A3B4800930B000921344CA0470C2358
S1134000FB18DB68374A38480D21304CA0470C2395
S1134010FB181B69354A364807212C4CA0477B689E
S11340205A782123FC182C4B0A21100098470300CE
S113403023707B6859782123FB181B780A2252428B
S11340405343DAB22023FB188A181A70FB1C1B781E
S1134050042B27D89A00274BD3181B689F467B68EC
S11340601A692549254B1800254B98471DE07B68A4
S11340709A682449214B1800214B984715E07B6826
S1134080DA6821491D4B18001D4B98470DE0212388
S1134090FB181A782023FB181B781C491748184C66
S11340A0A04702E0C04600E0C046C046BD460BB093
S11340B090BDC046E54A000028510020BCE2000043
S11340C0C4E20000D0E2000032510020E1D8000038
S11340D0D8E200003C510020B1A90000E8E2000051
S11340E048510020F4E200005051002000E3000099
S11340F05C51002094E3000008E3000064510020B8
S113410045D9000014E3000028E3000038E3000070
S113411080B582B000AF00237B6007E02E4A7B6845
S1134120D31820221A707B6801337B607B684F2B85
S1134130F4DD294B294A03CA03C30020284B9847BE
S1134140031E07D0274A284B1000190005231A0024
S1134150264B98470220224B9847031E05D0244B38
S1134160244A03CA03C312781A7003201C4B9847CD
S1134170031E07D0204A214B1000190009231A00FE
S11341801A4B98470420164B9847031E05D01C4B26
S11341901C4A03CA03C312781A700520104B9847AF
S11341A0031E07D0184A194B100019000A231A00DD
S11341B00E4B984706200A4B9847031E07D0144B12
S11341C0144A116819609188998092799A71C0464D
S11341D0BD4602B080BDC046D85000204CE300006C
S11341E0592C0000E250002054E30000BDD8000028
S11341F0EC5000205CE30000F650002068E300006F
S11342000051002074E300000A51002080E3000004
S1134210145100208CE3000080B582B000AF7860B8
S11342207B685B091800BD4602B080BD80B582B0D2
S113423000AF78607B68DB01034A9446634418004E
S1134240BD4602B080BDC0460044004180B582B086
S113425000AF78607B681800054B9847030018008E
S1134260044B984703001800BD4602B080BDC04609
S1134270194200002D42000080B582B000AF786082
S11342807B681F22134001229A4013001800BD4688
S113429002B080BD90B583B000AF78600A00FB1C0B
S11342A01A70FB1C1B78002B0BD07B6818000C4B7E
S11342B0984704007B6818000A4B98470300A361E1
S11342C00AE07B681800064B984704007B681800D6
S11342D0044B984703006361C046BD4603B090BDDC
S11342E04D4200007942000080B582B000AF786092
S11342F00A00FB1C1A70FB1C1A787B68110018005A
S1134300024B9847C046BD4602B080BD95420000AE
S113431080B584B000AF164B98470C23FB181800E7
S1134320144B98473B1D1800134B98473B1D4022E4
S11343301A703A1D1149124B1800124B98470C235E
S1134340FA180F4B002118000F4B98470C4B002113
S113435018000E4B98470A4B18000D4B9847002342
S1134360181C0C4B9847C046BD4604B080BDC046DF
S1134370F9430000810F0000D90D000000480042FD
S1134380D0510020150E0000910F0000AB0F00006B
S1134390250F00001144000080B500AF0021032068
S11343A00B4B98470B4B9847021C0B4B0B49101CAB
S11343B09847031E04D001210420054B984703E0CD
S11343C000210420024B9847C046BD4680BDC0462C
S11343D0F92B0000ED2B000091AB00000000C84257
S11343E080B500AF01210020024B9847C046BD466E
S11343F080BDC046E942000080B500AF0021002026
S1134400024B9847C046BD4680BDC046E942000005
S113441090B585B000AF78600C4B0D49786898472B
S1134420031C1A1C0E23FC180A4B101C984703008B
S113443023800E23FB181A88074B00211800074B12
S11344409847C046BD4605B090BDC04601B50000C2
S113445000C07F444DAC0000D0510020C10F0000CB
S113446080B582B000AF0200FB1D1A70064BFA1D26
S1134470127811001F220A40012191400A001A609B
S1134480C046BD4602B080BD00E100E080B584B006
S113449000AF78607B681B68FB60FB68DB695A1EB1
S11344A09341DBB21800BD4604B080BD80B582B034
S11344B000AF78607B6801221A707B6800225A6022
S11344C07B6800229A607B68C0229203DA607B6872
S11344D000221A747B6800225A747B6801229A7441
S11344E07B680122DA747B6800221A757B682422B7
S11344F0002199547B6818330C22002118000A4BC0
S113450098477B68094A9A617B6800229A627B68B3
S11345100022DA627B6800221A637B6800225A63F5
S1134520C046BD4602B080BDCFD80000A0860100C1
S113453080B584B000AF78607B681B68FB607B68E3
S11345401B6818000B4B9847030018000A4B984748
S1134550C0467B681800094B9847031EF9D1FB68D5
S11345601B6802221A43FB681A60C046BD4604B0A9
S113457080BDC04609900000614400008D440000E5
S113458080B582B000AF78600A00FB1C1A707B68AB
S113459037229B5C5AB2FB1C1B78012199400B000B
S11345A05BB213435BB2D9B27B6837229954C046DD
S11345B0BD4602B080BD000080B582B000AF786017
S11345C008497B6800221800074B9847054BDA68B6
S11345D0044B9968054B18009047C046BD4602B08D
S11345E080BDC046B05200200186000070520020F9
S11345F080B58EB000AF3B0018001B4B98473B00C2
S113460080229203DA603B00802252009A623B00CF
S113461080229200DA623B008022D2001A633B00BF
S1134620012252425A633B002422002199543B0048
S11346300E4A9A613A000E490E4B18000E4B9847E9
S11346400C4B18000D4B98470D490A4B02221800D9
S11346500C4B9847074B022118000B4B9847C04658
S1134660BD460EB080BDC046AD44000080841E002F
S113467000080042F45100205D8400003145000030
S1134680B9450000558700008145000090B585B00C
S113469000AF3C0020606160A260E360134B9B6844
S11346A0402B01D900231CE0104B3A0013CA13C35A
S11346B012681A600D4B59680C4B9A680C4B180021
S11346C00C4B984709490C4B012218000B4B984797
S11346D0064B9B689BB20A4A05490748094CA04708
S11346E001231800BD4605B090BDC046B05200205D
S11346F030520020BDD80000F45100200186000093
S1134700705200209D87000080B582B000AF7860B1
S11347107B685B091800BD4602B080BD80B582B0DD
S113472000AF78607B68DB01034A94466344180059
S1134730BD4602B080BDC0460044004180B582B091
S113474000AF78607B681800054B98470300180099
S1134750044B984703001800BD4602B080BDC04614
S1134760094700001D47000080B582B000AF7860A3
S11347707B681F22134001229A4013001800BD4693
S113478002B080BD90B583B000AF78600A00FB1C16
S11347901A70FB1C1B78002B0BD07B6818000C4B89
S11347A0984704007B6818000A4B98470300A361EC
S11347B00AE07B681800064B984704007B681800E1
S11347C0044B984703006361C046BD4603B090BDE7
S11347D03D4700006947000090B583B000AF7860A2
S11347E07B681800084B984703001C6A7B68180014
S11347F0064B9847030023405A1E9341DBB218002E
S1134800BD4603B090BDC0463D4700006947000067
S113481080B582B000AF78600A00FB1C1A70FB1CE4
S11348201A787B6811001800024B9847C046BD46B1
S113483002B080BD8547000080B582B000AF7860CB
S11348407B681800034B984703001800BD4602B06C
S113485080BDC046D947000080B582B000AF786003
S11348603960214B9847214B9847030019007B6816
S11348700122114008001A7D01218A43111C021CE7
S11348800A431A757B681B7DDB07DB0FDAB27B6892
S113489001210A4010001A7801218A43111C021CCC
S11348A00A431A70124B9847021C124B1249101CEF
S11348B09847031C1A1C114B101C984702007B6874
S11348C09A617B689A697B685A600D4B9847021C11
S11348D00A4B101C984702003B685A61094B9847E1
S11348E0C046BD4602B080BD512800008954000076
S11348F03D5A000001B5000000007A4479BA000076
S1134900A52900009943000090B58FB000AF7860EE
S11349104F4B98474F4B1A7801218A431A704D4BDD
S11349201E225A704B4B0E229A604A4B1E22DA60AA
S1134930484B14221A61484B98470520474B984727
S1134940444B444A143313CA13C303CA03C3444B2A
S1134950C8221A60424BC8229A60414A3D4B11005A
S11349601800404B98470A237B633F4B984703004A
S1134970FB620C23FB183D4A1A600C23FB1800222F
S11349805A600C23FB180022DA600C23FB18002267
S11349909A600C23FB18364A5A610C23FB18354ADB
S11349A01A610C23FB18FE2292059A610C23FB1852
S11349B00022DA61304B98477A6B2C23FB181100E4
S11349C018002E4B98472E4B984715202D4B98478F
S11349D003005A1E9341DBB201225340DBB21A1C7E
S11349E001231340DBB219001520274B98471C4ABA
S11349F0184B11001800254B9847254B1B78DBB248
S1134A00002B06D0134B1800224B9847204B002252
S1134A101A700C23FA1812490E4B18001E4B9847B3
S1134A20031C3B630B4B1B7D01221340DBB2002BA9
S1134A3006D01A4B98473B6B181C194B9847BBE799
S1134A40184B98470023181C154B9847B4E7C046E9
S1134A501D3A0000C4520020593A000019690000B0
S1134A60EC52002095300000116E00008FC2F53C1E
S1134A70000020419A99993E1143000051680000BA
S1134A80ED7E00003948000011480000594800003C
S1134A901F010020D53A000095320000E1430000D8
S1134AA011440000F943000090B585B002AF020044
S1134AB03960BB1D1A80BB1D1A8806490648074B7E
S1134AC001933B6800930023054CA047C046BD46B4
S1134AD003B090BDA8E3000009490000C0520020C3
S1134AE0BD65000090B583B000AF78607B68044A70
S1134AF013CA13C303CA03C37868BD4603B090BD89
S1134B00C452002090B583B000AF7860094B7A6836
S1134B1013CA13C303CA03C3074B01221A70074AFB
S1134B20044B11001800064B9847C046BD4603B01D
S1134B3090BDC046C45200201F010020EC5200204A
S1134B409530000080B582B000AF0200FB1D1A70E2
S1134B50064BFA1D127811001F220A4001219140D0
S1134B600A001A60C046BD4602B080BD00E100E004
S1134B7080B582B000AF0200FB1D1A70084AFB1D0D
S1134B801B7819001F230B40012199400B001900C9
S1134B90C0235B00D150C046BD4602B080BDC046B4
S1134BA000E100E0B0B582B000AF02003960FB1D47
S1134BB01A70FB1D1B787F2B32D92F4CFB1D1B78E1
S1134BC01A000F231340083B99082B4AFB1D1B783E
S1134BD018000F230340083B9B0806339B00D3189F
S1134BE004331B68FA1D1278100003220240D2001D
S1134BF0FF2090400200D2431A403B689B01FF20F3
S1134C001840FB1D1B781D0003232B40DB0098403C
S1134C1003001A438B1D9B00E31804331A6027E03A
S1134C20164CFB1D1B785BB29B081449FA1D1278C5
S1134C3052B29208C03292005258F91D0978080005
S1134C4003210140C900FF2088400100C9431140ED
S1134C503A689201FF201040FA1D127815000322D1
S1134C602A40D200904002000A43C0339B001A51EC
S1134C70C046BD4602B0B0BD00ED00E000E100E07A
S1134C8080B582B000AF0200FB1D1A70064BFA1DFE
S1134C90127811001F220A40012191400A001A6073
S1134CA0C046BD4602B080BD00E100E080B582B0E0
S1134CB000AF78607B685B091800BD4602B080BD18
S1134CC080B582B000AF78607B68DB01034A94460C
S1134CD063441800BD4602B080BDC0460044004194
S1134CE080B582B000AF78607B681800054B9847A8
S1134CF003001800044B984703001800BD4602B097
S1134D0080BDC046AD4C0000C14C000080B582B0EF
S1134D1000AF78607B681F22134001229A40130081
S1134D201800BD4602B080BD90B583B000AF786076
S1134D307B681800084B984703001C6A7B681800BE
S1134D40064B9847030023405A1E9341DBB21800D8
S1134D50BD4603B090BDC046E14C00000D4D0000BF
S1134D6080B582B000AF78607B681800034B984729
S1134D7003001800BD4602B080BDC046294D0000A6
S1134D8080B584B000AF78607B681B68FB60FB680B
S1134D90DB69072213405A1E9341DBB21800BD465B
S1134DA004B080BD80B582B000AF7860C0467B6837
S1134DB01800044B9847031EF9D1C046BD4602B003
S1134DC080BDC046814D000080B582B000AF7860E0
S1134DD07B6864221A607B681B4A5A607B680022E5
S1134DE09A607B6800221A737B6800221A767B68BB
S1134DF0802292031A617B6801225242DA827B6824
S1134E00012252429A827B680022DA617B68002286
S1134E101A627B682422002199547B6800229A62DA
S1134E207B682C22002199547B682D2200219954FF
S1134E307B682E22002199547B68D7221A86C046AB
S1134E40BD4602B080BDC046480D000080B584B0A8
S1134E5000AF78607B681B68BB600023FB607B68E5
S1134E601800144B9847BB681B6802221A43BB689E
S1134E701A607B681B6818000F4B984703001800E2
S1134E800E4B98470CE0FB680133FB607B68DB88C2
S1134E901A00FB689A4203D8BB6810225A8306E0C2
S1134EA0BB685B8B9BB21A0010231340EBD0BD464A
S1134EB004B080BDA54D000009900000814C0000A5
S1134EC080B582B000AF78600A00FB1C1A707B6862
S1134ED05B7EDBB25AB2FB1C1B78012199400B00AC
S1134EE05BB213435BB2DAB27B685A76C046BD4606
S1134EF002B080BD80B582B000AF78607B682522A7
S1134F009B5CDBB21800BD4602B080BD90B583B097
S1134F1000AFFC1D664B984703002370654B1B785C
S1134F2001225340DBB2002B28D0FB1D1B78002B41
S1134F3024D0614B1B78042B1CD89A005F4BD318E8
S1134F401B689F465C4B01221A7017E05A4B0222E1
S1134F501A7013E0584B03221A700FE0564B0422C8
S1134F601A700BE0564B1800564B9847524B0022D0
S1134F701A7003E0504B00221A70C046524B9847F7
S1134F80031C3B604C4B1B78042B00D983E09A0034
S1134F904E4BD3181B689F4606224D4B1000984772
S1134FA0041C3C220623D21A494B10009847021CC9
S1134FB0484B3968101C9847031C1A1C464B111C9B
S1134FC0201C9847031C1A1C444B101C98470200D1
S1134FD03B4B1A6164E003223D4B10009847041CCC
S1134FE014220323D21A3A4B10009847021C394B5F
S1134FF03968101C9847031C1A1C374B111C201CC1
S11350009847031C1A1C354B101C984702002C4B64
S11350109A6045E00A222E4B10009847041C232274
S11350200A23D21A2A4B10009847021C294B3968CC
S1135030101C9847031C1A1C274B111C201C984752
S1135040031C1A1C254B101C984702001C4BDA60E9
S113505026E005231A001E4B10009847041C282341
S11350601A000523D21A1A4B10009847021C194B38
S11350703968101C9847031C1A1C174B111C201C60
S11350809847031C1A1C164B101C98470300DAB2ED
S11350900B4B5A7004E0084B00221A7000E0C04623
S11350A0044BFA1D12781A70C046BD4603B090BD79
S11350B0A15400005C53002044530020B0E30000DE
S11350C048530020054B0000A52B0000C4E300005A
S11350D0B9BA000001B50000FDAD000079BA0000C6
S11350E04DAC000080B582B000AF7860084B1B78EF
S11350F05A1E9341DBB201225340DBB21A1C012336
S11351001340DAB2024B1A70C046BD4602B080BDED
S11351102001002080B582B000AF7860104B1B786E
S113512001225340DBB2002B0BD00E4B98470300F7
S11351301A0001235340DBB2002B02D0084B01229A
S11351401A70074B1B78002B03D00020064B98479E
S113515002E00120044B9847C046BD4602B080BD22
S113516020010020952C0000853C000080B582B011
S113517000AF7860044B1B681800044B9847C04686
S1135180BD4602B080BDC04608530020BD6A000081
S113519090B585B000AF78600F23FC187B681800C9
S11351A0064B984703002370054B1B681800054BFA
S11351B09847C046BD4605B090BDC046F54E0000B8
S11351C008530020716B000080B58EB000AF3B1D0A
S11351D01800214B98473B1D01221A733B1D2D22B9
S11351E01A603B1D01225242DA823B1D1022DA6111
S11351F03B1D11221A62C0463A1D1849184B18006B
S1135200184B9847031EF7D10A20174B98470421DF
S11352100A20164B98470A20154B98471549104BFE
S113522000221800144B984712490D4B0222180013
S1135230114B98470A4B00211800104B9847084B14
S1135240022118000D4B9847054B18000C4B98474A
S1135250C046BD460EB080BDC94D0000000C0042E2
S11352601C5300201D160000714B0000A54B0000CC
S1135270454B000091510000D11A0000C14E0000BE
S11352804D4E000090B587B002AF7860294B984727
S1135290294B984729482A4B0093002301221E21B9
S11352A0284CA0470200284B1A60274B1B68002B90
S11352B00BD0254B1C68254B984702000023009314
S11352C0002301212000224CA047FA23D9002148C1
S11352D0214B0093002301221A4CA04702001F4BCC
S11352E01A601E4B1B68002B0BD01C4B1C68174B01
S11352F09847020000230093002301212000144C4E
S1135300A0471423FB60114B98470300BB60FA6865
S11353100823FB1811001800114B9847114B9847AC
S1135320114B1A78114B11001800114B9847114B6F
S11353309847ECE7C9510000ED3B0000D8E30000BA
S1135340155100008D7600000C530020116E0000F2
S113535031770000E4E30000E55000001053002022
S1135360516800000D4F00004453002048530020B2
S1135370393F00001141000090B589B002AF786058
S11353801748184B0093002300221E21164CA047F7
S11353900200164B1A60164B186801235A420C235C
S11353A0FB181900134B98470300012BF3D10C236E
S11353B0FA18114B11001800104B98470B4B1C683E
S11353C00F4B984702000023009300230221200082
S11353D00C4CA0470C4B1B6818000C4B9847DAE7A1
S11353E0F0E300006D5100008D760000145300209E
S11353F018530020256000001C530020551D000098
S1135400116E000031770000085300207569000018
S113541090B585B002AF02003960BB1D1A8000222E
S11354200C210A200F4B984702000F4B1A60BB1D3A
S11354301A880E490E480F4B01933B6800930023D2
S11354400D4CA04780235A000C490D480D4B019385
S11354503B6800930023084CA047C046BD4603B0F8
S113546090BDC046615C000018530020FCE30000BE
S11354708552000004530020BD65000000E40000D4
S1135480795300000853002080B500AF2B20034B54
S1135490984703001800BD4680BDC046614D00001A
S11354A080B500AF0C20034B984703001800BD469D
S11354B080BDC046614D000090B585B000AF3B1D76
S11354C0186059609A60074B1B68002B06D0054B87
S11354D01868391D00230022034CA047C046BD466E
S11354E005B090BD18530020255D000080B582B042
S11354F000AF78607B685B091800BD4602B080BDD0
S113550080B582B000AF78607B68DB01034A9446C3
S113551063441800BD4602B080BDC046004400414B
S113552080B582B000AF78607B681800054B98475F
S113553003001800044B984703001800BD4602B04E
S113554080BDC046ED5400000155000080B582B016
S113555000AF78607B681F22134001229A40130039
S11355601800BD4602B080BD90B583B000AF78602E
S11355700A00FB1C1A70FB1C1B78002B0BD07B68E9
S113558018000C4B984704007B6818000A4B984796
S11355900300A3610AE07B681800064B98470400E7
S11355A07B681800044B984703006361C046BD46FE
S11355B003B090BD215500004D55000080B582B068
S11355C000AF78600A00FB1C1A70FB1C1A787B6819
S11355D011001800024B9847C046BD4602B080BD7A
S11355E06955000080B582B000AF78606420084B34
S11355F09847084B9847031E04D000213620064BD9
S11356009847F3E700213620034B9847EEE7C0465E
S113561019690000952C0000BD55000090B585B0B7
S113562002AF02003960BB1D1A80BB1D1A880649EF
S11356300648074B01933B6800930023054CA047A1
S1135640C046BD4603B090BD04E40000E55500002B
S113565060530020BD65000080B582B000AF786063
S1135660024B9847C046BD4602B080BD5536000087
S1135670F0B58DB002AFF860964B984703007B629B
S1135680082308229446BC4463441800924B98476C
S1135690082308229446BC4463441A688F4B1000C4
S11356A098478F4C8F4A904BA04703000C00190079
S11356B022008E4B080011009847031C3B628C4B60
S11356C0FB618C4B1A688C4BF969101C9847031CBE
S11356D01A1C8A4B101C984705000E00874BF8696A
S11356E0984702000B00864C00208649A04703001F
S11356F00C003B607C60814B386A984702000B00C9
S1135700774C38687968A04703000C001A0023001E
S11357107D4C28003100A04703000C001900220032
S1135720724B080011009847021C724B1A60774BA9
S11357301B687A6AD21A764B10009847684C694AFB
S1135740694BA04703000C0019002200674B0800B6
S113575011009847031CBB616E4B1A68674B101C01
S1135760984705000E00654B386A98475C4C6A4AB6
S11357706A4BA04703000C003B607C605F4BB86938
S1135780984702000B00564C38687968A04703001C
S11357900C001A0023005C4C28003100A0470300D1
S11357A00C0019002200514B080011009847021CFC
S11357B0584B1A605A4B1A68504B101C98470500F6
S11357C00E00584B386A98470300D9175A184A40B4
S11357D0424B10009847424C4F4A504BA04703009D
S11357E00C003B607C60454BB869984702000B0095
S11357F03B4C38687968A04703000C00180021006E
S1135800374C0022484BA04703000C001A00230029
S11358103D4C28003100A04703000C001900220071
S1135820324B080011009847021C3D4B1A603F4B55
S11358301B78002B13D02F4B1A683D4B0021101CF2
S11358409847031E0BD03B4B1A683B4B0021101C9E
S11358509847031E03D0354B00221A7020E0334BC7
S11358601B7801225340DBB2002B19D0214B1A685C
S1135870324B0021101C9847031E11D02D4B1A687F
S11358802F4B0021101C9847031E09D0244B1A6883
S11358902C4B1A601F4B00221A60214B00221A6005
S11358A0144B1A68234B1A60184B7A6A1A60264BF9
S11358B09847264B1C68074B984702000023009327
S11358C0002302212000224CA047C046BD460BB055
S11358D0F0BDC046116E0000DD36000075D5000035
S11358E0E1C90000FCA9F1D24D62503F0DD7000080
S11358F03333333F7453002001B5000069D60000F0
S1135900E1CE00000000F03F59BB000078530020B6
S1135910F9D500007C530020111111111111913F90
S11359208053002079BA00000000E03F21010020EC
S113593091AB0000845300207DAB000069AB0000F4
S1135940A5AB000070530020993600006C53002072
S11359503177000080B500AF034B9847034B98475D
S1135960C046BD4680BDC046993500009927000059
S113597090B585B002AF7860164B98471648174B20
S11359800093002301220A21154CA0470200154B65
S11359901A60144B1B68002B0BD0124B1C68124B63
S11359A098470200002300930023012120000F4C9C
S11359B0A0470F480F4B0093002300220521084CF9
S11359C0A04702000C4B1A60FA239B0018000B4BF3
S11359D09847F9E7555900000CE40000715600009F
S11359E08D76000068530020116E000031770000AE
S11359F014E40000595600006C530020196900009B
S1135A0090B585B002AF02003960BB1D1A80BB1D82
S1135A101A8806490648074B01933B680093002304
S1135A20054CA047C046BD4603B090BD1CE4000031
S1135A307159000064530020BD65000080B500AFBB
S1135A40024B1B68181CBD4680BDC0467053002025
S1135A5080B582B000AF78607B6808331A007B6839
S1135A605A607B68012252429A607B6808331A00AC
S1135A707B68DA607B6808331A007B681A617B688C
S1135A8000221A60C046BD4602B080BD80B582B017
S1135A9000AF78607B6800221A61C046BD4602B040
S1135AA080BD80B584B000AF786039607B685B6886
S1135AB0FB603B68FA685A60FB689A683B689A60C6
S1135AC0FB689B683A685A60FB683A689A603B686E
S1135AD07A681A617B681B685A1C7B681A60C04626
S1135AE0BD4604B080BD80B584B000AF7860396035
S1135AF03B681B68BB60BB68013303D17B681B69CF
S1135B00FB600CE07B680833FB6002E0FB685B68C9
S1135B10FB60FB685B681A68BB689A42F6D9FB684D
S1135B205A683B685A603B685B683A689A603B68AD
S1135B30FA689A60FB683A685A603B687A681A6146
S1135B407B681B685A1C7B681A60C046BD4604B05B
S1135B5080BD80B584B000AF78607B681B69FB6052
S1135B607B685B687A6892689A607B689B687A68ED
S1135B7052685A60FB685A687B689A4203D17B6812
S1135B809A68FB685A607B6800221A61FB681B688C
S1135B905A1EFB681A60FB681B681800BD4604B0F7
S1135BA080BD000080B584B000AF786039607B6848
S1135BB0FB60FB68002B01D172B6FEE7234B9847CC
S1135BC0FB681A68FB68D96BFB681B6C4B43D218E3
S1135BD0FB685A60FB6800229A63FB681A68FB68DA
S1135BE09A60FB681A68FB68DB6B591EFB681B6CC8
S1135BF04B43D218FB68DA60FB684422FF219954B6
S1135C00FB684522FF2199543B68002B0DD1FB68AA
S1135C101B69002B13D0FB68103318000C4B9847FA
S1135C20031E0CD00B4B984709E0FB681033180097
S1135C30094B9847FB6824331800074B9847074BD8
S1135C40984701231800BD4604B080BD51210000CF
S1135C504571000031210000515A000075210000F7
S1135C6090B58BB002AFF860B960FB1D1A70FB6889
S1135C70002B01D172B6FEE7BB68002B02D10023D2
S1135C80FB6103E0FB68BA685343FB61FB6954336F
S1135C9018000C4B98470300BB61BB69002B0CD068
S1135CA0BB6954337B61FB1D1C787A69B968F86859
S1135CB0BB6900932300044CA047BB691800BD4690
S1135CC009B090BD7D220000CD5C000080B584B099
S1135CD000AFF860B9607A601A00FB1C1A70BB68E8
S1135CE0002B03D1BB69BA691A6002E0BB697A6808
