S00B00004C43562E7372656334
S1130000682000200D0B0000090B0000090B000004
S113001000000000000000000000000000000000DC
S1130020000000000000000000000000090B0000B8
S11300300000000000000000090B0000090B000094
S1130040090B0000090B000081020000090B0000ED
S1130050090B0000090B0000090B0000090B00004C
S1130060090B00009D020000AD020000BD0200006B
S1130070CD020000DD020000ED020000090B0000CB
S1130080090B0000090B0000090B0000090B00001C
S1130090090B000000000000000000001501000032
S11300A0090B0000D9010000090B0000090B000036
S11300B00000000010B5064C2378002B07D1054B37
S11300C0002B02D0044800E000BF0123237010BDC0
S11300D00400002000000000940C0000084B10B540
S11300E0002B03D00749084800E000BF0748036815
S11300F0002B00D110BD064B002BFBD09847F9E72D
S11301000000000008000020940C0000940C000083
S11301100000000070B52F4B1D682B681A7EDC7D33
S11301201440E20716D4630708D504232A6813761B
S1130130EB7E9B0702D5AB7E9B0742D4A30708D571
S113014002232A681376EB7E5B0702D5AB7E5B073E
S11301503BD470BD01221A762A68537E5BB2002B11
S1130160FBDB69698B1C6B61538B9BB20B802B8B04
S1130170013B9BB22B83002B11D06B7F002BD2D081
S11301802A68537E5BB2002BFBDB137B02210B43FB
S113019013732A68537E5BB2002BFBDBC3E7012396
S11301A02A6893752B7F052BBDD100232B77EB7E1B
S11301B0DB07B8D5AB7EDB07B5D52800AB6898471D
S11301C0B1E72800EB689847B8E72B6928009847FF
S11301D0BFE7C0465800002070B5274B1C6825684F
S11301E0AB79DB0707D50123AB712300143302D0AD
S11301F0637C002B31D1AB799B0738D50223AB71DB
S1130200A3899BB2002B2CD0E3899BB25A1C92B2D7
S1130210E2815B00A268944663441B889BB2AB8175
S1130220A389013B9BB2A381A3899BB2002B18D164
S113023000222033E2541E3B2B71AB7180218904D0
S11302407E330E4AD1502300143310D0A37C002BEC
S11302500AD00020E369984706E00020A369984784
S1130260C9E72300143302D0237C002B00D170BDD6
S1130270636900209847FAE75C00002000E100E091
S113028010B50122034B9A71034B1B68002B00D05D
S1130290984710BD001000406000002010B5024BCC
S11302A01B680020984710BD2000002010B5024BA9
S11302B05B680120984710BD2000002010B5024B58
S11302C09B680220984710BD2000002010B5024B07
S11302D0DB680320984710BD2000002010B5024BB6
S11302E01B690420984710BD2000002010B5024B64
S11302F05B690520984710BD20000020704700006E
S113030070B5C34B802098604724195D02252943AA
S1130310C9B21955586158601A5D2A43D2B21A55A8
S1130320BC4A9A62BC4A9A625861BC4A9A62BC4A04
S11303309A620023463C7C3801250133202B0AD0E5
S113034022009A401042F8D0B64A99180A782A43F3
S1130350D2B20A70F1E7B44BB44A9A62B04A9A62D4
S1130360002301248020400001250133202B0AD0E2
S113037022009A400242F8D0AD4A99180A782A43DA
S1130380D2B20A70F1E7A84BAA4A9A62A44A9A62C6
S1130390002301248020800001250133202B0AD072
S11303A022009A400242F8D0A14A99180A782A43B6
S11303B0D2B20A70F1E7964B802058604724195D49
S11303C002263143C9B21955924D9D6292499962F0
S11303D0586158601A5D3243D2B21A559D629962CF
S11303E05861954A9A628E4A9A620023463C703854
S11303F001250133202B0AD022009A401042F8D064
S1130400884A99180A782A43D2B20A70F1E7804BD5
S11304108A4A9A62824A9A62002301242020012592
S11304200133202B0AD022009A401042F8D07D4A92
S113043099180A782A43D2B20A70F1E7744B804AB9
S11304409A62774A9A6200230124402001250133ED
S1130450202B0AD022009A401042F8D0714A9918F1
S11304600A782A43D2B20A70F1E7694B8021996075
S113047047201A5C022422431A545961714A9A6231
S1130480714A9A620023013C8020C0030125013394
S1130490202B0AD022009A400242F8D0614A9918CF
S11304A00A782A43D2B20A70F1E7594B654A9A6234
S11304B0664A9A6200230124802000040125013346
S11304C0202B0AD022009A400242F8D0554A9918AB
S11304D00A782A43D2B20A70F1E74D4B8021996021
S11304E047201A5C022422431A545961554A9A62DD
S11304F0574A9A620023013C8020400201250133BF
S1130500202B0AD022009A400242F8D0454A99187A
S11305100A782A43D2B20A70F1E73D4B494A9A62FB
S11305204C4A9A6200230124802080020125013371
S1130530202B0AD022009A400242F8D0394A991856
S11305400A782A43D2B20A70F1E7314B80210901BB
S113055099604B201A5C022422431A5499613E4A42
S11305609A623E4A9A620023013CB630FF3001256C
S11305700133202B0AD022009A400242F8D0294AA3
S113058099180A782A43D2B20A70F1E7204B344A08
S11305909A62324A9A62002301248020C000012515
S11305A00133202B0AD022009A400242F8D01D4A7F
S11305B099180A782A43D2B20A70F1E7144B294AEF
S11305C09A62264A9A620023012480204000012571
S11305D00133202B0AD022009A400242F8D0114A5B
S11305E099180A782A43D2B20A70F1E7084B80209E
S11305F098604724195D02252943C9B219555861E9
S113060098601A5D2A43D2B21A55586170BDC0462B
S11306100044004180000650000006D0040002514E
S1130620000002D1404400418044004100010251D5
S1130630C044004100020251100002512000025146
S11306404000025100000252400002D2800002D257
S1130650010002D2020002D200020252000002D2C1
S113066000040252000102520C4B1B68002B06D1FD
S1130670EFF31083002B07D00022094B1A70074AAE
S1130680136801331360704772B6BFF35F8F0022A3
S1130690044B1A700132024B1A70F0E73800002044
S11306A03C00002000000020084B1A68013A1A6040
S11306B01B68002B09D1064B1B78002B05D00122A7
S11306C0044B1A70BFF35F8F62B670473800002086
S11306D03C0000200000002070B50C490B6A04782F
S11306E0857840780122104080014026B3430343BB
S11306F02A40D20180208343134303222240120262
S11307000348034013430B6270BDC0460008004019
S1130710FFFCFFFF10B5037A9B061B0C4289920570
S1130720920D134318494B608379C279134342886D
S11307308488224313434278D20113430B60037825
S1130740042B11D0202B0ED1037B9B06028A13436A
S1130750C28912040D490A4013430B4A936011687D
S11307600B4B0B43136010BD037B9B06028A1343A0
S1130770C289120405490A401343034A936013686B
S113078004210B431360EEE7400000200000FF0348
S113079024040000082803D88000254B1B589F46DA
S11307A0172044E0234A136A02210B4313620020FA
S11307B03DE0204A936902210B439361002036E017
S11307C01C4A138A02210B43138200202FE0194A8A
S11307D0938A02210B439382002028E016490B6878
S11307E0022213430B60134B9A8419000E32CB6818
S11307F01A42FCD0104A91680E4BD96252689A6230
S113080000229A8419001032CB681A42FCD00A4B99
S11308101B689BB2074A9384002008E005494422E0
S11308208B5C022003438B54002000E000207047BF
S1130830500C0000000800404000002070B58AB051
S1130840C222D200334B9A60334A53681E218B4331
S11308505360022201AB1A700024304DE0B201A9AA
S1130860A8470134252CF9D105AB002119700022C9
S1130870598099809A71DA71063119825A70284B1D
S11308801B689B0E3F2B42D005A8037280239B005C
S11308904381FA3BFF3B03733833C381214B9847B1
S11308A004A8002444700126867004701E4B9847E7
S11308B006201E4DA8471E4B984701A94E604C7058
S11308C006230B700C724C7201201A4B98470120BE
S11308D0194B98470720A8470E491022CB681A42A3
S11308E0FCD0164A0023137253729372D37201A977
S11308F001224A604B700B724B7207330B7000205D
S11309000C4B984700200C4B98470AB070BD203B15
S1130910BAE7C0460008004000400041BD0A00009C
S11309202460800015070000D90600009507000028
S113093041090000650900001D0A00000004004090
S1130940064A936908210B4393610122044B1A70F0
S113095019000B781342FCD17047C04600040040D4
S1130960000C004070B5060004000D782D0205430C
S11309704B78002B02D08023DB021D434B7A002BE3
S113098002D080231B031D434868012810D9431E4D
S1130990184234D1022830D90223002201325B00EC
S11309A09842FBD812023243140080235B031D4398
S11309B00B7A002B02D080239B031D43134A5378E8
S11309C05BB2002BFBDB124B9847124B1E700F4A95
S11309D053785BB2002BFBDB0C4B9C601A00537802
S11309E05BB2002BFBDB094A5368802149020B40B0
S11309F01D435560084B984770BD0022D2E704029E
S1130A00344380239B021D43D2E7C046000C0040C0
S1130A1069060000080C0040A906000010B5040097
S1130A200B4A53785BB2002BFBDB0A4B98470A4B0B
S1130A301C70074A53785BB2002BFBDB044A5168F5
S1130A4080235B020B435360044B984710BDC046A0
S1130A50000C004069060000040C0040A9060000D8
S1130A6010B504000F4B98470F4B1C700F4A538866
S1130A701B05180F53880E490B40538053880D49AA
S1130A800B40538011008022D2014B881342FCD1C9
S1130A9006494A8803020648024013434B80064B2A
S1130AA0984710BD69060000020C0040000C00408D
S1130AB0FFF0FFFFFFBFFFFFA906000010B50C7891
S1130AC024020443024B9847A4B2024B5C8010BD3D
S1130AD0610A0000000C00407047000010B5054B8F
S1130AE09847054B9847054B9847054B9847054B46
S1130AF0984710BD3D08000001030000D90A00001A
S1130B00D90A0000D90A0000FEE70000F8B52A4A15
S1130B102A4B9A4211D01A00294B9A420DD2294AE3
S1130B2003339B1A9B0801339B000022234822496C
S1130B308C58845004329A42FAD1234A234B9A4265
S1130B400AD2D34321495B1803218B4304339B18F6
S1130B50002102C29342FCD11D4AFF211D4B8B434D
S1130B609360FD3990235B001B4AD1501B4AD37814
S1130B700325AB4302242343D370D3780C27BB4310
S1130B8008263343D370164B987B3022904320229F
S1130B9010439873997BB943314399739A7BAA4361
S1130BA022439A730F4A536880210B4353600E4BC0
S1130BB098470E4B9847FEE7940C00000000002075
S1130BC00400002004000020040000206400002031
S1130BD000ED00E000000000007000410050004102
S1130BE00048004100400041090C0000F10B0000E6
S1130BF010B5034B9847034B9847002010BDC046DF
S1130C00DD0A0000FD02000070B500260C4D0D4CFD
S1130C10641BA410A64209D1002600F02BF80A4D4B
S1130C200A4C641BA410A64205D170BDB300EB5856
S1130C3098470136EEE7B300EB5898470136F2E7E0
S1130C40800C0000800C0000800C0000840C00006C
S1130C50C0070000A0070000A00700002C08000047
S1130C60B2070000CE070000A4070000DC07000064
S1130C701C080000F8B5C046F8BC08BC9E46704786
S1130C80DD000000F8B5C046F8BC08BC9E467047BD
S1070C90B5000000A7
S1070C940100000057
S9030B0DE4
