S00B00004C43562E7372656334
S113000048720020C53C0000C13C0000373E00009F
S113001000000000000000000000000000000000DC
S1130020000000000000000000000000C13C0000CF
S11300300000000000000000C13C0000C13C0000C2
S1130040C13C0000C13C0000192F0000C13C00006D
S1130050C13C0000C13C0000C13C0000C13C0000A8
S1130060C13C0000A1310000B1310000C1310000E9
S1130070D1310000E1310000F1310000C13C000049
S1130080C13C0000C13C0000C13C0000C13C000078
S1130090C13C0000000000000000000085050000D5
S11300A0C13C0000B9060000C13C0000C13C000096
S11300B00000000010B5064C2378002B07D1054B37
S11300C0002B02D0044800E000BF0123237010BDC0
S11300D01000002000000000305B0000084B10B549
S11300E0002B03D00749084800E000BF0748036815
S11300F0002B00D110BD064B002BFBD09847F9E72D
S11301000000000014000020305B0000305B0000A1
S11301100000000010B5002200230270427000218C
S11301204280017103760262C26182600373C0245B
S11301306401C481037443748374C37403752A24EF
S1130140035543758375063C0355C2840285C17506
S11301502B23C1540133C15410BD0000F0B5D64661
S11301604F464646C0B596B0070016000160C64A21
S1130170106A80235B02034313620B780520DB07BC
S113018005D516B01CBC90469946A246F0BD0B7826
S113019017309B07F5D473783B71002B04D1BB4A0D
S11301A0136C04210B4313640023BB60FB603B61AD
S11301B0BB76FB763B833B77B54B1F602A23F35C0E
S11301C0002B05D1337D002B02D101337B7701E075
S11301D000237B773B68984633786A4613706946F8
S11301E01E20AC4B98471E20AB4B98472C23F25C47
S11301F0002A54D0013BF55C337BEB18DBB2D118F9
S1130200C9B28B4221D25219D3B29946A34B9A4612
S113021003E00135EDB24D4517D00F242C40337B5C
S1130220E41850229E4902A8D047132CF1D8A40008
S113023002ABE05801A900234B70CB708B700133E3
S11302400B70C0B2974B9847E3E7F4895022944966
S113025002A8924B9847132C13D9737D9B00DBB2F1
S113026042461370B37DDB0172781343DBB242461E
S113027053703379342B00D97BE19B008A4AD358DD
S11302809F46A40002ABE05801A900234B70CB7039
S11302908B7001330B70C0B2824B9847DDE7347B1F
S11302A050227F4902A87D4B9847132C15D9F48915
S11302B050227B4902A8794B9847132CCDD8A4002F
S11302C002ABE05801A900234B70CB708B70013353
S11302D00B70C0B2734B9847BFE7A40002ABE05861
S11302E001A900234B70CB708B7001330B70C0B22B
S11302F06C4B9847DBE70423102402211AE0717C3D
S1130300337C102416E006231024012112E0082374
S1130310102400210EE00023302400210AE00023F1
S11303202024002106E000230024002102E002230F
S113033010240121090170220A401343424693709C
S1130340F37D17203F2B00D91BE7D3703A68537E07
S11303505BB2002BFBDBF37C728813432422B25C78
S1130360D2001343327D92001343B27C52001343F4
S1130370234342469380337E002B20D0102C00D19F
S1130380D9E000D898E0202C00D1B6E0302C16D16A
S1130390F27C002A0AD0F26980321720FF2A00D9A1
S11303A0EFE6326A8032FF2A00D9EAE61720F269C2
S11303B0FF2A00DDE5E6326AFF2A00DDE1E639685E
S11303C04A7E52B2002AFBDB424613723A68537EDD
S11303D05BB2002BFBDBB38B424693833A68537EBC
S11303E05BB2002BFBDB338C424613842C23F35C7F
S11303F0002B05D0013BDBB217200F2B00D9C0E640
S11304002B22B15C17200F2900D9BAE63868427E46
S113041052B2002AFBDBF289307B0243B06802430C
S113042009050A431B041343424613612A23F35C60
S113043013750F2393751533F35C002B12D0F38CD3
S11304401A4A1720934200D99BE642469384328D80
S113045080231B01D31815499BB28B4200D990E627
S11304604346DA84124B1B685B01E022D20013403E
S1130470104A516849011268D20E0A43D2B213439A
S11304804246138500207CE600040040000800403A
S1130490E0510020393B0000AD3A000061580000F3
S11304A058590000613C000084580000FF0F000010
S11304B02460800020608000002C00D07FE7F27C64
S11304C0002A0FD0F269802109018C4662442A492E
S11304D017208A4200D954E6326A624426498A4285
S11304E000D94EE6244A1720F169914200DD48E61E
S11304F0316A914200DD44E661E7F27C002A0FD0C4
S1130500F269802189008C4662441C4917208A4282
S113051000D936E6326A624418498A4200D930E684
S1130520164A1720F169914200DD2AE6316A9142A8
S113053000DD26E643E7F27C002A0FD0F269802131
S113054009028C4662440E4917208A4200D918E6F3
S1130550326A62440A498A4200D912E6084A1720DC
S1130560F169914200DD0CE6316A914200DD08E652
S113057025E7172005E6C046FF0F0000FF03000033
S1130580FFFF000070B52F4B1D682B681A7EDC7DC1
S11305901440E20716D4630708D504232A681376A7
S11305A0EB7E9B0702D5AB7E9B0742D4A30708D5FD
S11305B002232A681376EB7E5B0702D5AB7E5B07CA
S11305C03BD470BD01221A762A68537E5BB2002B9D
S11305D0FBDB69698B1C6B61538B9BB20B802B8B90
S11305E0013B9BB22B83002B11D06B7F002BD2D00D
S11305F02A68537E5BB2002BFBDB137B02210B4387
S113060013732A68537E5BB2002BFBDBC3E7012321
S11306102A6893752B7F052BBDD100232B77EB7EA6
S1130620DB07B8D5AB7EDB07B5D52800AB689847A8
S1130630B1E72800EB689847B8E72B69280098478A
S1130640BFE7C046E0510020931C9B0019500123D2
S113065093401A00837E13438376704710B5038B4F
S11306609BB20524002B01D0200010BD037F052B75
S1130670FAD00523037702834161043B0268D375F2
S1130680437F0024002BEFD00268537E5BB2002B23
S1130690FBDB137B02210B4313730268537E5BB2B3
S11306A0002BFBDB0024DFE71723002901D018000F
S11306B07047037FDBB2FAE770B5274B1C682568E7
S11306C0AB79DB0707D50123AB712300143302D0C8
S11306D0637C002B31D1AB799B0738D50223AB71F6
S11306E0A3899BB2002B2CD0E3899BB25A1C92B2F3
S11306F0E2815B00A268944663441B889BB2AB8191
S1130700A389013B9BB2A381A3899BB2002B18D17F
S113071000222033E2541E3B2B71AB7180218904EB
S11307207E330E4AD1502300143310D0A37C002B07
S11307300AD00020E369984706E00020A36998479F
S1130740C9E72300143302D0237C002B00D170BDF1
S1130750636900209847FAE7E451002000E100E0D3
S1130760F0B5D6464F464646C0B58AB006000F00DF
S1130770140031600800A04B9847A04A116A851CF8
S11307800123AB400B43136209A9237B0B70143084
S1130790C5B228009A4B984728009A4B9847207B6B
S11307A00021994B98473B681C209B0705D50AB04C
S11307B01CBC90469946A246F0BD3B681738DB073F
S11307C0F5D430688C4B9946984705008F49904B77
S11307D09847AD008F4BEE50002333767376002597
S11307E07383B3832522B554336214333B60336877
S11307F098461800C8478146802308AA137055708C
S113080001239370D570E069276A002800D1AFE016
S113081008AB1870022308AA5370000CC0B2110070
S11308207D4B9847002F00D1A7E008AB1F7002232F
S113083008AA53703F0CF8B21100774B9847A38A6B
S1130840F380E38A3381237E8022002B04D1734B0F
S11308509B789B07DB0FDA01A16823690B431343E1
S11308602422A25C002A02D08022D2051343A26A69
S113087013432C22A25C002A03D1802292049142C9
S113088002D18022120513432D22A25C002A02D039
S11308908022120413432E22A25C002A02D080225A
S11308A0D203134342461268134342461360802323
S11308B05B00536048461430C0B2594B98470790C8
S11308C0FA239B0022685A43914663689A46554D21
S11308D0A847009001914B465800A8470290039105
S11308E0208EA847049005914F4F504A504B0098D2
S11308F00199B84702000B0004980599B8474D4E7A
S113090000224D4BB047049005914846A847020089
S11309100B0004980599B84702000B00474D009856
S11309200199A847029A039BB0470022444BA84769
S1130930029A039B434DA847434B984705008023E5
S11309409B04A2689A421ED003004020FF2D00D9C8
S11309502DE700240020FF251D4024062543000424
S1130960FF231B04184005434346DD6000201EE7B7
S113097000214046354B98474AE701214046334B16
S11309809847070051E7FA26B60053465E4300989D
S1130990019902000B00274CA04700900191300000
S11309A0204B984700222A4BB84702000B000098BE
S11309B00199244CA0470022214B204CA047224BF4
S11309C09847041E0CD031000798224B98470238F0
S11309D0001B2B00FF2D0CD8FF28BCD94020E6E6D5
S11309E07100481E079B9C4660441A4B9847013887
S11309F0EFE74020DBE6C046F93000000004004089
S1130A00393B0000AD3A0000352F0000350D0000E1
S1130A10353100002C520020613C000000200041D0
S1130A20853B00006D570000D94B000095D626E8A1
S1130A300B2E113E513F000000002440D95000000D
S1130A400000F03F7145000005570000812F0000B1
S1130A5000000840393E000003681A7E920707D55B
S1130A6002221A765B8B9B074120DB1718407047E4
S1130A705A8B520706D55968C02292020A435A601B
S1130A801820F4E70020F2E730B5026800230124BF
S1130A900225117E21420BD1117E294206D1013358
S1130AA09BB201899942F4D8122002E0002000E0B0
S1130AB0002030BD10B5046862688023DB02134354
S1130AC063606162024B98470123237610BDC046E0
S1130AD0890A000001680722CB691A42FCD17047D9
S1130AE070B5040006683268458B838BED1AADB28D
S1130AF0838B013B9BB2838313011DD5C37A002BE7
S1130B0003D0838B9BB2012B10D0A38B9BB2002B01
S1130B1002D1A37A002B1CD12000124B9847236AE0
S1130B205D192823F35CDBB22B7070BD72688023DF
S1130B30DB0213437360E8E7C37A002BE5D0838BB1
S1130B409BB2002BE1D172688023DB0213437360F4
S1130B50DBE72000034B98477268C0239B021343D2
S1130B607360D9E7D50A000070B5040005686B8B83
S1130B705B0703D51E222523C25470BD468B838B8D
S1130B80F61AB6B2838B013B9BB28383044B98471E
S1130B90236A9E193378DBB22822AB54EDE7C046B2
S1130BA0D50A000070B505000C0006684B7A002BCE
S1130BB01AD17368134A1340736063682B626388A5
S1130BC0AB8300222423EA5405320133EA54223B46
S1130BD0B375237A002B0BD123885B00627A9203CE
S1130BE013437362002070BD897A074B9847E0E78E
S1130BF023885B00627A9203134380221202134318
S1130C007362EFE7FFFFFBFFB50A0000F8B50500CC
S1130C100C0006684B6803624B88838301222423FB
S1130C20C25404320133C25437683F01FF0F4B7A78
S1130C30002B17D1002F02D06388012B16D07368C4
S1130C40204A13407360237A002B15D10323B37514
S1130C5023885B00627A9203134301221343736275
S1130C600020F8BD897A184B9847E3E7726880231F
S1130C70DB0213437360E6E723885B00627A920326
S1130C801343802212021343736228000F4B9847C8
S1130C9073680C4A134073600028E2D128000C4B9F
S1130CA098470028DDD10323B37523881B0A7822D3
S1130CB013435B00627A920301210A431343736274
S1130CC0CFE7C046FFFFFBFFB50A0000890A00001A
S1130CD0590A0000931C9B00C3185960037E01212C
S1130CE091400B43DBB203767047000010B5838B51
S1130CF09BB20522002B01D0100010BD013383727A
S1130D00C372024B98470200F6E7C0460D0C000080
S1130D1010B5838B9BB20522002B01D0100010BDAF
S1130D2001338372C372024B98470200F6E7C04650
S1130D30A50B000070B58000754BC45825682B685E
S1130D401B01DA0F637E267E1E40638B9BB2002B51
S1130D5003D1A38B9BB2002B23D1638B9BB2002BBB
S1130D6008D0A38B9BB2002B04D12533E35C052B65
S1130D7000D16DE0638B9BB2002B24D0A38B9BB27C
S1130D80002B20D06B8B9B0600D581E0002A04D079
S1130D90A38B9BB2012B00D17AE041222523E2549C
S1130DA011E02B7EDB0707D501232B766B8B9B078A
S1130DB02ED541222523E254A38B9BB263832523A2
S1130DC0E35C052B38D0638B9BB2002B07D0A38B3D
S1130DD09BB2002B03D12533E35C052B64D0252380
S1130DE0E35C052B13D02523E35C002B0FD00323F6
S1130DF02B7500236383A3832533E35C412B03D04A
S1130E00A37A002B00D075E0730700D57BE070BD9A
S1130E106B8B5B07D0D518222523E2540023A383D0
S1130E20A37A002BC8D020003A4B98476A68C023A5
S1130E309B0213436B60BFE71F33E35C002B03D0BB
S1130E402000354B9847BEE72000344B9847BAE75B
S1130E501F33E35C002B00D08CE703332B75002396
S1130E60638325330022E254A37A002B07D10123A4
S1130E702B76F307A7D5E36820009847A3E7200063
S1130E80244B98476A68C0239B0213436B60F0E7C6
S1130E902423E35C002B03D12000204B984792E7E6
S1130EA020001D4B98478EE71F33E35C012B96D13E
S1130EB02B7E9B0701D502232B7603232B7500235E
S1130EC0638325330022E254B30703D52423E35C70
S1130ED0012B0BD0F30700D481E72423E35C002B20
S1130EE000D07CE7E3682000984778E72369200076
S1130EF0984774E72000074B98476A68E023DB02B1
S1130F0013436B6080E76369200098477FE7C0461E
S1130F102C520020D50A0000E10A0000690B0000F1
S1130F2082B000230193064B1B68013301D072B6D3
S1130F30FEE772B6019B002BFCD002B07047C0469E
S1130F40000000200000000000000000000000007D
S1130F500B4A13681868203080F30988022080F354
S1130F601488BFF36F8F3FBCAE4608BC04BC62B6A6
S1130F701847C046C046C046C046C046C046C046E4
S1130F806450002010B5031F802464041C60043BDB
S1130F901960043B02491960143B1A60403810BDC3
S1130FA0210F000010B50F4B1968FF2212040A43E9
S1130FB01A601968FF2212060A431A600A4A0023BB
S1130FC013600A490B600A480A4908600721116046
S1130FD0094A1360094B9847094B9847094B9847AE
S1130FE0002010BD20ED00E010E000E018E000E07B
S1130FF07FBB000014E000E000000020510F00005F
S1131000F9260000210F000080225205034B1A60CC
S1131010BFF34F8FBFF36F8F7047C04604ED00E0FE
S113102072B6044A136801331360BFF34F8FBFF3E2
S11310306F8F704700000020064B1B68002B01D106
S113104072B6FEE7013B034A1360002B00D162B67F
S11310507047C04600000020EFF3108072B670475E
S113106080F310887047000010B5124B1A68824252
S113107019D35C681919884203D141680919596068
S1131080180041684418A24211D10B4C2468A242B2
S11310900BD05268521842601A6812680260984273
S11310A000D0186010BD1300E0E70260F7E70260AB
S11310B0F5E7C0465C4E00202C000020F8B5040083
S11310C03E4B98473E4B1B68002B15D03D4B1F6889
S11310D03C4268D1002C69D0230008335A0702D05F
S11310E0072293430833002B5DD0374A1668B34276
S11310F059D8364A146825E0354A53071ED0D11D05
S113110007239943334BD3185B1A0A002F48026014
S113111000214160D318083B07208343284803601B
S113112059601960991A516013602B4B1960264B52
S1131130196080221206234B1A60C7E7254BE5E7A6
S113114022000C0061688B4202D921680029F7D182
S11311501B4909688C4226D01568216811606268B1
S1131160D21A102A08D9E018410701D072B6FEE756
S113117042606360194B98476268B61A12490E6060
S1131180154909688E4201D213490E600835174388
S1131190676000232360124B9847002D08D06B072B
S11311A009D072B6FEE70E4B984701E00C4B984706
S11311B00C4B984700252800F8BDC0466524000064
S11311C02C000020504E0020544E00205C4E002085
S11311D030000020204E0000584E0020691000000E
S11311E0B9250000213E000010B5002820D00300DE
S11311F0083B5B680F4A12681A4201D172B6FEE7D7
S1131200010008390968002901D072B6FEE70838E0
S1131210040093434360084B9847084A6368116885
S11312208C46634413602000054B9847054B984750
S113123010BDC046504E002065240000544E0020CE
S113124069100000B925000010B500210A4B984729
S113125000280BD1094B1A889988094A11801989E9
S1131260084A1180998951801B8A93800A22034974
S11312700548064B984710BDA9060000644E00209F
S1131280984E00209C4E0020784E00205D06000001
S113129010B58CB0234C032323716846224B984726
S11312A002226B461A73C0235B016946CB8100237B
S11312B0CB7401216846017043800293103303719B
S11312C01B33C25403320133C2546A461749200007
S11312D0174B98472268537E5BB2002BFBDB8021BF
S11312E00904144B19600F239375137613780221A4
S11312F00B4313700B4B1A68537E5BB2002BFBDB62
S1131300084C00220C4920000C4B9847E37E012234
S11313101343E3760A220A4920000A4B98470CB08B
S113132010BDC046784E0020150100000040004268
S11313305D01000000E100E04912000049060000E0
S1131340644E00205D060000024B1868431E98415D
S1131350C0B27047A44E002010B5164B9978C9B29C
S11313601B780822312406E05B006340DBB2013ABB
S1131370D2B2002A05D058B20028F5DB5B00DBB2FC
S1131380F5E70C4A527853400822312406E05B000A
S11313906340DBB2013AD2B2002A05D058B2002829
S11313A0F5DB5B00DBB2F5E7994202D1014B5A78D9
S11313B01B7810BDA84E002010B50400012204497A
S11313C0044B9847637E02221343637610BDC046E4
S11313D059130000D50C00008022014B9A6170471C
S11313E00044004170B505000B4940260E800B4BAC
S11313F04B6003234B8000244C720C72084B9847BB
S113140008490E80084B4B6002234B804C720C72CF
S11314102800064B984770BDAC4E0020A84E002013
S1131420ED0C0000B84E002004000020110D000057
S1131430F8B5002804D00023012841D01800F8BDD5
S11314402F4A304B1100180070C870C130C830C129
S113145014321900283131C931C2100014C914C022
S1131460294A19001431100070C970C030C930C045
S113147014323C3313CB13C2110005CB05C12349ED
S113148028260E80224B4B6003234B8000244C7291
S11314900C72204D2800204FB84720490E80184B6D
S11314A04B604E804C720C722800B8471C490E8069
S11314B0154B4B604E804C720C722800B847BDE748
S11314C00F4A184B1100180070C870C130C830C1E1
S11314D014321900283131C931C2100014C914C0A2
S11314E0094A19001431100070C970C030C930C0E5
S11314F014323C3313CB13C2110005CB05C1BEE734
S1131500684F0020B84F0020904F00202C4F00203F
S113151008000020404F0020110D0000145000204E
S113152020500020C44E002010B5421E0023312A52
S113153001D9180010BD0A4BFE221A70AC3A5A7039
S1131540987008492A3A0A804B6003234B80002391
S11315504B720B720448054B98470123E9E7C046D8
S1131560384F0020204F0020404F0020110D000074
S113157010B5421E0023072A01D9180010BD0A4BDA
S1131580FE221A70AB3A5A70987008492B3A0A80B6
S11315904B6003234B8000234B720B720448054BB2
S11315A098470123E9E7C0463C4F0020144F002030
S11315B0404F0020110D000030B58FB001AB334A0D
S11315C00292002203921A731A76802189030591EC
S11315D001214942D982998225315A540B9208310A
S11315E05A5401315A542E201A54D7321A86019172
S11315F0C73A089201320992254D264C01AA264980
S11316002800A0470028F9D1214B1C680722E36970
S11316101A42FCD123680222134323601C4D28681C
S11316201E4B98471F2318401E3B83401C4A1360DF
S1131630E88800231021628B0A4204D101338342DB
S1131640F9D310236383174928230B80164B4B606F
S113165002234B8000234B720B720D48134B9847A7
S11316600220134B98472820124B9847124A134BD9
S113167013CB13C211001A680A609A888A809B7976
S11316808B7100200E4B98470FB030BD480D000001
S1131690404F002061070000000C0042713100003F
S11316A000E100E0085000200C000020110D0000B3
S11316B07115000029150000B84F0020A85900003A
S11316C03114000070B5FA25AD00024C2800A04783
S11316D0FCE7C046B926000010B582B00200054BF5
S11316E001930091002304490448054CA04702B02B
S11316F010BDC0462C500020BC590000C516000087
S113170009220000024A137801214B4013707047EC
S11317100E00002010B50C4B1B78002B03D00020CA
S11317200A4B98470EE00A4B9847002803D1012240
S1131730054B1A70F3E7044B1B78002BEFD1012003
S1131740024B984710BDC0460E0000203114000023
S11317504913000030B583B0174B9847174B0093DB
S1131760002301221E211648164CA047041E08D04F
S1131770154B984702000023009301212000134CCD
S1131780A047134B009300230122FA21C9001148FA
S11317900C4CA047041E08D00B4B984702000023B2
S11317A0009301212000094CA047FA25AD000A4C02
S11317B02800A047FCE7C046B91500001517000033
S11317C0C8590000ED2A000075240000392B0000E0
S11317D005170000D4590000B926000010B582B0E6
S11317E00200054B01930091002304490448054C71
S11317F0A04702B010BDC04630500020C4590000BC
S1131800551700000922000070B5FA25AD00024CFE
S11318102800A047FCE7C046B926000010B582B0F6
S11318200200054B01930091002304490448054C30
S1131830A04702B010BDC04634500020E05900005B
S1131840091800000922000030B58FB001AB6422F2
S113185001922C4A0292002203921A731A76802172
S11318608903059101214942D982998225315A542B
S11318700B9208315A5401315A5401315A54D73217
S11318801A86C13A0892013209921F4D1F4C01AACF
S11318901F492800A0470028F9D11B4B1C680723C7
S11318A0E2691342FCD12368022213432360164DDC
S11318B02868184B98471F2318401E3B8340164A3C
S11318C01360E9880023102202E001338B4203D223
S11318D0608B1042F9D001E0102363830F4B9847CB
S11318E0094C20000E4B98470E4B98470A200E4B8C
S11318F0984720000D4B9847FA25AD000A4C280064
S1131900A047FCE7480D00003850002061070000A4
S1131910001400427131000000E100E0D91300001E
S1131920B913000091120000B9260000E51300006D
S113193010B582B00200054B0193009100230449C5
S11319400448054CA04702B010BDC04660500020BA
S1131950E859000049180000092200000300083378
S11319604360012252428260C3600361002303602A
S1131970704700230361704743684B609A688A602C
S11319809A68516099600861036801330360704785
S113199030B50C6802000832631C02D1026904E00D
S11319A01A0053681D68AC42FAD253684B609960C0
S11319B08A605160086103680133036030BD0369C4
S11319C04268816891608268416851605A689042B7
S11319D006D0002202611A68013A1A60186870473A
S11319E082685A60F5E7000010B50400034B98477D
S11319F0A46B034B98476042604110BD2110000066
S1131A003910000070B504001600856B026C002AC2
S1131A100BD100202368834204D16068164B984799
S1131A20002363600135A56370BD002E0ED180686C
S1131A30124B9847A368226C94466344A360002029
S1131A4062689342EED32368A360EBE7C0680B4B54
S1131A509847236C5B42E268D218E26021688A42AC
S1131A6003D2626894466344E3600020022ED9D115
S1131A708542D7D0013DD5E76D29000061580000AB
S1131A8070B582B001900A00846C002C05D0A16B63
S1131A90E36B994203D372B6FEE772B6FEE7A16B1D
S1131AA000268B4202D8300002B070BD4523E55CAD
S1131AB06DB201A920000A4B984706006B1C0AD19D
S1131AC0636A002BEFD020002430064B984700288F
S1131AD0E9D00126E7E701356DB24523E554E2E795
S1131AE0051A00003128000010B50C00026C002A11
S1131AF00BD0C3689B18C36041688B4201D3036851
S1131B00C360C1682000014B984710BD61580000B4
S1131B10F8B50700254B98474523FC5C64B2002CBC
S1131B201CDD234E234D0BE07B6A002B16D03800BE
S1131B302430A84700280ED1013C64B2002C0DD0FB
S1131B40BB6C002BF0D000213800B0470028F3D044
S1131B50194B9847F0E7184B9847EDE7FF224523C8
S1131B60FA54164B9847114B98474423FC5C64B2D3
S1131B70002C14DD3B69002B11D03D0010350D4EB7
S1131B8006E0013C64B2002C09D03B69002B06D06E
S1131B902800B0470028F4D0074B9847F1E7FF220C
S1131BA04423FA54054B9847F8BDC0462110000061
S1131BB0811A00003128000041290000391000007A
S1131BC070B504000D00002821D0174B98472268F7
S1131BD0216CE36B4B43D01860600020A063A260CB
S1131BE05B1AD318E360FF234422A3540132A354A5
S1131BF0002D11D12369002B05D0200010300B4B90
S1131C009847002805D10A4B9847012070BD72B649
S1131C10FEE7084B9847F6E720001030064DA8472A
S1131C2020002430A847EEE72110000031280000EE
S1131C3039100000091000005D190000F8B5060015
S1131C400D001700002801D172B6FEE708007043AA
S1131C5054300B4B9847041E10D0002D03D00300C2
S1131C605433036000E02060E66325640121200012
S1131C70044B98475023E7540023A3642000F8BD85
S1131C80BD100000C11B0000F0B5CE46474680B52C
S1131C9085B004000F0001921D0000280CD000291B
S1131CA00CD0022D0FD04E4B9847002810D1019B29
S1131CB0002B11D072B6FEE772B6FEE7036C002B60
S1131CC0EFD072B6FEE7E36B012BECD072B6FEE701
S1131CD00026444B98464CE00026FAE72A003900D7
S1131CE02000414B9847A36C002B0FD02900200003
S1131CF03E4B9847002801D03D4B98473D4B9847B1
S1131D00012005B00CBC90469946F0BD636A002BD7
S1131D1008D020002430384B98470028EED0344BAC
S1131D209847EBE70028E9D0314B9847E6E7314B79
S1131D3098470020E5E72F4B984701A902A82F4BAD
S1131D409847002844D1274B9847A36B9946E66BE4
S1131D50284B9847B14535D1200010300199284BC4
S1131D6098472000274B9847274B9847002826D0B0
S1131D700126C047A36BE26B9342AFD3022DADD0D3
S1131D80019B002BD3D0002E02D102A81F4B9847F1
S1131D90184B98471E4B9847124B98474423E35CD3
S1131DA05BB2013302D100224423E2544523E35CB5
S1131DB05BB20133BFD100224523E254BBE70C4B95
S1131DC09847D5E720000F4B98470F4B9847CFE72C
S1131DD020000C4B98470C4B9847002091E7C046D5
S1131DE04D29000021100000051A0000811A00008E
S1131DF0091000003910000031280000D12800002B
S1131E00CD270000111B0000B9250000B9280000EF
S1131E1065240000F0B583B00400019116001D0094
S1131E20002812D0019B002B11D0022D14D0284B76
S1131E3098470090A36BE26B9A422FD80025009834
S1131E40244B9847280003B0F0BD72B6FEE7036C3C
S1131E50002BEAD072B6FEE7E36B012B1AD072B600
S1131E60FEE7636A0125002BE9D0200024301A4BD9
S1131E7098470028E3D0002E0AD001233360DEE720
S1131E807B1C5BB24522A3540125D8E70125D6E784
S1131E900125D4E70E4B98470090A36B4523E75CDC
S1131EA07FB22A00019920000C4B98477B1CE7D194
S1131EB0A36C002BD5D029002000094B984701259D
S1131EC00028BCD0002EE1D001233360B7E7C04620
S1131ED0591000006110000031280000051A0000AC
S1131EE0811A0000F0B5C64600B584B004000F00A6
S1131EF0019200280AD000290AD0424B98470028B2
S1131F000BD1019B002B0CD072B6FEE772B6FEE734
S1131F10036C002BF1D072B6FEE700263A4B9846CC
S1131F202FE00026FAE739002000384B9847013D9E
S1131F30A5632369002B07D020001030344B984749
S1131F40002801D0334B9847334B9847012004B005
S1131F5004BC9046F0BD304B98470020F7E702A838
S1131F602E4B984716E000224423E2541DE0002241
S1131F704523E2541EE02000294B9847294B9847FB
S1131F800126C047A56B002DCDD1019B002BE2D0CB
S1131F90002EE4D0204B9847234B98471A4B984780
S1131FA04423E35C5BB20133DDD04523E35C5BB2E5
S1131FB00133DCD0184B984701A902A81B4B984762
S1131FC0002813D120001A4B98470028D3D02000B2
S1131FD024300199174B98472000114B9847114B17
S1131FE098470028CCD10B4B9847C9E720000C4BED
S1131FF098470C4B984720000D4B98470028BFD0BA
S11320000020A4E74D29000021100000E91A000077
S1132010312800000910000039100000B928000020
S1132020111B0000B925000065240000D128000020
S1132030E9190000CD27000010B50A4B1B68002BDE
S113204009D00123074CDA00A258002A04D0013336
S1132050082BF8D110BD0023024ADB009950D31895
S11320605860F7E7E851002070B504000D00160031
S1132070114B98474423E35C5BB201330DD04523F5
S1132080E35C5BB201330CD00C4B9847A36B002B81
S11320900BD020000A4B984770BD00224423E25421
S11320A0EDE700224523E254EEE72000243032001D
S11320B02900044B9847ECE7211000003910000078
S11320C0111B0000F9270000084B1B681B68002B3C
S11320D007D0064B1B68DB68DB685A68044B1A6040
S11320E0704701225242024B1A60F9E768500020FF
S11320F01851002070B504000D00174B1E68174BD3
S113210018680430164B9847631C13D03419134BCA
S11321101B685C60A64216D8124B18680F4B1968EE
S11321200431114B9847114B1B689C4212D20F4B40
S11321301C600FE0002DE9D0084B196804310C48ED
S11321400C4B984706E00C4B1868044B1968043193
S1132150054B984770BDC046605100206450002074
S1132160BF19000068500020911900001851002088
S113217038510020791900006C500020F0B5D64683
S11321804F464646C0B5164B9946164B9846164FD1
S113219001E0164B98474B461B68002B18D0144B94
S11321A09A46C047FB68DD68281DD047114A13686A
S11321B0013B13600A4C2368013B23600E4B984794
S11321C0286B0E4EB0472800B0472368002BE8D197
S11321D00B4B1B68012BDCD90A4B9847D9E7C04647
S11321E0D8500020211000004C510020253E000052
S11321F0BF190000D450002039100000E91100007C
S11322007050002009100000F0B5C64600B584B037
S113221001900D000293970038005F4B9847061E0B
S113222000D189E058205C4B9847041E00D180E01F
S113223006633A00A5213000584B98473A1F236B98
S11322409C46624407239A4390462A782D33E254ED
S11322502B78002B0DD001352300353320003E3080
S11322602A781A702A78002A03D001350133834270
S1132270F6D100223D23E2540A9F042F00D90427FB
S1132280E762A7640026E664231D03931800444D07
S1132290A84720001830A84724610523DB1BA3614D
S11322A0646226655423E654029A019940463D4BE4
S11322B0984720600B9B002B00D01C603A4B98473A
S11322C03A4A136801331360394B1B68002B36D02C
S11322D0384B1B68002B07D1354B1B68DB6AE26A5D
S11322E0934201D8324B1C60334A136801331360A4
S11322F02364E36A314A1268934201D92F4A136076
S11323009800C01880002E4B181803992D4B98473D
S11323102D4B9847274B1B680120002B05D0244BDD
S11323201B68DA6AE36A9A4231D304B004BC90466B
S1132330F0BD3000254B984701204042F5E71C4B87
S11323401C601368012BCFD11D4F3800204EB047BD
S113235038001430B04738002830B04738003C30DB
S1132360B04738005030B0471A4B98461800B04771
S1132370194F3800B0471948B0471948B0471948B1
S1132380B047194B42461A60184B1F60ACE7184B14
S113239098470120C9E7C046BD10000073580000EB
S11323A073190000850F000021100000D450002094
S11323B06450002034510020E4500020E8500020F4
S11323C0705000207919000039100000E911000054
S11323D05D190000EC500020005100202051002025
S11323E04C51002038510020685000206C500020CF
S11323F00910000010B582B0114B01930023009323
S1132400822210491048114CA047012803D0431CD4
S113241013D002B010BD0E4B98470128F7D172B605
S1132420012252420B4B1A6002320B4B1A600022FB
S11324300A4B1A600A4B9847EBE772B6FEE7C046B0
S113244014510020F05900007D21000009220000F1
S1132450A12A0000185100203451002060510020AE
S1132460A50F0000024A1368013313607047C04689
S1132470E0500020014B18687047C04660510020AE
S1132480F0B583B03D4B1B68002B00D06DE03C4B96
S11324901D6801351D60002D12D13A4B1B681B6865
S11324A0002B01D072B6FEE7364A1168364B186825
S11324B010601960354A136801331360344B984730
S11324C0344B1B6800249D4233D300242D4F3B68BA
S11324D01B68002B29D02B4B1B68DB68DE687368F4
S11324E09D423FD3331D019318002B4B9847B36A89
S11324F0002B03D030001830274B9847F36A274A43
S11325001268934201D9254A13609800C0188000CC
S1132510234B18180199234B9847234B1B68F26AE5
S1132520DB6A9A42D3D30124D1E701225242194BE8
S11325301A601D4B1B68DA6A93009B189B00184AAB
S11325409B58012B00D90124184B1B68002B01D187
S1132550174B9847174B1B68002B00D00124200011
S113256003B0F0BD0B4A1360E3E7104A136801336C
S113257013600F4B98470024ECE7C046E05000205E
S113258060510020685000206C5000201C51002035
S1132590C920000018510020BF190000E850002095
S11325A0705000207919000064500020DC50002095
S11325B0313E000064510020F8B5304B1B68002BFD
S11325C001D172B6FEE72E4B98472C4B1A68013A9C
S11325D01A601B680024002B03D12A4B1B68002BB4
S11325E003D1294B98472000F8BD284D2F002B68B4
S11325F0002B22D0FB68DC6820001830244B98475D
S1132600261D3000224B9847E36A224A12689342FF
S113261001D9204A13609800C01880001E4B181876
S113262031001E4B98471E4B1B68DB6AE26A9A42D4
S1132630DDD301221B4B1A60D9E7002C01D01A4BC1
S113264098471A4B1C68002C0ED0194F154E0125C3
S113265002E0013C002C04D0B8470028F9D03560D2
S1132660F7E70022114B1A600E4B1B680024002B65
S1132670B7D0104B98470134B3E7C046E050002070
S113268021100000D45000203910000020510020F7
S1132690BF190000E8500020705000207919000094
S11326A06450002064510020C9200000DC50002048
S11326B0812400000910000010B5041E0FD0094B3E
S11326C01B68002B01D072B6FEE7074B9847002128
S11326D02000064B9847064B9847002801D1054B2C
S11326E0984710BDE050002065240000F52000004C
S11326F0B92500000910000010B52D4B1B68002BF4
S113270028D100222B4B1A602B4B1B681B6B2B4AC6
S11327101968914202D1596891421FD0264B18681A
S113272019683431264B9847264B1B689A00D218F7
S1132730920025495258002A17D1002B08D0013B9A
S11327409A00D21892005258002A0ED1002BF6D1CA
S113275072B6FEE70122174B1A6010BD99689142C8
S1132760DCD1DB689342D9D1DEE717489A00D1184F
S1132770890041184C6864684C60D2189200083291
S1132780821894420BD09A00D21892000E498A18EB
S11327905268D168084A11600A4A1360DDE760682C
S11327A09A00D218920008498A185060EBE7C04694
S11327B0E05000206451002064500020A5A5A5A588
S11327C0333E0000E85000207050002010B50C008B
S11327D0002801D172B6FEE7044B19681831044B86
S11327E0984701212000034B984710BD64500020F6
S11327F091190000F520000070B50C0015000028A8
S11328000DD0084B19681831074B9847002D01D09B
S11328100124644229002000044B984770BD72B61D
S1132820FEE7C0466450002079190000F52000003E
S113283070B5C368DC68002C27D025001835280043
S1132840154B9847154B1B68002B20D1251D2800DC
S1132850114B9847E36A124A1268934201D9104A0D
S113286013609800C01880000E4B181829000E4BF6
S113287098470E4B1B68E26ADB6A00209A4203D930
S113288001220B4B1A60013070BD72B6FEE72900BD
S11328900848054B9847ECE7BF190000E0500020BA
S11328A0E850002070500020791900006450002086
S11328B06451002020510020034B1B680360034B2C
S11328C01B6843607047C0461C51002060510020C3
S11328D070B506000D0000281BD000291BD0134B37
S11328E09847134B1A6871682B68581C1CD0114800
S11328F000683468844202D001248A4205D2521A04
S11329009A420AD300232B6001240B4B98472000E2
S113291070BD72B6FEE772B6FEE79B1A2B603000FC
S1132920064B98470024F0E70024EEE7211000004E
S1132930605100201C51002039100000B92800000B
S11329400122014B1A60704764510020054B1B683B
S11329500120002B04D0044B186843425841400026
S11329607047C04634510020E050002070B5041E6A
S11329702CD0184B1B68984201D072B6FEE7C36C8A
S1132980002B01D172B6FEE7013BC364C26A816CBD
S11329908A421DD00020002B17D1251D28000E4B84
S11329A09847A36CE3620522D21AA2610B4A12680B
S11329B0934201D9094A13609A00D3189B0008482E
S11329C0C0182900074B9847012070BD0020FCE780
S11329D00020FAE764500020BF190000E8500020EE
S11329E0705000207919000010B5416000619142D7
S11329F00BD8D21A012483699A4211D2011D094BC2
S1132A001868094B984700240AE09A4202D201242C
S1132A10994205D2011D054B1868034B98470024C1
S1132A20200010BD6C510020911900006851002055
S1132A3070B5104B9847104B1B68002B02D00F4BFE
S1132A40984770BD0E4D28000E4EB0470E4C200026
S1132A50B0470E4B1D600E4B1C6000221021052058
S1132A600C4B9847044B18600028E8D00A490B4BDC
S1132A709847E4E7211000009C5100203910000021
S1132A80705100205D19000084510020685100201D
S1132A906C5100203D1C0000205A00003920000029
S1132AA010B582B00B4B98470B4B1B68002B0ED014
S1132AB00A4B019304230093002382225200084905
S1132AC00848094CA047002801D002B010BD72B6D6
S1132AD0FEE7C046312A00009C510020A05100208E
S1132AE0285A00005D2C000009220000F0B5C646FB
S1132AF000B580460D0017001E002C200B4B984794
S1132B00041E0FD0002D01D172B6FEE7084B984782
S1132B1043462360A561E7612662069B6362201D2C
S1132B20044B9847200004BC9046F0BDBD10000043
S1132B30312A00007319000030B585B004001D006F
S1132B40002814D0134B1868002821D0009101925A
S1132B500294052915DC104B9847022809D00D4B27
S1132B6018680023002269460C4CA0470EE072B698
S1132B70FEE7084B18680023089A6946074CA047EB
S1132B8004E000232A006946054CA04705B030BD87
S1132B900020FBE79C5100204D290000891C000007
S1132BA0151E0000F0B5D6464F464646C0B582B065
S1132BB08046234B98478246224B1B68984217D382
S1132BC00023424613601F4B52461A60504602B01F
S1132BD01CBC90469946A246F0BD002300933A00DF
S1132BE000212000184CA047002804D172B6FEE74B
S1132BF0164D174B99462B681A68002A17D0DB68C4
S1132C001F68DC68261D3000C8472000636A9847A7
S1132C10E369012BEFD1A369FB189F42DDD2636006
S1132C2024610A4B186831000A4B9847E3E70A4AC3
S1132C300649106808601360012342461360C2E726
S1132C407524000098510020392B000068510020A1
S1132C50BF190000911900006C510020F0B58DB02F
S1132C60594F5A4B1B681A68002A0ED0DB681C683F
S1132C70574B984708A8574B98470500089B002BCB
S1132C8046D1A0421DD200220FE0514B984708A81C
S1132C90504B98470500089B002B39D14E4B1B68BD
S1132CA01B685A425A41D2B20024611B4B4B18682C
S1132CB04B4B98474B4B9847002826D0474D4A4CDE
S1132CC036E0484B9847414B1B68DB68DE68301D93
S1132CD03D4B9847F369012B03D0736A3000984742
S1132CE0ECE7B369E11823002A0030003F4DA84700
S1132CF00028F2D0002300932200002130003C4C35
S1132D00A0470028E9D172B6FEE73A4B9847D5E7C9
S1132D10344B9847D2E70B9B03930A9B0493099B7C
S1132D200593039904989847089B0393002B09DAA9
S1132D30002208A92868A047002892D0089B039382
S1132D40002BE8DB0A9E7369002B01D0301DB847C5
S1132D5007A8204B9847089B092BE9D89B00264AD3
S1132D60D3589F46099BB269944663441900099B52
S1132D70020030001D4CA0470028A0D03000736A28
S1132D809847F369012B9AD1099BB1698C46634436
S1132D901A000023009300213000154CA04700289E
S1132DA08DD172B6FEE70999B161002906D04118A8
S1132DB00300020030000D4CA04780E772B6FEE726
S1132DC030000E4B98477AE7BF1900006851002085
S1132DD065240000A52B00006C5100209C510020AC
S1132DE069200000B9250000E51E0000E929000063
S1132DF0392B000009100000F8590000E911000007
S1132E0010B582B00400394A936910210B439361D1
S1132E10374B1B785BB21020002B03DBE3780730C1
S1132E20002B01D102B010BD22799A42FAD86279FE
S1132E309A42F7D82E4A13780E398B431370D379FC
S1132E405BB2002BFBDB63780020002BEAD001A9E6
S1132E50A3780B700330274B98470320264B9847E1
S1132E602378002B27D1E378013B2279002A26D04E
S1132E701F490A78042002430A702279013A8240E9
S1132E8013431B49CA7952B2002AFBDBDBB2184A4E
S1132E9053706379002B18D12378002B1FD0144A68
S1132EA0137880210B431370114AD3795BB2002B42
S1132EB0FBDB0020B6E70320104B9847D3E70C490F
S1132EC00A78042082430A70DBE71100CA7952B2FF
S1132ED0002AFBDB013BDBB2054A9370DCE7044AC2
S1132EE0137802210B431370DEE7C0460004004050
S1132EF000100040393B0000AD3A0000553B000093
S1132F00A522044B1A721A00D3795BB2002BFBDBA7
S1132F107047C0460010004010B50122034B9A715F
S1132F20034B1B68002B00D0984710BD00100040D5
S1132F302852002010B582B004000E4B1B78002BE1
S1132F4007D0002905D10B4B5B78834210D01D209C
S1132F500CE001A90C701320074B98471320074B72
S1132F609847044B5C7001221A70002002B010BD17
S1132F700020FBE7A4510020393B0000AD3A0000DB
S1132F80404B984231D00AD93F4B98424DD03F4BE9
S1132F9098425AD03E4B984237D0002070473D4B60
S1132FA098420CD03C4B9842F7D1012917D0002904
S1132FB05DD0022915D0032915D00020EEE70129A0
S1132FC007D0002951D0022905D0032905D00020BB
S1132FD0E4E73248E2E73248E0E73248DEE73248E5
S1132FE0DCE73248DAE73248D8E7012907D000297C
S1132FF03FD0022905D0032905D00020CEE72D4873
S1133000CCE72D48CAE72D48C8E7012907D0002995
S113301031D0022905D0032905D00020BEE7284875
S1133020BCE72848BAE72848B8E7012907D00029AF
S113303023D0022905D0032905D00020AEE7234878
S1133040ACE72348AAE72348A8E7012907D00029C9
S113305015D0022905D0032905D000209EE71E487B
S11330609CE71E489AE71E4898E71E4896E7032007
S113307094E71D4892E71D4890E71D488EE71D48D8
S11330808CE7C0460010004200180042001C0042B9
S11330900014004200080042000C00420300050036
S11330A003000600030007000300010003001E00E4
S11330B003001F000300090003000A0003000B00C3
S11330C003001100030012000300130003000D00AD
S11330D003000E0003000F00030017000300180094
S11330E0030019000300040003000800030010009B
S11330F003000C000300160030B587B00B4B6A4682
S113310032CB32C232CB32C2009B83420BD001237A
S11331109A0069465258824206D00133062BF7D1F1
S1133120002007B030BD0023D8B2FAE7305A0000BF
S113313070470000F0B50A4B1B78002B0CD1094FE7
S1133140094E0A4D0024DE515A1914600433182B19
S1133150F9D10122024B1A708000024BC150F0BD1C
S1133160A6510020A8510020313100002C5200202B
S113317000B583B009236A461370013353700133D9
S113318093700133D3700133137101335371034BC3
S113319098476B46185603B000BDC046F93000008E
S11331A010B5024B1B680020984710BDA8510020A1
S11331B010B5024B5B680120984710BDA851002050
S11331C010B5024B9B680220984710BDA8510020FF
S11331D010B5024BDB680320984710BDA8510020AE
S11331E010B5024B1B690420984710BDA85100205C
S11331F010B5024B5B690520984710BDA85100200B
S11332007047000070B5C34B802098604724195D57
S113321002252943C9B21955586158601A5D2A43D9
S1133220D2B21A55BC4A9A62BC4A9A625861BC4AE4
S11332309A62BC4A9A620023463C7C3801250133D9
S1133240202B0AD022009A401042F8D0B64A99188E
S11332500A782A43D2B20A70F1E7B44BB44A9A62AC
S1133260B04A9A62002301248020400001250133E2
S1133270202B0AD022009A400242F8D0AD4A991875
S11332800A782A43D2B20A70F1E7A84BAA4A9A6292
S1133290A44A9A620023012480208000012501337E
S11332A0202B0AD022009A400242F8D0A14A991851
S11332B00A782A43D2B20A70F1E7964B802058600C
S11332C04724195D02263143C9B21955924D9D62B6
S11332D092499962586158601A5D3243D2B21A55C4
S11332E09D6299625861954A9A628E4A9A62002355
S11332F0463C703801250133202B0AD022009A4025
S11333001042F8D0884A99180A782A43D2B20A702F
S1133310F1E7804B8A4A9A62824A9A620023012426
S1133320202001250133202B0AD022009A4010428C
S1133330F8D07D4A99180A782A43D2B20A70F1E784
S1133340744B804A9A62774A9A620023012440208F
S113335001250133202B0AD022009A401042F8D0D4
S1133360714A99180A782A43D2B20A70F1E7694B74
S11333708021996047201A5C022422431A5459611F
S1133380714A9A62714A9A620023013C8020C00308
S113339001250133202B0AD022009A400242F8D0A2
S11333A0614A99180A782A43D2B20A70F1E7594B54
S11333B0654A9A62664A9A620023012480200004C6
S11333C001250133202B0AD022009A400242F8D072
S11333D0554A99180A782A43D2B20A70F1E74D4B3C
S11333E08021996047201A5C022422431A545961AF
S11333F0554A9A62574A9A620023013C802040024F
S113340001250133202B0AD022009A400242F8D031
S1133410454A99180A782A43D2B20A70F1E73D4B1B
S1133420494A9A624C4A9A6200230124802080020D
S113343001250133202B0AD022009A400242F8D001
S1133440394A99180A782A43D2B20A70F1E7314B03
S11334508021090199604B201A5C022422431A54EA
S113346099613E4A9A623E4A9A620023013CB63010
S1133470FF3001250133202B0AD022009A4002425A
S1133480F8D0294A99180A782A43D2B20A70F1E787
S1133490204B344A9A62324A9A62002301248020E3
S11334A0C00001250133202B0AD022009A40024299
S11334B0F8D01D4A99180A782A43D2B20A70F1E763
S11334C0144B294A9A62264A9A62002301248020D6
S11334D0400001250133202B0AD022009A400242E9
S11334E0F8D0114A99180A782A43D2B20A70F1E73F
S11334F0084B802098604724195D02252943C9B2EE
S11335001955586198601A5D2A43D2B21A55586108
S113351070BDC0460044004180000650000006D043
S113352004000251000002D14044004180440041A3
S113353000010251C0440041000202511000025136
S1133540200002514000025100000252400002D209
S1133550800002D2010002D2020002D20002025212
S1133560000002D200040252000102520C4B1B68FC
S1133570002B06D1EFF31083002B07D00022094B58
S11335801A70074A136801331360704772B6BFF3A9
S11335905F8F0022044B1A700132024B1A70F0E75D
S11335A0C0510020C45100200F000020084B1A68AD
S11335B0013A1A601B68002B09D1064B1B78002BBB
S11335C005D00122044B1A70BFF35F8F62B67047B7
S11335D0C0510020C45100200F00002010B508285D
S11335E003D880001C4B1B589F46002032E01B4B25
S11335F018692FE01A4B1B6A9B059B0F1948D8408A
S113360028E0164B586925E0144B1B6800209B07E3
S113361020D513491022CB681A42FCD00F4B1A68EC
S113362024231340042B01D00F4813E000200F4B38
S113363098470A4B9B681B041B0C58430AE0502311
S1133640074AD35C00205B0704D5044BD86801E02B
S11336508020000210BDC046485A0000C851002016
S11336600008004000127A00006CDC02853B000078
S113367070B50C490B6A04788578407801221040B3
S113368080014026B34303432A40D2018020834370
S113369013430322224012020348034013430B62E4
S11336A070BDC04600080040FFFCFFFF10B5037A60
S11336B09B061B0C42899205920D134318494B60DB
S11336C08379C2791343428884882243134342781E
S11336D0D20113430B600378042B11D0202B0ED19D
S11336E0037B9B06028A1343C28912040D490A40D4
S11336F013430B4A936011680B4B0B43136010BDCB
S1133700037B9B06028A1343C289120405490A40BB
S11337101343034A9360136804210B431360EEE7D9
S1133720C85100200000FF0324040000082803D827
S11337308000254B1B589F46172044E0234A136AF8
S113374002210B43136200203DE0204A93690221C9
S11337500B439361002036E01C4A138A02210B4379
S1133760138200202FE0194A938A02210B4393828B
S1133770002028E016490B68022213430B60134B08
S11337809A8419000E32CB681A42FCD0104A916810
S11337900E4BD96252689A6200229A841900103240
S11337A0CB681A42FCD00A4B1B689BB2074A93842D
S11337B0002008E0054944228B5C022003438B541B
S11337C0002000E0002070476C5A00000008004010
S11337D0C8510020F0B5CE46474680B58BB0C22212
S11337E0D2003C4B9A603C4A53681E218B43536081
S11337F0022201AB1A700024384DE0B201A9A84797
S11338000134252CF9D105AB00211970002259800F
S113381099809A71DA71063119825A70304B1B689B
S11338209B0E3F2B54D005A8037280239B00438139
S1133830FA3BFF3B03733833C3812A4B984704A8F0
S113384000254570012787700570274B984706208F
S1133850264EB047264B984701AC02976570062365
S1133860994623702572657221000120214B9846E8
S113387098470120204FB84765704B462370257246
S11338806572FF23636021000420C0470420B84709
S11338900720B0470F491022CB681A42FCD0174AC0
S11338A00023137253729372D37201A901224A60E6
S11338B04B700B724B7207330B7000200D4B984703
S11338C000200D4B98470BB00CBC90469946F0BDB8
S11338D0203BA8E70008004000400041393B0000BD
S11338E024608000AD360000713600002D370000E2
S11338F00139000025390000DD39000000040040D2
S1133900064A936908210B4393610122044B1A7000
S113391019000B781342FCD17047C04600040040E4
S1133920000C004070B5060004000D782D0205431C
S11339304B78002B02D08023DB021D434B7A002BF3
S113394002D080231B031D434868012810D9431E5D
S1133950184234D1022830D90223002201325B00FC
S11339609842FBD812023243140080235B031D43A8
S11339700B7A002B02D080239B031D43134A5378F8
S11339805BB2002BFBDB124B9847124B1E700F4AA5
S113399053785BB2002BFBDB0C4B9C601A00537812
S11339A05BB2002BFBDB094A5368802149020B40C0
S11339B01D435560084B984770BD0022D2E70402AE
S11339C0344380239B021D43D2E7C046000C0040D1
S11339D06D350000080C0040AD35000010B5040042
S11339E00B4A53785BB2002BFBDB0A4B98470A4B1C
S11339F01C70074A53785BB2002BFBDB044A516806
S1133A0080235B020B435360044B984710BDC046B0
S1133A10000C00406D350000040C0040AD35000082
S1133A2070B504001A4A53785BB2002BFBDB194BC8
S1133A309847194B1C70164A53785BB2002BFBDB7A
S1133A40134E7068C004C00E144B98470500124B07
S1133A501C707668F602F60F114B1C700C4A5378F2
S1133A605BB2002BFBDB0A4B9C682402240C0D4B3D
S1133A709847002E07D1012C07D9210028000A4BB2
S1133A809847050001E00134E540280070BDC046B8
S1133A90000C00406D350000040C0040DD350000D2
S1133AA0080C0040AD350000393E000010B504009C
S1133AB0064B9847064B1C70064A53888021C9015F
S1133AC00B435380044B984710BDC0466D3500002E
S1133AD0020C0040000C0040AD35000010B504009D
S1133AE00F4B98470F4B1C700F4A53881B05180F38
S1133AF053880E490B40538053880D490B40538023
S1133B0011008022D2014B881342FCD106494A8815
S1133B1003020648024013434B80064B984710BDEE
S1133B206D350000020C0040000C0040FFF0FFFF68
S1133B30FFBFFFFFAD35000010B50C78240204432D
S1133B40024B9847A4B2024B5C8010BDDD3A0000E2
S1133B50000C004010B50400064B9847064B1C703F
S1133B60064A5388C02109020B435380044B9847EB
S1133B7010BDC0466D350000020C0040000C004032
S1133B80AD35000010B50400064B9847064B1C7079
S1133B90064B5C882405240F054B98472000054BF1
S1133BA0984710BD6D350000020C0040000C004029
S1133BB0AD350000213A000030B5D378002B35D163
S1133BC01378802B29D01B06802464022343547865
S1133BD00225AC4306D19478002C20D18024A40281
S1133BE0234341605478013C012C1CD90D042D0C55
S1133BF0A024E4052C431C4384620D0CD024240629
S1133C002C431C438462D478002C22D15B031CD542
S1133C109378012B1ED0416117E00023D7E7C0241D
S1133C20E4022343DDE70D4C2340DFE741600C044D
S1133C30240CA023DB05234383620C0CD0231B0636
S1133C4023438362D378002B03D15378013B012BA8
S1133C5002D930BD8161F8E78160FAE7FFFFFBFF1D
S1133C6010B50A00C1090023002904D14309DB016E
S1133C7005498C4663441F242040012181401800DB
S1133C80024B984710BDC04600440041B93B0000B8
S1133C907047000010B5054B9847054B9847054BF6
S1133CA09847054B9847054B984710BDD5370000FA
S1133CB005320000913C0000913C0000913C000062
S1133CC0FEE70000F8B52A4A2A4B9A4211D01A009E
S1133CD0294B9A420DD2294A03339B1A9B0801337C
S1133CE09B000022234822498C58845004329A4273
S1133CF0FAD1234A234B9A420AD2D34321495B186F
S1133D0003218B4304339B18002102C29342FCD14C
S1133D101D4AFF211D4B8B439360FD3990235B00AB
S1133D201B4AD1501B4AD3780325AB4302242343B7
S1133D30D370D3780C27BB4308263343D370164B78
S1133D40987B30229043202210439873997BB94387
S1133D50314399739A7BAA4322439A730F4A536857
S1133D6080210B4353600E4B98470E4B9847FEE758
S1133D70305B000000000020100000200400002040
S1133D80100000204452002000ED00E0000000007C
S1133D9000700041005000410048004100400041D3
S1133DA019580000A93D000010B582B0144B984783
S1133DB0144B984701236A465370042269468A705B
S1133DC00832CA7000220A714A710B7068460E4BA1
S1133DD098470321802040000C4B98478024A4007E
S1133DE0022120000A4B984702212000094B9847E2
S1133DF001212000084B9847084B9847FEE7C0462E
S1133E00953C000001320000012E00001D18000046
S1133E10D916000031190000DD170000F523000059
S1133E2072B6FEE710B5014B984710BD012F000094
S1133E30704772B6FEE7FEE7002243088B4274D354
S1133E4003098B425FD3030A8B4244D3030B8B4297
S1133E5028D3030C8B420DD3FF22090212BA030CA0
S1133E608B4202D31212090265D0030B8B4219D381
S1133E7000E0090AC30B8B4201D3CB03C01A5241A1
S1133E80830B8B4201D38B03C01A5241430B8B42E9
S1133E9001D34B03C01A5241030B8B4201D30B03D2
S1133EA0C01A5241C30A8B4201D3CB02C01A5241F9
S1133EB0830A8B4201D38B02C01A5241430A8B42BC
S1133EC001D34B02C01A5241030A8B4201D30B02A5
S1133ED0C01A5241CDD2C3098B4201D3CB01C01ABF
S1133EE0524183098B4201D38B01C01A52414309C9
S1133EF08B4201D34B01C01A524103098B4201D3B7
S1133F000B01C01A5241C3088B4201D3CB00C01A23
S1133F10524183088B4201D38B00C01A524143089B
S1133F208B4201D34B00C01A5241411A00D20146C0
S1133F30524110467047FFE701B5002000F006F833
S1133F4002BDC0460029F7D076E770477047C046E7
S1133F50F8B54546DE4657464E460C03E0B54E00DE
S1133F60C90F88460D00610A440F0C43C7001903AA
S1133F705800DB0F9B464B0A510F0B43760D400D47
S1133F801900D200D84500D1AEE0351A002D00DC6E
S1133F90F6E000280FD1134300D1DBE06B1E002BA9
S1133FA000D037E1BA1A9742BF41641A7F42E41B3A
S1133FB00126170024E0C64B9E424DD080231B04EB
S1133FC01943382D00DD07E11F2D00DD38E12020E5
S1133FD0431B9A460B0050468340994613004846BB
S1133FE0EB401843030050468240501E8241E94092
S1133FF01A43BA1A611A9742A441170064420C1B6F
S1134000230262D56402650A002D00D1DFE0280096
S113401001F0E4FB0300083B1F2B00DDD2E020226B
S11340203C00D21A9D40D4409F4025439E4200DD6F
S1134030C4E09E1B731C1F2B00DDF1E0202238001E
S11340402900D21AD840914097402C000143781E91
S11340508741DC4000260F437B0709D00F233B40F8
S1134060042B05D03B1DBB42BF417F42E4191F0016
S113407023022CD5964B01369E4200D19AE0454648
S1134080944BFF081C406007760564020743240B29
S1134090760D00212403230B0C0D8F4A24051C43A9
S11340A01440330523435B00ED075B082B433800C2
S11340B019003CBC90469946A246AB46F8BD6446FE
S11340C0044300D111E2040067467B07C6D145468C
S11340D06007FF080743E4087D4B9E4230D0240369
S11340E07605240B760DD4E7331A9A46002B78DD37
S11340F0002831D076488642AED0802000040143A7
S11341005346382B00DCE9E00A43511E8A41002162
S1134110D219BA42BF4109197C4217000C19230273
S1134120D3D56B4B01369E4200D13AE10120694B55
S11341301C407B0807401F43E007074364088BE7E4
S113414023003B4300D1CBE1802212031443240318
S1134150240B9EE72E007FE70800104300D1B4E053
S1134160581E002800D0DEE0BA18BA429B416418F9
S11341705B42E418170001262302A6D50226D5E7E0
S1134180002D6ED1701C4005400D012800DCF9E0C3
S1134190B81A844687428041E51A40422D1A280203
S11341A000D489E0D71BBA4292411C1B5242A51A83
S11341B0D84629E74546002400276AE7454CF61A05
S11341C02C4049E73D002838854000272EE7380079
S11341D001F004FB20301DE70A43511E8A410021EF
S11341E007E7002B00D0F3E0701C43055B0D012BA7
S11341F000DCADE0364B984200D1D1E0BA18BA42A7
S1134200BF4164187F42E419E70752081743640862
S1134210060021E72E48854200D193E01D00D0E638
S113422029001F3EF140202B00D18DE04022D31AFB
S11342309D402F437D1EAF4100240F43002644E7D9
S11342402B000800203BD8400300202D00D17DE046
S11342504020451BA9400A43511E8A4100211A43AC
S1134260C7E6002E50D01A4EB04257D080266B427B
S11342709946360434434B46382B00DDD6E01F2BD9
S113428000DD35E12026F51A2600AE40B2463E0098
S1134290DE40AC46350056462E436546AF407D1E93
S11342A0AF41DC403743D71BBA4292410C1B524208
S11342B0A41A0600D846A3E6644667462C4300D0F9
S11342C0A2E600250026002706E71E00C4E6C04635
S11342D0FF070000FFFF7FFFFFFF0F801F2B63DC42
S11342E02020C31A080098409C4683465346100079
S11342F0D84003005846184363469A40531E9A41D7
S113430053460243D94003E726003E4306D0EB431D
S11343109946002BC7D0944EB042ACD10C00170084
S11343200600D84698E6904B9A450BD08246E7E6BD
S1134330002800D09EE01800104300D1E9E01C00E2
S11343401700D846884E87E6002572E7002182E7E9
S113435023003B43002E00D0ABE0002B00D1E7E06C
S11343600B00134300D177E6BA18BA42BF41641870
S11343707F42E419230200D4F2E07C4B17001C4076
S1134380060069E620003843002ED1D100285BD115
S11343901C00144300D1A8E01C001700D8465BE6BB
S11343A006000024002797E650460B002038C3403F
S11343B099465346202B00D195E0402350461B1AC2
S11343C099400A43511E8A414B4600211A439FE6F5
S11343D0002E30D126003E4367D0DB439A46002BA3
S11343E01CD0614EB04260D05346382B00DD96E0BD
S11343F01F2B00DD9FE02026F31A26009E409C46DA
S1134400B34653463E00DE4033005E461E436346D9
S11344109F407B1E9F415346DC403743BF18974261
S1134420924164185242A418060078E627437C1E81
S1134430A741002437E74C4EB04236D080265B4279
S113444036049A463443CFE71800104300D103E6FC
S1134450B81A84466745AD41E01A6D42401B050217
S113446000D42CE6D71BBA4292411C1B5242A41A18
S1134470D846F1E51800104300D163E7F808670750
S113448007438020E4080003044208D0DD08054205
S113449005D1D208590711430F002C00D8467B0FD1
S11344A0E4001C43FF00304ED6E50C001700060064
S11344B0D2E5002B38D00B00134300D142E7F808B3
S11344C0670707438020E40800030442E7D0CB08D1
S11344D00342E4D1D208490711430F001C00DEE770
S11344E000270024D5E500216BE700250027F3E52C
S11344F04E462500203EF5404B462E00202B2DD065
S11345004025ED1AAC4027437C1EA74100243743C5
S1134510C9E6802400252403134E0027DCE5274345
S11345207C1EA741002479E70C0017000E4E93E58A
S11345300C00170090E556462300203EF3409946B0
S11345405346202B0ED0402356469B1B9C402743AA
S11345507C1EA7414B4600241F435FE70024D2E79B
S11345601700B2E50024F2E7FF070000FFFF7FFF1A
S1134570F0B557464546DE464E46E0B54C000E03C0
S113458087B0834692461D008046360B640DCF0FDC
S1134590002C4FD06F4B9C4235D08023420F1B041C
S11345A0F600134333439946C30098466A4B0026EA
S11345B09C460023644403932B031B0B9B466B0014
S11345C0ED0F50465B0D01955ED0624A934253D085
S11345D05A46D1008022400F120402430A439346F4
S11345E05246D1005C4A9446002263443800684035
S11345F084460290E41A16430F2E00D9B4E0574BB8
S1134600B6009B599F460300334399466CD100235F
S11346109846023308260393CEE7CB464146039AD5
S11346200197022A65D1019B4A4C9C460023002233
S113463098466BE00300334399464ED0002E00D1D8
S1134640BCE1300001F0CAF803000B3B1C2B00DD79
S1134650ACE11D22D31A5A460100DA4008398E40D3
S11346601300334399465B468B40984600233C4CE9
S11346700026241A03939FE751465A46114329D131
S1134680002293460232B1E7594601431ED05B46ED
S1134690002B00D19EE1584601F0A0F803000B3B2B
S11346A01C2B00DD8FE102005946083A91408B46ED
S11346B01D21CB1A5146D9400B0059460B43514694
S11346C09B469140264B00221B1A8FE700230122B0
S11346D09B468BE75146032288E700239846013323
S11346E004260024039367E70323B14603930C26AF
S11346F062E7032A00D15CE2019B012A00D0E4E1D5
S113470013409C46002300240022984600211203F3
S1134710130B0A0D12051A432305124C404622407E
S1134720134362465B00D2075B081343190007B0CA
S11347303CBC90469946A246AB46F0BD002380227D
S11347409C4612039846034CE0E70023014C0022E8
S11347509846DBE7FF07000001FCFFFF905A0000CA
S11347600DFCFFFFFFFF0F80D94500D939E100D1CF
S113477034E1002346464D469A46013C5B460A0E08
S11347801B021A430B02170C039313041B0C39006E
S1134790280090460193FFF74FFB0200019B8346DC
S11347A05A43280039009146FFF7CCFB350C090425
S11347B00D43A9450DD95B464544013BA84500D9A5
S11347C03AE1A94500D837E102235B429C464544BF
S11347D0E3444B46EB1A390018000493FFF72CFB13
S11347E0019B05004343390004989946FFF7AAFB4F
S11347F0330409041B0C0B43994509D943446A1E2D
S1134800984500D91AE1994500D817E1023D43447F
S11348104A469B1A5A4612042A4303999346100C9B
S11348200A0C914609045A46090C4E460D0012041E
S1134830120C4543059151437243704352190E0CB7
S1134840B218954203D980256D02AC466044150C1C
S113485009041204090C28185218834200D2CEE02D
S113486000D1C8E01D1A53469E1AB24592415242E5
S1134870AB1A9A46984500D117E139001800FFF7A2
S1134880DBFA019B05004343390050460493FFF7CC
S113489059FB04980B04310C1943884209D941444B
S11348A06B1E884500D907E1884200D804E1023D27
S11348B04144049BCB1A180039000493FFF7BCFA57
S11348C0019B82464343390004980193FFF73AFB66
S11348D001980B043104090C194388420DD953463D
S11348E04144013B884500D9E8E0884200D8E5E02E
S11348F002235B429C464144E244019B2D04CE1AB0
S113490051462943059D4F462A000B04080C1B0CF5
S11349105A4345437B4378435B19170CFB189D426C
S113492003D980256D02AC4660441D0C12041B049F
S1134930120C28189B18864200D293E000D18EE016
S113494001231943A04BE318002B00DC99E04A072C
S113495000D09EE05A46D20106D55A469B4B1A40D7
S113496080239346DB00E318994A934268DD0123D0
S1134970029A984C1A400023944698460022C5E6B1
S113498080224B46120313420AD05B46134206D1DF
S11349901A431203120BAC4688468E4CB6E64B46BD
S11349A01A431203120BBC468A4CAFE603005A4664
S11349B0283B9A4000239146984657E6584600F013
S11349C00DFF203040E603005246283B9A40002168
S11349D0934677E600F002FF20305FE6884500D278
S11349E0C7E64B46DE075D0843465B081E43434665
S11349F0DB079A46C2E60025924500D333E7039EBF
S1134A005946B446E244B245AD416D424544EB18C3
S1134A100139984507D2984200D97FE000D1BCE023
S1134A201D1A8B461FE79845FAD1039D5545F2D9C7
S1134A3043468B461D1A16E79B46CAE61500E7E671
S1134A405A46C90852070A435B0590465C0D5A460C
S1134A500123029952021940120B8C4656E6002B90
S1134A6000D16FE746444A1EB04529D91100864259
S1134A7000D065E7039A934200D061E762E7012121
S1134A8049420120C21A382A21DD029B03409C4678
S1134A9038E60F220A40042A00D15BE70A00111D00
S1134AA0914292415242934454E7474BE318002BFE
S1134AB0E5DD01225242F2E71D00FAE69A461CE7C0
S1134AC0B04239D86ED011003AE702933AE71F2A70
S1134AD03CDC20239B1A0C005846994098404B1EFE
S1134AE099415B46D440D340204308431A0043070E
S1134AF009D00F230340042B05D00100081D884270
S1134B009B415B42D21813023AD50123029A012435
S1134B101A400023944698460022F7E502214942B0
S1134B208C46039DE344AC46E244AA45AD416D4244
S1134B304544ED182D1A96E68A1E03994D008D42C0
S1134B40894149424144761803958FE71F2040422A
S1134B50C31A5846D8400300202A28D040205D4676
S1134B60821A954029434A1E914119430723002282
S1134B700B4009D00F2300220B400800042BBDD1A9
S1134B80010053075202120BC90819430123884636
S1134B900299002419408C46B8E55245BED88B468C
S1134BA0002560E6039D9D42C6D3110062E70025FF
S1134BB0D8E780225B4612031A43019B1203120BAF
S1134BC09C468846034CA1E5FF030000FFFFFFFE5F
S1134BD0FE070000FF070000F0B557464546DE46D5
S1134BE04E46E0B50C0398464E00230B87B00700F1
S1134BF092469B46760DCD0F002E6BD06D4B9E4298
S1134C0035D080245B46420F2404DB0014431C434C
S1134C10C3009946684BA3469C460023002766447C
S1134C20029343461C035A00DB0F5046240B520DDB
S1134C30984600D176E05F4B9A426DD08023410FB5
S1134C401B040B435C49E4008C461C43C300002056
S1134C5062444146B6186940721C01919446074368
S1134C600F2F00D9B0E0554ABF00D25997465B4692
S1134C700343994600D087E000239B46023308276C
S1134C800293CEE742460192022867D0032800D15E
S1134C900EE2012800D062E100230024002299469C
S1134CA001990140CDB2002112030B0D120B1B051B
S1134CB01343434A240513401C436400ED0764086E
S1134CC02C434846210007B03CBC90469946A24676
S1134CD0AB46F0BD034399464FD05B46002B00D151
S1134CE089E1584600F07AFD03000B3B1C2B00DDE4
S1134CF07AE11D22D31A3A0001005C46DA400839F1
S1134D008C4013008F4023439B46B94600232D4E0D
S1134D100027361A029384E7534623432AD10024FA
S1134D20022096E75346234320D0002C00D157E1BC
S1134D30200000F053FD03000B3B1C2B00DD49E178
S1134D401D21CB1A51460200D9405346083A9440DB
S1134D5093400C431B4A121A00207AE70125019B59
S1134D60144C1D400023002299469CE70024002295
S1134D7001206EE7534603206BE700239B46013373
S1134D800427002602934CE7032381460C27029351
S1134D9047E780220023002512039946054C82E749
S1134DA05C464B4602986FE75C464B460195029879
S1134DB06AE7C046FF07000001FCFFFFD05A00006D
S1134DC0FFFF0F800DFCFFFF4A464946170C1A0CE3
S1134DD01B041B0C08041900000C414315008846F1
S1134DE019007D43794303958946290015004543FD
S1134DF04D44029545462D0CAA46029D5544A945AD
S1134E0006D98A46802149028946CA4451460391FB
S1134E10290C0491414609042D04090C88462900F3
S1134E20250C24044144240C059121004143884667
S1134E30210079438A466843414650448146080C20
S1134E4048446F43824503D98021490289464F442F
S1134E50010C894639004944029141460F040499E2
S1134E603F0C88460004C0198044414604915946C9
S1134E700F0C0904090C884659438A4639005143EA
S1134E80894641464A435146090C8B467B43D21816
S1134E905A44934203D980235B029B46D94451462A
S1134EA00904090C8A46414661437C43130C1204ED
S1134EB04B445244A1468A463C0041466C434D4310
S1134EC051464D440F0C7D19A94503D9802149024F
S1134ED088464444049F0399B84641448B4683451D
S1134EE0804141428846514608042F04000C3F1873
S1134EF05846029910188946904292414F44BA4646
S1134F00524299469346C244D144CB448F42BF4156
S1134F10C245894199459B41934592417F4249420B
S1134F202D0C52420F435B4213437F19FF185B461B
S1134F303C19DB0D059A64021C43430213435D1EB6
S1134F40AB415A46C00D034352021343E20156D506
S1134F5001205A0803401343E207134364085A48E4
S1134F60604400284DDD5A0709D00F221A40042A54
S1134F7005D01A1D9A429B415B42E4181300E201DA
S1134F8004D58020514AC00014406044504A9042E5
S1134F9000DDE3E60125DB0862071A436402019B96
S1134FA09146220B4405640D1D407CE6802259463F
S1134FB01203114208D0144206D122431203120BE9
S1134FC045469946434C6EE65B461A431203120B60
S1134FD0404C68E603005446283B9C400023B9E655
S1134FE000F0FCFB2030A6E60300283B9F40002392
S1134FF0BB4699468AE600F0F1FB203074E6B446DD
S1135000ADE701252A1A382A06DD019B00241D403C
S113501000230022994646E61F2A21DC2025200091
S1135020AD1A1E00AB40A840D6405D1EAB413043D4
S11350301843D440430709D00F230340042B05D061
S11350400300181D98429B415B42E418230221D5BA
S11350500125019B01241D4000230022994622E6DC
S11350601F2521006D42281AC1400800202A1DD0A6
S11350705F35AA1A944023435C1EA34107250343CA
S11350801D400022002D09D00F2200241A401800D0
S1135090042AD6D1030065076402220BDB082B43E4
S11350A001259946019B00241D40FCE50024E2E70C
S11350B0802201251203224301991203120B0D4091
S11350C09946044CEFE5C046FF030000FFFFFFFED6
S11350D0FE070000FF070000F0B54646D6464F46DF
S11350E00C03C0B5CD0F4E00610A440F0C43C10040
S11350F05800400D84468A460F001903500F490A90
S11351000143C648760DA846DB0FD200844500D182
S1135110D8E001204340AB4200D1A6E06046351AF6
S1135120002D00DC05E1002810D10B00134300D151
S1135130D7E06B1E002B00D04BE153469F1ABA45B3
S11351408041641A4042241A01261EE0B34B9E4259
S113515048D080231B041943382D00DD19E11F2D8D
S113516000DD4CE120230F005B1B10009A409F40A0
S1135170E840531E9A41E940074317435346DF1B57
S1135180611ABA45A44164420C1B230200D4C5E051
S11351906402650A002D00D1F6E0280000F01EFB31
S11351A00300083B1F2B00DDE9E020223C00D21A5B
S11351B09D40D4409F4025439E4200DDDBE09E1B82
S11351C0731C1F2B00DD0AE120223800D21A2900AB
S11351D097402C009140D8407A1E9741DC4000262D
S11351E001430F437B0709D00F233B40042B05D019
S11351F03B1DBB42BF417F42E4191F00230225D55A
S1135200864B01369E4200D1AFE0854B01251C4000
S113521043466207FF08640276051743240B760DA4
S11352201D4000212403230B0C0D7E4A24051C433E
S11352301440330523435B00ED075B082B43380020
S113524019001CBC90469946A246F0BD0125434670
S11352506207FF081743E4081D40704B9E4236D096
S113526024037605240B760DDBE76346F31A002B43
S113527000DC94E06046002835D068488642B1D00E
S113528080273F043943382B00DCFDE00A43170034
S113529000217A1E974157445745804109194442D9
S11352A00C1923023AD55D4B01369E4200D14BE1E5
S11352B001225B4B1C407B0817401F43E207174346
S11352C064088FE70800104300D024E721E7230097
S11352D03B4300D1B9E18022120314432403240B7D
S11352E09FE72E007EE70800104300D1CAE0581E55
S11352F08446002800D0E7E05244524580416418B7
S11353004042241817000126230207D50226CFE7BE
S113531064462C4300D1B3E12C0067467B0700D0E0
S113532062E76307FF081F4301254346E4081D4065
S113533093E7002D78D1751C6D056D0D012D00DCF2
S1135340F2E05046801A8245BF41651A7F42ED1B48
S11353508446280200D48CE05046171ABA4292417F
S11353600C1B5542651B984614E70125434600244F
S11353701D40002755E72A4CF61A2C4032E73D0021
S113538028388540002717E7380000F027FA203036
S113539006E70A43170000217A1E9741EEE6002B28
S11353A000D0E5E0731C9C465B055B0D012B00DC23
S11353B09FE01A4B9C4500D1C5E0524452458041C0
S11353C0641840422418E7075208174364086646E5
S11353D008E71248854200D185E01D00BCE629009B
S11353E01F3EF140202B00D17FE04022D31A9D4084
S11353F02F437D1EAF4100240F4300268EE72B0070
S11354000F00203BDF40202D71D040235D1BA940BD
S11354100A43511E8A4100211743AFE6FF070000EB
S1135420FFFF7FFFFFFF0F80002E3ED0B34EB44539
S113543045D0802636046D423443382D00DDA8E083
S11354401F2D00DD1FE1202627005046761BB740A4
S1135450E84007435046B040461EB041EC40384354
S1135460171ABA4292410C1B5242A41A6646984635
S11354708BE6644667462C4300D08BE60025002665
S11354800027EAE61E00ADE61F2B60DC2027F81A91
S11354900F00844687401000D8400743604682408E
S11354A0501E8241D9401743F5E626005046064374
S11354B005D0ED43002DD3D0904EB445BDD10C00A2
S11354C01700664698468DE68C4883420BD06346A7
S11354D0D9E6002D00D096E00800104300D1E2E0A8
S11354E00C0017009846854E7CE6002580E70021D5
S11354F08EE7230050460343002E00D0A8E0002B83
S113550000D1DEE00B00134300D16BE65244524558
S113551080416418404224181700230200D4FDE699
S1135520774B66461C405DE6250050460543002E39
S1135530CFD1002D4FD10C00144300D1A0E00C00BA
S1135540170098464EE666460024002785E61F00AD
S11355500800203FF8400700202B00D18EE04020B7
S1135560C31A99400A43511E8A410021174392E607
S1135570002E14D126005046064362D0DB43002B94
S11355805CD187189742924164185242A418664627
S113559087E650462043441EA041002460E7574E4E
S11355A0B4454ED0802636045B423443382B00DDAC
S11355B07FE01F2B00DD8BE0202627005046F61AE3
S11355C0B740D84007435046B040461EB041074359
S11355D0DC40BF18D6E70D00154300D102E6504663
S11355E0801A8245BF41651A7F42ED1B844628021A
S11355F000D48DE65046171ABA4292410C1B52420F
S1135600A41A9846EEE50D00154300D16BE7504609
S11356106707C00807438020E4080003044207D05A
S1135620CD08054204D12C009846D70849070F43FA
S11356307B0FE4001C43FF00304ED3E52F4EB445EE
S1135640B4D10C0017006646CCE500270024E8E539
S1135650002B39D00B00134300D144E7C00867077F
S113566007438020E40800030442E1D0CB0803424E
S1135670DED1D70849070F431C00D9E7002171E7A1
S113568000250027E9E52E002700203EF740202DC5
S11356902FD04026751BAC4050462043441EA041E9
S11356A000243843DCE6802400252403134E00271D
S11356B0D3E5504620430700781E87410024BF18D5
S11356C060E70C0017008DE50C0017000B4E89E510
S11356D01E002700203EF740202B0CD04026F31A52
S11356E09C4050462043441EA04107430024BF1859
S11356F048E70024D0E70024F3E7C046FF07000092
S1135700FFFF7FFF30B5134D0A034B00120B5B0DF7
S1135710C90F0024AB4210DD0F4CA3420FDC8024E0
S11357200E4D64032243ED1A1F2D0BDD0C48C31AE2
S1135730DA405442002900D11400200030BD094B46
S1135740CC18FAE7084CE840A44663449A40024364
S1135750EFE7C046FE0300001D0400003304000010
S113576013040000FFFFFF7FEDFBFFFF10B5041ED5
S113577028D000F033F8154B154A1B1AD21A1F2AE9
S113578015DD144AD21A9440002224035B05240B2D
S11357905B0D0021100024030A0D240B1205224383
S11357A00D4C1B05224013435B00590810BD21001A
S11357B091400A000B21081AC4405B052403240B02
S11357C05B0DE6E7002300240022E2E71E0400004C
S11357D03304000013040000FFFF0F801C21012389
S11357E01B04984201D3000C10391B0A984201D3C0
S11357F0000A08391B09984201D30009043902A29E
S1135800105C40187047C046040302020101010104
S1135810000000000000000070B500260C4D0D4C87
S1135820641BA410A64209D1002600F071F90A4DA8
S11358300A4C641BA410A64205D170BDB300EB58FA
S113584098470136EEE7B300EB5898470136F2E784
S11358501C5B00001C5B00001C5B0000205B000064
S1135860002310B59A4200D110BDCC5CC45401335E
S1135870F8E703008218934200D17047197001338E
S1135880F9E700002603000072050000720500001D
S11358907205000072050000720500007205000028
S11358A07205000072050000720500007205000018
S11358B07205000072050000720500007205000008
S11358C0720500000E03000072050000720500005E
S11358D072050000720500007205000072050000E8
S11358E072050000720500007205000072050000D8
S11358F072050000720500007205000072050000C8
S1135900720500001E03000072050000720500000D
S113591072050000720500007205000072050000A7
S11359207205000072050000720500007205000097
S11359307205000072050000720500007205000087
S113594072050000160300002E030000F60200009A
S113595006030000FE020000020000000300000035
S113596028000000290000000400000005000000D9
S11359700600000007000000FFFF0000FFFF00001A
S11359802200000023000000FFFF0000FFFF0000D2
S1135990FFFF0000FFFF00000800000009000000F6
S11359A00A0000000B0000004C6F7720436F7374F3
S11359B02056656E74696C61746F7200434F4E5467
S11359C0524F4C00484D490053435245454E5F5495
S11359D0494D000053435245454E5F43484700003C
S11359E04D4F4E49544F520053454E534F520000B1
S11359F049444C4500000000642D0000642D000063
S1135A00642D0000302D0000A62D0000C02D0000E4
S1135A10642D0000642D0000302D0000A62D000030
S1135A20546D725100000000546D7220537663006F
S1135A3000080042000C0042001000420014004222
S1135A4000180042001C0042EE350000EA35000058
S1135A50EA350000503600005036000002360000DF
S1135A60F4350000083600003E36000058370000C8
S1135A703837000038370000C43700004A370000C8
S1135A80663700003C37000074370000B43700006C
S1135A90684700004A47000004470000224600000F
S1135AA0044700003C470000044700002246000071
S1135AB04A4700004A4700003C47000022460000D5
S1135AC01A4600001A4600001A46000080490000E9
S1135AD0C84D0000884C0000884C0000844C000035
S1135AE0A04D0000A04D0000924D0000844C000029
S1135AF0A04D0000924D0000A04D0000844C000019
S1135B00A84D0000A84D0000A84D0000AC4F0000B7
S1135B10F8B5C046F8BC08BC9E467047DD000000DE
S1135B20F8B5C046F8BC08BC9E467047B5000000F6
S1135B30AAAAAAAA10000000FE450000FE41010125
S9033CC5FB
