S00B00004C43562E7372656334
S1130000307000202D250000292500009F260000C7
S113001000000000000000000000000000000000DC
S1130020000000000000000000000000292500007E
S11300300000000000000000292500002925000020
S11300402925000029250000191C0000292500008D
S11300502925000029250000292500002925000064
S113006029250000351C0000451C0000551C00001B
S1130070651C0000751C0000851C0000292500007B
S11300802925000029250000292500002925000034
S113009029250000000000000000000015010000F8
S11300A029250000D9010000292500002925000088
S11300B00000000010B5064C2378002B07D1054B37
S11300C0002B02D0044800E000BF0123237010BDC0
S11300D00800002000000000AC270000084B10B509
S11300E0002B03D00749084800E000BF0748036815
S11300F0002B00D110BD064B002BFBD09847F9E72D
S1130100000000000C000020AC270000AC27000019
S11301100000000070B52F4B1D682B681A7EDC7D33
S11301201440E20716D4630708D504232A6813761B
S1130130EB7E9B0702D5AB7E9B0742D4A30708D571
S113014002232A681376EB7E5B0702D5AB7E5B073E
S11301503BD470BD01221A762A68537E5BB2002B11
S1130160FBDB69698B1C6B61538B9BB20B802B8B04
S1130170013B9BB22B83002B11D06B7F002BD2D081
S11301802A68537E5BB2002BFBDB137B02210B43FB
S113019013732A68537E5BB2002BFBDBC3E7012396
S11301A02A6893752B7F052BBDD100232B77EB7E1B
S11301B0DB07B8D5AB7EDB07B5D52800AB6898471D
S11301C0B1E72800EB689847B8E72B6928009847FF
S11301D0BFE7C046E44F002070B5274B1C68256874
S11301E0AB79DB0707D50123AB712300143302D0AD
S11301F0637C002B31D1AB799B0738D50223AB71DB
S1130200A3899BB2002B2CD0E3899BB25A1C92B2D7
S1130210E2815B00A268944663441B889BB2AB8175
S1130220A389013B9BB2A381A3899BB2002B18D164
S113023000222033E2541E3B2B71AB7180218904D0
S11302407E330E4AD1502300143310D0A37C002BEC
S11302500AD00020E369984706E00020A369984784
S1130260C9E72300143302D0237C002B00D170BDD6
S1130270636900209847FAE7E84F002000E100E0B6
S113028082B000230193064B1B68013301D072B680
S1130290FEE772B6019B002BFCD002B07047C0464B
S11302A0000000200000000000000000000000002A
S11302B00B4A13681868203080F30988022080F301
S11302C01488BFF36F8F3FBCAE4608BC04BC62B653
S11302D01847C046C046C046C046C046C046C04691
S11302E06C4E002010B5031F802464041C60043B82
S11302F01960043B02491960143B1A60403810BD70
S11303008102000010B50F4B1968FF2212040A4342
S11303101A601968FF2212060A431A600A4A002367
S113032013600A490B600A480A49086007211160F2
S1130330094A1360094B9847094B9847094B98475A
S1130340002010BD20ED00E010E000E018E000E027
S11303507FBB000014E000E000000020B1020000B8
S1130360451400008102000080225205034B1A60EC
S1130370BFF34F8FBFF36F8F7047C04604ED00E0AB
S113038072B6044A136801331360BFF34F8FBFF38F
S11303906F8F704700000020064B1B68002B01D1B3
S11303A072B6FEE7013B034A1360002B00D162B62C
S11303B07047C04600000020EFF3108072B670470B
S11303C080F310887047000010B5124B1A688242FF
S11303D019D35C681919884203D141680919596015
S11303E0180041684418A24211D10B4C2468A2425F
S11303F00BD05268521842601A6812680260984220
S113040000D0186010BD1300E0E70260F7E7026057
S1130410F5E7C046544E002024000020F8B504003F
S11304203E4B98473E4B1B68002B15D03D4B1F6835
S11304303C4268D1002C69D0230008335A0702D00B
S1130440072293430833002B5DD0374A1668B34222
S113045059D8364A146825E0354A53071ED0D11DB1
S113046007239943334BD3185B1A0A002F480260C1
S113047000214160D318083B0720834328480360C8
S113048059601960991A516013602B4B1960264BFF
S1130490196080221206234B1A60C7E7254BE5E753
S11304A022000C0061688B4202D921680029F7D12F
S11304B01B4909688C4226D015682168116062685E
S11304C0D21A102A08D9E018410701D072B6FEE703
S11304D042606360194B98476268B61A12490E600D
S11304E0154909688E4201D213490E600835174335
S11304F0676000232360124B9847002D08D06B07D8
S113050009D072B6FEE70E4B984701E00C4B9847B2
S11305100C4B984700252800F8BDC046B1110000D7
S113052024000020484E00204C4E0020544E002051
S113053028000020204E0000504E0020C903000077
S1130540051300008926000010B5002820D0030000
S1130550083B5B680F4A12681A4201D172B6FEE783
S1130560010008390968002901D072B6FEE708388D
S1130570040093434360084B9847084A6368116832
S11305808C46634413602000054B9847054B9847FD
S113059010BDC046484E0020B11100004C4E002052
S11305A0C90300000513000070B5FA25AD00024C24
S11305B02800A047FCE7C0460514000010B582B02F
S11305C00200054B01930091002304490448054CA3
S11305D0A04702B010BDC0465C4E00200C270000AE
S11305E0A9050000550F000070B5FA25AD00024CB6
S11305F02800A047FCE7C0460514000010B582B0EF
S11306000200054B01930091002304490448054C62
S1130610A04702B010BDC046604E00201427000061
S1130620E9050000550F000070B5FA25AD00024C35
S11306302800A047FCE7C0460514000010B582B0AE
S11306400200054B01930091002304490448054C22
S1130650A04702B010BDC046644E00201827000019
S113066029060000550F000070B5FA25AD00024CB4
S11306702800A047FCE7C0460514000010B582B06E
S11306800200054B01930091002304490448054CE2
S1130690A04702B010BDC046684E002020270000CD
S11306A069060000550F000003000833436001226F
S11306B052428260C36003610023036070470023D9
S11306C00361704743684B609A688A609A68516016
S11306D099600861036801330360704730B50C68A2
S11306E002000832631C02D1026904E01A00536854
S11306F01D68AC42FAD253684B6099608A605160BD
S1130700086103680133036030BD0369426881688E
S113071091608268416851605A68904206D0002214
S113072002611A68013A1A601868704782685A6050
S1130730F5E7000010B50400034B9847A46B034B86
S113074098476042604110BD810300009903000096
S113075070B504001600856B026C002A0BD10020D2
S11307602368834204D16068164B98470023636072
S11307700135A56370BD002E0ED18068124B9847D9
S1130780A368226C94466344A36000206268934289
S1130790EED32368A360EBE7C0680B4B9847236C48
S11307A05B42E268D218E26021688A4203D262683E
S11307B094466344E3600020022ED9D18542D7D009
S11307C0013DD5E7B9160000E926000070B582B0F6
S11307D001900A00846C002C05D0A16BE36B994254
S11307E003D372B6FEE772B6FEE7A16B00268B4216
S11307F002D8300002B070BD4523E55C6DB201A99A
S113080020000A4B984706006B1C0AD1636A002B30
S1130810EFD020002430064B98470028E9D0012669
S1130820E7E701356DB24523E554E2E751070000DF
S11308307D15000010B50C00026C002A0BD0C368B3
S11308409B18C36041688B4201D30368C360C168CD
S11308502000014B984710BDE9260000F8B50700B9
S1130860254B98474523FC5C64B2002C1CDD234EC9
S1130870234D0BE07B6A002B16D038002430A847A8
S113088000280ED1013C64B2002C0DD0BB6C002BAF
S1130890F0D000213800B0470028F3D0194B984716
S11308A0F0E7184B9847EDE7FF224523FA54164B1F
S11308B09847114B98474423FC5C64B2002C14DD28
S11308C03B69002B11D03D0010350D4E06E0013C74
S11308D064B2002C09D03B69002B06D02800B04735
S11308E00028F4D0074B9847F1E7FF224423FA5439
S11308F0054B9847F8BDC04681030000CD070000B2
S11309007D1500008D1600009903000070B50400E9
S11309100D00002821D0174B98472268216CE36B07
S11309204B43D01860600020A063A2605B1AD31808
S1130930E360FF234422A3540132A354002D11D1B8
S11309402369002B05D0200010300B4B984700285A
S113095005D10A4B9847012070BD72B6FEE7084BDB
S11309609847F6E720001030064DA84720002430B1
S1130970A847EEE7810300007D15000099030000FD
S113098069030000A9060000F8B506000D00170071
S1130990002801D172B6FEE70800704354300B4BB7
S11309A09847041E10D0002D03D003005433036075
S11309B000E02060E663256401212000044B984791
S11309C05023E7540023A3642000F8BD1D04000055
S11309D00D090000F0B5CE46474680B585B0040049
S11309E00F0001921D0000280CD000290CD0022D0C
S11309F00FD04E4B9847002810D1019B002B11D0EB
S1130A0072B6FEE772B6FEE7036C002BEFD072B647
S1130A10FEE7E36B012BECD072B6FEE70026444BF5
S1130A2098464CE00026FAE72A0039002000414BA2
S1130A309847A36C002B0FD0290020003E4B984709
S1130A40002801D03D4B98473D4B9847012005B005
S1130A500CBC90469946F0BD636A002B08D0200078
S1130A602430384B98470028EED0344B9847EBE7B6
S1130A700028E9D0314B9847E6E7314B98470020EE
S1130A80E5E72F4B984701A902A82F4B9847002868
S1130A9044D1274B9847A36B9946E66B284B98475C
S1130AA0B14535D1200010300199284B98472000DA
S1130AB0274B9847274B9847002826D00126C04744
S1130AC0A36BE26B9342AFD3022DADD0019B002BFD
S1130AD0D3D0002E02D102A81F4B9847184B984739
S1130AE01E4B9847124B98474423E35C5BB2013397
S1130AF002D100224423E2544523E35C5BB2013378
S1130B00BFD100224523E254BBE70C4B9847D5E7FD
S1130B1020000F4B98470F4B9847CFE720000C4B12
S1130B2098470C4B9847002091E7C046991600005F
S1130B308103000051070000CD0700006903000095
S1130B40990300007D1500001D1600001915000012
S1130B505D0800000513000005160000B111000037
S1130B60F0B583B00400019116001D00002812D0D6
S1130B70019B002B11D0022D14D0284B98470090D4
S1130B80A36BE26B9A422FD800250098244B984718
S1130B90280003B0F0BD72B6FEE7036C002BEAD068
S1130BA072B6FEE7E36B012B1AD072B6FEE7636AF6
S1130BB00125002BE9D0200024301A4B9847002847
S1130BC0E3D0002E0AD001233360DEE77B1C5BB246
S1130BD04522A3540125D8E70125D6E70125D4E70A
S1130BE00E4B98470090A36B4523E75C7FB22A0025
S1130BF0019920000C4B98477B1CE7D1A36C002B78
S1130C00D5D029002000094B984701250028BCD0E5
S1130C10002EE1D001233360B7E7C046B9030000DA
S1130C20C10300007D15000051070000CD0700003E
S1130C30F0B5C64600B584B004000F000192002848
S1130C400AD000290AD0424B984700280BD1019BB7
S1130C50002B0CD072B6FEE772B6FEE7036C002BD5
S1130C60F1D072B6FEE700263A4B98462FE00026F4
S1130C70FAE739002000384B9847013DA563236902
S1130C80002B07D020001030344B9847002801D0A7
S1130C90334B9847334B9847012004B004BC90462B
S1130CA0F0BD304B98470020F7E702A82E4B984739
S1130CB016E000224423E2541DE000224523E254BE
S1130CC01EE02000294B9847294B98470126C0472E
S1130CD0A56B002DCDD1019B002BE2D0002EE4D0DA
S1130CE0204B9847234B98471A4B98474423E35C7F
S1130CF05BB20133DDD04523E35C5BB20133DCD06E
S1130D00184B984701A902A81B4B9847002813D1F8
S1130D1020001A4B98470028D3D020002430019992
S1130D20174B98472000114B9847114B98470028C0
S1130D30CCD10B4B9847C9E720000C4B98470C4B80
S1130D40984720000D4B98470028BFD00020A4E707
S1130D509916000081030000350800007D1500008D
S1130D606903000099030000051600005D080000F7
S1130D7005130000B11100001D1600003507000026
S1130D801915000010B50A4B1B68002B09D001236C
S1130D90074CDA00A258002A04D00133082BF8D1FA
S1130DA010BD0023024ADB009950D3185860F7E7BE
S1130DB0EC4F002070B504000D001600114B98474D
S1130DC04423E35C5BB201330DD04523E35C5BB2A7
S1130DD001330CD00C4B9847A36B002B0BD0200095
S1130DE00A4B984770BD00224423E254EDE70022E9
S1130DF04523E254EEE72000243032002900044B5E
S1130E009847ECE781030000990300005D080000A7
S1130E1045150000084B1B681B68002B07D0064BC8
S1130E201B68DB68DB685A68044B1A607047012250
S1130E305242024B1A60F9E7704E0020204F002006
S1130E4070B504000D00174B1E68174B186804306A
S1130E50164B9847631C13D03419134B1B685C6002
S1130E60A64216D8124B18680F4B19680431114B5F
S1130E709847114B1B689C4212D20F4B1C600FE029
S1130E80002DE9D0084B196804310C480C4B9847E5
S1130E9006E00C4B1868044B19680431054B98475D
S1130EA070BDC046684F00206C4E00200B07000048
S1130EB0704E0020DD060000204F0020404F00202F
S1130EC0C5060000744E0020F0B5D6464F4646468F
S1130ED0C0B5164B9946164B9846164F01E0164B73
S1130EE098474B461B68002B18D0144B9A46C047B2
S1130EF0FB68DD68281DD047114A1368013B136065
S1130F000A4C2368013B23600E4B9847286B0E4E16
S1130F10B0472800B0472368002BE8D10B4B1B686F
S1130F20012BDCD90A4B9847D9E7C046E04E002094
S1130F3081030000544F00208D2600000B070000A1
S1130F40DC4E00209903000049050000784E002083
S1130F5069030000F0B5C64600B584B001900D00E9
S1130F600293970038005F4B9847061E00D189E032
S1130F7058205C4B9847041E00D180E006633A0079
S1130F80A5213000584B98473A1F236B9C46624476
S1130F9007239A4390462A782D33E2542B78002B6A
S1130FA00DD001352300353320003E302A781A70E5
S1130FB02A78002A03D0013501338342F6D1002276
S1130FC03D23E2540A9F042F00D90427E762A76453
S1130FD00026E664231D03931800444DA84720000F
S1130FE01830A84724610523DB1BA36164622665CE
S1130FF05423E654029A019940463D4B9847206099
S11310000B9B002B00D01C603A4B98473A4A13685C
S113101001331360394B1B68002B36D0384B1B68E7
S1131020002B07D1354B1B68DB6AE26A934201D877
S1131030324B1C60334A1368013313602364E36A40
S1131040314A1268934201D92F4A13609800C0189C
S113105080002E4B181803992D4B98472D4B984719
S1131060274B1B680120002B05D0244B1B68DA6A30
S1131070E36A9A4231D304B004BC9046F0BD300018
S1131080254B984701204042F5E71C4B1C60136830
S1131090012BCFD11D4F3800204EB04738001430FB
S11310A0B04738002830B04738003C30B0473800EB
S11310B05030B0471A4B98461800B047194F3800C3
S11310C0B0471948B0471948B0471948B047194BB9
S11310D042461A60184B1F60ACE7184B9847012032
S11310E0C9E7C0461D040000FB260000BF0600003F
S11310F0E502000081030000DC4E00206C4E00205D
S11311003C4F0020EC4E0020F04E0020784E002092
S1131110C50600009903000049050000A906000067
S1131120F44E0020084F0020284F0020544F002088
S1131130404F0020704E0020744E002069030000D0
S113114010B582B0114B0193002300938222104901
S11311501048114CA047012803D0431C13D002B0FF
S113116010BD0E4B98470128F7D172B601225242A6
S11311700B4B1A6002320B4B1A6000220A4B1A60A6
S11311800A4B9847EBE772B6FEE7C0461C4F0020B7
S113119028270000C90E0000550F0000ED170000BD
S11311A0204F00203C4F0020684F00200503000022
S11311B0024A1368013313607047C046E84E0020AA
S11311C0014B18687047C046684F0020F0B583B0E3
S11311D03D4B1B68002B00D06DE03C4B1D68013576
S11311E01D60002D12D13A4B1B681B68002B01D0E7
S11311F072B6FEE7364A1168364B186810601960FB
S1131200354A136801331360344B9847344B1B68D9
S113121000249D4233D300242D4F3B681B68002BD0
S113122029D02B4B1B68DB68DE6873689D423FD373
S1131230331D019318002B4B9847B36A002B03D03E
S113124030001830274B9847F36A274A12689342B4
S113125001D9254A13609800C0188000234B181840
S11312600199234B9847234B1B68F26ADB6A9A4225
S1131270D3D30124D1E701225242194B1A601D4BEA
S11312801B68DA6A93009B189B00184A9B58012B31
S113129000D90124184B1B68002B01D1174B984728
S11312A0174B1B68002B00D00124200003B0F0BDB5
S11312B00B4A1360E3E7104A1368013313600F4BC2
S11312C098470024ECE7C046E84E0020684F002011
S11312D0704E0020744E0020244F0020150E000094
S11312E0204F00200B070000F04E0020784E002015
S11312F0C50600006C4E0020E44E00209926000034
S11313006C4F0020F8B5304B1B68002B01D172B62E
S1131310FEE72E4B98472C4B1A68013A1A601B685B
S11313200024002B03D12A4B1B68002B03D1294B2B
S113133098472000F8BD284D2F002B68002B22D0A1
S1131340FB68DC6820001830244B9847261D3000C9
S1131350224B9847E36A224A1268934201D9204AF1
S113136013609800C01880001E4B181831001E4BE3
S113137098471E4B1B68DB6AE26A9A42DDD301225E
S11313801B4B1A60D9E7002C01D01A4B98471A4B13
S11313901C68002C0ED0194F154E012502E0013CAB
S11313A0002C04D0B8470028F9D03560F7E70022B4
S11313B0114B1A600E4B1B680024002BB7D0104B46
S11313C098470134B3E7C046E84E0020810300008B
S11313D0DC4E002099030000284F00200B0700007A
S11313E0F04E0020784E0020C50600006C4E002010
S11313F06C4F0020150E0000E44E0020CD110000BB
S11314006903000010B5041E0FD0094B1B68002BA4
S113141001D072B6FEE7074B984700212000064B27
S11314209847064B9847002801D1054B984710BDB3
S1131430E84E0020B1110000410E00000513000029
S11314406903000010B52D4B1B68002B28D1002226
S11314502B4B1A602B4B1B681B6B2B4A1968914250
S113146002D1596891421FD0264B1868196834314B
S1131470264B9847264B1B689A00D21892002549A0
S11314805258002A17D1002B08D0013B9A00D218D9
S113149092005258002A0ED1002BF6D172B6FEE704
S11314A00122174B1A6010BD99689142DCD1DB68A8
S11314B09342D9D1DEE717489A00D1188900411820
S11314C04C6864684C60D2189200083282189442C6
S11314D00BD09A00D21892000E498A185268D1682B
S11314E0084A11600A4A1360DDE760689A00D2185E
S11314F0920008498A185060EBE7C046E84E002085
S11315006C4F00206C4E0020A5A5A5A59B260000CD
S1131510F04E0020784E002010B50C00002801D1B8
S113152072B6FEE7044B19681831044B9847012141
S11315302000034B984710BD6C4E0020DD060000D0
S1131540410E000070B50C00150000280DD0084BAA
S113155019681831074B9847002D01D001246442C3
S113156029002000044B984770BD72B6FEE7C046C0
S11315706C4E0020C5060000410E000070B5C36823
S1131580DC68002C27D0250018352800154B984717
S1131590154B1B68002B20D1251D2800114B9847A3
S11315A0E36A124A1268934201D9104A1360980000
S11315B0C01880000E4B181829000E4B98470E4B8C
S11315C01B68E26ADB6A00209A4203D901220B4BB2
S11315D01A60013070BD72B6FEE729000848054B59
S11315E09847ECE70B070000E84E0020F04E00207F
S11315F0784E0020C50600006C4E00206C4F002081
S1131600284F0020034B1B680360034B1B68436097
S11316107047C046244F0020684F002070B5060074
S11316200D0000281BD000291BD0134B9847134BE7
S11316301A6871682B68581C1CD0114800683468FB
S1131640844202D001248A4205D2521A9A420AD311
S113165000232B6001240B4B9847200070BD72B609
S1131660FEE772B6FEE79B1A2B603000064B9847E4
S11316700024F0E70024EEE781030000684F002017
S1131680244F002099030000051600000122014B9D
S11316901A6070476C4F0020054B1B680120002B1B
S11316A004D0044B18684342584140007047C04678
S11316B03C4F0020E84E002070B5041E2CD0184B7F
S11316C01B68984201D072B6FEE7C36C002B01D1AF
S11316D072B6FEE7013BC364C26A816C8A421DD0C4
S11316E00020002B17D1251D28000E4B9847A36C12
S11316F0E3620522D21AA2610B4A1268934201D90D
S1131700094A13609A00D3189B000848C01829009E
S1131710074B9847012070BD0020FCE70020FAE742
S11317206C4E00200B070000F04E0020784E002085
S1131730C506000010B54160006191420BD8D21A71
S1131740012483699A4211D2011D094B1868094B7F
S1131750984700240AE09A4202D20124994205D211
S1131760011D054B1868034B98470024200010BD49
S1131770744F0020DD060000704F002070B5104B40
S11317809847104B1B68002B02D00F4B984770BD35
S11317900E4D28000E4EB0470E4C2000B0470E4BA5
S11317A01D600E4B1C600022102105200C4B984735
S11317B0044B18600028E8D00A490B4B9847E4E72B
S11317C081030000A44F002099030000784F0020FB
S11317D0A90600008C4F0020704F0020744F002099
S11317E08909000058270000850D000010B582B05B
S11317F00B4B98470B4B1B68002B0ED00A4B0193E5
S11318000423009300238222520008490848094C0B
S1131810A047002801D002B010BD72B6FEE7C04652
S11318207D170000A44F0020A84F0020602700006F
S11318305D190000550F000030B585B004001D008F
S1131840002814D0134B1868002821D0009101926D
S11318500294052915DC104B9847022809D00D4B3A
S113186018680023002269460C4CA0470EE072B6AB
S1131870FEE7084B18680023089A6946074CA047FE
S113188004E000232A006946054CA04705B030BD9A
S11318900020FBE7A44F002099160000D5090000A2
S11318A0610B0000F0B5D6464F464646C0B582B03F
S11318B08046234B98478246224B1B68984217D395
S11318C00023424613601F4B52461A60504602B032
S11318D01CBC90469946A246F0BD002300933A00F2
S11318E000212000184CA047002804D172B6FEE75E
S11318F0164D174B99462B681A68002A17D0DB68D7
S11319001F68DC68261D3000C8472000636A9847BA
S1131910E369012BEFD1A369FB189F42DDD2636019
S113192024610A4B186831000A4B9847E3E70A4AD6
S11319300649106808601360012342461360C2E739
S1131940C1110000A04F002039180000704F002082
S11319500B070000DD060000744F0020F0B58DB0C9
S1131960594F5A4B1B681A68002A0ED0DB681C6852
S1131970574B984708A8574B98470500089B002BDE
S113198046D1A0421DD200220FE0514B984708A82F
S1131990504B98470500089B002B39D14E4B1B68D0
S11319A01B685A425A41D2B20024611B4B4B18683F
S11319B04B4B98474B4B9847002826D0474D4A4CF1
S11319C036E0484B9847414B1B68DB68DE68301DA6
S11319D03D4B9847F369012B03D0736A3000984755
S11319E0ECE7B369E11823002A0030003F4DA84713
S11319F00028F2D0002300932200002130003C4C48
S1131A00A0470028E9D172B6FEE73A4B9847D5E7DC
S1131A10344B9847D2E70B9B03930A9B0493099B8F
S1131A200593039904989847089B0393002B09DABC
S1131A30002208A92868A047002892D0089B039395
S1131A40002BE8DB0A9E7369002B01D0301DB847D8
S1131A5007A8204B9847089B092BE9D89B00264AE6
S1131A60D3589F46099BB269944663441900099B65
S1131A70020030001D4CA0470028A0D03000736A3B
S1131A809847F369012B9AD1099BB1698C46634449
S1131A901A000023009300213000154CA0470028B1
S1131AA08DD172B6FEE70999B161002906D04118BB
S1131AB00300020030000D4CA04780E772B6FEE739
S1131AC030000E4B98477AE70B070000704F002058
S1131AD0B1110000A5180000744F0020A44F00208D
S1131AE0B50D000005130000310C0000351700008F
S1131AF03918000069030000302700004905000080
S1131B0010B582B00400394A936910210B439361E4
S1131B10374B1B785BB21020002B03DBE3780730D4
S1131B20002B01D102B010BD22799A42FAD8627911
S1131B309A42F7D82E4A13780E398B431370D3790F
S1131B405BB2002BFBDB63780020002BEAD001A9F9
S1131B50A3780B700330274B98470320264B9847F4
S1131B602378002B27D1E378013B2279002A26D061
S1131B701F490A78042002430A702279013A8240FC
S1131B8013431B49CA7952B2002AFBDBDBB2184A61
S1131B9053706379002B18D12378002B1FD0144A7B
S1131BA0137880210B431370114AD3795BB2002B55
S1131BB0FBDB0020B6E70320104B9847D3E70C4922
S1131BC00A78042082430A70DBE71100CA7952B212
S1131BD0002AFBDB013BDBB2054A9370DCE7044AD5
S1131BE0137802210B431370DEE7C0460004004063
S1131BF000100040AD24000021240000C92400008E
S1131C00A522044B1A721A00D3795BB2002BFBDBBA
S1131C107047C0460010004010B50122034B9A7172
S1131C20034B1B68002B00D0984710BD00100040E8
S1131C302C50002010B5024B1B680020984710BDA3
S1131C40AC4F002010B5024B5B680120984710BDD3
S1131C50AC4F002010B5024B9B680220984710BD82
S1131C60AC4F002010B5024BDB680320984710BD31
S1131C70AC4F002010B5024B1B690420984710BDDF
S1131C80AC4F002010B5024B5B690520984710BD8E
S1131C90AC4F00207047000070B5C34B80209860A3
S1131CA04724195D02252943C9B219555861586062
S1131CB01A5D2A43D2B21A55BC4A9A62BC4A9A6245
S1131CC05861BC4A9A62BC4A9A620023463C7C38FA
S1131CD001250133202B0AD022009A401042F8D06B
S1131CE0B64A99180A782A43D2B20A70F1E7B44B7B
S1131CF0B44A9A62B04A9A620023012480204000C8
S1131D0001250133202B0AD022009A400242F8D048
S1131D10AD4A99180A782A43D2B20A70F1E7A84B5F
S1131D20AA4A9A62A44A9A6200230124802080006D
S1131D3001250133202B0AD022009A400242F8D018
S1131D40A14A99180A782A43D2B20A70F1E7964B4D
S1131D50802058604724195D02263143C9B21955C1
S1131D60924D9D6292499962586158601A5D32435E
S1131D70D2B21A559D6299625861954A9A628E4A06
S1131D809A620023463C703801250133202B0AD087
S1131D9022009A401042F8D0884A99180A782A43B7
S1131DA0D2B20A70F1E7804B8A4A9A62824A9A62F6
S1131DB000230124202001250133202B0AD02200F6
S1131DC09A401042F8D07D4A99180A782A43D2B230
S1131DD00A70F1E7744B804A9A62774A9A62002348
S1131DE00124402001250133202B0AD022009A40EF
S1131DF01042F8D0714A99180A782A43D2B20A706C
S1131E00F1E7694B8021996047201A5C0224224340
S1131E101A545961714A9A62714A9A620023013CC8
S1131E208020C00301250133202B0AD022009A40D0
S1131E300242F8D0614A99180A782A43D2B20A7049
S1131E40F1E7594B654A9A62664A9A620023012473
S1131E508020000401250133202B0AD022009A405F
S1131E600242F8D0554A99180A782A43D2B20A7025
S1131E70F1E74D4B8021996047201A5C02242243EC
S1131E801A545961554A9A62574A9A620023013C8E
S1131E908020400201250133202B0AD022009A40E1
S1131EA00242F8D0454A99180A782A43D2B20A70F5
S1131EB0F1E73D4B494A9A624C4A9A620023012455
S1131EC08020800201250133202B0AD022009A4071
S1131ED00242F8D0394A99180A782A43D2B20A70D1
S1131EE0F1E7314B8021090199604B201A5C0224EF
S1131EF022431A5499613E4A9A623E4A9A620023E6
S1131F00013CB630FF3001250133202B0AD02200DA
S1131F109A400242F8D0294A99180A782A43D2B240
S1131F200A70F1E7204B344A9A62324A9A620023DB
S1131F3001248020C00001250133202B0AD0220077
S1131F409A400242F8D01D4A99180A782A43D2B21C
S1131F500A70F1E7144B294A9A62264A9A620023CE
S1131F6001248020400001250133202B0AD02200C7
S1131F709A400242F8D0114A99180A782A43D2B2F8
S1131F800A70F1E7084B802098604724195D022508
S1131F902943C9B21955586198601A5D2A43D2B2CF
S1131FA01A55586170BDC046004400418000065077
S1131FB0000006D004000251000002D14044004158
S1131FC08044004100010251C0440041000202511A
S1131FD01000025120000251400002510000025240
S1131FE0400002D2800002D2010002D2020002D2DA
S1131FF000020252000002D2000402520001025206
S11320000C4B1B68002B06D1EFF31083002B07D079
S11320100022094B1A70074A136801331360704792
S113202072B6BFF35F8F0022044B1A700132024B69
S11320301A70F0E7C44F0020C84F002004000020AD
S1132040084B1A68013A1A601B68002B09D1064B29
S11320501B78002B05D00122044B1A70BFF35F8F4D
S113206062B67047C44F0020C84F0020040000200F
S113207070B50C490B6A04788578407801221040C9
S113208080014026B34303432A40D2018020834386
S113209013430322224012020348034013430B62FA
S11320A070BDC04600080040FFFCFFFF10B5037A76
S11320B09B061B0C42899205920D134318494B60F1
S11320C08379C27913434288848822431343427834
S11320D0D20113430B600378042B11D0202B0ED1B3
S11320E0037B9B06028A1343C28912040D490A40EA
S11320F013430B4A936011680B4B0B43136010BDE1
S1132100037B9B06028A1343C289120405490A40D1
S11321101343034A9360136804210B431360EEE7EF
S1132120CC4F00200000FF0324040000082803D83B
S11321308000254B1B589F46172044E0234A136A0E
S113214002210B43136200203DE0204A93690221DF
S11321500B439361002036E01C4A138A02210B438F
S1132160138200202FE0194A938A02210B439382A1
S1132170002028E016490B68022213430B60134B1E
S11321809A8419000E32CB681A42FCD0104A916826
S11321900E4BD96252689A6200229A841900103256
S11321A0CB681A42FCD00A4B1B689BB2074A938443
S11321B0002008E0054944228B5C022003438B5431
S11321C0002000E00020704768270000000800405D
S11321D0CC4F0020F0B5CE46474680B58BB0C22226
S11321E0D2003C4B9A603C4A53681E218B43536097
S11321F0022201AB1A700024384DE0B201A9A847AD
S11322000134252CF9D105AB002119700022598025
S113221099809A71DA71063119825A70304B1B68B1
S11322209B0E3F2B54D005A8037280239B0043814F
S1132230FA3BFF3B03733833C3812A4B984704A806
S113224000254570012787700570274B98470620A5
S1132250264EB047264B984701AC0297657006237B
S1132260994623702572657221000120214B9846FE
S113227098470120204FB84765704B46237025725C
S11322806572FF23636021000420C0470420B8471F
S11322900720B0470F491022CB681A42FCD0174AD6
S11322A00023137253729372D37201A901224A60FC
S11322B04B700B724B7207330B7000200D4B984719
S11322C000200D4B98470BB00CBC90469946F0BDCE
S11322D0203BA8E70008004000400041AD24000076
S11322E024608000AD200000712000002D2100003A
S11322F00123000025230000DD230000000400402A
S1132300064A936908210B4393610122044B1A7016
S113231019000B781342FCD17047C04600040040FA
S1132320000C004070B5060004000D782D02054332
S11323304B78002B02D08023DB021D434B7A002B09
S113234002D080231B031D434868012810D9431E73
S1132350184234D1022830D90223002201325B0012
S11323609842FBD812023243140080235B031D43BE
S11323700B7A002B02D080239B031D43134A53780E
S11323805BB2002BFBDB124B9847124B1E700F4ABB
S113239053785BB2002BFBDB0C4B9C601A00537828
S11323A05BB2002BFBDB094A5368802149020B40D6
S11323B01D435560084B984770BD0022D2E70402C4
S11323C0344380239B021D43D2E7C046000C0040E7
S11323D001200000080C00404120000010B504005A
S11323E00B4A53785BB2002BFBDB0A4B98470A4B32
S11323F01C70074A53785BB2002BFBDB044A51681C
S113240080235B020B435360044B984710BDC046C6
S1132410000C004001200000040C0040412000009A
S113242010B50400064B9847064B1C70064A5388A7
S11324308021C9010B435380044B984710BDC0460B
S113244001200000020C0040000C0040412000006C
S113245010B504000F4B98470F4B1C700F4A53885C
S11324601B05180F53880E490B40538053880D49A0
S11324700B40538011008022D2014B881342FCD1BF
S113248006494A8803020648024013434B80064B20
S1132490984710BD01200000020C0040000C0040D1
S11324A0FFF0FFFFFFBFFFFF4120000010B50C78D5
S11324B024020443024B9847A4B2024B5C8010BD33
S11324C051240000000C004010B50400064B98474E
S11324D0064B1C70064A5388C02109020B435380E3
S11324E0044B984710BDC04601200000020C004078
S11324F0000C0040412000007047000010B5054B5F
S11325009847054B9847054B9847054B9847054B0B
S1132510984710BDD5210000991C0000F924000043
S1132520F9240000F9240000FEE70000F8B52A4A67
S11325302A4B9A4211D01A00294B9A420DD2294AA9
S113254003339B1A9B0801339B0000222348224932
S11325508C58845004329A42FAD1234A234B9A422B
S11325600AD2D34321495B1803218B4304339B18BC
S1132570002102C29342FCD11D4AFF211D4B8B4313
S11325809360FD3990235B001B4AD1501B4AD378DA
S11325900325AB4302242343D370D3780C27BB43D6
S11325A008263343D370164B987B30229043202265
S11325B010439873997BB943314399739A7BAA4327
S11325C022439A730F4A536880210B4353600E4B86
S11325D098470E4B9847FEE7AC2700000000002008
S11325E008000020040000200800002030500020D3
S11325F000ED00E0000000000070004100500041C8
S11326000048004100400041A126000011260000BE
S113261010B582B0144B9847144B9847032180207F
S11326204000134B98478024A40002212000114B42
S1132630984702212000104B9847012120000F4B9E
S1132640984701236A465370042269468A70083207
S1132650CA7000220A714A710B706846084B984789
S1132660084B9847FEE7C046FD240000951C000077
S11326703D060000BD0500007D060000FD050000CC
S1132680011B00004111000072B6FEE710B5014BBA
S1132690984710BD011C0000704772B6FEE7FEE7C4
S11326A070B500260C4D0D4C641BA410A64209D134
S11326B0002600F06BF80A4D0A4C641BA410A642D5
S11326C005D170BDB300EB5898470136EEE7B3006F
S11326D0EB5898470136F2E7982700009827000046
S11326E0982700009C270000002310B59A4200D1CF
S11326F010BDCC5CC4540133F8E703008218934244
S113270000D1704719700133F9E70000434F4E546C
S1132710524F4C00484D49004D4F4E49544F5200C2
S113272053454E534F52000049444C4500000000AD
S1132730641A0000641A0000641A0000301A0000D1
S1132740A61A0000C01A0000641A0000641A0000EF
S1132750301A0000A61A0000546D725100000000E7
S1132760546D722053766300582100003821000014
S113277038210000C42100004A2100006621000025
S11327803C21000074210000B4210000F8B5C046CB
S1132790F8BC08BC9E467047DD000000F8B5C04692
S10F27A0F8BC08BC9E467047B500000061
S10B27ACAAAAAAAA0100000078
S903252DAA
