S00B00004C43562E7372656334
S113000038740020BD520000295400002754000019
S113001000000000000000000000000000000000DC
S1130020000000000000000000000000150E0000A9
S11300300000000000000000E10E0000250F000099
S1130040B9520000B952000029400000B952000022
S1130050B9520000B9520000B9520000B952000070
S1130060B9520000354800004548000055480000DA
S1130070654800007548000085480000B95200003A
S1130080B9520000B9520000B9520000B952000040
S1130090B95200000000000000000000D904000074
S11300A0B95200001D070000B9520000B952000007
S11300B00000000010B5064C2378002B07D1054B37
S11300C0002B02D0044800E000BF0123237010BDC0
S11300D0800000200000000020900000084B10B5B4
S11300E0002B03D00749084800E000BF0748036815
S11300F0002B00D110BD064B002BFBD09847F9E72D
S113010000000000840000202090000020900000E7
S1130110000000000368587EC009704730B597B0EE
S113012002AD040050220A4928000A4B9847132CB8
S11301300BD80023A40001A960594B70CB708B70BD
S113014001330B70C0B2044B984717B030BDC046A2
S1130150148C00004D8300005D520000C022520147
S1130160C281020000232A3203704370438003716A
S113017003760362C36183600373037443748374FB
S1130180C37403751370421D43758375D377C38499
S11301900385C37526322C3013700370704700003A
S11301A08023F0B51400B84A01600600106A5B02AF
S11301B0034313620B7887B00520DB0700D5FFE00B
S11301C00B7817309B0700D5FAE063783371002B66
S11301D004D1AE4A0433116C0B431364AC4A0023BC
S11301E0166022002A323383B360F3603361B3763E
S11301F0F3763377029212789A4203D1227D9A429F
S113020000D101337377237805A90B701E20A14B0D
S113021037689847A04B1E20984723002C331B783F
S1130220227B0192002B33D022002B321578019AC5
S11302305519EDB25B19DBB20393019BE81A039BDA
S1130240C0B2AB421BD8E089944B9847637D9B00B6
S1130250DBB23B70A37D6278DB011343DBB27B70BE
S11302602579302D00D1B8E018D8102D00D1B1E097
S1130270202D00D1B1E0002D1AD12B00ABE00F23CB
S11302801840237B0135C018844B9847EDB2D4E75E
S11302900198824DA847E089A847D7E7322D09D0B5
S11302A000D29CE0332D00D190E0342D00D189E0C0
S11302B0172085E0042310250222702112010A4030
S11302C01343BB70E37D3F2BF2D8FB703000744BBB
S11302D098470028FAD16288E37C1343621D039295
S11302E0D27FD2001343227D92001343A27C52009A
S11302F013432B43BB80237E002B07D0102D00D14A
S1130300B3E000D96DE0002D00D19FE03000644BD4
S113031098470028FAD1237E3B723000604B9847FF
S11303200028FAD1A38BBB8330005D4B984700288B
S1130330FAD1238C3B8423002C331D78002D03D069
S1130340013DEDB20F2DB3D823002B3301931B785D
S11303500F2BADD83000524B98470028FAD1227B9E
S1130360E3892D041343A2681343019A12781205FA
S113037013431D43029B3D611B783B750F23BB75E3
S1130380039BDB7F002B0CD0E38C46498B428FD838
S1130390BB848023228D1B01D3189BB28B4287D848
S11303A0FA84E022404B00201968D2004B01190066
S11303B01A403E4B1B68DB0E0B43DBB213433B85F9
S11303C007B0F0BD627C237C102576E70623102558
S11303D0012272E7082300226FE70023FBE70223D0
S11303E0F5E7202D18D0302D00D08FE7E37CE269AB
S11303F0002B09D013008033FF2B00D958E7236A60
S11304008033FF2B00D953E7FF2A00DD50E7236A2E
S1130410FF2B00DD4CE779E7E27CE169244B002AFD
S11304200CD0802292008A189A4200D940E780209A
S1130430226A800012189A4200D939E7994200DDF5
S113044036E7226A9A4200DD32E75FE7E27CE1693F
S1130450144B002AF2D0802212018A189A4200D941
S113046026E78020226A0001E4E7E27CE169114B7F
S1130470002AE3D0802212028A189A4200D917E790
S11304808020226A0002D5E70004004000080040F2
S1130490C853002059510000D15000001D01000034
S11304A015010000FF0F0000246080002060800020
S11304B0FF030000FFFF000003685A7E52B2002AC7
S11304C0FBDB0222197B0A431A730268537E5BB278
S11304D0002BFBDB7047000070B5284B1C682368B9
S11304E01A7EDD7D15400122154228D01A76216836
S11304F04B7E5BB2002BFBDB6269931C63614B8B0D
S11305009BB21380238B013B9BB22383002B10D11E
S1130510012221688A75217F052910D12377E37E82
S113052013420CD0A37E134209D02000A36898473D
S113053005E0637F002B02D02000114B9847042371
S11305401D420BD022681376E27E023B1A4205D08C
S1130550A27E1A4202D02000E368984702231D427B
S11305600BD022681376E27EDB181A4205D0A27EF5
S11305701A4202D023692000984770BDC853002056
S1130580B9040000931C9B001950012393401A00E6
S1130590837E13438376704770B5038B05249BB227
S11305A0002B0ED1057FA5420BD0047702830122D4
S11305B0416101681C00CA75427F002A01D0024BC8
S11305C09847200070BDC046B904000017230029D5
S11305D001D1037FDBB2180070470368D879C009E2
S11305E070470023012203704270837003714371CA
S11305F0C3708371704700008023F7B5022715008C
S1130600254A01600400106ADB02034313620B787D
S11306101C203B423FD101230E7817381E403AD1AB
S11306206A46EB78694613701C301C4B98472120AE
S11306301B4B9847012301A90B703800194B4E70CE
S1130640CE708E7098476B78A6712371AB7927684A
S11306505A1E9341AA789B002E78002A01D00422C6
S113066016432A79002A01D0102216436A79002AF7
S113067001D008221643DBB23B7020000A4B984796
S11306800028FAD1F6B27E702B7860616371074B53
S1130690A061E0611C60FEBD0004004059510000EF
S11306A0D15000005D520000DB050000CC53002057
S11306B070B50400056802796B7813436B702000F1
S11306C0084B98470028FAD102232A7813432B7049
S11306D06379002B04D1044A0433116C0B43136473
S11306E070BDC046DB05000000080040704770473D
S11306F07047000070B50400160005682000064B22
S113070098470028FAD1A379002B02D0AE810020AB
S113071070BD2E81FBE7C046DB05000070B51E4BA3
S11307201C6801232568AA791A4206D0AB71637C40
S1130730002B02D00020A36998470222AB79134210
S113074029D0AA71A389002B1FD0E3899BB2591C1D
S113075089B2E181A1685B00CB181B889BB2AB8195
S1130760A389013B9BB2A381A08980B200280CD14C
S1130770631CD8772A71AA718022084B9204DA6725
S1130780A37C002B01D0E3699847237C002B02D083
S113079063690020984770BDCC53002004E100E059
S11307A0F0B507008BB0396008009B4B14000E00B5
S11307B098470125831C9D402B00984A1430116AE8
S11307C0C5B20B431362237B08AA137011002800DF
S11307D0934B98472800934B9847934B207B0021D9
S11307E0984733681C209B0700D509E1012335682D
S11307F017381D4000D003E1874B386898478B4970
S11308008B4B04909847049B3D769A00894B7D76E8
S1130810D750BB1D7D83BD83DD7714233D623360D8
S11308203B6809AE049318007B4B984780230090E3
S1130830E06933707F3B7570F570B370256A0028EA
S113084003D101007C4B0498984702233070000CBC
S11308507370C0B23100794B9847002D04D1012147
S11308600498754B98470500022335702D0C73705E
S1130870E8B2724B31009847A38AFB80E38A3B813C
S1130880227E8023002A06D16D4B02329B781340CE
S11308905F1EBB41DB01A268276917431F43631D29
S11308A0DB7F002B02D08023DB051F43A36A1F4399
S11308B023002C331B78002B03D180239B049A4202
S11308C002D180231B051F4323002D331B78002BEB
S11308D002D080231B041F4323002E331B78002BDC
S11308E002D08023DB031F43049B00981B68FA2576
S11308F01F43049B049A1F60802314305B005360E1
S1130900C0B2504B98472368AD005D43636807004D
S113091005934D4B98474C4B0090019168009847C4
S113092002900391484B208E9847484E06900791B9
S113093000980199464A474BB04702000B000698BD
S11309400799B047444E0022444BB0473E4B0690B3
S11309500791280098473D4D02000B00069807991F
S1130960A8473F4D02000B0000980199A847029A3E
S1130970039BB04700223B4BA847029A039B3A4E85
S1130980B0473A4B984780230290A2689B049A424E
S11309903ED1FA23059C9B005C43009A019B2E4E9A
S11309A010001900B047284B00900191200098478F
S11309B000222F4B254EB0472B4E02000B0000980F
S11309C00199B0470022274BA847284B9847294B49
S11309D0061E17D02100380098470238831B029A5C
S11309E04020FF2A0CD8FF2B0AD8FF201500000452
S11309F01B040340002036063543049A2B43D3607E
S1130A000BB0F0BD6100481EC0199847431EE6E7CD
S1130A1000263300E3E7C0469D4700000004004081
S1130A2059510000D1500000FD450000090C0000A0
S1130A30D147000018540020414600005D520000D8
S1130A4000200041A551000089800000717400005D
S1130A5095D626E80B2E113EE965000000002440DF
S1130A60717900000000F03F096C00009D7F0000D8
S1130A70000008404154000070B500220126022401
S1130A8001680B7E334002D10D7E254201D0002047
S1130A9005E00132038992B29342F2D8122070BD6C
S1130AA0802310B50468DB026268134363606162EB
S1130AB0024B98470123237610BDC046790A0000F3
S1130AC007230168CA691A42FCD17047F8B5056862
S1130AD004002A68468B838BF61A838BB6B2013BDB
S1130AE09BB28383C37A12010AD5002B0DD0838B6A
S1130AF0012B0AD180236A68DB0213436B6004E094
S1130B00002B02D0838B002BF4D0A38B0A4F002B35
S1130B1009D1A37A002B06D02000B847C0236A6805
S1130B209B0213436B602000B847236A28359E1943
S1130B302B78DBB23370F8BDC10A000070B50668CB
S1130B400400738B5B0703D51E230634E37770BD63
S1130B50458B838B2836ED1A838BADB2013B9BB258
S1130B608383044B9847236A5D192B78DBB2337077
S1130B70EDE7C046C10A000070B54B7A05000E00CF
S1130B800468002B02D0897A0F4B984763680F4A98
S1130B9013400022636073682B627388AB836B1D00
S1130BA0DA7705230635EB77023BA375727A33882F
S1130BB0317A5B0092031343002902D0802212028F
S1130BC013430020636270BDA10A0000FFFFFBFF16
S1130BD0931C9B00C318596001239340017E0B436F
S1130BE0DBB203767047000010B5828B030005204A
S1130BF0002A05D101329A72DA721800014B984723
S1130C0010BDC046790B0000F8B55E4B8000C45897
S1130C102568A61D2B68627E277E1B011740628B08
S1130C20DB0F002A2ED1A28B002A2BD001232A7E8F
S1130C301A4206D002222B766B8B134010D041232C
S1130C40F377A38B9BB26383F37F052B3CD1631DA6
S1130C50DB7F2000002B00D08AE04B4B984733E029
S1130C606A8B5207EDD51822F277A383A37A002B5F
S1130C70E7D0464B20009847C0236A689B02134381
S1130C806B60DEE7628B002A5FD0A28B002A5CD106
S1130C90F27F052A59D1621DD27FD2B2002A54D1E3
S1130CA003232B756283F277A37A002B4AD0374B48
S1130CB020009847C0236A689B0213436B60FB07BC
S1130CC002D5E36820009847638B002B1BD0A38BCD
S1130CD0002B18D1F37F052B15D1631DDA7F012A70
S1130CE011D1297E0132114200D02A7603222A75BD
S1130CF000226283F277BA073CD5DA7F012A39D120
S1130D00236920009847F37F052B1AD0F37F002B2B
S1130D1017D003232B7500236383A383F37F412B15
S1130D200AD0A37A002B07D0184B20009847E02361
S1130D306A68DB0213436B607B0702D5636920009A
S1130D409847F8BD01232B76B9E7628B002ABBD004
S1130D50A28B002AB8D06A8B920600D577E7002BC5
S1130D6003D0A38B012B00D171E74123F377ABE7C9
S1130D70074B73E7FA07C6D5DB7F002BC3D1E368C3
S1130D80BFE7C046185400203D0B0000C10A000014
S1130D90CD0A0000002382B00193064B1B68013387
S1130DA001D072B6FEE772B6019B002BFCD002B0F4
S1130DB07047C0460C000020000000000000000046
S1130DC00B4A13681868203080F30988022080F3E6
S1130DD01488BFF36F8F3FBCAE4608BC04BC62B638
S1130DE01847C046C046C046C046C046C046C04676
S1130DF04052002010B58024031F64041C60043B8F
S1130E0019600349043B1960143B40381A6010BD53
S1130E10950D000070470000FF2210B50E4B120420
S1130E20196800240A431A60FF22196812060A434B
S1130E301A600A4B0A4A1C600A4914600A4A116083
S1130E4007221A60094B1C60094B9847094B9847C5
S1130E50094B9847200010BD20ED00E010E000E0B1
S1130E6018E000E07FBB000014E000E00C0000206C
S1130E70C10D00002D380000950D00008022044BA8
S1130E8052051A60BFF34F8FBFF36F8F7047C04690
S1130E9004ED00E072B6044A136801331360BFF333
S1130EA04F8FBFF36F8F70470C000020054A136803
S1130EB0002B01D172B6FEE7013B1360002B00D179
S1130EC062B670470C000020EFF3108072B67047D2
S1130ED080F310887047000000000000000000004C
S1130EE0EFF309800E4B1A6820381060F0C04446B6
S1130EF04D4656465F46F0C008B572B602F096FC01
S1130F0062B60CBC116808681030F0C8A046A94647
S1130F10B246BB4680F309882038F0C81847C0465B
S1130F204052002010B5074B9847074B04009847E0
S1130F30002803D08022054B52051A602000044B80
S1130F40984710BDC90E00006935000004ED00E0AB
S1130F50D10E000010B5104B1A68824219D35C6898
S1130F601919884203D14168180009195960416868
S1130F704418A24208D1094C2468A24204D0526801
S1130F80521842601A6812680260984200D01860D1
S1130F9010BD1300E0E7C046CC4E00209C000020AA
S1130FA0F7B53A4B04009847394A3A481368002B7E
S1130FB01DD139490733194235D0CD189D43374BDC
S1130FC0C9184B1B29000025354ECB1875603160BC
S1130FD00726083BB3431D605D605D1A136028C19A
S1130FE0304B1D60304B1D6080231B060360066878
S1130FF0344216D1002C14D02300072108330B42AD
S113100001D08B430833002B0BD0274F3D68AB42F4
S113101007D823490C686068834206D81268944252
S113102009D1002526E01D4BCDE720680028F5D026
S113103021000400EFE70A68019222680A606268EE
S1131040D21A102A08D9E018410701D072B6FEE777
S113105042606360154B9847124A63681168ED1A41
S11310603D608D4200D215601E430023019D6660E1
S1131070083523600E4B9847002D01D10D4B98473E
S11310806B0701D072B6FEE72800FEBD4D350000A7
S11310909C000020C04E0020A0000020204E000034
S11310A0CC4E0020C84E0020C44E0020550F000036
S11310B0853600001154000010B500281BD00E4ADC
S11310C008384368126804001A4201D172B6FEE778
S11310D00168002901D072B6FEE793434360074BD1
S11310E09847074A6368116820005B181360054B32
S11310F09847054B984710BDC04E00204D35000061
S1131100C44E0020550F00008536000010B50021A4
S11311100D4B9847002816D10C4B0D491A8892B2F2
S11311200A805A880B4992B20A8099880A4A89B27D
S11311301180D98889B25180198989B291801B8A1A
S1131140064A9BB2138010BDCD050000D44E00208A
S11311500A4F00200C4F00200E4F0020084F0020A3
S113116010B5054B1B78002B04D009220349044811
S1131170044B984710BDC046144F0020D44E0020A5
S1131180E84E00209905000010B58CB06846224B4B
S113119098476A4602231373C0235B01D38100235B
S11311A06946D37401220A70C022D2004A80032205
S11311B04A7028326A4413700922184C0B71029346
S11311C00BAB1A701649174B6A46200098472368E0
S11311D05A7E52B2002AFBDB8021134A09041160B3
S11311E00F229A751A7619780D3A0A431A702268F2
S11311F0537E5BB2002BFBDB0C49200000220C4B1E
S113120098470122E37E1343E3760A4B1A700A4B94
S113121098470CB010BDC0465D010000E84E0020A8
S113122000400042A101000000E100E00D110000B7
S113123085050000144F002061110000F8B5022854
S113124025D8144B4000C05A134B80B29847002253
S1131250124B134CA047134C134A144BA047144A87
S1131260144BA047144DA847144EB0470022144B0A
S1131270144FB8470022144BA0470022134BA04739
S1131280A847B047124A134BA047A847F8BD00200F
S1131290FCE7C0460E4F00200580000000FEAF4072
S11312A0096C0000717400006666666666660A4032
S11312B0F6285C8FC2F5F83F9D810000F98000009C
S11312C00000E03F71790000000014400000D03FAE
S11312D0CFF753E3A5935140F0B5002589B0E8B2A8
S11312E04D4B984705ACAB0001351851032DF6D191
S11312F04A4D0598A8474A4E4A4A4B4BB0470022EC
S11313004A4F0023B8474A4B9847A8470090019199
S11313106068A847434A444BB04702000B0000985A
S11313200199B84700900191A068A8473D4A3E4BF7
S1131330B0473F4B06000F00009801999847A84713
S11313403A4D02000B0030003900A847384B98474B
S1131350002300261D00071C00930394039AAB008E
S11313609958381C334B9847334B9847C317C018C8
S11313705840324B9847311C314B041C9847002885
S113138002D0EBB20093261C0135032DE6D10024D4
S11313900025009BAB4216D005AAAB00D0581F4BCA
S11313A098470022274B1E4EB0471C4B0600201CBA
S11313B00F0098471D4C02000B0030003900A04775
S11313C01B4B9847041C0135032DE2D1009B039A63
S11313D09B00D058211C174B9847174B9847C317AD
S11313E0C0185840184B98470C4B0600201C0F009F
S11313F09847164A164B0A4DA847164D0B00020093
S113140039003000A847144B011E00D001210220EE
S11314109847201C09B0F0BD3D120000F98000007F
S113142071740000BEA4315A4755D53FE9650000E8
S11314309D810000D161000009650000496500003C
S1131440215600000000E03F058000009A99999918
S11314509999C93FAD5500001115000010B5064B10
S11314601888064B80B298470022054B054CA047CC
S1131470054B984710BDC0460C4F00200580000066
S113148000FEAF40096C00009D8100000020704701
S113149070B5104B1888104B80B298470F4C00223F
S11314A00F4BA0470F4C104A104BA047104A114B4A
S11314B0A047114DA847114B9847114E0022114BDC
S11314C0B0470022104BA0470022104BA047A8476A
S11314D070BDC046084F002005800000096C000064
S11314E000FEAF40717400006666666666660A4078
S11314F0F6285C8FC2F5F83F9D810000F98000005A
S1131500717900000000044000406F400000E03F9B
S11315101F2807D8064A0123002904D083401168F4
S11315200B43136070478340116899431160F9E7D6
S1131530184F002000231F2807D801228240044BA3
S11315401B681340581E8341DBB218007047C04625
S1131550184F0020024B1868431E9841C0B27047D0
S1131560184F0020F0B5070085B03C4E00690C0010
S1131570B0473B4D02000B0000203A49A8473A4BC4
S113158098472268A368051C9818384B9847384B2D
S1131590011C281C98470021364B051C9847364BE4
S11315A0011E00D001210620984778780A2827D9FF
S11315B0B047324A324B334EB047334F009001911B
S11315C0281CB847002202900391009801992F4BE0
S11315D02F4DA847224D02000B0002980399A847FB
S11315E0214B9847051CB847009A019BB047294BEB
S11315F09847294BE060281C9847606005B0F0BD0F
S1131600B0471E4A1E4B1F4EB047154E02000B003A
S113161000201E49B047144B98471B4F061C281C3A
S1131620B84700900191301CB8470022174B184D61
S1131630A8470B4D02000B0000980199A8470A4BDC
S11316409847164B011C071C301C9847124DA8479D
S11316506060381CA847E060D0E7C0460580000001
S1131660096C0000004CED409D81000049650000BC
S1131670D1610000F9550000111500009A9999995B
S11316809999B93F71740000F98000000000F03F9F
S1131690E96500009D7F000009650000915F00007E
S11316A0F0B5854B89B0019207000C009847834B35
S11316B01A78834B002A03D13A7DD20700D51860EB
S11316C01B6826680293C51AB5421DDABB682361FC
S11316D0BA680393FB68981A7A4B9847794B04903D
S11316E028009847774B051C30009847764B011C1F
S11316F0281C9847754B011C04989847744B9847CD
S1131700039BC018206106E06368F018854200DB83
S1131710A0E0FB682361029A694B60691A6023693F
S11317200393181A674B98476A4B029019686A4BDF
S11317309847664B69499847694DA847694C049096
S113174005912068A8478022674DD205674BA847BA
S1131750674D02000B0004980599A847654B98470C
S11317605B4D049020600298A847C317C0185840E6
S1131770544B9847019B59695F4B98475F4E00282B
S113178000D196E031685E4B02989847019B306027
S11317909B68041C0693019B06991B6907934B4B9A
S11317A09847A847C317C0185840464B984707990D
S11317B0544B9847002810D0201CA847C317C018C2
S11317C05840404B9847404D011C201CA84707999E
S11317D03E4B98470699A84730603A4B0398984780
S11317E0019B3A4C1968A047019B061C5968029852
S11317F0A047434D011C301CA847404B061C1968E8
S1131800019B9868A047011C301CA847019B061C3B
S1131810D9680498A047011C301CA847019B394D86
S11318209E69041C311CA847002800D0341C019B6D
S1131830211CDE69301CA847002800D0341C254B2D
S1131840029A201C1A6001223B7D13401B4A13702C
S113185009B0F0BDA66883199D421FDAFB68281AF7
S11318600393184D2361A84704903000A847164BF2
S1131870011C04989847FA68BB68061C981AA84784
S1131880124B011C301C9847061C0398A8471C4B9C
S1131890011C301C98470E4B984733E7E2689B18AD
S11318A0BA6822619D4200DA35E7029AD31802939E
S11318B031E70023336090E75D3500002C4F0020B2
S11318C0284F002049650000B15B0000915F0000D3
S11318D009650000244F0020D16100003333333FF9
S11318E0F98000001C4F0020717400003333D33F93
S11318F0E96500009D810000F9550000204F00209B
S11319008D5800002156000010B5031E04D0411864
S11319100020044A8B4200D110BD1C780133604082
S1131920105CF7E7648C00007047000070B5040099
S113193086B0162927D1457D04390330134B9847C7
S1131940854220D1012101AD2B78E2788B430A40F6
S113195013432B7023790E4E611D042202A86B7071
S1131960B04721000422093103A8B0472100042212
S11319700D3104A8B04721000422113105A8B04755
S11319802800044B984706B070BDC04609190000F2
S11319904D830000B522000073B50F4B9847002417
S11319A00B2001250D4E01A90D4B4D708C700D704F
S11319B030707470B470984732785309D109A142D9
S11319C007D11F210A409540064ADB019B189D61FF
S11319D073BDA461FFDEC046F51F00002D4F00203B
S11319E099480000004400410322002110B58AB048
S11319F004AB1A7059709970019316230293074B24
S1131A00074903936846074B984700980199029A3F
S1131A10039B054CA0470AB010BDC0462D19000019
S1131A202D4F00204D830000A5200000F0B58BB0A1
S1131A306A4606231370012304AC06932D4B06005B
S1131A402D4F05922D49032220000793B847616862
S1131A50A268E36804982A4DA8472A4B00209847B7
S1131A60294D322200230021A8470023274A284D6C
S1131A7080185941274A0023A847274B9847022337
S1131A80237000236370002304251520A37033788A
S1131A90311DDB07DB0FE37073782A006844237180
S1131AA0B847310019202A0008316844B84731008A
S1131AB01D202A000C316844B847310021202A0037
S1131AC010316844B847132012216844134B9847D7
S1131AD016230293074B6075032208496846019454
S1131AE00393B84700980199029A039B044CA047BA
S1131AF00BB0F0BD291900004D8300002D4F0020CC
S1131B00A52000004950000089560000BFCF6A009C
S1131B1049560000C0CF6A000100002009190000E6
S1131B20F0B585B000285FD1324E334C334D2100DF
S1131B3014223000A8473000210014222831143028
S1131B40A84721002E4E143114223000A84721004A
S1131B5030003C3114301422A84700242023254AA5
S1131B60A25C062A01D8234AA354254A125D062AF8
S1131B7001D8234A13550134282CF0D1214B224A91
S1131B80002594465A60032218005D721D721C8061
S1131B905A8001AAC2C8C2C2614601989A681B4B06
S1131BA098471B4B134A19005D721D721C805A60C2
S1131BB05C8001AAC1C9C1C20E4901989A68134B3D
S1131BC09847144B0E4A19005A605D721D721C80AE
S1131BD05C8001AA31C931C209499A6801980B4B4A
S1131BE09847002005B0F0BD0128FAD1014E0A4CF7
S1131BF09CE7C046AA4F0020FA4F00204D83000006
S1131C00D24F0020984F002010000020DD26000055
S1131C105850002064500020304F00207FB5431EF0
S1131C200022312B16D8FE230C49887028200B7013
S1131C30AC3B4B700A4B18802538588018005A72F8
S1131C401A72596001AA70C870C29A680198054B4B
S1131C5098470122100004B070BDC046A44F002074
S1131C608C4F0020DD2600007FB5431E0022072B89
S1131C7016D8FE230C49887028200B70AB3B4B70A0
S1131C800A4B18802538588018005A721A72596005
S1131C9001AA70C870C29A680198054B984701223E
S1131CA0100004B070BDC046A74F0020804F002034
S1131CB0DD260000124B134AF0B594465A60002406
S1131CC028250222180085B05C721C721D805A807F
S1131CD001AAC2C8C2C261469A6801980A4B9847D1
S1131CE00A4B082098472800094B984713220949B2
S1131CF0094B0A4898472000094B984705B0F0BDA6
S1131D004C50002013000020DD260000691C000058
S1131D101D1C0000648D00004D830000FA4F00205C
S1131D20211B0000F0B58BB005AD354B0700280032
S1131D30039198476B78202202930023314C1A5563
S1131D400133502BFBD12A782F4B3049D20700D4D2
S1131D502F492000984720002E4E6B682E4A0A21F6
S1131D600A30B04720002D4AAB680D211430B0472B
S1131D702B4B0A21029898470A22C3B220005242F0
S1131D805A43029920308A18D2B200920921254A76
S1131D90B0472000EB68244A0D212830B0472000CA
S1131DA02B693430214A0721B047039801380328AE
S1131DB00AD8144C1E4D03F039FB02090E132000FF
S1131DC03A691C493C30A8470BB0F0BD2000BA6802
S1131DD03C301949F7E72000FA683C301749F2E72C
S1131DE07E780A2130000E4B98470A23C2B22000A5
S1131DF05B425343F318DBB211493C30A847E3E795
S1131E00A1220000FA4F002019840000B18D0000C7
S1131E10B98D000071830000C28D0000E38D0000C5
S1131E2041540000C98D0000F48D0000D88D0000DD
S1131E30D5830000D48D0000DF8D0000F08D0000FC
S1131E40008E00000023202270B51D4C1A5501336A
S1131E50502BFBD11B4920001B4DA84700201B4ED3
S1131E60B047002803D0200019490A30A8470220AF
S1131E70B047002803D0200016491430A847032097
S1131E80B047002803D0200013491E30A84704207F
S1131E90B047002803D0200010492830A847052067
S1131EA0B047002803D020000D493230A84706204F
S1131EB0B047002803D020000A493C30A84770BD31
S1131EC0304F0020788D0000198400003515000083
S1131ED0808D0000858D00008E8D0000978D0000A0
S1131EE0A08D0000AA8D000010B500210320064C2F
S1131EF0A047064B98470649064B9847011E00D059
S1131F0001210420A04710BD111500008D1400000C
S1131F100000C842215600000122014B9A6170471B
S1131F20004400410122014B5A61704700440041C2
S1131F3010B50549054B9847054B9847002182B2D7
S1131F40044B0548984710BD00C07F44915F0000D2
S1131F50DD560000F506000070500020012230B567
S1131F60114B85B05A6102AD01A8104B9847280067
S1131F700F4B984740230F4C2B702A000E4920002A
S1131F800E4B984701AA200000210D4B98470021D1
S1131F9020000C4B984720000B4B984700200B4B1C
S1131FA0984705B030BDC04600440041ED0600002E
S1131FB0E30500007050002000480042F9050000CD
S1131FC0EF060000F1060000B1060000311F00001A
S1131FD010B5054C00222100044B9847E3680448DF
S1131FE0A168984710BDC04694500020E942000003
S1131FF0A450002070B58EB000216B4601251974E1
S113200059749D74DD7419751D700533D9770C22CC
S11320101B4B06A801910291984780239B030393CD
S113202080235B000A93DB180B938023DB000C9363
S113203001235B42134C0D93134B6A4606931349D9
S1132040134B200098472668124B300098471F23F3
S113205018408540104B1D602268D369002BFCD1C9
S1132060022233682000134333600C490C4B984719
S1132070042337342278134323700EB070BDC04656
S11320805F830000E450002080841E0000080042AA
S1132090E14000000948000000E100E0D11F000019
S11320A0814300007FB5124C0393A36800906D46F2
S11320B0019102920020402B18D8230007CD07C3BA
S11320C02A680C4E1A6061680B4BA268300098476E
S11320D00A4D210001220A4B28009847A368094AA7
S11320E09BB231002800084CA047012004B070BD09
S11320F094500020205100204D830000E450002023
S1132100E9420000A450002099430000F0B50125E5
S11321108DB03D4B98473D4C0E222378A260AB43D3
S113212023701E236370E3600A3B2361384B984796
S11321300520384B984723002200143343CA43C375
S113214003CA03C3C823344E20003360B360310094
S1132150324B9847324B9847324A334B0992334AB1
S1132160049308920023FE22059307930693920595
S11321700B932F4B03900A9298470A2103A82D4BE7
S113218098472D4B984780222C4B9203196A114291
S113219034D19A612A4B98472A4B9847237D28408B
S11321A0AB43034323752378AB431843264B20707A
S11321B098472649264B9847264FB847264BA06197
S11321C060609847B847254B70619847244F3B7827
S11321D0002B04D0234B2000984700233B70224B54
S11321E004AA310020009847237D01901F4F2B4201
S11321F006D01F4B98470198B847BEE75A61C9E714
S11322001C4B98470020F7E7991900007C510020E7
S1132210E9190000E9370000645100206515000049
S11322205D350000000020418FC2F53C9A99993E2B
S11322305D1F00007137000015400000004400419C
S11322406111000039240000152A000000007A44BE
S1132250915F000009650000D9120000E91E00002A
S1132260150000202D1A0000A1160000311F0000E7
S1132270191F0000251F000013B5054B0200019330
S1132280009100230349044C0448A04713BDC046F1
S113229060510020118E0000213200000D21000049
S11322A0020030B5024B32CB32C212CB12C230BD67
S11322B07C5100200300074870B5020032CB32C2C3
S11322C012CB12C20122044B04491A70044B9847E2
S11322D070BDC0467C5100201500002064510020D0
S11322E0651500000123024A11784B4013707047B2
S11322F01600002010B50630C37F024B1868024B4D
S1132300984710BDDC5100205934000070B5144BBF
S113231086B000930023134C1A001E211248A047D4
S11323200125124C6D422060114B2A00186803A944
S1132330104B98470128F7D103A90F4B0F48984732
S11323400F4B2668984700230200009302213000B7
S11323500C4EB0470C4B18680C4B9847E4E7C0464A
S113236091230000813C0000378E0000D0510020F2
S1132370D8510020352F0000E90B0000A85100209F
S11323805D350000C53C0000DC510020C938000068
S113239010B5024B1868024B984710BDDC51002061
S11323A0DD33000070B5094C094D2378002B09D1A9
S11323B0084B9847002801D101232370237801207A
S11323C0002B00D00020A84770BDC0461600002096
S11323D0211B00005515000037B50E4B0D000400FD
S11323E000220C210A2098470B4B220018600B4B4B
S11323F0009501930A4C00230A490B48A047802208
S11324000A4B009501935200002309490948A0474B
S113241037BDC046D12C0000D8510020A451002063
S113242021320000198E000059240000DC510020E4
S11324301D8E00000D230000024B186A0005C00F1A
S11324407047C04680440041024B186AC004C00F64
S11324507047C046004400418022F0B593B005ACFB
S1132460920322610122774B52426360002302A946
S1132470E282A28212325218D37710AA1370392240
S1132480521813703A225218A3602376A362137071
S1132490D7332386D63B23732C3305931D3BE3614B
S11324A001332362684D220068492800684B98472D
S11324B0021EF7D18021C023C220664EC9005B00F2
S11324C0F15080003358644F3B403350634F3160C8
S11324D028006349B847022261492800B84701230C
S11324E06A7E2F6813436B7604236A7E13436B76EC
S11324F00723FA691A400392FBD102233A68134373
S11325003B602868574B98471F2318401E3B834065
S113251010223360E888039B798B114203D1013385
S11325208342F9D37A83504B9847504B012200934E
S11325301E2100234E484F4EB0474F4D071E07D073
S1132540A847002302000093380001214B4FB847ED
S1132550FA214B4B01220093C90000234948B0479C
S1132560061E07D0A8470023020000933000012173
S1132570424EB047A847059014212000424B98478B
S1132580424B9847424B07001B78424D424E002B6A
S11325900BD1002809D02878042805D802F046FF7A
S11325A003101214160001232B703C4B9847031C94
S11325B02878042843D802F039FF180E212C37005C
S11325C00223F1E70323EFE70423EDE7344B300064
S11325D098470023E8E73349181C334B984733499D
S11325E0334B9847334B98473061294B29781F70F8
S11325F03000314B9847314B9847BDE73049181CA0
S1132600294B98472F492A4B98472A4B9847B06043
S1132610EBE72D49181C244B98472C49244B984729
S1132620244B9847F060E0E72949181C1E4B984753
S113263028491F4B9847284B98477070D5E70023CB
S11326402B70D2E7480D0000A8510020000C004276
S1132650A107000000E100E0FFFF00FFD10B000034
S1132660F522000009480000B51C0000A523000065
S1132670218E0000813C00005D350000C53C000057
S1132680E52200002C8E0000713700004924000070
S1132690D4510020F4510020E05100205D140000CA
S11326A0B522000000005842915F00000000C040C5
S11326B08D58000009650000251D0000451E00001E
S11326C000008841000040400000C8410000204153
S11326D000000C420000A040DD5600001FB5064B70
S11326E00190186802910392002804D0002301A9E4
S11326F01A00024CA0471FBDD8510020212D000014
S113270010B58024E4036420034B9847034B984797
S1132710034B5C61F7E7C046E9370000551500003C
S11327208044004113B5054B02000193009100233E
S11327300349044C0448A04713BDC046F851002087
S1132740438E00002132000001270000F0B54D4BFC
S113275087B098474C4B029098474C4B039098474E
S11327604B4F049005914B4B38684B499847474B66
S113277098478022494E04000D0004980599D2051B
S1132780474BB04702000B0020002900454CA047EE
S1132790454B9847454B386001901868029B181ABE
S11327A0434B9847434A444BB0473F4B9847374BBA
S11327B0984704000D0004980599404A404BB047DF
S11327C022002B00B0473F4B0490059118682F4B13
S11327D09847344F02000B0004980599B847324BD0
S11327E09847384B1860384B03989847C317C0185C
S11327F05840364B9847314A314BB04722002B00A2
S1132800B0470022324BB047324D06001F4B2868B8
S11328100F009847234C02000B0030003900A047FA
S1132820214B984700242C4F061C3B782860211C20
S11328300198002B14D0294B9847002808D0284B26
S1132840211C1868274B9847002801D000233B70AF
S1132850234B019A1A60154B029A1A6007B0F0BD17
S1132860214B98470028F3D01D4B211C18681F4B9F
S113287098470028ECD01E4B2C601E60114B1C6046
S1132880E6E7C0465D35000091140000F9800000C1
S1132890FC510020915F00003333333F717400001A
S11328A03333D33FE96500009D810000305200209E
S11328B089800000FCA9F1D24D62503F1111111121
S11328C01111913F005200200965000005800000AD
S11328D00000E03F3C520020170000202156000079
S11328E02C5200200D560000F9550000355600000A
S11328F0345200208022642370B590B003AC92035C
S11329002261012203932C4B524263600023E28232
S1132910A28212326A44D3770EAA137039226A440F
S113292013703A226A44A36023732376A36213705C
S1132930D7332386C13BE361013323621F4E220058
S11329401F4930001F4B98470028F7D107223568EC
S1132950EC691440FCD102232A6813432B603068CD
S1132960194B98471F2318401E3B8340174A136096
S11329701022F088698B114203D101348442F9D3C7
S11329806A83134B9847134B134C00930122002383
S11329900A211248A047041E08D0114B984700236F
S11329A002000093200001210E4CA047FA24A40049
S11329B020000D4B9847FBE7480D0000045200200F
S11329C000140042A10700000948000000E100E0F3
S11329D0891100004D270000813C0000528E000048
S11329E05D350000C53C0000E937000013B5054B18
S11329F002000193009100230349044C0448A047BA
S1132A0013BDC046385200204B8E00002132000016
S1132A10F5280000014B18687047C0463452002066
S1132A200300012208334360C36003610023524260
S1132A3082600360704700230361704743684B6002
S1132A409A688A609A6851609960086103680133E2
S1132A500360704703000A6830B50833541C0BD177
S1132A6003695A684A6091608B6059600861036821
S1132A700133036030BD23005C682568AA42FAD2A2
S1132A80EFE7426881680369916082684168516038
S1132A905A68904201D182685A60002202611A6821
S1132AA0013A1A601868704710B50400034B984740
S1132AB0A46B034B98476042604110BD950E000023
S1132AC0AD0E000070B51600026C0400856B002A80
S1132AD00AD106681000002E03D16068154B984790
S1132AE066600135A56370BD134B002E0CD1806860
S1132AF09847A368226C30009B186268A3609342D5
S1132B00EFD32368A360ECE7C0689847236CE268BE
S1132B105B422168D218E2608A4202D26268D3180A
S1132B20E3600020022EDCD12B005A1E9341ED1AE3
S1132B30D7E7C046153B00004D830000F7B5846C11
S1132B4001900A00002C01D172B6FEE7A16BE36B81
S1132B50994201D372B6FEE7A16B00268B4214D9C9
S1132B60270001A9453720000B4B3D7898476DB2EB
S1132B7006006B1C0BD1636A002B06D02000074BA8
S1132B8024309847002800D001263000FEBD0135CE
S1132B906DB23D70F9E7C046C52A0000E539000072
S1132BA0030010B51A6C0800002A0AD0D9685C68C2
S1132BB08918D960A14201D31968D960D968014B39
S1132BC0984710BD4D830000F8B5040026001C4F43
S1132BD04536B84735786DB2002D0EDCFF233370CF
S1132BE0184EB047B847270044373D786DB2002DE2
S1132BF018DCFF233B70B047F8BDA36C002B09D051
S1132C0000212000104B9847002801D00F4B984713
S1132C10013DE0E7636A002BE0D020000C4B243038
S1132C209847F1E72369002BE3D02000084B1030CC
S1132C309847002801D0054B9847013DD6E7C04688
S1132C40950E0000AD0E00003D2B0000E93A000097
S1132C50E539000070B504000D00002801D172B6FA
S1132C60FEE7164B9847216CE36B22684B43D01860
S1132C705B1AD318E36023006060A2600020FF2287
S1132C804433A0631A705A7085420ED1236983427B
S1132C9007D020000A4B10309847002801D0094B78
S1132CA09847094B9847012070BD2000074D10300C
S1132CB0A84720002430A847F3E7C046950E00003B
S1132CC0E53900007D0E0000AD0E0000212A000051
S1132CD0F8B506000D001700002801D172B6FEE712
S1132CE0080070430C4B54309847041E0DD0002D3F
S1132CF00DD12060094BE66325640121200098472B
S1132D00230050331F700023A3642000F8BD030088
S1132D1054330360EEE7C046A10F0000552C0000B9
S1132D20F0B589B0041E02910592019301D172B6E7
S1132D30FEE7029B002B00D074E0036C002B00D153
S1132D4070E072B6FEE7636A002B5BD020003E4B56
S1132D502430984756E0059D002D02D1B847002045
S1132D6056E0002E02D106A8384B9847B847384B96
S1132D709847384B98472200443213785BB20133AA
S1132D8001D1002313702200453213785BB2013362
S1132D9001D100231370B84705A906A82E4B984704
S1132DA02E4E2F4D002839D12A4B9847A36B0393FD
S1132DB0E36B0493B847039B049A93422AD12000FF
S1132DC005991030274B98472000B047A8470028A2
S1132DD001D1254B984701261E4B9847A36BE26B04
S1132DE0224F934202D3019B022BB4D1204B019A70
S1132DF0029920009847A36C002BA4D001992000CD
S1132E001C4B9847002801D0174B9847B84701201E
S1132E1009B0F0BD2000B047A847DCE72000B04768
S1132E20A8479CE7019B022B02D1E36B012B09D13C
S1132E30114B984700260028CED1059E002ECBD0FA
S1132E4072B6FEE772B6FEE7E5390000613A0000AB
S1132E504D350000950E0000793A0000C92B0000A2
S1132E6085360000813900007D0E0000AD0E0000A3
S1132E70C52A00003D2B0000F53A0000F0B585B0EE
S1132E800400019117001E00002801D172B6FEE76C
S1132E90019B002B1BD1036C002B18D072B6FEE7EC
S1132EA0002F38D001253D6003981D4B984728001A
S1132EB005B0F0BD636A002B2DD02000194B2430DF
S1132EC0984726E00135029B6DB21D7023E0022E67
S1132ED002D1E36B012B20D1134B9847A36BE26B18
S1132EE00390934202D30025022EDDD12300453303
S1132EF002931D7832006DB20C4B01992000984763
S1132F006B1CDFD1A36C002BD4D031002000084B04
S1132F1098470028C4D10125C6E772B6FEE7C0462B
S1132F20D10E0000E5390000C90E0000C52A0000DA
S1132F303D2B0000F0B585B0041E0091019201D133
S1132F4072B6FEE7009B002B66D1036C002B63D0A6
S1132F5072B6FEE7019D002D02D1B84700204DE076
S1132F60002E02D102A8314B9847B847304B9847FE
S1132F70304B98472200443213785BB2013301D1BD
S1132F80002313702200453213785BB2013301D160
S1132F9000231370B84701A902A8274B9847274F6D
S1132FA0274D284E00282FD12000B847002827D0CD
S1132FB0200001992430244B98472000A847B047AB
S1132FC0002801D1214B984701261A4B9847A56B3D
S1132FD01F4F002DBED01F4B00992000013D984784
S1132FE0A5632369002B07D020001B4B10309847A2
S1132FF0002801D0154B9847B847012005B0F0BD13
S11330002000A847B047DFE72000A847B0472000CA
S1133010B8470028D8D0A1E7104B984700260028CD
S1133020D3D1019E002ED0D072B6FEE7613A0000E3
S11330304D350000950E0000793A0000A92A0000E1
S1133040C92B000085360000813900007D0E000088
S1133050AD0E0000A12B0000E5390000F53A000098
S1133060002370B5064ADD00AC182668002E02D194
S1133070A950606070BD0133082BF4D1FAE7C04653
S1133080D053002070B50400114B16000D00984772
S11330902200443213785BB2013301D10023137050
S11330A02200453213785BB2013301D1002313703F
S11330B0084B9847A36B002B05D120003200290050
S11330C02430054B98472000044B984770BDC046F8
S11330D0950E0000AD0E0000AD390000C92B0000B4
S11330E0002801D172B6FEE7064B42699A4201D02C
S11330F0002205E0806A044B9842F9D042424241E2
S11331001000704714530020FC520020074A136833
S11331101968074B002903D1012252421A607047F3
S11331201268D268D2685268F8E7C0464452002058
S1133130F4520020F8B50400134B144D1E6828689F
S1133140134B04300F009847631C07D1002F05D0A0
S113315029681048104B04319847F8BD2B6834197E
S11331605C600E4BA64204D90D4A106829680431EC
S1133170F2E70C4A10682968043198470A4B1A6828
S11331809442EAD21C60E8E73C53002040520020FD
S1133190832A0000145300203D2A0000552A000011
S11331A04852002044520020F452002070B5124CC2
S11331B02368002B08D1114B1B68012B01D9104B3C
S11331C09847104B9847F2E70F4B98470F4BDB6833
S11331D0DD680F4B281D98470E4A1368013B1360A6
S11331E02368013B23600C4B9847286B0B4CA0478A
S11331F02800A047DBE7C046B45200204C52002010
S11332007D0E000015540000950E00002853002088
S1133210832A0000B0520020AD0E0000B910000057
S1133220F0B5950085B00190554C28000F0002932D
S1133230A047061E00D194E05820A047041E00D1E8
S11332408CE006632A004F4BA52130009847236B7E
S1133250043D5D1907239D43002300951A00F95C82
S11332603432A154FA5C002A02D001330A2BF5D17E
S1133270230000270A9D3D331F70042D00D9042527
S1133280231D1800E562A5643F4EE7640393B0472D
S113329020001830B04705235D1B230054332461FC
S11332A0A56164622765029A1F700199374B0098E3
S11332B098470B9B2060002B00D01C60344B984730
S11332C0344B354F1A68354E01321A603A68002A79
S11332D04AD13C601B68012B1ED1314D3000A847F8
S11332E030001430A84730002830A84730003C3064
S11332F0A84730005030A8472A48A8472A48A8477A
S11333002A48A8472A48A8472A48A8472A4B254AB2
S11333101A602A4B244A1A60294A1368013313603D
S1133320284A23641168E36A8B4200D9136014208D
S11333305843211D3018244B9847244B9847244B5D
S113334001251B68002B06D03B68DA6AE36A9A42BF
S113335001D2204B9847280005B0F0BD30001E4B29
S1133360984701256D42F6E7194B1B68002BD3D112
S11333703B68E26ADB6A9342CED83C60CCE7C04645
S1133380A10F00005F830000372A0000F50D000044
S1133390950E0000B0520020405200204C520020F4
S11333A0212A0000C8520020DC520020FC520020D8
S11333B02853002014530020445200204852002077
S11333C0C0520020C45200203D2A0000AD0E00006F
S11333D0105300207D0E0000B910000070B5041ECB
S11333E001D172B6FEE7134D2B68984220D0124BE0
S11333F098472000114B9847002817D0261D104BE2
S1133400300098470F4AE36A11688B4200D9136071
S1133410142043430C483100C0180C4B98472B68C8
S1133420E26ADB6A9A4201D3094B9847094B9847F1
S113343070BDC04640520020950E0000E1300000EF
S1133440832A0000C45200204C5200203D2A000070
S11334507D0E0000AD0E0000F7B5041E01D172B65A
S1133460FEE7164B9847164B01902000984700251D
S1133470A8421AD0134B144F1B68AB421AD1134BFA
S1133480E26A1B68261DDB6A30009A426D41104BCC
S11334909847104AE36A11688B4200D913601420DC
S11334A0310043430C48C018B84701980B4B984768
S11334B02800FEBD21000A481831F5E7C90E0000B6
S11334C0E1300000BC5200203D2A000040520020A0
S11334D0832A0000C45200204C520020D10E000068
S11334E0FC52002037B500240F4B00940193822234
S11334F023000E490E480F4DA84701280FD10E4B4B
S1133500984701280BD172B601220C4B52421A6023
S11335100B4B18600B4B1C600B4B984737BD431C7F
S1133520FCD172B6FEE7C046F0520020598E00006E
S1133530AD31000021320000393C0000F45200207B
S1133540105300203C530020190E0000024A136857
S1133550013313607047C046BC520020014B186809
S11335607047C0463C530020F7B5374B1B68002B0F
S11335703BD1364B1F6801371F60002F11D1344BEC
S11335801A681268002A01D072B6FEE7314A196837
S1133590106818601160304A1368013313602F4BB0
S11335A098472F4E002533689F4207D3284B1A684B
S11335B01268002A21D101235B423360294B1B6826
S11335C0DA6A14235343284AD358012B00D901251E
S11335D0264B1B68002B01D1254B9847254B1B68B4
S11335E0002B00D001252800FEBD204A00251368C9
S11335F0013313601E4B9847F0E71B68DB68DC68F7
S113360063689F42D9D3231D019318001A4B98472E
S1133610A36A002B03D02000174B18309847174B90
S1133620E06A1A68904200D91860142358430E4B7C
S1133630211D1818124B98470A4BE26A1B68DB6A73
S11336409A42B3D30125B1E7BC5200203C53002079
S11336504452002048520020F85200200D3100004E
S1133660F4520020405200204C520020B852002056
S11336702154000040530020832A0000C45200203B
S11336803D2A0000F8B52B4C2368002B01D172B6FB
S1133690FEE7294B98472368013B23602468002CEC
S11336A004D00024254B98472000F8BD244B012763
S11336B01B68002BF5D0234B1A68002A1AD1002C62
S11336C001D0214B9847214D2C68002C0AD00126AB
S11336D01F4B9847002801D01E4B1E60013C002C54
S11336E0F6D12C601B4B1B68002BDAD01A4B984781
S11336F00124D7E7DB68194EDC682000251D18304B
S1133700B0472800B047164BE06A1A68904200D9C7
S1133710186014235843134B29001818124B984768
S1133720124BE26A1B68DB6A9A42C4D3094B1F60DE
S1133730C1E7C046BC520020950E0000AD0E00004B
S1133740B0520020FC5200200D310000B85200207D
S113375069350000405300207D0E0000832A0000DC
S1133760C45200204C5200203D2A00004052002048
S113377070B505000C00002801D172B6FEE70029DF
S113378001D172B6FEE7124B1E68002E01D072B64C
S1133790FEE7104B9847104B2A681868A41890420B
S11337A005D2A24206D9A042B641764202E00126E1
S11337B0A242F8D92C60002E03D0201A0021074B16
S11337C09847074B9847002801D1064B984770BD8E
S11337D0BC5200204D3500003C5300203531000020
S11337E0853600007D0E000070B5041E02D10A4B20
S11337F0984770BD094B1D68002D01D072B6FEE7D5
S1133800074B9847074B290020009847064B9847D9
S11338100028EED1EBE7C0467D0E0000BC5200202C
S11338204D350000353100008536000070B51F4B62
S11338301A681F4B002A02D001221A6070BD1D4C69
S11338401A6023681C491B6B1A688A4208D159689C
S1133850914205D19A688A4202D1DB68934204D02E
S113386020682168154B34319847142614481549AB
S11338700268330053435D58002D11D0CD186E6893
S113388008337668CB186E609E4201D173686B6012
S113389014235343C9184B68DB6823600260CDE7E7
S11338A0002A01D172B6FEE7013AE2E7BC520020D9
S11338B04053002040520020A5A5A5A52354000094
S11338C0C45200204C520020F8B5214B0400984704
S11338D0204D002C00D12C68271D38001E4EB04707
S11338E0A36A002B02D020001830B0471B4E1C4B9B
S11338F0390030009847230054331A78012A01D143
S113390000221A70174B9847174F3B68002B05D0BD
S11339100F4B9847154B9847124B98472B689C427E
S11339200AD13B68002B08D0114B1B68002B01D037
S113393072B6FEE70F4B9847F8BD0F4A316812681C
S1133940914201D12B60F7E70C4B9847F4E7C0464E
S1133950950E000040520020832A000014530020DA
S11339603D2A0000AD0E0000105300200D31000070
S1133970BC5200207D0E0000B05200202D38000003
S113398010B50C00002801D172B6FEE7044B19688B
S1133990044B1831984701212000034B984710BD70
S11339A040520020552A00003531000070B50C004B
S11339B01500002801D172B6FEE7074B1968074BC2
S11339C018319847002D01D00124644229002000B9
S11339D0034B984770BDC046405200203D2A00006A
S11339E035310000F8B5C368DC68002C01D172B62B
S11339F0FEE7260018363000114FB847114B124D20
S1133A001B68002B19D1261D3000B8470F4AE36A02
S1133A1011688B4200D913601420310043430C48D1
S1133A20C018A8470B4BE26A1B680020DB6A9A4265
S1133A3002D9094B01301860F8BD31000748F0E79E
S1133A40832A0000BC5200203D2A0000C4520020FA
S1133A504C5200204052002040530020FC520020D1
S1133A60034B1B680360034B1B6843607047C046ED
S1133A70F85200203C53002070B505000C000028CB
S1133A8001D172B6FEE7002901D172B6FEE7114BEF
S1133A909847114B69681A6823680026581C10D08F
S1133AA00E482E680068864202D001268A4208D257
S1133AB0521A9A4209D29B1A23602800084B98474D
S1133AC00026084B9847300070BD00230126236070
S1133AD0F7E7C046950E00003C530020F852002042
S1133AE0613A0000AD0E00000122014B1A607047DC
S1133AF040530020054B01201B68002B04D0044BCD
S1133B0018684342584140007047C0461053002093
S1133B10BC52002070B5041E01D1002070BD154BAD
S1133B201B68984201D072B6FEE7C36C002B01D12A
S1133B3072B6FEE7C26A816C013BC3648A42ECD070
S1133B40002BEAD1051D0C4B280098470523A06CD7
S1133B501B1AA361094BE0621A68904200D91860ED
S1133B601423434306482900C018064B98470120F4
S1133B70D4E7C04640520020832A0000C4520020EB
S1133B804C5200203D2A0000F7B5104B9847104CCA
S1133B9023680193002B15D10E4E0F4F3000B84708
S1133BA00E4D2800B8470E4B019A1E600D4B102194
S1133BB01D6005200C4B98472060002802D00B495B
S1133BC00B4B98470B4B9847F7BDC046950E00002A
S1133BD0785300204C530020212A00006053002019
S1133BE04453002048530020D12C00005E8E000076
S1133BF061300000AD0E000010B5416000619142DB
S1133C000CD8D21A836901249A4205D2074B011DAC
S1133C101868074B98470024200010BD9A4202D22E
S1133C2001249942F8D2011D024BF1E748530020C8
S1133C30552A0000445300200B4B13B598470B4BF7
S1133C401B68002B01D172B6FEE7094B8222019357
S1133C50042352000093074900230748074CA04758
S1133C600028F0D016BDC046893B000078530020E0
S1133C707C530020638E00008D3D00002132000043
S1133C80F7B5070001932C200B4B0D001600984745
S1133C90041E0FD0002D01D172B6FEE7074B9847E2
S1133CA0019B27602362089BA5616362E661201D76
S1133CB0034B98472000FEBDA10F0000893B000084
S1133CC0372A0000F0B5170085B006001A00002856
S1133CD001D172B6FEE70D4D2C68201E0FD0009165
S1133CE00197029605290CDC094B9847094C0023DF
S1133CF00A9A022800D01A0069462868A04705B02D
S1133D00F0BD200000236946034CF7E778530020F8
S1133D10F53A0000212D00007D2E0000F7B5164D68
S1133D202B681A68002A04D1144A116813602960A8
S1133D30F7BDDB68DC681E68271D114B3800984707
S1133D40636A20009847E369012BE8D1A369F3185B
S1133D509E4206D26360246139002868094B984763
S1133D60DDE70021200000910B003200064CA04743
S1133D700028D4D172B6FEE74453002048530020F3
S1133D80832A0000552A0000C53C0000F0B589B024
S1133D9000275B4B1B681A680392BA4201D0DB68A8
S1133DA01F68584B9847584B9847584D04002B6848
S1133DB00026984202D2564B984701362C60554D46
S1133DC0002E71D1039B002B5DD03000A7425FD839
S1133DD0A8474B4B1B68DB68DD684F4B281D984791
S1133DE0EB69012B13D1AB692200F91828003B00C1
S1133DF04A4CA04700280AD0009633003A0031000C
S1133E002800474CA047002801D172B6FEE76B6A30
S1133E10280098478427BF00424B0022186804A951
S1133E20414B98470028B3D0049B002B04DA059B30
S1133E300799069803939847049B0393002BEBDBA5
S1133E40069C6369002B02D0201D334B98472E4BF0
S1133E5098472E4E05003368984201D22C4B984760
S1133E60049B3560092BD7D801229A401600130011
S1133E703E4038D1C722134218D19B06CCD520002E
S1133E802A4B9847C8E72A4B1B681A68504250418E
S1133E90244B0200391B1868264B9847A847002872
S1133EA0B8D1254B9847B5E7A847B3E7059BA26966
S1133EB0200099182A00194D0393A8470028ABD075
S1133EC0636A20009847E369012BA5D1A369059A89
S1133ED02000D218009633003100114CA04700286E
S1133EE09AD172B6FEE70599A161002901D172B693
S1133EF0FEE749192B002A002000084CA0478BE755
S1133F00445300204D3500005D35000074530020FB
S1133F101D3D000085360000832A0000F93B0000A7
S1133F20C53C000078530020352F0000B910000074
S1133F3048530020853000007D0E000037B5050091
S1133F4010202F4A2F4C93690343936123785BB26B
S1133F50002B45DBEB780730002B41D02A799A42BD
S1133F603ED86A799A423BD802222378934323703D
S1133F70E3795BB2002BFBDB6B78002B2FD0AB78A3
S1133F8001A90B700320204B9847204B032098472E
S1133F902B78002B02D003201D4B9847EB7829790E
S1133FA0013B042200291CD021780A4322702A797B
S1133FB0013A12011343E27952B2002AFBDBDBB26D
S1133FC063706B79002B10D12B78002B15D08022D5
S1133FD0237813432370E3795BB2002BFBDB0020CF
S1133FE03EBD217891432170E5E7E27952B2002A7F
S1133FF0FBDB013BDBB2A370E6E722780223E8E7B0
S1134000000400400010004059510000D15000004D
S113401075510000A522034B1A72DA7952B2002AB4
S1134020FBDB704700100040012210B5034B9A716E
S1134030034B1B68002B00D0984710BD00100040B4
S113404010540020002210B54309C409944202D13F
S1134050DA01064BD2181F2318401E3B8340002967
S113406001D0936110BD5361FCE7C0460044004198
S11340700368187E0123184070470368187E4007C0
S1134080C00F704770B5064B0C00056898470523B0
S1134090002803D00023E405E40DAC62180070BDD1
S11340A07140000070B50D4B06000C000568984780
S11340B0102200280DD00423698B0022194201D05C
S11340C06B831E32B379012B05D1AB6ADB05DB0DA3
S11340D02380100070BDAB6ADBB2F9E77B400000BF
S11340E0F0B50500296014000A6889B00E001C238D
S11340F0920700D5D4E001270B683B400193019A55
S11341000523002A00D0CBE008006A4B9847811CA5
S11341108F40694B14301A6A17431F62631DDB7F9B
S113412002AAC7B2137011003800644B98473800D4
S1134130634B9847631DD87F0199624B9847237856
S1134140012B03D132680B33134333602378002BE4
S113415003D132680833134333602B002A0000264E
S11341600C33283240C39A42FCD12B003633AE863E
S1134170EE622E86AE621E705E709E700323286807
S11341806B724C4B2E71984707004F4B4F49984721
S11341904F4BBF00FD50802302AA1371012393717A
S11341A023782F685671D671002B00D196710026A2
S11341B0A36A0493E36A0593236B0693636B0793E3
S11341C0B30004AA9858F1B2002802D13800414B38
S11341D09847431C06D002AB1871000CC0B203A967
S11341E03D4B98470136042EEAD123786B71237C2A
S11341F0AB71A37CEB71237D2B7202AB9E1C00235D
S113420033802378012B10D12A4B28689847143027
S1134210324BC0B29847324B01003200A069984734
S1134220172300283CD133783B732378002B3DD1EE
S1134230E17FA57F7B6A090429431943A069A28B06
S1134240631C7962DB7F002B2DD11300A1686268A7
S11342500A43E1680A43217C02430B43617C002941
S113426003D120498978890701D580210A43A17C9B
S1134270002902D0802189020B43E17C002902D06D
S1134280802189000B43217D002902D080218901EE
S11342900B4339680A433A607A6813437B6000230E
S11342A0180009B0F0BD40231343CFE700231800E2
S11342B0CCE7C0469D47000000040040595100006F
S11342C0D1500000FD450000D1470000D943000053
S11342D018540020414600005D520000A551000022
S11342E0D545000000200041F0B5437985B00500B4
S11342F00E00140000931520012B04D12B7A019396
S1134300002B02D0002005B0F0BD184F002A27D0A2
S11343104C78002C20D0164B2800984703003078A6
S1134320002B03D10099B8470520ECE70199B84761
S1134330104BB17828009847EB79002BE2D1280084
S11343400D4B98470028FAD0002402AB991D280091
S11343500A4B0C809847D5E708782100B847D1E785
S113436008780099B8472000CDE7C04645400000D2
S113437071400000854000007B400000A540000023
S1134380931C9B00C3185960012393401A003630D4
S1134390037813430370704770B51724002B18D0AB
S11343A0C5790534002D14D0050038352E78173C16
S11343B0A6420ED0826202228386C16203862C70DA
S11343C0036842729C7500244179A14201D11A7696
S11343D09A75200070BD0000F8B57C4B8000C4586D
S11343E0230022003733363225681B7816781E40A6
S11343F02B7EAF7D1F40FB0739D562791300012A5C
S113440033D1637A002B0DD1714B1B88AB62638E61
S1134410013B9BB26386638E002B00D12A756379BE
S1134420012B22D1637A002B21D0E16A2268481C37
S11344300B78E062A079DBB2012800D174E09BB272
S1134440DB05DB0D9362A38E013B9BB2A386A38E97
S1134450002B0CD101332B75637A012B07D1E3793F
S1134460002B04D10233AB7501E0002BDAD0042118
S11344700F4215D06B8B0B425CD0637A012B0CD0AE
S113448023001E2238331A700323637202332B7500
S1134490330702D52000A3699847AB6A04236B83D2
S11344A00222174227D06379002B0ED107212975E8
S11344B02A760132627222003832A3862386137070
S11344C0F30602D52000E36998476379012B12D1E2
S11344D0637ADBB2012B0ED1E279002A0BD10221DF
S11344E0297501316172210038310A701E4202D0EF
S11344F02000E368984708231F4209D06279002A04
S113450006D12B752B76B30602D52000236A984773
S11345107FB2002F07DA80232B752B76730602D522
S1134520636A20009847F8BD4878023100020343CB
S1134530E16285E7627A2368D2B29B6A012A13D1C9
S1134540638E013B9BB26386638E9BB2002BA7D123
S11345502975210038310B700333637216429FD0E2
S11345602000E36898479BE7DB05A16ADB0DDAB21C
S11345700A70A26A511CA162A179012904D11B0A03
S11345805370A36A0133A362238E013B9BB223863B
S1134590238E9BB2002B00D082E7220038321370A6
S11345A004332B75627A022A05D11E4200D177E7C3
S11345B020006369D6E7637A002B00D070E7B30765
S11345C000D46DE720002369CCE7C04618540020CE
S11345D01454002010B54908040000234020A142CF
S11345E001D210BD0300581C091B80B28C42F9D9BA
S11345F04020FF2BF5D813800020F2E737B50D4C8F
S113460005002378002B01D000290CD001A9132028
S1134610094B0D7098471320084B9847012300203D
S1134620657023703EBD63780800AB42FAD01D204C
S1134630F8E7C0468053002059510000D1500000D3
S1134640394A030000B50800934233D007D8374AEB
S1134650934214D0364A93421FD0002317E0354AC0
S113466093423AD0344A934244D0344A9342F4D1E8
S1134670002303290BD800F0D9FE502A2C2E002346
S1134680032904D800F0D2FE430205072C4B18007E
S113469000BD2C4BFBE72C4BF9E700230329F6D88C
S11346A000F0C4FE37020406284BF0E7284BEEE77F
S11346B0284BECE700230329E9D800F0B7FE2C02CD
S11346C00406254BE3E7254BE1E7254BDFE7254BC4
S11346D0DDE7254BDBE7254BD9E700230329D6D8B3
S11346E000F0A4FE1D020406214BD0E7214BCEE7C7
S11346F0214BCCE700230329C9D800F097FE12020E
S113470004061E4BC3E71E4BC1E71E4BBFE71E4BFF
S1134710BDE70323BBE71D4BB9E71D4BB7E71D4BB3
S1134720B5E71D4BB3E7C046001000420008004245
S1134730000C004200180042001C00420014004219
S11347400300050003000600030007000300010046
S113475003001E0003001F000300090003000A00F9
S113476003000B00030011000300120003001300F8
S113477003000D0003000E0003000F0003001700E8
S113478003001800030019000300040003000800DC
S11347900300100003000C000300160070B586B07F
S11347A06946094B6A4670CB70C170CB70C1002357
S11347B099005158814202D1D8B206B070BD01337C
S11347C0062BF5D10020F8E76C8E0000704700003E
S11347D0F0B5094C094A2378002B09D11E00084F73
S11347E0084DD750EE500433182BFAD1173B2370E1
S11347F080001150F0BDC046825300208453002035
S1134800CD4700001854002007B509236A461370E9
S113481001335370013393700133D3700133137137
S113482001335371024B98476B4618560EBDC04670
S11348309D47000010B5024B00201B68984710BD2F
S11348408453002010B5024B01205B68984710BDCB
S11348508453002010B5024B02209B68984710BD7A
S11348608453002010B5024B0320DB68984710BD29
S11348708453002010B5024B04201B69984710BDD7
S11348808453002010B5024B05205B69984710BD86
S1134890845300207047000007B5802201AB1A70D2
S11348A00A785A704A789A708A781900DA70014B3B
S11348B0984707BD5D52000001221F2330B5140044
S11348C003409C404009084BC001C018002311005C
S11348D099400C4204D0C11840310D7815430D7035
S11348E00133202BF3D130BD004400411F2370B5A8
S11348F0012403409C404009144BC001C0183023DC
S113490019421CD0C025ED020B0602D58023DB031F
S11349101D43F0230E061B051E40A023DB05334375
S1134920A2B21A43D0232A431B0682623343220CC9
S113493013432B4383628B0604D5446170BD8025E9
S1134940AD02E1E7CB06F9D58461F7E70044004105
S1134950F8B54F4E0123320002254032B36013787C
S11349604C4C2B43137001237361756053782021E1
S11349702B4353700120A04728000121A047464F34
S11349802800B84701212820A0472820B847012142
S11349902920A0472920B847802332005B01736097
S11349A04C32137820212B4313700C20A047802213
S11349B03A4B12015A601A006B32137820212B43B0
S11349C013702B20A04701210420A0470420B847DE
S11349D001210520A0470520B84701210620A04752
S11349E00620B84729001620A0471620B8472900FA
S11349F01720A0471720B84701212220A0472220D2
S1134A00B84729001020A0471020B84729001120DA
S1134A10A0471120B847802332001B014B32B360FA
S1134A20137829002B43137080231B01B3610920E1
S1134A30A0470920B84729000A20A0470A20B84700
S1134A4029000820A0470820B847144B80221900E9
S1134A50D2039A6076310B781C202B430B700F4BDA
S1134A60A1395A6180229203B2600B782B430B70F8
S1134A7080235B05726173605C36337820212B439D
S1134A803370A04729000320A0470320B847F8BD8E
S1134A9000440041ED480000B94800008044004152
S1134AA0094B196800290BD1EFF31080074A00283D
S1134AB005D172B6BFF35F8F0549087001211170EB
S1134AC01A6801321A6070479C530020A0530020DA
S1134AD018000020084B1A68013A1A601B68002B62
S1134AE009D1064B1B78002B05D00122044B1A7008
S1134AF0BFF35F8F62B670479C530020A053002021
S1134B001800002010230249CA681A42FCD07047DA
S1134B10000800400222F8B50026094D094C2B6814
S1134B20094F13432B60A284B847AB68E3626B68F8
S1134B30A362A684B8472B6830009BB2A384F8BD57
S1134B40A453002000080040054B000070B508285D
S1134B5006D800F06BFC0805053030120B15280050
S1134B600024200070BD164B1C69FAE7154B164C47
S1134B701B6A9B059B0FDC40F3E7114B5C69F0E774
S1134B800F4D00242B689B07EBD5104B984724222C
S1134B902B681340042B11D120000D4B9847AC68AF
S1134BA0A4B24443DDE70B4B00241B785B07D8D544
S1134BB0034BDC68D5E780242402D2E7064CD0E717
S1134BC0A45300200008004000127A00054B0000A6
S1134BD0A551000050080040006CDC0270B58478D8
S1134BE00278457801204026054020408024084969
S1134BF0AD010B6AC001B3432B43A343034303201A
S1134C00024004481202034013430B6270BDC046C5
S1134C1000080040FFFCFFFFF7B50F21284B457843
S1134C209C460D4001781B8A4C4261416446C9B2DE
S1134C300091244F41685A058678520F0194B94275
S1134C4036D9214FB94235D9204FB94234D9204FF2
S1134C50B94233D91F4FB94200D804221E4C477AB7
S1134C60007A2161012104248C460099A343890020
S1134C700B43614608403F318B438401180063466F
S1134C8020431F407F339843F90107001302134A5E
S1134C900F433A401A4363461E40F302104E164037
S1134CA01E432B0335052D0D1D43019B1D82F7BDAE
S1134CB00022D3E70122D1E70222CFE70322CDE786
S1134CC00008004080841E0000093D0000127A00A4
S1134CD00024F4000048E801A4530020FFF8FFFF7B
S1134CE0FFF7FFFF10B5027A438992069B059B0DDF
S1134CF0120C1A43174B5A60C179827984880A438B
S1134D00418821430A4341780478C9010A431A605F
S1134D10042C0DD1027B018A92060A43C1890E48F4
S1134D20090401400A439A601A6814431C6010BDC8
S1134D30202CFCD1027B018A92060A43C1890648D1
S1134D40090401400A439A601968044A0A431A6034
S1134D50EDE7C046A45300200000FF032404000034
S1134D6010B5082806D800F061FB1405050C0E1ACE
S1134D7007202300172010BD0223104A116A0B4399
S1134D8013620020F7E702230C4A91690B439361F5
S1134D90F7E70223094A118A0B431382F1E702233E
S1134DA0064A918A0B439382EBE7054B9847E2E767
S1134DB00223044A11780B431370E2E70008004011
S1134DC0154B000044080040C2231E22F0B5002405
S1134DD04B4EDB004B49B3604B688DB093431C3A98
S1134DE0134307AD4B602A70E0B22900464B0134EF
S1134DF09847252CF8D1454B01A843600F23002484
S1134E004370434B047084700472447298472000CA
S1134E10404CA0470123F2681A42FCD08823328A0E
S1134E201B0113433382002306222B706B80AB805B
S1134E30AB71EB716B70384B2A821B689B0E3F2B56
S1134E4000D1203B2B7280239B006B81FA3BFF3BFC
S1134E502B733833EB812800304B0025984701270A
S1134E606B4668465D709F701D702D4B98470620F9
S1134E70A0472C4B9847062304AC2100237038002C
S1134E80294B676065702572657298473800274B17
S1134E90984721000320244B676065702572657272
S1134EA0257098470320214B984706232370FF233E
S1134EB02100636004201C4B65702572657298475D
S1134EC004201A4B98471A4B98471023F2681A4249
S1134ED0FCD00025174B21001D725D729D72DD729E
S1134EE0012363600633237028000F4B657025721D
S1134EF06572984728000D4B98470DB0F0BDC04629
S1134F00000800400040004159510000001BB70058
S1134F10194C0000614D000024608000E54C000045
S1134F20DD4B0000454F0000654F000009500000B4
S1134F30154B000000040040014B5878C00970472D
S1134F40000C00400823054A91690B439361012337
S1134F50034A137011781942FCD1704700040040D1
S1134F60000C0040F8B50C784B78240206000500CC
S1134F700443002B02D08023DB021C434B7A002B1A
S1134F8002D080231B031C434B68012B12D95D1EE6
S1134F901D400222002D06D01D02802335439B02B2
S1134FA007E0013552009A42FBD380232D0235439A
S1134FB05B031C430B7A002B02D080239B031C430E
S1134FC00C4FB8470028FBD10B4B98470B4B1E7076
S1134FD0B8470028FCD10A4B9D601D00B847002843
S1134FE0FCD180226B68520213401C436C60054B59
S1134FF09847F8BD394F0000A14A0000080C004052
S1135000000C0040D54A000070B50500094CA047CB
S11350100028FBD1084B9847084B1D70A047002877
S1135020FCD18023064A5B0251680B435360054B55
S1135030984770BD394F0000A14A0000040C00409D
S1135040000C0040D54A0000F7B50700184EB047E1
S11350500028FBD1174B9847174B1F700193B0479B
S11350600028FCD1154D164B6868C004C00E984743
S11350700400019B1F706B68DB02DB0F0193114B73
S11350801F70B0470028FCD1AD680F4B9847019BB7
S11350902D022D0C002B08D1012D04D9200029004C
S11350A00A4B984704002000FEBD0135EC40FAE7A6
S11350B0394F0000A14A0000040C0040000C0040DD
S11350C04D4B0000080C0040D54A0000415400003C
S11350D010B50400064B9847064B074A1C70802302
S11350E05188DB010B435380044B984710BDC046E5
S11350F0A14A0000020C0040000C0040D54A000008
S113510010B504000E4B98470E4B0F4A1C700F4B02
S11351100F4C588859880005114059805988000F50
S11351202140598011008022D2015C881442FCD1B4
S11351305A8800020A4002435A80064B984710BD21
S1135140A14A0000020C0040FFF0FFFF000C0040E9
S1135150FFBFFFFFD54A000010B50C78034B2402B3
S113516004439847024BA4B25C8010BD0151000077
S1135170000C004010B50400064B9847C021064BB4
S1135180064A1C70538809020B435380044B98470A
S113519010BDC046A14A0000020C0040000C0040B3
S11351A0D54A000010B50400064B9847064B1C7006
S11351B0064B5C88064B2405240F98472000054BBA
S11351C0984710BDA14A0000020C0040000C0040AA
S11351D0D54A000049500000D37830B5002B35D1B2
S11351E01478802C03D0802324065B0223430225F9
S11351F05478AC4306D19478002C24D18024A402A2
S1135200234341605478013C012C01D8124C2340C3
S1135210A0248DB2E4052C431C438462D0240D0CDD
S113522024062C431C438462D478002C0AD15B03EB
S113523003D59378012B0CD181615378013B012B69
S113524000D8816030BDC024E402D9E74160002366
S1135250DEE74161F1E7C046FFFFFBFF10B5030045
S11352600A004409C1090020814202D10449E00135
S113527040181F210B401E399940024B984710BD1E
S113528000440041D95100007047000010B5054B9F
S11352909847054B9847054B9847054B9847054B4E
S11352A0984710BDC94D00005149000089520000C3
S11352B08952000089520000FEE70000214822497B
S11352C070B5884204D00023204CCA18A24232D3BD
S11352D000211F4B1F4A934231D3FF211E4B1F4A0B
S11352E08B43936002220C25082430261C4B1D4856
S11352F05A62C378FC398B431343C370C378AB43FE
S11353002343C370184B987BB043060020203043DE
S11353109873987BA84304439C73987B8843024307
S11353209A738023114A51680B435360104B98477A
S1135330104B9847FEE7C55804331560C5E702C310
S1135340C9E7C04620900000000000208000002033
S113535080000020345400200000000000ED00E034
S1135360FC700041005000410048004100400041F1
S11353700583000099530000054B020019680029B9
S113538001D104491960186882181A607047C04630
S1135390BC5300203874002013B5154B9847154BA7
S11353A09847012400236A46694613705470042206
S11353B00B718A704B7108320F4B6846CA7098475C
S11353C08020032140000D4B98478020022180005B
S11353D00B4B98478020022180000A4B984780207D
S11353E0094B210080009847084B9847FEE7C046C8
S11353F08D520000954800003D3F00002527000025
S113540079220000ED290000D9230000E5340000D2
S113541072B6FEE710B5014B984710BD1540000069
S1135420704772B6FEE7FEE7FEE7000002B471467D
S113543049084900095C49008E4402BC7047C046D3
S1135440002243088B4274D303098B425FD3030ABF
S11354508B4244D3030B8B4228D3030C8B420DD3D2
S1135460FF22090212BA030C8B4202D31212090260
S113547065D0030B8B4219D300E0090AC30B8B429E
S113548001D3CB03C01A5241830B8B4201D38B034C
S1135490C01A5241430B8B4201D34B03C01A5241F1
S11354A0030B8B4201D30B03C01A5241C30A8B4234
S11354B001D3CB02C01A5241830A8B4201D38B021F
S11354C0C01A5241430A8B4201D34B02C01A5241C3
S11354D0030A8B4201D30B02C01A5241CDD2C30935
S11354E08B4201D3CB01C01A524183098B4201D3B1
S11354F08B01C01A524143098B4201D34B01C01A9C
S1135500524103098B4201D30B01C01A5241C30813
S11355108B4201D3CB00C01A524183088B4201D382
S11355208B00C01A524143088B4201D34B00C01A6E
S11355305241411A00D20146524110467047FFE7DA
S113554001B5002000F006F802BDC0460029F7D0DE
S113555076E770477047C0468446101C62468C4606
S1135560191C634600E0C0461FB501F01FFF002868
S113557001D40021C8421FBD10B501F079FE40429C
S1135580013010BD10B501F011FF002801DB00202F
S113559010BD012010BDC04610B501F007FF002862
S11355A001DD002010BD012010BDC04610B501F082
S11355B099FE002801DC002010BD012010BDC0466A
S11355C010B501F08FFE002801DA002010BD012083
S11355D010BDC0468446081C6146FFE71FB500F0B5
S11355E095FC002801D40021C8421FBD10B500F06D
S11355F027FC4042013010BD10B500F087FC0028A4
S113560001DB002010BD012010BDC04610B500F024
S11356107DFC002801DD002010BD012010BDC04626
S113562010B500F033FC002801DC002010BD01207F
S113563010BDC04610B500F029FC002801DA002096
S113564010BD012010BDC046002B11D1002A0FD17E
S1135650002900D1002802D00021C943081C07B446
S1135660024802A14018029003BDC046E9FEFFFFB4
S113567003B4684601B5029800F048F8019B9E46C1
S113568002B00CBC7047C046F0B5CE464746150480
S11356902D0C2E0080B50704140C3F0C9946030C06
S11356A07E435D43674363437F19340CE4199C468E
S11356B0A54203D980235B029846C4444B46514318
S11356C043433604360C250C24046544A4195918A4
S11356D0491920000CBC90469946F0BD9E2110B596
S11356E0C905041CFFF7A6FF002803D1201C00F005
S11356F00BFF10BD9E21201CC90500F069FD00F0C0
S113570003FF80231B069C466044F2E7F0B557462E
S11357104E464546DE46E0B5040083B00D00924691
S113572099468B422FD82CD04946504602F0DEFDD4
S113573029000600200002F0D9FD331A9846203BC8
S11357409B4600D574E053465A4693401F00534687
S1135750424693401E00AF4229D826D05B46A41B84
S1135760BD41002B00DA79E000220023009201936E
S113577001235A46934001930123424693400093E8
S113578019E08242D0D900220023009201930C9B9D
S1135790002B01D01C605D600098019903B03CBCF3
S11357A090469946A246AB46F0BDA342D6D9002204
S11357B00023009201934346002BE8D0FB077208B4
S11357C01A4346467B080EE0AB4201D1A2420CD8F4
S11357D0A41A9D41012024196D410021013E241881
S11357E04D41002E06D0AB42EED9013E24196D4145
S11357F0002EF8D15B460098019900196941002BED
S113580022DB2B005A46D3402A004446E2401C00C7
S11358105B461500002B2CDB26009E40330026003F
S11358204746BE403200801A994100900191AEE78C
S1135830424620239B1A5246DA40414613004A4608
S11358408A4017001F4382E7424620239B1A2A00FE
S113585046469A402300F3401343D5E742462023AB
S113586000219B1A0022009101920122DA40019248
S113587082E74246202326009B1ADE402F00B446CE
S1135880974066463B003343C9E7C046F0B5C64679
S11358904E024702760A7B0A4400C50FF70048000F
S11358A0984600B5240E2A00DB00000EC90FBC4642
S11358B08D4267D0221A002A00DCA5E000283AD1E4
S11358C0002F00D193E0511E002900D0BCE0012438
S11358D0DB1B5A0146D59B019E09300002F0E8FC0F
S11358E005388640844200DD9DE0041B3200202000
S11358F00134E240041BA64033005E1EB341002481
S113590013435A0704D00F221A40042A00D0043348
S11359105A0129D50134FF2C00D181E02A009B01D2
S11359205B0AE4B25B02E405580AD2072043104341
S113593004BC9046F0BDFF2CE3D080213800C9049C
S1135940084384461B2A00DD82E020206146D140C2
S1135950821A604690400200501E82410A439B1AFC
S11359605A01B8D45A07CED1DE082A00FF2C3AD106
S1135970002E00D1AEE08023DB0333435B025B0ADD
S1135980FF24CFE7211A002952DD002831D0FF2C53
S1135990B7D080203E00C0040643B4461B2900DD76
S11359A0AAE020266046C840711A66468E4031003F
S11359B04E1EB14101435B185901D3D50134FF2C6C
S11359C000D187E0012278491A405B080B40134359
S11359D097E7002C00D0A7E0002B00D0B6E03B1ED8
S11359E062D10026002273025B0AE4B29AE7140033
S11359F087E7002F4DD0481E002857D16344012467
S1135A005A01AFD50224DDE7002A24D1621CD2B2A8
S1135A10012ADEDDDE1B720135D5FE1A0D005CE7BE
S1135A202A0000237EE73300604A241A134068E703
S1135A30002963D1611CC8B201284EDDFF2949D079
S1135A4063445B080C005CE7FF2A41D00A0079E755
S1135A5001229B1A84E7002C1DD0FF2822D0802429
S1135A60E404524223431B2A00DD8AE01C00202563
S1135A70D440AA1A93405A1E934123436246040019
S1135A80D31A0D0025E7002E00D026E700220024BB
S1135A90A9E70C0035E7002B4DD0D243002AEDD006
S1135AA0FF28E0D16346FF240D002AE7FF290FD029
S1135AB0010073E7002B61D0FF24002F00D120E701
S1135AC080224146D203114202D0164200D13B004B
S1135AD0FF2416E7FF24002324E7002CEAD1002B3F
S1135AE058D0002F00D10CE763445A0100D439E7A1
S1135AF02E4A0C00134004E701215CE7002C1ED160
S1135B00002B40D0C94300290BD0FF2836D01B29D5
S1135B1047DC1C002026CC40711A8B40591E8B4157
S1135B2023436344040047E7002B18D13B1E2DD0C8
S1135B300D00FF24E5E63B0004000D00E1E6FF282C
S1135B401CD08024E40449422343E0E7002F00D121
S1135B50D7E6DE1B72011FD5FB1A0D00D1E6FF2428
S1135B60002F00D1CDE680224046D2031042AFD0B0
S1135B701642ADD13B000D00FF24C2E66346FF246C
S1135B80BFE601237AE73B000400BAE68026002240
S1135B90F603F0E63B00B4E6331E00D0E2E6002252
S1135BA021E70123BDE7C046FFFFFF7DFFFFFFFBA9
S1135BB0F0B557464E46DE464546E0B5440243003E
S1135BC0C60F83B00F1C640A1B0EB24653D0FF2BC2
S1135BD027D08022E400D20414437F22524290460C
S1135BE09844002399469B467D027800FB0F6D0A7A
S1135BF0000E009324D0FF2846D080230021ED001E
S1135C00DB041D437F384746381A4F460F43BF0015
S1135C10B9463300009A874F53404A46BA58019315
S1135C209746002C4ED108239946F7339846FD3BFE
S1135C309B467D027800FB0F6D0A000E0093DAD1BB
S1135C40002D26D1002001213300009A7A4F5340C1
S1135C504246101A4A460A439200BA581D00974613
S1135C60009B2C009A468B465B46022B31D153464F
S1135C70FF21002438E0002C17D104239946002387
S1135C80984601339B46AFE7FF20002D0BD102213C
S1135C90DAE7280002F00CFB431F9D4076235B42A9
S1135CA0181A0021AFE70321ADE7200002F000FB42
S1135CB0431F9C4076235B421B1A98460023994657
S1135CC09B4691E70C239946F3339846FC3B9B464D
S1135CD08AE7032B00D1A5E05546012B00D081E0D3
S1135CE00123002100242B406402C905600ADB075C
