S00B00004C43562E7372656334
S1130000905F0020C97700008B7900008979000097
S113001000000000000000000000000000000000DC
S11300200000000000000000000000008532000015
S11300300000000000000000513300009533000070
S1130040C5770000C577000029650000C57700006A
S113005039120000C5770000C5770000692A000046
S1130060C5770000356D0000456D0000556D00003A
S1130070656D0000756D0000856D0000C57700009A
S1130080C5770000C5770000C5770000C57700007C
S1130090C57700000000000000000000710F0000A0
S11300A0C5770000B5110000C5770000C5770000D2
S11300B00000000010B5064C2378002B07D1054B37
S11300C0002B02D0044800E000BF0123237010BDC0
S11300D02C01002000000000FCB70000084B10B504
S11300E0002B03D00749084800E000BF0748036815
S11300F0002B00D110BD064B002BFBD09847F9E72D
S11301000000000030010020FCB70000FCB7000034
S11301100000000082B0EFF310835A425341019370
S113012072B6BFF35F8F0022024B1A70019802B0BF
S11301307047C046C6000020024A1378013BDBB278
S1130140137070475301002000207047002070474F
S11301507047000010B5064A1378013BDBB21370F8
S11301601378044B98470022034B1A7010BDC04605
S113017054010020294600004A010020002805D02F
S11301800122034B1A70BFF35F8F62B67047C046FB
S1130190C60000206021124B1A7850B20A40002891
S11301A00DDA0020202A13D15A78212A10D1DA88B6
S11301B0072A0DD10B499A819960012008E000209B
S11301C0202A05D15A78202A03D0223A504250419D
S11301D07047DA88072AFBD103491961EAE7C04668
S11301E0D43D00204C010020510100000023A12136
S11301F010B50F4A0F4C237013800F4A11708139C8
S113020051701E39D180FA219380538013810B4A97
S1130210C90213715371083393711160084B9847E5
S1130220002803D023780133DBB2237010BDC0460D
S1130230E203002053010020740600204C0100203A
S11302401D460000F7B5364B1B78002B23D1354BE8
S11302509847354E354B3488002800D0344B9847A6
S1130260844218D0334B9847334B344A1C780700E8
S1130270E4B263009B5A002B16D1314D2B88013315
S11302802B80284B9847002806D12B88632B03D852
S113029038002C4B9847F7BD224B9847002803D0D1
S11302A0294B2A889A42F3D90022254B1A80274BDE
S11302B01B7893422DD1634263411F4ADBB2137012
S11302C00123174A380013701E4B98471B4B6700D5
S11302D0DB5B1D00413DFF3D6A1E9541A022EDB24E
S11302E05200934219D00F4B9847114B002800D16C
S11302F00E4B98473080A0225200544314490F4BB0
S1130300144ADB5B12190091134C29008120A04789
S1130310C1E762425441E4B2D2E700233380EAE702
S113032070060020412000006E06002045200000D9
S113033055200000150100006C060020680600200E
S1130340480100207D0100001F030000E403002099
S113035069030000E8030020D522000010B5014B1A
S1130360984710BD4502000010B500280CD1074B7A
S11303701B785A425341064A5B009852054B187049
S1130380054B1870054B984710BDC0466C060020FD
S113039068060020E40300207006002045020000E7
S11303A070B5074B9847074B074A1D88074BADB2FA
S11303B01B785B009C5A064BA4B29847601B70BD27
S11303C015010000DE030020D8030020DC03002018
S11303D07D01000010B5034B9847431E9841C0B2FD
S11303E010BDC046A1030000F7B5174B9847174945
S11303F0174B0C781D78E4B2EDB2002D06D1154EE2
S1130400154A630037889B5A9F4203D2134B98477F
S11304100020FEBD3580634263410126DBB20B70D0
S11304200B4B1E700D4B984728000D4B9847A0238B
S11304305B005C430B4A310014190B4A0220009202
S113044022000A4CA047E4E715010000DC03002069
S1130450E0030020DE030020D80300207D0100001B
S1130460D503000058010020F9040000D522000043
S113047070B50024134B144D2C701C70134B1C705E
S1130480134B1C70134B1C805C80134B1C80134B50
S11304909847134B1C70134B1C70134B1C805C80CF
S11304A0124B1C80124B9847A04209D02B78013381
S11304B0DBB22B702B78DBB2012B01D10D4A137008
S11304C070BDC0467006002054010020E4030020E3
S11304D06C060020680600206E060020450200001D
S11304E0E0030020DC030020D8030020DE0300200A
S11304F0E90300004A01002013B503001000002B9B
S113050010D10D4A127854426241D2B200290AD164
S11305104133FF335A430949094C8A180949009168
S11305200121A04713BD084889B252001152074A5D
S11305301370074B9847F5E7DC03002058010020AF
S1130540D5220000F9040000D8030020E0030020B5
S1130550E903000070B5114B98471149114A0B7813
S1130560DBB25C00A45AA022520094420FD10E4A7E
S11305701278002A0BD10D4D2A78D2B2002A06D166
S113058001242C705C4263411400DBB20B70084BF5
S11305909847A0204000001B70BDC0461501000014
S11305A06C0600206806002070060020E40300208A
S11305B07D01000010B5034B9847431E9841C0B21B
S11305C010BDC0465505000010B50020014B9847EA
S11305D010BDC046B5050000F8B5154B0D009C795B
S11305E0093C63425C41E4B20020124B9847002866
S11305F005D1114B1878C0B20028F5D1F8BD0F4BC6
S113060098470F4B0F4A1B78DBB25F00B95A4E1C58
S1130610BE52A022520053430B4AD3185D540B4BD5
S11306209847002C02D02D120024DDE70120E5E7D5
S11306304C010020B50500004A010020150100000E
S11306406C06002068060020E80300207D010000FD
S113065010B50100014B0020984710BDD9050000DA
S113066010B5034B58887F231840024B984710BDA0
S1130670D43D00204D240000F0B5164B1B78002B10
S113068001D10020F0BD144B1B681B681A7982420B
S1130690F7D9124C01262360DA789D7812022A4396
S11306A000259A189A4203D8002DEAD02360E8E77F
S11306B05F78042F0AD19F78874207D1DF788F4271
S11306C004D1002D00D023600120DBE71D785B19E5
S11306D03500E7E7880600208C06002090060020FD
S11306E0094B1B681B68DA78997812020A439B1835
S11306F002788018984201D3002004E04278042A4A
S1130700FAD0052AF4D170478C06002070B5104B3E
S113071005009847002801D1002070BD0D4B1C68CE
S113072020000D4B9847041E0AD042790379120227
S11307301A43C178094B807898470028F0D1EBE739
S1130740074BAD001B685B68EB581B689847E4E7F0
S11307507906000090060020E1060000B9200000A0
S11307608C06002070B50021104D0400A847002815
S113077002D10025280070BD0D4BA2001B685B68E8
S1130780D658F368984701002000A847051EF0D00A
S1130790084B1C682000084B9847041E03D080783F
S11307A0064B9847F6E773689847E3E77906000035
S11307B08C06002090060020E10600006520000061
S11307C010B5014B984710BDFD24000070B50B4DCA
S11307D000242B78002B0AD1002301222B70084B14
S11307E01A8070BD2000074B98470134E4B2064BD1
S11307F01B681B681B79A342F4D8EDE78806002028
S11308007E060020650700008C06002010B50B4B07
S113081000241B78002B09D110BD5B68A200D358BB
S11308201B69002B00D098470134E4B2044B1B68C9
S11308301A681279A242F0D8EEE7C0468806002072
S11308408C060020F8B50023AE4CA38123616361BC
S1130850237858B2002805DAE288002A02D100255C
S11308602800F8BD602119401ED11F22002800DB9A
S1130870B2E0E588002D17D0134074D16378062BBD
S11308800BD0082B68D0002B0ED1022D12D12900D9
S11308909D489E4B98470125E2E763881D0A022D77
S11308A03DD029D8012D34D01F2223781340012BA9
S11308B000D14FE11F2223781340022BCFD1944B58
S11308C000241B78002BCAD0924B1B681A6812793B
S11308D0A242C4D95B68A200D558EB6898478E4BF6
S11308E00100200098470028B9D0AB689847002839
S11308F0D1D10134E4B2E7E7032D27D00F2DD3D1B2
S1130900864B98680028D5D0C178837809021943AA
S113091002E0824B186801787C4B984710E07F4ACC
S1130920DBB21168497C9942C4D95268DB009858FB
S1130930C178837809021943744B9847A3685D70A2
S1130940E388A2899A42A6D9A381A4E7DBB2002B4B
S1130950AAD104217248DFE7012DABD129006C48EC
S11309606A4B98477CE7012B21D163780A2B9BD1F2
S1130970012D00D0EEE0664B1B78002B00D1E9E09E
S1130980644B26791F683B681B79B34200D8E1E0C9
S11309903000614B9847051E86D07B68B600F3583B
S11309A0DB6898475F4B012118701800D8E7022BC9
S11309B000D079E76378002B00D075E7022D00D0D2
S11309C078E7594B20799847584B2900188018002C
S11309D04E4B9847013D43E7134053D160780138AB
S11309E0082800D960E706F0DBFF10005FFF5FFF17
S11309F05FFF09005FFF5FFF5FFF1E00E388002BBE
S1130A0000D057E74A4B236145E7E388002B00D029
S1130A1050E76588012D00D04CE702213A4A13883B
S1130A208B4313801CE7E588002D00D042E7414B3F
S1130A309847002800D137E7384FA2783B685B7CA1
S1130A409A4200DD30E73C4B9847A378304A137054
S1130A50002B00D11FE7394A2E4E9B187A68DB0021
S1130A60D318336033681B681B79AB4200D812E794
S1130A7000212800324B9847002800D114E70135A3
S1130A80EDB2EFE7012B1AD163780B2B00D00BE703
S1130A90E388002B5ED11E4B1B78002B5AD026799D
S1130AA0284B300065889847002800D1FCE6E9B25D
S1130AB03000234B9847002800D0ECE6F4E6022BE4
S1130AC000D0F1E66378012B10D0032B00D0EBE6C5
S1130AD0E388002B00D0EDE66388002B00D0E9E624
S1130AE02079194B98472079184B09E0E388002BAB
S1130AF000D0DFE66388002B00D0DBE62079144BBE
S1130B009847D8E7D43D00207E0600206D240000DD
S1130B10880600208C06002079060000340000209E
S1130B20B4000020840600208521000080060020F7
S1130B30610600005D240000CD070000FFFFFF1FD9
S1130B400D07000065070000052000009921000042
S1130B5099220000124B1B78002B00D1AAE6114BFE
S1130B6025791E6833681B79AB4200D8A2E60021C0
S1130B7028000D4FB847002800D19BE67368AA00EF
S1130B80D658F368984701002800B847002800D1D8
S1130B9090E6B3689847002800D07CE68AE6C04611
S1130BA0880600208C060020790600000368587E21
S1130BB0C009704730B597B002AD040050220A490D
S1130BC028000A4B9847132C0BD80023A40001A932
S1130BD060594B70CB708B7001330B70C0B2044BF7
S1130BE0984717B030BDC046D8B3000011AB000021
S1130BF069770000C0225201C281020000232A3218
S1130C00037043704380037103760362C36183609E
S1130C100373037443748374C37403751370421DA4
S1130C2043758375D377C3840385C37526322C300B
S1130C3013700370704700008023F0B51400B84AA5
S1130C4001600600106A5B02034313620B7887B0ED
S1130C500520DB0700D5FFE00B7817309B0700D594
S1130C60FAE063783371002B04D1AE4A0433116C7B
S1130C700B431364AC4A0023166022002A323383E8
S1130C80B360F3603361B376F3763377029212780C
S1130C909A4203D1227D9A4200D10133737723789B
S1130CA005A90B701E20A14B37689847A04B1E2046
S1130CB0984723002C331B78227B0192002B33D0DE
S1130CC022002B321578019A5519EDB25B19DBB26B
S1130CD00393019BE81A039BC0B2AB421BD8E08983
S1130CE0944B9847637D9B00DBB23B70A37D627895
S1130CF0DB011343DBB27B702579302D00D1B8E0E2
S1130D0018D8102D00D1B1E0202D00D1B1E0002D74
S1130D101AD12B00ABE00F231840237B0135C018F8
S1130D20844B9847EDB2D4E70198824DA847E089F7
S1130D30A847D7E7322D09D000D29CE0332D00D14B
S1130D4090E0342D00D189E0172085E0042310259C
S1130D500222702112010A401343BB70E37D3F2B32
S1130D60F2D8FB703000744B98470028FAD162889F
S1130D70E37C1343621D0392D27FD2001343227D8E
S1130D8092001343A27C520013432B43BB80237E67
S1130D90002B07D0102D00D1B3E000D96DE0002D59
S1130DA000D19FE03000644B98470028FAD1237E9D
S1130DB03B723000604B98470028FAD1A38BBB8369
S1130DC030005D4B98470028FAD1238C3B842300E4
S1130DD02C331D78002D03D0013DEDB20F2DB3D877
S1130DE023002B3301931B780F2BADD83000524BCB
S1130DF098470028FAD1227BE3892D041343A26883
S1130E001343019A1278120513431D43029B3D615B
S1130E101B783B750F23BB75039BDB7F002B0CD02A
S1130E20E38C46498B428FD8BB848023228D1B01DF
S1130E30D3189BB28B4287D8FA84E022404B00201F
S1130E401968D2004B0119001A403E4B1B68DB0E97
S1130E500B43DBB213433B8507B0F0BD627C237CBC
S1130E60102576E706231025012272E708230022C5
S1130E706FE70023FBE70223F5E7202D18D0302D80
S1130E8000D08FE7E37CE269002B09D013008033A4
S1130E90FF2B00D958E7236A8033FF2B00D953E78F
S1130EA0FF2A00DD50E7236AFF2B00DD4CE779E7DA
S1130EB0E27CE169244B002A0CD0802292008A183B
S1130EC09A4200D940E78020226A800012189A4290
S1130ED000D939E7994200DD36E7226A9A4200DDFB
S1130EE032E75FE7E27CE169144B002AF2D080220A
S1130EF012018A189A4200D926E78020226A00014A
S1130F00E4E7E27CE169114B002AE3D0802212027B
S1130F108A189A4200D917E78020226A0002D5E78E
S1130F200004004000080040603B0020657600009B
S1130F30DD750000B50B0000AD0B0000FF0F0000D5
S1130F402460800020608000FF030000FFFF000099
S1130F5003685A7E52B2002AFBDB0222197B0A4341
S1130F601A730268537E5BB2002BFBDB70470000F0
S1130F7070B5284B1C6823681A7EDD7D154001225C
S1130F80154228D01A7621684B7E5BB2002BFBDB1E
S1130F906269931C63614B8B9BB21380238B013B6F
S1130FA09BB22383002B10D1012221688A75217FF3
S1130FB0052910D12377E37E13420CD0A37E13427C
S1130FC009D02000A368984705E0637F002B02D076
S1130FD02000114B984704231D420BD0226813763E
S1130FE0E27E023B1A4205D0A27E1A4202D02000C1
S1130FF0E368984702231D420BD022681376E27EF1
S1131000DB181A4205D0A27E1A4202D023692000BE
S1131010984770BD603B0020510F0000931C9B005B
S11310201950012393401A00837E1343837670473B
S113103070B5038B05249BB2002B0ED1057FA5420E
S11310400BD0047702830122416101681C00CA7538
S1131050427F002A01D0024B9847200070BDC04651
S1131060510F00001723002901D1037FDBB21800C0
S113107070470368D879C0097047002301220370C0
S11310804270837003714371C370837170470000B1
S11310908023F7B502271500254A01600400106A71
S11310A0DB02034313620B781C203B423FD1012334
S11310B00E7817381E403AD16A46EB7869461370A9
S11310C01C301C4B984721201B4B9847012301A936
S11310D00B703800194B4E70CE708E7098476B7839
S11310E0A6712371AB7927685A1E9341AA789B0095
S11310F02E78002A01D0042216432A79002A01D02E
S1131100102216436A79002A01D008221643DBB262
S11311103B7020000A4B98470028FAD1F6B27E7043
S11311202B7860616371074BA061E0611C60FEBDB8
S11311300004004065760000DD750000697700005A
S113114073100000643B002070B504000568027948
S11311506B7813436B702000084B98470028FAD132
S113116002232A7813432B706379002B04D1044A99
S11311700433116C0B43136470BDC046731000003C
S113118000080040704770477047000070B50400C5
S1131190160005682000064B98470028FAD1A37969
S11311A0002B02D0AE81002070BD2E81FBE7C0462B
S11311B07310000070B51E4B1C6801232568AA79C2
S11311C01A4206D0AB71637C002B02D00020A369C5
S11311D098470222AB79134229D0AA71A389002B24
S11311E01FD0E3899BB2591C89B2E181A1685B00DD
S11311F0CB181B889BB2AB81A389013B9BB2A38113
S1131200A08980B200280CD1631CD8772A71AA71F6
S11312108022084B9204DA67A37C002B01D0E36997
S11312209847237C002B02D063690020984770BD47
S1131230643B002004E100E0002370B501250B4C61
S1131240237023780F2B00D970BD29009940084AD8
S11312501069084206D01161064A9B009B58002B76
S113126000D09847237801332370EAE7683B0020D5
S1131270001800406C3B0020014B5878C0097047AF
S113128000180040022310B5044A11780B43137070
S1131290034B98470028FBD110BDC04600180040FE
S11312A079120000402307B5104A052091690B43C9
S11312B09361002301A90B700D4B98470D4B05203A
S11312C0984701230C4A11780B4313700B4B984732
S11312D00028FBD102000A4B1A5004304028FBD1ED
S11312E01022084B1A60084B984707BD00040040C1
S11312F065760000DD7500000018004079120000DA
S11313006C3B002000E100E085120000F0B507000E
S11313108BB0396008009B4B14000E0098470125E0
S1131320831C9D402B00984A1430116AC5B20B43AC
S11313301362237B08AA137011002800934B98476B
S11313402800934B9847934B207B002198473368A0
S11313501C209B0700D509E10123356817381D407F
S113136000D003E1874B386898478B498B4B049036
S11313709847049B3D769A00894B7D76D750BB1DD8
S11313807D83BD83DD7714233D6233603B6809AE02
S1131390049318007B4B984780230090E0693370D6
S11313A07F3B7570F570B370256A002803D1010086
S11313B07C4B0498984702233070000C7370C0B2C1
S11313C03100794B9847002D04D101210498754BC5
S11313D098470500022335702D0C7370E8B2724BE8
S11313E031009847A38AFB80E38A3B81227E8023D5
S11313F0002A06D16D4B02329B7813405F1EBB411D
S1131400DB01A268276917431F43631DDB7F002BA1
S113141002D08023DB051F43A36A1F4323002C3320
S11314201B78002B03D180239B049A4202D1802392
S11314301B051F4323002D331B78002B02D0802370
S11314401B041F4323002E331B78002B02D0802360
S1131450DB031F43049B00981B68FA251F43049B6E
S1131460049A1F60802314305B005360C0B2504B59
S113147098472368AD005D436368070005934D4BAF
S113148098474C4B00900191680098470290039153
S1131490484B208E9847484E069007910098019932
S11314A0464A474BB04702000B0006980799B047DD
S11314B0444E0022444BB0473E4B0690079128000F
S11314C098473D4D02000B0006980799A8473F4DE9
S11314D002000B0000980199A847029A039BB047A9
S11314E000223B4BA847029A039B3A4EB0473A4B23
S11314F0984780230290A2689B049A423ED1FA2323
S1131500059C9B005C43009A019B2E4E1000190021
S1131510B047284B009001912000984700222F4BA0
S1131520254EB0472B4E02000B0000980199B0479E
S11315300022274BA847284B9847294B061E17D053
S11315402100380098470238831B029A4020FF2A62
S11315500CD8FF2B0AD8FF20150000041B040340FD
S1131560002036063543049A2B43D3600BB0F0BDFC
S11315706100481EC0199847431EE6E70026330061
S1131580E3E7C0469D6C000000040040657600005F
S1131590DD750000FD6A00007D180000D16C0000BC
S11315A0743F0020416B0000697700000020004177
S11315B0B17600000DA60000F599000095D626E846
S11315C00B2E113E6D8D000000002440F59E00009E
S11315D00000F03F8D93000021A5000000000840AA
S11315E0B579000002220368197E114206D01A76EA
S11315F05B8B412013420AD1002008E05A8B52072A
S1131600FAD5C0221820596892020A435A607047DA
S113161070B500220126022401680B7E334002D1FA
S11316200D7E254201D0002005E00132038992B2EB
S11316309342F2D8122070BD802310B50468DB02F7
S11316406268134363606162024B98470123237607
S113165010BDC0461116000007230168CA691A426A
S1131660FCD17047F8B5056804002A68468B838B63
S1131670F61A838BB6B2013B9BB28383C37A120101
S11316800AD5002B0DD0838B012B0AD180236A68E5
S1131690DB0213436B6004E0002B02D0838B002B2E
S11316A0F4D0A38B0A4F002B09D1A37A002B06D0C8
S11316B02000B847C0236A689B0213436B60200074
S11316C0B847236A28359E192B78DBB23370F8BDEE
S11316D05916000070B506680400738B5B0703D5C8
S11316E01E230634E37770BD458B838B2836ED1AB1
S11316F0838BADB2013B9BB28383044B9847236A2F
S11317005D192B78DBB23370EDE7C0465916000043
S113171070B54B7A05000E000468002B02D0897A5C
S11317200F4B984763680F4A134000226360736845
S11317302B627388AB836B1DDA7705230635EB7751
S1131740023BA375727A3388317A5B0092031343A8
S1131750002902D08022120213430020636270BD6C
S113176039160000FFFFFBFF0122F8B54B6804683F
S113177003624B8806008383431DDA77831D04329A
S1131780DA7727684B7A3F010D00FF0F002B02D058
S1131790897A204B9847002F2FD06B88012B2CD1AE
S11317A080236268DB0213436360287A002828D010
S11317B02B886A7A5B00920313438022120213433C
S11317C063623000144B98476368144A13406360A3
S11317D0002811D13000124B984700280CD1032364
S11317E0A3752A887533120A13430122697A5B00B0
S11317F089030A4313436362F8BD6368074A1340CD
S1131800D2E70323A3752B886A7A5B009203134300
S11318100122EFE73916000011160000FFFFFBFF5D
S1131820E5150000931C9B00C318596001239340E5
S1131830017E0B43DBB203767047000010B5828B48
S113184003000520002A05D101329A72DA721800C9
S1131850014B984710BDC0466917000010B5828B34
S113186003000520002A05D101329A72DA721800A9
S1131870014B984710BDC04611170000F8B55E4BE8
S11318808000C4582568A61D2B68627E277E1B0134
S11318901740628BDB0F002A2ED1A28B002A2BD09B
S11318A001232A7E1A4206D002222B766B8B134028
S11318B010D04123F377A38B9BB26383F37F052B73
S11318C03CD1631DDB7F2000002B00D08AE04B4B12
S11318D0984733E06A8B5207EDD51822F277A38339
S11318E0A37A002BE7D0464B20009847C0236A68B0
S11318F09B0213436B60DEE7628B002A5FD0A28BEE
S1131900002A5CD1F27F052A59D1621DD27FD2B25E
S1131910002A54D103232B756283F277A37A002B18
S11319204AD0374B20009847C0236A689B02134370
S11319306B60FB0702D5E36820009847638B002B9C
S11319401BD0A38B002B18D1F37F052B15D1631D5E
S1131950DA7F012A11D1297E0132114200D02A7680
S113196003222A7500226283F277BA073CD5DA7F14
S1131970012A39D1236920009847F37F052B1AD017
S1131980F37F002B17D003232B7500236383A383DA
S1131990F37F412B0AD0A37A002B07D0184B2000E9
S11319A09847E0236A68DB0213436B607B0702D528
S11319B0636920009847F8BD01232B76B9E7628B51
S11319C0002ABBD0A28B002AB8D06A8B920600D51D
S11319D077E7002B03D0A38B012B00D171E74123C0
S11319E0F377ABE7074B73E7FA07C6D5DB7F002B2A
S11319F0C3D1E368BFE7C046743F0020D51600009A
S1131A00591600006516000082B0EFF310835A42A5
S1131A105341019372B6BFF35F8F0022024B1A70D9
S1131A20019802B07047C046C60000207F220240E1
S1131A30131E09D00F2303405B00C0091818142398
S1131A4002385843014B1B18180070479C060020AD
S1131A50F0B58D7985B06AB20E00544B2800002A87
S1131A6048DA0F2798472F400197038A8168029329
S1131A707688C3680400F618C660877C8E4225D039
S1131A808D1B4B4BADB29D4206D918000299494BB0
S1131A909847474B5D1AADB20021BB0707D5464BAB
S1131AA00299280098478BB259425941C9B202227F
S1131AB0A37C4900934319432B006268A1749219D3
S1131AC001993E483E4CA04705B0F0BD02233800C2
S1131AD0184005D062689F43A77492190023EFE76A
S1131AE001239F432368A774002BEDD02A00310003
S1131AF09847E9E798470F232B400293038A040091
S1131B000193837C37885B0711D5C2684368944688
S1131B10634403930199284B80689847029B0A0009
S1131B20013B28499B0159180398274B9847E368C0
S1131B30FA18A368E2609A4200D9E360B288BA4214
S1131B4027D1E668B34224D09D1B194FADB2019949
S1131B50BD4216D9174B380098477B1A019A9BB29D
S1131B6016481A4F9A4211D90423A27C1343A37432
S1131B70029B5A1E134B9201D218019B0299B8473B
S1131B80A2E70D4B280098476B1AE7E762689219A1
S1131B90F4E70122A37C9343A3742368002B00D1B0
S1131BA092E72A00E1680020A2E7C0462D1A00004F
S1131BB0FF1F0000957C0000C17A00006C3C0020EF
S1131BC091290000AC3B002011AB0000DD2900008E
S1131BD0052210B5054B064C1A7020008021054BD8
S1131BE0984700212000044B984710BD9A06002016
S1131BF06C3C0020172900003129000037B504008F
S1131C001D4B98478023226801AD937228001B4B1B
S1131C109847032329006B702000194B98471949F2
S1131C202000194B9847194D194B0222002120001E
S1131C30A8470022174B11002000A847164B012289
S1131C4000212000A847154D022200212000A847AA
S1131C50002220001100A847012200212000A847EB
S1131C6021680F4A0B891A408023DB0013430022AA
S1131C700B810C4B1A7037BDCD0700002D270000D7
S1131C803D270000EC3D0020252A0000C52500006A
S1131C900D1E0000C5210000E51C000015260000F3
S1131CA0FFF3FFFF9A060020032210B5074B084CF0
S1131CB01A7008492000084B98470023074A190066
S1131CC092682000064CA04710BDC0469A0600202A
S1131CD06C3C0020EC3D0020252A0000D43D00206F
S1131CE09129000010B589790C4B4AB2002A0BDA0D
S1131CF01B78012B02D10A4B984710BD042BFCD151
S1131D000848094B9847F8E71A78022A02D10232A8
S1131D101A70F2E7032AF0D1F2E7C0469A060020CF
S1131D20A91C00006C3C00201729000070B51D4D53
S1131D301D4E2B88B489E41AA4B2002C1BD11B4A73
S1131D4011885B189BB21380F2889A4203D0184B17
S1131D501B78002B07D00422164B17491A7017481A
S1131D60174B984770BD7369002B16D0984700280D
S1131D7013D02C80B4893F2C0FD9002240240C4B63
S1131D801A702B88B2680021D2180C4823000D4E1B
S1131D90B0472B88E4182C80E4E70122044B1A7026
S1131DA0EFE7C04696060020D43D002098060020A8
S1131DB0940600209A060020EC3D00206C3C002094
S1131DC0252A00009129000010B5014B984710BD49
S1131DD00D0800000122034B1A70BFF35F8F62B637
S1131DE07047C046C6000020074B9A8C920605D463
S1131DF0D021DA680A40D02AFBD170471022D96872
S1131E001142FCD0F9E7C0460008004070B5274EE7
S1131E100C003378002B06D0254B1B69002B00D017
S1131E209847002333702388082B02D0214B98470E
S1131E3070BD214C1E4D23782B7063786B70E27853
S1131E40A37812029B186B806279237912029B1883
S1131E50AB80E279A37912029B18EB80174B984769
S1131E600028E3D02B787F2B0DD90021144B2200BE
S1131E701980144B144819800223144C33703E33D8
S1131E80A047134BD3E7EB88002B01D1114BCEE7CE
S1131E9000210B4B220019800A4B0C4C19800123A2
S1131EA0094833703F33A047C2E7C0469A06002072
S1131EB0D43D0020D11B0000EC3D0020450800006B
S1131EC098060020960600206C3C0020DD290000C6
S1131ED02D1D0000A91C00000023F0B585B003AC43
S1131EE0237003336370013BA370013BE370164B13
S1131EF005001B780193834224D000280ED0265C71
S1131F00124FBB5DFF2B00D1FEE7114B9847BB5D21
S1131F100133BB55002801D00E4B9847019B002B81
S1131F200ED0E45C094E335D002B00D1FEE7084B74
S1131F309847335D013B3355002801D0054B984742
S1131F40014B1D7005B0F0BD14070020583B002064
S1131F50091A0000D51D000070B5084C084D062173
S1131F602000A84704212000A84702212000054B97
S1131F7098470220044B984770BDC0466C3C002033
S1131F80A925000089250000D91E000070B50B4B5F
S1131F9098470B4C0B4B0221200098470A4D042113
S1131FA02000A847094A0A4B062120009847062129
S1131FB02000A8470320074B984770BDE91D000087
S1131FC06C3C0020A925000089250000591F000051
S1131FD065250000D91E000010B5064C0421200020
S1131FE0054B984702212000044B98470120044BDD
S1131FF0984710BD6C3C0020A925000089250000ED
S1132000D91E000070B5040001000A4B0A48984725
S11320100A4B200098470300827C0120024207D02B
S11320201D6882439A74002D02D02200D968A84703
S113203070BDC046CD2800006C3C00202D1A000065
S113204000207047024B1B68188A8004400D7047BB
S11320506C3C0020024B1B68188A80B27047C04653
S11320606C3C0020F7B50400002701AD28000C4BA0
S1132070984720000B4B98470B4E290030000B4B20
S1132080EF702C7098470F213A0021403000084B24
S113209098473A0030002100064B9847F7BDC046E8
S11320A02D270000052000006C3C00203D27000087
S11320B0ED250000A1260000F7B5060001AC294B70
S11320C020000F001500984726700023082D10D912
S11320D00123102D0DD90223202D0AD90323402DCD
S11320E007D90423802D04D980235B009D4224D882
S11320F0FB3B637030001C4B9847032305821F4051
S1132100012F28D1013B194DE37021002800184B01
S11321109847041E1BD10F21164B020031402800A2
S1132120154FB84722003100144C2800A047012263
S113213031002800A04701200AE080239B009D4233
S113214002D8FB3BFF3BD4E70D4B9D4201D9002055
S1132150FEBD0723CDE7022FD5D0032FF7D10423EB
S1132160D1E7C0462D2700002D1A00006C3C00204A
S11321703D270000511A0000C52500001526000067
S1132180FF03000010B50100014B0248984710BD41
S1132190F92800006C3C00200F2310B50340040014
S11321A00020032B07D821000348044B9847200044
S11321B0034B9847012010BD6C3C002017290000F8
S11321C005200000F8B5294F3B78012B41D1284A5E
S11321D0284D0E881488AB89A219934201DA1E1B7C
S11321E0B6B2AB68320018192349244BA419984796
S11321F0A3B21F4C2380402E05D1214EE98832889A
S1132200D21891420FDCAB816B69002B08D0984740
S1132210002805D1052300203B701A4B9847F8BDD0
S1132220194B9847FBE7AA899A420BD16B69002B9B
S1132230F0D098470028EDD0338822889B1833804B
S11322400023238040230C4A0021104C1048A0474F
S1132250E5E7022B01D10F4BE3E7064B1B69002B8B
S113226000D0984700233B70D9E7C0469A06002067
S113227096060020D43D0020EC3D002011AB000068
S11322809806002099210000A91C0000DD29000007
S11322906C3C00202D1D00000F2370B50340060088
S11322A00024032B0ED8084B98470500074B310038
S11322B007489847AB7C0134234203D0A343AB7453
S11322C02B689847200070BD2D1A000031290000AA
S11322D06C3C0020F0B585B003921E0002000F2371
S11322E01A4002900D000192032A03D900273800F6
S11322F005B0F0BD02984A4B9847071EF6D1494BEA
S1132300029898470400484B98470123A27C1A423C
S113231004D00028EAD0454B9847E8E71343A37458
S1132320002801D0414B9847039B0222636000239D
S1132330E3600A9BA660236001231D406900A57C1D
S113234095430D4304218D436946097AA57449B226
S113235000293BDAEDB2002E26D0354BB6B29E42B0
S113236006D91800218A334B9847314B5E1AB6B20E
S1132370AB0707D5218A30002F4B984789B24842D2
S11323804841C7B20120022338404100A07C984351
S11323900843A0743300039A01992848284CA047A5
S11323A043425841C7B2A2E7154202D09543A574EF
S11323B0F0E79D43A5740A9B002B01D1012796E702
S11323C00021029A08000A9B9847F7E7002E22D0C2
S11323D0278A174DB6B23900AE4216D9154B2800DC
S11323E098476B1A9BB21548164D039ABB4209D203
S11323F00423A27C1343A374019B5A1E124B920123
S1132400D2183B000199A847CAE730000A4B984705
S1132410761AB3B2E7E7A27C9A43A274CBE7C0462C
S1132420852100002D1A0000091A0000D51D0000A6
S1132430FF1F0000957C0000C17A00006C3C002066
S113244091290000DD290000AC3B00208022024BD2
S113245010431B68987270476C3C0020024B1B6849
S1132460987A4006400E70476C3C0020014B9860FF
S113247099817047D43D0020F8B501270320164BFD
S11324809847164C164E2268042113892000BB433A
S11324901381144AB047144A00212000B047390080
S11324A0124A2000B047124A02212000B047114DC1
S11324B004212000A84700212000A847390020005B
S11324C0A84702212000A8470B4A06212000B04754
S11324D006212000A847F8BDD91E00006C3C00204E
S11324E065250000D91F0000C91D0000FD1B000068
S11324F08D1F000089250000591F000073B50F4B84
S1132500984701AC06000E4B2000984700230D4D60
S113251022000D49A37028000C4B984728000C4B4F
S113252098470C4B98470C4B012098470B4B984706
S1132530002E01D00A4B984773BDC046091A00000B
S1132540193000006C3C002000500041293000008C
S1132550552A0000E91D0000D91E0000792400005E
S1132560D51D00000B002E339B0010B51A50AA2273
S1132570044C52004900835A095B0B4383520020E8
S113258010BDC04628B40000064B4900CB5AAB210D
S1132590026849009383425A1A4342520268002057
S11325A01383704728B40000054B4900CA5AAB2175
S11325B04900435A93434352036800209A82704768
S11325C028B4000010B58C00A4183434A4000419F5
S11325D04018593004496360FF3003788A5C134320
S11325E00370002010BDC04636B400008B009B1859
S11325F0343310B59B000400C318002064185860DD
S11326005934034BFF349A5C23789343237010BDF1
S113261036B400000F2370B50B40C41861341F4E4C
S1132620FF342578B65C35432570002A0FD1026843
S1132630002B03D1FF320333937221E05B01D218E4
S113264049B2FF3202230029F6DB0123F4E7012A11
S11326500ED10268002B02D1FF320C33ECE75B0190
S1132660D21849B2FF3208230029E5DB0423E3E74B
S1132670022A07D102685B01D3181022FF339A7231
S1132680002070BD032AFBD102685B01D21849B255
S1132690FF3240230029CFDB2023CDE736B40000EE
S11326A00F2370B50B40C4181F4D6134FF34AE5C6A
S11326B02578B5432570002A0FD10268002B03D179
S11326C0FF320333537221E05B01D21849B2FF3267
S11326D002230029F6DB0123F4E7012A0ED1026864
S11326E0002B02D1FF320C33ECE75B01D21849B264
S11326F0FF3208230029E5DB0423E3E7022A07D19C
S113270002685B01D3181022FF335A72002070BD97
S1132710032AFBD102685B01D21849B2FF3240237D
S11327200029CFDB2023CDE736B40000002303705B
S1132730437083700133C370704700000F23F0B5FA
S113274004000D78C8782B406DB2042860D8226844
S113275005F01CF9030849879D00002008335B013C
S1132760D054F0BD5E019219FF3255781C206D07DC
S1132770F7D1702557782F42F3D10B385070226867
S113278008335B01D2182F3050712268D31880228D
S11327901A718A784B4B002A1BD080209A195468EE
S11327A000060443546054692043506107254A7865
S11327B09B195868444C2A40120720401043586023
S11327C049785A692940090722400A435A6100207E
S11327D0C7E79819426852005208426042695200A1
S11327E052084261E2E758011218FF32002D27DA3D
S11327F0702657781C203742B3D1567804303043C2
S1132800507018002268083040011218802010719E
S11328100724ED0F5B002B4A5B1948781B01D31882
S11328205A682040284C0007224002435A608878A6
S1132830002842D08022596812060A435A60C6E72B
S113284056781C20760700D08BE756781A38304328
S1132850507018002268083040011218402050714E
S1132860D6E758011218FF32002D08DA702657787F
S11328701C20374200D074E756781430BFE75678EE
S11328801C20760700D06CE756781938DFE758012A
S11328901218FF32002D08DA702657781C203742B0
S11328A000D05EE756782430A9E756781C207607D6
S11328B000D056E756781838C9E75A6852005208CB
S11328C05A604EE72C3E0020FFFFFF8F0F230B4082
S11328D0026808335B0149B2D218002906DA802164
S11328E011710268D3180222DA71704740215171C4
S11328F00268D3180122F7E70F230B40006808335E
S11329005B01C31849B29879002902DA8006C00F26
S11329107047C006FBE70F230B40006808335B01D8
S113292049B2C3182022002900DB10225A717047D3
S11329300F2330B50B4002685C011219FF3249B213
S1132940D579002912DA20210D420ED05171026886
S113295049181219FF32147A0C4206D01172026817
S113296008335B01D31802221A7130BD10210D42C5
S1132970FBD05171026849181219FF32147A0C42C3
S1132980F3D01172026808335B01D3180122EBE71C
S113299070B50C00056808346401655D1C266D067D
S11329A06D0F14D04D010B499B0449190D000A61A8
S11329B04A69094900260A406A616A69990C930BBD
S11329C09B030B436B6103681C1980236371300004
S11329D070BDC0462C3E0020FF3F00F070B50C00D7
S11329E0056808346401655D1C266D0713D00B4D22
S11329F049014A519B0469184A681D09084B00267D
S1132A0013402B434B604B689B0B9B034B60036849
S1132A101C1940232371300070BDC0462C3E002099
S1132A20FF3F00F0094B19605A68094911408022A0
S1132A3092020A435A605A68920B92035A604022E7
S1132A4003680020FF335A717047C0462C3E0020B3
S1132A50FF3F00F00223026811780B4313700268F1
S1132A609378022BFCD07047F0B5D74E85B0376809
S1132A703D682B78DB0900D122E12B8C002B00D19F
S1132A802DE2288CD14B80B2984703000400032028
S1132A9008335B01ED18ED79EAB20192024231D0BC
S1132AA00121CB4A94460A006546A2402D6895430D
S1132AB02A0065462A603A68D218D0713A19AE32B3
S1132AC012780A421ED0C34A600114703968595CF6
S1132AD0C14B8907890F1B18012900D0B4E059683C
S1132AE08904890C518059680901890C91805A68BC
S1132AF0920B92035A60A31C1B01FB185B68B54937
S1132B00380098470423019A1A4238D02200AE4B69
S1132B1008321868530101689C465B5C9B065B0F96
S1132B200293022B00D0A4E063465B5C9B079B0FDF
S1132B30012B00D09DE0A84F65017D192F0003955E
S1132B400837BF78FD0700D493E0A340A04A11687A
S1132B50994300231160039A937204220368634427
S1132B60DA710319AE331B78029A134207D010238B
S1132B7098494B702301C3180C709B6A984708222C
S1132B80019B13421DD00123A34091490868984337
S1132B9008603068A31801685B01CB18DA71031967
S1132BA0AE331B789B070CD58B4B62019B181F22FD
S1132BB0DB89884913404B702301C3180C709B6A4E
S1132BC098471022019B13421FD00123A340804940
S1132BD008689843230008603068083301685B0183
S1132BE0CB18DA710319AE331B785B070DD5794A1C
S1132BF0794B61015B1814705B6800211B019B0C0D
S1132C0053802301C318DB6A98472022019B134297
S1132C1000D1F9E10123A3406D49086898432300DA
S1132C2008603068083301685B01CB18DA71031956
S1132C30AE331B781B0700D4E6E166490C7024010F
S1132C400419236B9847DFE15968644D0901890C25
S1132C50518088B259688904890C91805968294047
S1132C605960002800D046E75B689B049B0C5380A6
S1132C7041E75201535C584D9B065B0FAC4667011C
S1132C80032B11D1535C9B079B0F012B0CD13900F3
S1132C90002361448B72042103689B18D971036873
S1132CA09A18102353716AE73A000023624493721E
S1132CB022000368083252019B180422DA715EE78D
S1132CC02C8CA2B20192002A2CD1AB8B55329BB230
S1132CD00293AB23FF325B00FB5ABD5A80271D4091
S1132CE0029B019C1D407F003D4B6200D35A029A17
S1132CF0134202D03268126893832B420ED03949B2
S1132D00062C04D1344B1B891B093B400B60230068
S1132D1032682E339B009B58100098470134072CCF
S1132D20E2D171E13E005936FF36019A01211A4180
S1132D30DCB20A4200D1CCE01A0008325101691811
S1132D40C81D0390C879317A0292C0B2327801402A
S1132D501140602210421AD05A01AD184022FF35AA
S1132D60287A10420DD02A72C03A14431E4A947134
S1132D706022114200D147E11B01FB18E0331B68BC
S1132D8052E02022287A1042F2D02A72EEE7102272
S1132D9010422BD01021039A11701021FA186132BD
S1132DA0FF3212780A4200D12EE10B4A590152181F
S1132DB052681B01FB1892040B49DC33920C1B680C
S1132DC00A8038003EE7C04618070020517D000005
S1132DD0280700202C0700202C3E0020FF3F00F095
S1132DE028B400001C070020200700200322104202
S1132DF02ED002205A01AD18FF352E7A064215D086
S1132E002872802581486D422C438471804CA2181D
S1132E10103252689204920C42808A0700D1F3E087
S1132E200D331B01FB185B687849CAE70126287A31
S1132E303042F2D075482E728471754CA4186268C1
S1132E409204920C028062681201920C8280E4E780
S1132E500C2210423DD008205E01AD19FF352A7ABC
S1132E6002421ED028726A4880190226857E3542A5
S1132E7002D0857EB5438576802040420443634872
S1132E80029A8471386852018218D279920700D567
S1132E90BAE00C22114200D1B6E01B01FB18D83372
S1132EA06DE704202A7A0242F3D028725848801928
S1132EB00226857A354202D0857AB5438572534815
S1132EC0029A8471386852018218D279D207E0D507
S1132ED09AE001330136082B00D026E794E004235E
S1132EE0AC8BA4B21C4226D0AB834A4B1B689C46D5
S1132EF001231D002A0061469A40114210D0190096
S1132F003A6808314901885C8006400F032807D1DC
S1132F10885C8007800F012802D15218102111719A
S1132F200133082BE6D13B00A5331B78DB0702D520
S1132F307B683800984708231C420CD00021354A8E
S1132F4030681160026893830300A5331B789B07E4
S1132F5001D58368984740231C4209D03068026831
S1132F6093830300A5331B78DB0601D54369984797
S1132F7020231C4209D03068026893830300A533E0
S1132F801B781B0701D50369984710231C4209D0FD
S1132F903068026893830300A5331B785B0701D56F
S1132FA0C368984780231C420CD00021194A30681A
S1132FB01160026893830300A5331B789B0601D537
S1132FC08369984780235B001C420CD00021114A7E
S1132FD030681160026893830300A5331B785B0695
S1132FE001D5C369984780239B001C420CD0002163
S1132FF0084A30681160026893830300A5331B7884
S11330007F2B01D9036A984705B0F0BD2007002043
S11330102C3E002028070020002201230270437068
S11330208270C370704700000023F7B504001700D6
S1133030694A0D001360694A2160106020226849C2
S113304001AEC8690243CA6101227370F37006338A
S1133050337031001820634BB27098470623310057
S1133060337019205F4B98476A46BB7869461370E2
S113307006205D4B98475D4B0620984701222B782C
S113308013432B70AB78DB07FCD40321584BDA785D
S11330908A43110002220A430C21DA70DA788A4347
S11330A0110008220A431F21DA70524A13685B0B8D
S11330B00B408B4200D10523288D4F4E0B409B01C2
S11330C0304003432B8513689B0C0B401F2B00D10E
S11330D0023B1F20298D034081430B4307212B858D
S11330E01368DB0D0B408B4200D103232A8D0B4068
S11330F042491B030A407F2113432B852B783A78DE
S11331000B40D20113432B707A782B787E390A4016
S1133110033192008B433A4813432B706862FB7867
S1133120012B4FD12268083113898B4313818022EC
S113313000215200334B984722000021231D2432E2
S113314002C39342FCD121000022A4311A605A60C8
S11331509A60DA6010338B42F8D11A702300210090
S1133160A5331A7000220133AE311A701A7201337A
S11331708B42FAD1230022000021B833D43202C397
S11331809342FCD1210000225531FF311A605A606C
S11331909A60DA6010339942F8D1AA235B00E252B4
S11331A00233E2522300002259336134FF33FF34E7
S11331B01A701A7201339C42FAD18022124B0020F9
S11331C01A60FEBD002BB2D10C2522681389AB43D3
S11331D019431181ABE7C0462807002018070020D7
S11331E0000400406977000065760000DD7500008A
S11331F000500041246080003FF8FFFFFF8FFFFF75
S11332002C3E002023AB000000E100E0002382B04C
S11332100193064B1B68013301D072B6FEE772B608
S1133220019B002BFCD002B07047C046B8000020C0
S11332300B4A13681868203080F30988022080F351
S11332401488BFF36F8F3FBCAE4608BC04BC62B6A3
S11332501847C046C046C046C046C046C046C046E1
S1133260D039002010B58024031F64041C60043B83
S113327019600349043B1960143B40381A6010BDBF
S11332800D32000070470000FF2210B50E4B1204EF
S1133290196800240A431A60FF22196812060A43B7
S11332A01A600A4B0A4A1C600A4914600A4A1160EF
S11332B007221A60094B1C60094B9847094B984731
S11332C0094B9847200010BD20ED00E010E000E01D
S11332D018E000E07FBB000014E000E0B80000202C
S11332E0313200002D5D00000D3200008022044BBD
S11332F052051A60BFF34F8FBFF36F8F7047C046FC
S113330004ED00E072B6044A136801331360BFF39E
S11333104F8FBFF36F8F7047B8000020054A1368C2
S1133320002B01D172B6FEE7013B1360002B00D1E4
S113333062B67047B8000020EFF3108072B6704791
S113334080F31088704700000000000000000000B7
S1133350EFF309800E4B1A6820381060F0C0444621
S11333604D4656465F46F0C008B572B602F0DEFC24
S113337062B60CBC116808681030F0C8A046A946B3
S1133380B246BB4680F309882038F0C81847C046C7
S1133390D039002010B5074B9847074B04009847D5
S11333A0002803D08022054B52051A602000044BEC
S11333B0984710BD39330000695A000004ED00E05D
S11333C04133000010B5104B1A68824219D35C686F
S11333D01919884203D141681800091959604168D4
S11333E04418A24208D1094C2468A24204D052686D
S11333F0521842601A6812680260984200D018603D
S113340010BD1300E0E7C046243600203407002036
S1133410F7B53A4B04009847394A3A481368002BE9
S11334201DD139490733194235D0CD189D43374B47
S1133430C9184B1B29000025354ECB187560316027
S11334400726083BB3431D605D605D1A136028C105
S1133450304B1D60304B1D6080231B0603600668E3
S1133460344216D1002C14D02300072108330B4218
S113347001D08B430833002B0BD0274F3D68AB4260
S113348007D823490C686068834206D812689442BE
S113349009D1002526E01D4BCDE720680028F5D092
S11334A021000400EFE70A68019222680A6062685A
S11334B0D21A102A08D9E018410701D072B6FEE7E3
S11334C042606360154B9847124A63681168ED1AAD
S11334D03D608D4200D215601E430023019D66604D
S11334E0083523600E4B9847002D01D10D4B9847AA
S11334F06B0701D072B6FEE72800FEBD4D5A0000EE
S1133500340700201836002038070020E02E000081
S113351024360020203600201C360020C53300004D
S1133520855B00007D79000010B500281BD00E4A91
S113353008384368126804001A4201D172B6FEE7E3
S11335400168002901D072B6FEE793434360074B3C
S11335509847074A6368116820005B181360054B9D
S11335609847054B984710BD183600204D5A000067
S11335701C360020C5330000855B000010B5002117
S11335800D4B9847002816D10C4B0D491A8892B25E
S11335900A805A880B4992B20A8099880A4A89B2E9
S11335A01180D98889B25180198989B291801B8A86
S11335B0064A9BB2138010BD651000002C36002013
S11335C06236002064360020663600206036002013
S11335D010B5054B1B78002B04D00922034904487D
S11335E0044B984710BDC0466C3600202C36002092
S11335F0403600203110000010B58CB06846224BD4
S113360098476A4602231373C0235B01D3810023C6
S11336106946D37401220A70C022D2004A80032270
S11336204A7028326A4413700922184C0B710293B1
S11336300BAB1A701649174B6A462000984723684B
S11336405A7E52B2002AFBDB8021134A090411601E
S11336500F229A751A7619780D3A0A431A7022685D
S1133660537E5BB2002BFBDB0C49200000220C4B89
S113367098470122E37E1343E3760A4B1A700A4B00
S113368098470CB010BDC046F50B00004036002032
S113369000400042390C000000E100E07D350000EC
S11336A01D1000006C360020D1350000F8B5002153
S11336B00220134B9847134B1888134B80B298473A
S11336C0124C0022124BA047124C134A134BA04732
S11336D0134A144BA047144DA847144EB047144F37
S11336E00022144BB8470022134BA0470022134B6F
S11336F0A047A847B047124A124BA047A847F8BDB5
S11337007D3700006636002089A500008D930000F7
S113371000FEAF40F59900006666666666660A407C
S1133720F6285C8FC2F5F83F21A700007DA60000B3
S1133730F59E00000000E03F000014400000D03F70
S1133740CFF753E3A593514010B5064B1888064BA9
S113375080B298470022054B054CA047054B98477B
S113376010BDC0466436002089A5000000FEAF40AD
S11337708D93000021A70000002070471F2807D860
S1133780064A0123002904D0834011680B431360C7
S113379070478340116899431160F9E7703600203F
S11337A000231F2807D801228240044B1B681340C2
S11337B0581E8341DBB218007047C04670360020A3
S11337C0024B1868431E9841C0B2704770360020FF
S11337D0F0B5070085B03C4E00690C00B0473B4D86
S11337E002000B0000203A49A8473A4B9847226848
S11337F0A368051C9818384B9847384B011C281CA3
S113380098470021364B051C9847364B011E00D0C3
S113381001210620984778780A2827D9B047324AE8
S1133820324B334EB047334F00900191281CB847B8
S1133830002202900391009801992F4B2F4DA84725
S1133840224D02000B0002980399A847214B984788
S1133850051CB847009A019BB047294B9847294B50
S1133860E060281C9847606005B0F0BDB0471E4A70
S11338701E4B1F4EB047154E02000B0000201E4980
S1133880B047144B98471B4F061C281CB8470090A0
S11338900191301CB8470022174B184DA8470B4D17
S11338A002000B0000980199A8470A4B9847164B51
S11338B0011C071C301C9847124DA8476060381C37
S11338C0A847E060D0E7C04689A500008D930000BA
S11338D0004CED4021A70000CD8C0000558900006C
S11338E0C57C00007D3700009A9999999999B93F50
S11338F0F59900007DA600000000F03F6D8D0000EA
S113390021A500008D8C000015870000F0B5854BC3
S113391089B0019207000C009847834B1A78834BB7
S1133920002A03D13A7DD20700D518601B682668A7
S11339300293C51AB5421DDABB682361BA680393C2
S1133940FB68981A7A4B9847794B0490280098475B
S1133950774B051C30009847764B011C281C984770
S1133960754B011C04989847744B9847039BC018E7
S1133970206106E06368F018854200DBA0E0FB6884
S11339802361029A694B60691A6023690393181AC8
S1133990674B98476A4B029019686A4B9847664B85
S11339A069499847694DA847694C04900591206876
S11339B0A8478022674DD205674BA847674D020090
S11339C00B0004980599A847654B98475B4D0490F4
S11339D020600298A847C317C0185840544B984712
S11339E0019B59695F4B98475F4E002800D196E0D0
S11339F031685E4B02989847019B30609B68041CB9
S1133A000693019B06991B6907934B4B9847A8475C
S1133A10C317C0185840464B98470799544B9847CA
S1133A20002810D0201CA847C317C0185840404B8A
S1133A309847404D011C201CA84707993E4B9847C6
S1133A400699A84730603A4B03989847019B3A4C33
S1133A501968A047019B061C59680298A047434D6A
S1133A60011C301CA847404B061C1968019B986830
S1133A70A047011C301CA847019B061CD968049868
S1133A80A047011C301CA847019B394D9E69041CAA
S1133A90311CA847002800D0341C019B211CDE697E
S1133AA0301CA847002800D0341C254B029A201C47
S1133AB01A6001223B7D13401B4A137009B0F0BD0C
S1133AC0A66883199D421FDAFB68281A0393184DD0
S1133AD02361A84704903000A847164B011C0498A2
S1133AE09847FA68BB68061C981AA847124B011C31
S1133AF0301C9847061C0398A8471C4B011C301C1B
S1133B0098470E4B984733E7E2689B18BA682261DE
S1133B109D4200DA35E7029AD318029331E7002375
S1133B20336090E75D5A0000843600208036002020
S1133B30CD8C000035830000158700008D8C0000BB
S1133B407C360020558900003333333F7DA60000C6
S1133B5074360020F59900003333D33F6D8D000097
S1133B6021A70000C57C00007836002011800000E9
S1133B70ED7C000010B5031E04D041180020044A57
S1133B808B4200D110BD1C7801336040105CF7E714
S1133B903AB4000010B50C490B784C781B028878B5
S1133BA01B191B02CA781B181B029B18074A1360B7
S1133BB00B794C791B0288791B191B02C9791B18D4
S1133BC01B025B18536010BDB836002088360020F5
S1133BD0802270B58EB001AC9203226101222C4B7D
S1133BE0524263600023E282A2820A326A44D3779B
S1133BF00CAA137031226A44137032226A44A360FF
S1133C002376A3621370D7332386D63B23734F33B3
S1133C1001933A3BE361013323621E4D22001E49A6
S1133C2028001E4B98470028F7D107222E68F46914
S1133C301440FCD102233268134333602868184BC4
S1133C4098471F2318401E3B8340164A13601022D6
S1133C50E888718B114203D101348442F9D3728311
S1133C60280001221049114B984702236A7E10490B
S1133C7013436B7601230B804B8000230D4A4B7258
S1133C800B7228000C4B4A6098470EB070BDC046BA
S1133C90480D000090360020001400420D1300006F
S1133CA0096D000000E100E0953B000025180000CC
S1133CB0CC360020BC0000205D180000012306491A
S1133CC010B50B804B800023044A4B720B720448DE
S1133CD0044B4A60984710BDCC360020BD0000203C
S1133CE0903600205D1800000123074910B50B80B1
S1133CF0064B07484B6008234B8000234B720B7222
S1133D00044B984710BDC046C0360020B83600208A
S1133D10903600203D180000014B06CB06C07047CA
S1133D20883600207047000070B5040086B016295C
S1133D3027D1457D04390330134B9847854220D160
S1133D40012101AD2B78E2788B430A4013432B7099
S1133D5023790E4E611D042202A86B70B047210026
S1133D600422093103A8B047210004220D3104A81C
S1133D70B04721000422113105A8B0472800044BA4
S1133D80984706B070BDC046753B000011AB0000FB
S1133D90F147000073B50F4B984700240B20012511
S1133DA00D4E01A90D4B4D708C700D7030707470F8
S1133DB0B470984732785309D109A14207D11F2121
S1133DC00A409540064ADB019B189D6173BDA461BE
S1133DD0FFDEC04681440000D8360020996D000003
S1133DE0004400410322002110B58AB004AB1A70CC
S1133DF059709970019316230293074B0749039353
S1133E006846074B984700980199029A039B054C12
S1133E10A0470AB010BDC046293D0000D836002096
S1133E2011AB000031450000F0B58BB06A460623A3
S1133E301370012304AC06932D4B06002D4F0592FD
S1133E402D49032220000793B8476168A268E368FC
S1133E5004982A4DA8472A4B00209847294D32221E
S1133E6000230021A8470023274A284D80185941E0
S1133E70274A0023A847274B98470223237000238F
S1133E806370002304251520A3703378311DDB07EC
S1133E90DB0FE37073782A0068442371B84731005C
S1133EA019202A0008316844B84731001D202A002F
S1133EB00C316844B847310021202A00103168448D
S1133EC0B847132012216844134B984716230293D2
S1133ED0074B607503220849684601940393B84769
S1133EE000980199029A039B044CA0470BB0F0BDC3
S1133EF0253D000011AB0000D836002031450000FC
S1133F0055750000D17D0000BFCF6A00917D00008F
S1133F10C0CF6A0001000020753B0000F0B585B0F9
S1133F20002860D1334E344C344D2100142230002B
S1133F30A84730002100142228311430A84721005A
S1133F402F4E143114223000A847210030003C3198
S1133F5014301422A84700242023264AA25C062AEF
S1133F6001D8244AA354264A125D062A01D8244AB9
S1133F7013550134282CF0D1224B234A00259446B2
S1133F805A60032218005D721D721C805A8001AAB7
S1133F90C2C8C2C2614601989A681C4B98471C4B20
S1133FA0144A19005D721D721C805A605C8001AA5B
S1133FB0C1C9C1C20F4901989A68144B9847154B5F
S1133FC00F4A19005A605D721D721C805C8001AA40
S1133FD031C931C20A499A6801980C4B98470123A8
S1133FE0180005B0F0BD00230128F9D1014E0A4C98
S1133FF09AE7C04656370020A637002011AB0000D0
S11340007E37002044370020BE000020194C0000F9
S11340100438002010380020DB3600207FB5431E12
S11340200022312B16D8FE230C49887028200B70EF
S1134030AC3B4B700A4B18802538588018005A72D4
S11340401A72596001AA70C870C29A680198054B27
S113405098470122100004B070BDC04650370020BC
S113406038370020194C00007FB5431E0022072B6F
S113407016D8FE230C49887028200B70AB3B4B707C
S11340800A4B18802538588018005A721A725960E1
S113409001AA70C870C29A680198054B984701221A
S11340A0100004B070BDC046533700202C370020E8
S11340B0194C0000134B144AF0B594465A6000247E
S11340C028250222180085B05C721C721D805A805B
S11340D001AAC2C8C2C261469A6801980B4B9847AC
S11340E00B4B0820984728000A4B984713220A498B
S11340F00A4B0B48984720000A4B9847012005B00B
S1134100F0BDC046F8370020C1000020194C000063
S1134110694000001D4000003AB5000011AB0000EA
S1134120A63700201D3F0000F0B58BB005AD354B20
S113413007002800039198476B78202202930023FC
S1134140314C1A550133502BFBD12A782F4B30496F
S1134150D20700D42F492000984720002E4E6B68C8
S11341602E4A0A210A30B04720002D4AAB680D219F
S11341701430B0472B4B0A21029898470A22C3B245
S1134180200052425A43029920308A18D2B2009237
S11341900921254AB0472000EB68244A0D21283024
S11341A0B04720002B693430214A0721B0470398D7
S11341B0013803280AD8144C1E4D03F0E7FB02090A
S11341C00E1320003A691C493C30A8470BB0F0BDDF
S11341D02000BA683C301949F7E72000FA683C30FF
S11341E01749F2E77E780A2130000E4B98470A23DC
S11341F0C2B220005B425343F318DBB211493C3096
S1134200A847E3E7DD470000A6370020DDAB000048
S113421087B500008FB5000035AB000098B50000ED
S1134220B9B50000B57900009FB50000CAB500001B
S1134230AEB5000099AB0000AAB50000B5B500000A
S1134240C6B50000D6B500000023202270B51D4C71
S11342501A550133502BFBD11B4920001B4DA84795
S113426000201B4EB047002803D0200019490A3013
S1134270A8470220B047002803D020001649143074
S1134280A8470320B047002803D0200013491E305C
S1134290A8470420B047002803D020001049283044
S11342A0A8470520B047002803D020000D4932302C
S11342B0A8470620B047002803D020000A493C3014
S11342C0A84770BDDB3600204EB50000DDAB000012
S11342D0A137000056B500005BB5000064B50000CE
S11342E06DB5000076B5000080B5000010B5002162
S11342F00320064CA047064B98470649064B9847AF
S1134300011E00D001210420A04710BD7D3700000C
S1134310793700000000C842ED7C00000122014B07
S11343209A617047004400410122014B5A61704771
S113433000440041F7B51B4B0021041C984700289A
S11343402ED1FE21201C8905174B9847002800D048
S1134350164C174D174B286817499847174EB04706
S113436000900191201CB0478022154C1206154B79
S1134370A047154F02000B0000980199B847134B52
S113438098472860B0470022114BA047114B98472B
S11343908205920D0021104B104898472868FEBDF5
S11343A00F4CD6E7C57C0000ED7C000072F97F3F1E
S11343B01C38002015870000CDCC4C3F7DA60000A2
S11343C0F59900009999C93F6D8D000021A700005F
S11343D000F88F40557E00008D1100002038002029
S11343E0ACC527377FB50125124B02AC5D6101A82E
S11343F0114B98472000114B984740230026E57045
S11344000F4D2370220028000E490F4BA6706671D1
S1134410984701AA310028000C4B98473100280026
S11344200B4B984728000B4B98470B4B00209847A1
S11344307FBDC04600440041851100007B10000090
S1134440203800200048004291100000871100002D
S113445089110000491100003543000010B5054CD6
S113446000222100044B9847E3680448A168984758
S113447010BDC04644380020E967000054380020CD
S113448070B58EB000216B460125197459749D7462
S1134490DD7419751D700533D9770C221B4B06A8E2
S11344A001910291984780239B03039380235B002F
S11344B00A93DB180B938023DB000C9301235B42EC
S11344C0134C0D93134B6A4606931349134B200068
S11344D098472668124B300098471F2318408540A0
S11344E0104B1D602268D369002BFCD10222336873
S11344F02000134333600C490C4B98470423373492
S11345002278134323700EB070BDC04623AB000065
S11345109438002080841E0000080042E1650000F9
S1134520096D000000E100E05D44000081680000C6
S11345307FB5124C0393A36800906D4601910292DB
S11345400020402B18D8230007CD07C32A680C4E3F
S11345501A6061680B4BA268300098470A4D21002D
S113456001220A4B28009847A368094A9BB23100EC
S11345702800084CA047012004B070BD4438002036
S1134580D038002011AB000094380020E967000007
S1134590543800209968000010B5014B984710BDAD
S11345A0C107000070B5194B86B01B780500019156
S11345B0002B29D0010009205E23154E02AC1431D2
S11345C0042268442370B04729000D2010310422CE
S11345D06844B0471120042201A96844B04700236D
S11345E063730133E15C627B0133521862730D2BF8
S11345F0F8D1084B9847002806D00025605D064B8B
S1134600013598470E2DF9D106B070BD1039002040
S113461011AB0000C9050000510600000120014B48
S113462018707047103900200022014B1A7070472F
S113463010390020F0B501258DB0404B9847404C0F
S11346400E222378A260AB4323701E236370E360C1
S11346500A3B23613B4B984705203B4B984723007B
S11346602200143343CA43C303CA03C3C823374EC7
S113467020003360B3603100354B9847354B984781
S1134680354B364A04930992354B364A05930892C2
S11346900023FE220793069392050B93324B03905B
S11346A00A9298470A2103A8304B9847304B984701
S11346B08022304B9203196A114238D19A612E4BF1
S11346C098472E4B9847237D2840AB4303432375DB
S11346D02378AB4318432A4B2070984729492A4B27
S11346E098472A4FB8472A4BA06160609847B8475B
S11346F0284B70619847284F3B78002B04D0274BF8
S11347002000984700233B70254B04AA3100200069
S11347109847237D0190234F2B420AD0224B984780
S11347200198B847214B011C30009847BAE75A61F9
S1134730C5E71F4B98470020B847B3E7953D0000F5
S113474030390020E53D0000E95C00001839002004
S1134750D13700005D5A0000295C8F3D00002041E4
S1134760A69B443B9A99993EE5430000715C000086
S11347701565000000440041D13500007549000072
S1134780154F000000007A44158700008D8C00004E
S1134790AD360000ED420000C3000020293E0000B9
S11347A00D390000354300001D430000A5450000FD
S11347B02943000013B5054B020001930091002327
S11347C00349044C0448A04713BDC04614390020D3
S11347D0E7B500002157000035460000020030B55F
S11347E0024B32CB32C212CB12C230BD3039002060
S11347F00300074870B5020032CB32C212CB12C29A
S11348000122044B04491A70044B984770BDC046FA
S113481030390020C300002018390020D1370000AF
S11348200123024A11784B4013707047C4000020E2
S113483070B5144B86B000930023134C1A001E214C
S11348401248A0470125124C6D422060114B2A00EA
S1134850186803A9104B98470128F7D103A90F4BF7
S11348600F4898470F4B266898470023020000938F
S1134870022130000C4EB0470C4B18680C4B984783
S1134880E4E7C046B5480000816100000DB60000B1
S1134890843900208C390020355400005D18000054
S11348A05C3900205D5A0000C56100009039002089
S11348B0C95D000010B5024B1868024B984710BD43
S11348C090390020DD58000070B5094C094D23785B
S11348D0002B09D1084B9847002801D101232370EC
S11348E023780120002B00D00020A84770BDC046CB
S11348F0C40000201D3F0000C137000010B5063081
S1134900C37F024B1868024B984710BD90390020B2
S11349105959000037B50E4B0D00040000220C213C
S11349200A2098470B4B220018600B4B009501930B
S11349300A4C00230A490B48A04780220A4B0095E1
S113494001935200002309490948A04737BDC046D6
S1134950D15100008C390020583900202157000023
S1134960EFB500009549000090390020F3B5000030
S113497031480000024B186A0005C00F7047C0465A
S113498080440041024B186AC004C00F7047C046FF
S1134990004400418022F0B593B005AC920322613B
S11349A00122774B52426360002302A9E282A28271
S11349B012325218D37710AA137039225218137076
S11349C03A225218A3602376A3621370D733238646
S11349D0D63B23732C3305931D3BE36101332362E0
S11349E0684D220068492800684B9847021EF7D199
S11349F08021C023C220664EC9005B00F1508000B4
S1134A003358644F3B403350634F3160280063494F
S1134A10B847022261492800B84701236A7E2F68FB
S1134A2013436B7604236A7E13436B760723FA6978
S1134A301A400392FBD102233A6813433B6028686F
S1134A40574B98471F2318401E3B83401022336066
S1134A50E888039B798B114203D101338342F9D354
S1134A607A83504B9847504B012200931E21002318
S1134A704E484F4EB0474F4D071E07D0A84700235E
S1134A8002000093380001214B4FB847FA214B4BE9
S1134A9001220093C90000234948B047061E07D0ED
S1134AA0A84700230200009330000121424EB04782
S1134AB0A847059014212000424B9847424B984741
S1134AC0424B07001B78424D424E002B0BD100286D
S1134AD009D02878042805D802F058FF03101214CE
S1134AE0160001232B703C4B9847031C287804289C
S1134AF043D802F04BFF180E212C37000223F1E7B4
S1134B000323EFE70423EDE7344B300098470023F9
S1134B10E8E73349181C334B98473349334B9847DC
S1134B20334B98473061294B29781F703000314B43
S1134B309847314B9847BDE73049181C294B984793
S1134B402F492A4B98472A4B9847B060EBE72D49E9
S1134B50181C244B98472C49244B9847244B9847BE
S1134B60F060E0E72949181C1E4B984728491F4B61
S1134B709847284B98477070D5E700232B70D2E7ED
S1134B80480D00005C390020000C00420D130000A9
S1134B9000E100E0FFFF00FF25180000FD480000D1
S1134BA0096D0000B5400000C9480000F7B50000D9
S1134BB0816100005D5A0000C561000021480000C9
S1134BC002B60000715C00008549000088390020AD
S1134BD0A83900209439002049370000F14700002B
S1134BE000005842158700000000C04011800000FA
S1134BF08D8C0000294100004942000000008841DA
S1134C00000040400000C8410000204100000C4268
S1134C100000A040257E00001FB5064B01901868D7
S1134C2002910392002804D0002301A91A00024C27
S1134C30A0471FBD8C3900202152000010B58024EC
S1134C40E4036420034B9847034B9847034B5C6190
S1134C50F7E7C046E95C0000C1370000804400412A
S1134C6013B5054B02000193009100230349044C42
S1134C700448A04713BDC046AC39002019B6000053
S1134C80215700003D4C000010B5014B984710BD62
S1134C90BD3C0000F0B5574B8BB09847564B06907F
S1134CA008A89847554B08989847554E554A564B6F
S1134CB0B047564B9847564B07909847554F04902A
S1134CC00591554B386855499847514B9847802270
S1134CD004000D0004980599D205514BB047020019
S1134CE00B00200029004F4CA047484B98474E4AE0
S1134CF0069B126838600390981A4C4B9847414AB7
S1134D00414BB047414B9847414B984704000D0035
S1134D1004980599464A474BB04722002B00B047F8
S1134D20454B049005911868394B98473D4F020054
S1134D300B0004980599B847344B98473E4B1860CC
S1134D403E4B07989847C317C01858402B4B9847B9
S1134D50374A384BB04722002B00B0470022384B6B
S1134D60B047384E04002A4B30680D0098470200C3
S1134D700B0020002900B847244B98470024324BED
S1134D80071C1B783060314D211C0398002B20D068
S1134D902F4B9847002808D0211C28682D4B984792
S1134DA0002802D00023284A1370039B1E4A2B605C
S1134DB0069B1360284B9847284B1C680D4B98475B
S1134DC000230200009302212000254CA0470BB0D1
S1134DD0F0BD244B98470028E7D0211C2868224BBB
S1134DE098470028E1D0214B34601F60124B1C60AF
S1134DF0DBE7C0465D5A0000193D000089A50000AC
S1134E00F5990000FCA9F1D24D62503F21A70000A2
S1134E107DA60000B0390020158700003333333FEE
S1134E203333D33F6D8D0000C03900200DA6000040
S1134E30111111111111913FB43900208D8C000012
S1134E400000E03FCC390020C5000020BC39002020
S1134E50ED7C0000D97C0000E93C0000B83900205A
S1134E60C5610000C57C0000017D0000C43900203C
S1134E7037B5134B9847134B9847134B01220093B4
S1134E800A2100231148124CA047051E08D0114BDB
S1134E909847002302000093280001210E4DA847E3
S1134EA00E4B0521009300230D481A00A047FA2455
S1134EB00C4BA400186020000B4B9847FBE7C0463E
S1134EC0D13B0000F9350000954C000028B60000E5
S1134ED0816100005D5A0000C5610000894C00003A
S1134EE02FB60000B8390020E95C000013B5054B6B
S1134EF002000193009100230349044C0448A04795
S1134F0013BDC046C839002021B600002157000057
S1134F10714E0000014B18687047C046C439002028
S1134F200300012208334360C3600361002352423B
S1134F3082600360704700230361704743684B60DD
S1134F409A688A609A6851609960086103680133BD
S1134F500360704703000A6830B50833541C0BD152
S1134F6003695A684A6091608B60596008610368FC
S1134F700133036030BD23005C682568AA42FAD27D
S1134F80EFE7426881680369916082684168516013
S1134F905A68904201D182685A60002202611A68FC
S1134FA0013A1A601868704710B50400034B98471B
S1134FB0A46B034B98476042604110BD0533000069
S1134FC01D33000070B51600026C0400856B002AC6
S1134FD00AD106681000002E03D16068154B98476B
S1134FE066600135A56370BD134B002E0CD180683B
S1134FF09847A368226C30009B186268A3609342B0
S1135000EFD32368A360ECE7C0689847236CE26899
S11350105B422168D218E2608A4202D26268D318E5
S1135020E3600020022EDCD12B005A1E9341ED1ABE
S1135030D7E7C0461560000011AB0000F7B5846CDB
S113504001900A00002C01D172B6FEE7A16BE36B5C
S1135050994201D372B6FEE7A16B00268B4214D9A4
S1135060270001A9453720000B4B3D7898476DB2C6
S113507006006B1C0BD1636A002B06D02000074B83
S113508024309847002800D001263000FEBD0135A9
S11350906DB23D70F9E7C046C54F0000E55E000003
S11350A0030010B51A6C0800002A0AD0D9685C689D
S11350B08918D960A14201D31968D960D968014B14
S11350C0984710BD11AB0000F8B5040026001C4F32
S11350D04536B84735786DB2002D0EDCFF233370AA
S11350E0184EB047B847270044373D786DB2002DBD
S11350F018DCFF233B70B047F8BDA36C002B09D02C
S113510000212000104B9847002801D00F4B9847EE
S1135110013DE0E7636A002BE0D020000C4B243013
S11351209847F1E72369002BE3D02000084B1030A7
S11351309847002801D0054B9847013DD6E7C04663
S1135140053300001D3300003D500000E95F0000FE
S1135150E55E000070B504000D00002801D172B6B0
S1135160FEE7164B9847216CE36B22684B43D0183B
S11351705B1AD318E36023006060A2600020FF2262
S11351804433A0631A705A7085420ED12369834256
S113519007D020000A4B10309847002801D0094B53
S11351A09847094B9847012070BD2000074D1030E7
S11351B0A84720002430A847F3E7C0460533000081
S11351C0E55E0000ED3200001D330000214F0000B9
S11351D0F8B506000D001700002801D172B6FEE7ED
S11351E0080070430C4B54309847041E0DD0002D1A
S11351F00DD12060094BE663256401212000984706
S1135200230050331F700023A3642000F8BD030063
S113521054330360EEE7C0461134000055510000DA
S1135220F0B589B0041E02910592019301D172B6C2
S1135230FEE7029B002B00D074E0036C002B00D12E
S113524070E072B6FEE7636A002B5BD020003E4B31
S11352502430984756E0059D002D02D1B847002020
S113526056E0002E02D106A8384B9847B847384B71
S11352709847384B98472200443213785BB2013385
S113528001D1002313702200453213785BB201333D
S113529001D100231370B84705A906A82E4B9847DF
S11352A02E4E2F4D002839D12A4B9847A36B0393D8
S11352B0E36B0493B847039B049A93422AD12000DA
S11352C005991030274B98472000B047A84700287D
S11352D001D1254B984701261E4B9847A36BE26BDF
S11352E0224F934202D3019B022BB4D1204B019A4B
S11352F0029920009847A36C002BA4D001992000A8
S11353001C4B9847002801D0174B9847B8470120F9
S113531009B0F0BD2000B047A847DCE72000B04743
S1135320A8479CE7019B022B02D1E36B012B09D117
S1135330114B984700260028CED1059E002ECBD0D5
S113534072B6FEE772B6FEE7E55E0000615F00003C
S11353504D5A000005330000795F0000C950000079
S1135360855B0000815E0000ED3200001D3300000B
S1135370C54F00003D500000F55F0000F0B585B05A
S11353800400019117001E00002801D172B6FEE747
S1135390019B002B1BD1036C002B18D072B6FEE7C7
S11353A0002F38D001253D6003981D4B98472800F5
S11353B005B0F0BD636A002B2DD02000194B2430BA
S11353C0984726E00135029B6DB21D7023E0022E42
S11353D002D1E36B012B20D1134B9847A36BE26BF3
S11353E00390934202D30025022EDDD123004533DE
S11353F002931D7832006DB20C4B0199200098473E
S11354006B1CDFD1A36C002BD4D031002000084BDF
S113541098470028C4D10125C6E772B6FEE7C04606
S113542041330000E55E000039330000C54F000041
S11354303D500000F0B585B0041E0091019201D1E9
S113544072B6FEE7009B002B66D1036C002B63D081
S113545072B6FEE7019D002D02D1B84700204DE051
S1135460002E02D102A8314B9847B847304B9847D9
S1135470304B98472200443213785BB2013301D198
S1135480002313702200453213785BB2013301D13B
S113549000231370B84701A902A8274B9847274F48
S11354A0274D284E00282FD12000B847002827D0A8
S11354B0200001992430244B98472000A847B04786
S11354C0002801D1214B984701261A4B9847A56B18
S11354D01F4F002DBED01F4B00992000013D98475F
S11354E0A5632369002B07D020001B4B103098477D
S11354F0002801D0154B9847B847012005B0F0BDEE
S11355002000A847B047DFE72000A847B0472000A5
S1135510B8470028D8D0A1E7104B984700260028A8
S1135520D3D1019E002ED0D072B6FEE7615F000099
S11355304D5A000005330000795F0000A94F0000B8
S1135540C9500000855B0000815E0000ED32000060
S11355501D330000A1500000E55E0000F55F00006F
S1135560002370B5064ADD00AC182668002E02D16F
S1135570A950606070BD0133082BF4D1FAE7C0462E
S11355802C3F002070B50400114B16000D00984705
S11355902200443213785BB2013301D1002313702B
S11355A02200453213785BB2013301D1002313701A
S11355B0084B9847A36B002B05D12000320029002B
S11355C02430054B98472000044B984770BDC046D3
S11355D0053300001D330000AD5E0000C95000001B
S11355E0002801D172B6FEE7064B42699A4201D007
S11355F0002205E0806A044B9842F9D042424241BD
S113560010007047A43A00208C3A0020074A13681F
S11356101968074B002903D1012252421A607047CE
S11356201268D268D2685268F8E7C046D4390020BC
S1135630843A0020F8B50400134B144D1E68286802
S1135640134B04300F009847631C07D1002F05D07B
S113565029681048104B04319847F8BD2B68341959
S11356605C600E4BA64204D90D4A106829680431C7
S1135670F2E70C4A10682968043198470A4B1A6803
S11356809442EAD21C60E8E7CC3A0020D0390020EA
S1135690834F0000A43A00203D4F0000554F000006
S11356A0D8390020D4390020843A002070B5124C37
S11356B02368002B08D1114B1B68012B01D9104B17
S11356C09847104B9847F2E70F4B98470F4BDB680E
S11356D0DD680F4B281D98470E4A1368013B136081
S11356E02368013B23600C4B9847286B0B4CA04765
S11356F02800A047DBE7C046443A0020DC390020FC
S1135700ED3200008179000005330000B83A002032
S1135710834F0000403A00201D330000293500006B
S1135720F0B5950085B00190554C28000F00029308
S1135730A047061E00D194E05820A047041E00D1C3
S11357408CE006632A004F4BA52130009847236B59
S1135750043D5D1907239D43002300951A00F95C5D
S11357603432A154FA5C002A02D001330A2BF5D159
S1135770230000270A9D3D331F70042D00D9042502
S1135780231D1800E562A5643F4EE7640393B04708
S113579020001830B04705235D1B230054332461D7
S11357A0A56164622765029A1F700199374B0098BE
S11357B098470B9B2060002B00D01C60344B98470B
S11357C0344B354F1A68354E01321A603A68002A54
S11357D04AD13C601B68012B1ED1314D3000A847D3
S11357E030001430A84730002830A84730003C303F
S11357F0A84730005030A8472A48A8472A48A84755
S11358002A48A8472A48A8472A48A8472A4B254A8D
S11358101A602A4B244A1A60294A13680133136018
S1135820284A23641168E36A8B4200D91360142068
S11358305843211D3018244B9847244B9847244B38
S113584001251B68002B06D03B68DA6AE36A9A429A
S113585001D2204B9847280005B0F0BD30001E4B04
S1135860984701256D42F6E7194B1B68002BD3D1ED
S11358703B68E26ADB6A9342CED83C60CCE7C04620
S11358801134000023AB0000374F000065320000E4
S113589005330000403A0020D0390020DC390020D4
S11358A0214F0000583A00206C3A00208C3A002026
S11358B0B83A0020A43A0020D4390020D839002076
S11358C0503A0020543A00203D4F00001D330000A0
S11358D0A03A0020ED3200002935000070B5041E06
S11358E001D172B6FEE7134D2B68984220D0124BBB
S11358F098472000114B9847002817D0261D104BBD
S1135900300098470F4AE36A11688B4200D913604C
S1135910142043430C483100C0180C4B98472B68A3
S1135920E26ADB6A9A4201D3094B9847094B9847CC
S113593070BDC046D039002005330000E155000099
S1135940834F0000543A0020DC3900203D4F000012
S1135950ED3200001D330000F7B5041E01D172B60C
S1135960FEE7164B9847164B0190200098470025F8
S1135970A8421AD0134B144F1B68AB421AD1134BD5
S1135980E26A1B68261DDB6A30009A426D41104BA7
S11359909847104AE36A11688B4200D913601420B7
S11359A0310043430C48C018B84701980B4B984743
S11359B02800FEBD21000A481831F5E739330000FC
S11359C0E15500004C3A00203D4F0000D039002042
S11359D0834F0000543A0020DC390020413300009A
S11359E08C3A002037B500240F4B00940193822297
S11359F023000E490E480F4DA84701280FD10E4B26
S1135A00984701280BD172B601220C4B52421A60FE
S1135A100B4B18600B4B1C600B4B984737BD431C5A
S1135A20FCD172B6FEE7C046803A002035B60000CD
S1135A30AD5600002157000039610000843A00206F
S1135A40A03A0020CC3A002089320000024A1368B0
S1135A50013313607047C0464C3A0020014B18686C
S1135A607047C046CC3A0020F7B5374B1B68002B73
S1135A703BD1364B1F6801371F60002F11D1344BC7
S1135A801A681268002A01D072B6FEE7314A196812
S1135A90106818601160304A1368013313602F4B8B
S1135AA098472F4E002533689F4207D3284B1A6826
S1135AB01268002A21D101235B423360294B1B6801
S1135AC0DA6A14235343284AD358012B00D90125F9
S1135AD0264B1B68002B01D1254B9847254B1B688F
S1135AE0002B00D001252800FEBD204A00251368A4
S1135AF0013313601E4B9847F0E71B68DB68DC68D2
S1135B0063689F42D9D3231D019318001A4B984709
S1135B10A36A002B03D02000174B18309847174B6B
S1135B20E06A1A68904200D91860142358430E4B57
S1135B30211D1818124B98470A4BE26A1B68DB6A4E
S1135B409A42B3D30125B1E74C3A0020CC3A002065
S1135B50D4390020D8390020883A00200D5600009E
S1135B60843A0020D0390020DC390020483A002053
S1135B7083790000D03A0020834F0000543A00207B
S1135B803D4F0000F8B52B4C2368002B01D172B6B1
S1135B90FEE7294B98472368013B23602468002CC7
S1135BA004D00024254B98472000F8BD244B01273E
S1135BB01B68002BF5D0234B1A68002A1AD1002C3D
S1135BC001D0214B9847214D2C68002C0AD0012686
S1135BD01F4B9847002801D01E4B1E60013C002C2F
S1135BE0F6D12C601B4B1B68002BDAD01A4B98475C
S1135BF00124D7E7DB68194EDC682000251D183026
S1135C00B0472800B047164BE06A1A68904200D9A2
S1135C10186014235843134B29001818124B984743
S1135C20124BE26A1B68DB6A9A42C4D3094B1F60B9
S1135C30C1E7C0464C3A0020053300001D33000084
S1135C40403A00208C3A00200D560000483A0020CB
S1135C50695A0000D03A0020ED320000834F000062
S1135C60543A0020DC3900203D4F0000D039002098
S1135C7070B505000C00002801D172B6FEE70029BA
S1135C8001D172B6FEE7124B1E68002E01D072B627
S1135C90FEE7104B9847104B2A681868A4189042E6
S1135CA005D2A24206D9A042B641764202E00126BC
S1135CB0A242F8D92C60002E03D0201A0021074BF1
S1135CC09847074B9847002801D1064B984770BD69
S1135CD04C3A00204D5A0000CC3A002035560000C2
S1135CE0855B0000ED32000070B5041E02D10A4B42
