S00B00004C43562E7372656334
S1130000A05F0020CD7A00008F7C00008D7C000072
S113001000000000000000000000000000000000DC
S1130020000000000000000000000000C5320000D5
S1130030000000000000000091330000D5330000F0
S1130040C97A0000C97A00002D680000C97A00004E
S113005071120000C97A0000C97A0000A12A0000C8
S1130060C97A00003970000049700000597000001E
S1130070697000007970000089700000C97A00007E
S1130080C97A0000C97A0000C97A0000C97A000060
S1130090C97A00000000000000000000A90F000061
S11300A0C97A0000ED110000C97A0000C97A000085
S11300B00000000010B5064C2378002B07D1054B37
S11300C0002B02D0044800E000BF0123237010BDC0
S11300D02C0100200000000008BB0000084B10B5F4
S11300E0002B03D00749084800E000BF0748036815
S11300F0002B00D110BD064B002BFBD09847F9E72D
S1130100000000003001002008BB000008BB000014
S11301100000000082B0EFF310835A425341019370
S113012072B6BFF35F8F0022024B1A70019802B0BF
S11301307047C046C6000020024A1378013BDBB278
S1130140137070475301002000207047002070474F
S11301507047000010B5064A1378013BDBB21370F8
S11301601378044B98470022034B1A7010BDC04605
S113017054010020F14800004A010020002805D065
S11301800122034B1A70BFF35F8F62B67047C046FB
S1130190C60000206021124B1A7850B20A40002891
S11301A00DDA0020202A13D15A78212A10D1DA88B6
S11301B0072A0DD10B499A819960012008E000209B
S11301C0202A05D15A78202A03D0223A504250419D
S11301D07047DA88072AFBD103491961EAE7C04668
S11301E0E03D00204C010020510100000023A1212A
S11301F010B50F4A0F4C237013800F4A11708139C8
S113020051701E39D180FA219380538013810B4A97
S1130210C90213715371083393711160084B9847E5
S1130220002803D023780133DBB2237010BDC0460D
S1130230E203002053010020740600204C0100203A
S1130240E5480000F7B5364B1B78002B23D1354B1E
S11302509847354E354B3488002800D0344B9847A6
S1130260844218D0334B9847334B344A1C780700E8
S1130270E4B263009B5A002B16D1314D2B88013315
S11302802B80284B9847002806D12B88632B03D852
S113029038002C4B9847F7BD224B9847002803D0D1
S11302A0294B2A889A42F3D90022254B1A80274BDE
S11302B01B7893422DD1634263411F4ADBB2137012
S11302C00123174A380013701E4B98471B4B6700D5
S11302D0DB5B1D00413DFF3D6A1E9541A022EDB24E
S11302E05200934219D00F4B9847114B002800D16C
S11302F00E4B98473080A0225200544314490F4BB0
S1130300144ADB5B12190091134C29008120A04789
S1130310C1E762425441E4B2D2E700233380EAE702
S113032070060020792000006E0600207D20000069
S11303308D200000150100006C06002068060020D6
S1130340480100207D0100001F030000E403002099
S113035069030000E80300200D23000010B5014BE1
S1130360984710BD4502000010B500280CD1074B7A
S11303701B785A425341064A5B009852054B187049
S1130380054B1870054B984710BDC0466C060020FD
S113039068060020E40300207006002045020000E7
S11303A070B5074B9847074B074A1D88074BADB2FA
S11303B01B785B009C5A064BA4B29847601B70BD27
S11303C015010000DE030020D8030020DC03002018
S11303D07D01000010B5034B9847431E9841C0B2FD
S11303E010BDC046A1030000F7B5174B9847174945
S11303F0174B0C781D78E4B2EDB2002D06D1154EE2
S1130400154A630037889B5A9F4203D2134B98477F
S11304100020FEBD3580634263410126DBB20B70D0
S11304200B4B1E700D4B984728000D4B9847A0238B
S11304305B005C430B4A310014190B4A0220009202
S113044022000A4CA047E4E715010000DC03002069
S1130450E0030020DE030020D80300207D0100001B
S1130460D503000058010020F90400000D2300000A
S113047070B50024134B144D2C701C70134B1C705E
S1130480134B1C70134B1C805C80134B1C80134B50
S11304909847134B1C70134B1C70134B1C805C80CF
S11304A0124B1C80124B9847A04209D02B78013381
S11304B0DBB22B702B78DBB2012B01D10D4A137008
S11304C070BDC0467006002054010020E4030020E3
S11304D06C060020680600206E060020450200001D
S11304E0E0030020DC030020D8030020DE0300200A
S11304F0E90300004A01002013B503001000002B9B
S113050010D10D4A127854426241D2B200290AD164
S11305104133FF335A430949094C8A180949009168
S11305200121A04713BD084889B252001152074A5D
S11305301370074B9847F5E7DC03002058010020AF
S11305400D230000F9040000D8030020E00300207C
S1130550E903000070B5114B98471149114A0B7813
S1130560DBB25C00A45AA022520094420FD10E4A7E
S11305701278002A0BD10D4D2A78D2B2002A06D166
S113058001242C705C4263411400DBB20B70084BF5
S11305909847A0204000001B70BDC0461501000014
S11305A06C0600206806002070060020E40300208A
S11305B07D01000010B50020014B984710BDC046D6
S11305C05505000010B5034B9847431E9841C0B22F
S11305D010BDC0465505000010B50020014B9847DA
S11305E010BDC046C5050000F7B51D4B9B79092B0E
S11305F000D152001400009100201A4B98470028A3
S113060005D1194B1B78002BF6D12000FEBD174BEA
S11306109847174B01901D78164BEDB26A00D75AD4
S1130620A0235B00DB1B26009C4200D91E00A023F4
S11306305B006B431048DB19C018320000990F4B64
S113064098470C4B6D00BF19EF5201980C4B98471B
S1130650009BA41B9B190093002CCDD1D5E7C04669
S11306604C010020C50500004A01002015010000CE
S11306706C06002068060020E803002015AE000088
S11306807D01000010B50A00024B010000209847CC
S113069010BDC046E905000010B5034B58887F2300
S11306A01840024B984710BDE03D0020852400000F
S11306B0F0B5164B1B78002B01D10020F0BD144B74
S11306C01B681B681A798242F7D9124C01262360F1
S11306D0DA789D7812022A4300259A189A4203D8A0
S11306E0002DEAD02360E8E75F78042F0AD19F78D1
S11306F0874207D1DF788F4204D1002D00D02360D8
S11307000120DBE71D785B193500E7E78806002048
S11307108C06002090060020094B1B681B68DA78C1
S1130720997812020A439B1802788018984201D3E0
S1130730002004E04278042AFAD0052AF4D1704754
S11307408C06002070B5104B05009847002801D195
S1130750002070BD0D4B1C6820000D4B9847041EF3
S11307600AD04279037912021A43C178094B80787E
S113077098470028F0D1EBE7074BAD001B685B6896
S1130780EB581B689847E4E7B10600009006002088
S113079019070000F12000008C06002070B500212C
S11307A0104D0400A847002802D10025280070BD80
S11307B00D4BA2001B685B68D658F368984701008C
S11307C02000A847051EF0D0084B1C682000084BE9
S11307D09847041E03D08078064B9847F6E7736861
S11307E09847E3E7B10600008C060020900600203D
S11307F0190700009D20000010B5014B984710BD5B
S11308003525000070B50B4D00242B78002B0AD140
S1130810002301222B70084B1A8070BD2000074B67
S113082098470134E4B2064B1B681B681B79A3424A
S1130830F4D8EDE7880600207E0600209D0700001E
S11308408C06002010B50B4B00241B78002B09D11B
S113085010BD5B68A200D3581B69002B00D09847D9
S11308600134E4B2044B1B681A681279A242F0D82E
S1130870EEE7C046880600208C060020F8B5002369
S1130880AE4CA38123616361237858B2002805DA52
S1130890E288002A02D100252800F8BD6021194011
S11308A01ED11F22002800DBB2E0E588002D17D0FE
S11308B0134074D16378062B0BD0082B68D0002B1F
S11308C00ED1022D12D129009D489E4B9847012537
S11308D0E2E763881D0A022D3DD029D8012D34D0CA
S11308E01F2223781340012B00D14FE11F222378CC
S11308F01340022BCFD1944B00241B78002BCAD079
S1130900924B1B681A681279A242C4D95B68A20090
S1130910D558EB6898478E4B010020009847002873
S1130920B9D0AB6898470028D1D10134E4B2E7E7E5
S1130930032D27D00F2DD3D1864B98680028D5D00E
S1130940C17883780902194302E0824B1868017860
S11309507C4B984710E07F4ADBB21168497C99428E
S1130960C4D95268DB009858C178837809021943C6
S1130970744B9847A3685D70E388A2899A42A6D90C
S1130980A381A4E7DBB2002BAAD104217248DFE7DC
S1130990012DABD129006C486A4B98477CE7012BA9
S11309A021D163780A2B9BD1012D00D0EEE0664B58
S11309B01B78002B00D1E9E0644B26791F683B6863
S11309C01B79B34200D8E1E03000614B9847051E23
S11309D086D07B68B600F358DB6898475F4B0121EB
S11309E018701800D8E7022B00D079E76378002B41
S11309F000D075E7022D00D078E7594B207998474D
S1130A00584B2900188018004E4B9847013D43E786
S1130A10134053D160780138082800D960E707F003
S1130A2041F910005FFF5FFF5FFF09005FFF5FFF99
S1130A305FFF1E00E388002B00D057E74A4B236179
S1130A4045E7E388002B00D050E76588012D00D0EE
S1130A504CE702213A4A13888B4313801CE7E5884C
S1130A60002D00D042E7414B9847002800D137E7DA
S1130A70384FA2783B685B7C9A4200DD30E73C4B00
S1130A809847A378304A1370002B00D11FE7394AE6
S1130A902E4E9B187A68DB00D318336033681B68CA
S1130AA01B79AB4200D812E700212800324B98474B
S1130AB0002800D114E70135EDB2EFE7012B1AD17C
S1130AC063780B2B00D00BE7E388002B5ED11E4B21
S1130AD01B78002B5AD02679284B3000658898471C
S1130AE0002800D1FCE6E9B23000234B98470028E7
S1130AF000D0ECE6F4E6022B00D0F1E66378012B9B
S1130B0010D0032B00D0EBE6E388002B00D0EDE6F9
S1130B106388002B00D0E9E62079194B98472079A7
S1130B20184B09E0E388002B00D0DFE66388002B34
S1130B3000D0DBE62079144B9847D8E7E03D00204D
S1130B407E060020A5240000880600208C060020D4
S1130B50B106000034000020B40000208406002008
S1130B60BD210000800600209906000095240000A5
S1130B7005080000FFFFFF1F450700009D07000058
S1130B803D200000D1210000D1220000124B1B782F
S1130B90002B00D1AAE6114B25791E6833681B7916
S1130BA0AB4200D8A2E6002128000D4FB847002828
S1130BB000D19BE67368AA00D658F36898470100F1
S1130BC02800B847002800D190E6B3689847002869
S1130BD000D07CE68AE6C046880600208C06002009
S1130BE0B10600000368587EC009704730B597B05D
S1130BF002AD040050220A4928000A4B9847132CDE
S1130C000BD80023A40001A960594B70CB708B70E2
S1130C1001330B70C0B2044B984717B030BDC046C7
S1130C20DCB6000015AE00006D7A0000C02252014F
S1130C30C281020000232A3203704370438003718F
S1130C4003760362C3618360037303744374837420
S1130C50C37403751370421D43758375D377C384BE
S1130C600385C37526322C3013700370704700005F
S1130C708023F0B51400B84A01600600106A5B02D4
S1130C80034313620B7887B00520DB0700D5FFE030
S1130C900B7817309B0700D5FAE063783371002B8B
S1130CA004D1AE4A0433116C0B431364AC4A0023E1
S1130CB0166022002A323383B360F3603361B37663
S1130CC0F3763377029212789A4203D1227D9A42C4
S1130CD000D101337377237805A90B701E20A14B33
S1130CE037689847A04B1E20984723002C331B7865
S1130CF0227B0192002B33D022002B321578019AEB
S1130D005519EDB25B19DBB20393019BE81A039BFF
S1130D10C0B2AB421BD8E089944B9847637D9B00DB
S1130D20DBB23B70A37D6278DB011343DBB27B70E3
S1130D302579302D00D1B8E018D8102D00D1B1E0BC
S1130D40202D00D1B1E0002D1AD12B00ABE00F23F0
S1130D501840237B0135C018844B9847EDB2D4E783
S1130D600198824DA847E089A847D7E7322D09D0DA
S1130D7000D29CE0332D00D190E0342D00D189E0E5
S1130D80172085E0042310250222702112010A4055
S1130D901343BB70E37D3F2BF2D8FB703000744BE0
S1130DA098470028FAD16288E37C1343621D0392BA
S1130DB0D27FD2001343227D92001343A27C5200BF
S1130DC013432B43BB80237E002B07D0102D00D16F
S1130DD0B3E000D96DE0002D00D19FE03000644BFA
S1130DE098470028FAD1237E3B723000604B984725
S1130DF00028FAD1A38BBB8330005D4B98470028B1
S1130E00FAD1238C3B8423002C331D78002D03D08E
S1130E10013DEDB20F2DB3D823002B3301931B7882
S1130E200F2BADD83000524B98470028FAD1227BC3
S1130E30E3892D041343A2681343019A127812051F
S1130E4013431D43029B3D611B783B750F23BB7508
S1130E50039BDB7F002B0CD0E38C46498B428FD85D
S1130E60BB848023228D1B01D3189BB28B4287D86D
S1130E70FA84E022404B00201968D2004B0119008B
S1130E801A403E4B1B68DB0E0B43DBB213433B851E
S1130E9007B0F0BD627C237C102576E7062310257D
S1130EA0012272E7082300226FE70023FBE70223F5
S1130EB0F5E7202D18D0302D00D08FE7E37CE269D0
S1130EC0002B09D013008033FF2B00D958E7236A85
S1130ED08033FF2B00D953E7FF2A00DD50E7236A54
S1130EE0FF2B00DD4CE779E7E27CE169244B002A23
S1130EF00CD0802292008A189A4200D940E78020C0
S1130F00226A800012189A4200D939E7994200DD1A
S1130F1036E7226A9A4200DD32E75FE7E27CE16964
S1130F20144B002AF2D0802212018A189A4200D966
S1130F3026E78020226A0001E4E7E27CE169114BA4
S1130F40002AE3D0802212028A189A4200D917E7B5
S1130F508020226A0002D5E7000400400008004017
S1130F606C3B002069790000E1780000ED0B000083
S1130F70E50B0000FF0F000024608000206080006B
S1130F80FF030000FFFF000003685A7E52B2002AEC
S1130F90FBDB0222197B0A431A730268537E5BB29D
S1130FA0002BFBDB7047000070B5284B1C682368DE
S1130FB01A7EDD7D15400122154228D01A7621685B
S1130FC04B7E5BB2002BFBDB6269931C63614B8B32
S1130FD09BB21380238B013B9BB22383002B10D144
S1130FE0012221688A75217F052910D12377E37EA8
S1130FF013420CD0A37E134209D02000A368984763
S113100005E0637F002B02D02000114B9847042396
S11310101D420BD022681376E27E023B1A4205D0B1
S1131020A27E1A4202D02000E368984702231D42A0
S11310300BD022681376E27EDB181A4205D0A27E1A
S11310401A4202D023692000984770BD6C3B0020EF
S1131050890F0000931C9B001950012393401A0030
S1131060837E13438376704770B5038B05249BB24C
S1131070002B0ED1057FA5420BD0047702830122F9
S1131080416101681C00CA75427F002A01D0024BED
S11310909847200070BDC046890F0000172300291F
S11310A001D1037FDBB2180070470368D879C00907
S11310B070470023012203704270837003714371EF
S11310C0C3708371704700008023F7B502271500B1
S11310D0254A01600400106ADB02034313620B78A3
S11310E01C203B423FD101230E7817381E403AD1D1
S11310F06A46EB78694613701C301C4B98472120D4
S11311001B4B9847012301A90B703800194B4E70F3
S1131110CE708E7098476B78A6712371AB7927686F
S11311205A1E9341AA789B002E78002A01D00422EB
S113113016432A79002A01D0102216436A79002A1C
S113114001D008221643DBB23B7020000A4B9847BB
S11311500028FAD1F6B27E702B7860616371074B78
S1131160A061E0611C60FEBD0004004069790000DC
S1131170E17800006D7A0000AB100000703B0020A5
S113118070B50400056802796B7813436B70200016
S1131190084B98470028FAD102232A7813432B706E
S11311A06379002B04D1044A0433116C0B43136498
S11311B070BDC046AB100000000800407047704787
S11311C07047000070B50400160005682000064B47
S11311D098470028FAD1A379002B02D0AE810020D1
S11311E070BD2E81FBE7C046AB10000070B51E4BEE
S11311F01C6801232568AA791A4206D0AB71637C66
S1131200002B02D00020A36998470222AB79134235
S113121029D0AA71A389002B1FD0E3899BB2591C42
S113122089B2E181A1685B00CB181B889BB2AB81BA
S1131230A389013B9BB2A381A08980B200280CD171
S1131240631CD8772A71AA718022084B9204DA674A
S1131250A37C002B01D0E3699847237C002B02D0A8
S113126063690020984770BD703B002004E100E0F2
S1131270002370B501250B4C237023780F2B00D964
S113128070BD29009940084A1069084206D01161CE
S1131290064A9B009B58002B00D0984723780133C3
S11312A02370EAE7743B002000180040783B0020DC
S11312B0014B5878C009704700180040022310B54C
S11312C0044A11780B431370034B98470028FBD151
S11312D010BDC04600180040B1120000402307B5FD
S11312E0104A052091690B439361002301A90B70F7
S11312F00D4B98470D4B0520984701230C4A117854
S11313000B4313700B4B98470028FBD102000A4B88
S11313101A5004304028FBD11022084B1A60084BA5
S1131320984707BD0004004069790000E178000097
S113133000180040B1120000783B002000E100E0FA
S1131340BD120000F0B507008BB0396008009B4B5C
S113135014000E0098470125831C9D402B00984AD9
S11313601430116AC5B20B431362237B08AA1370AD
S113137011002800934B98472800934B9847934BB0
S1131380207B0021984733681C209B0700D509E186
S11313900123356817381D4000D003E1874B3868B6
S11313A098478B498B4B04909847049B3D769A0051
S11313B0894B7D76D750BB1D7D83BD83DD77142398
S11313C03D6233603B6809AE049318007B4B984739
S11313D080230090E06933707F3B7570F570B370C3
S11313E0256A002803D101007C4B04989847022306
S11313F03070000C7370C0B23100794B9847002DE7
S113140004D101210498754B9847050002233570D7
S11314102D0C7370E8B2724B31009847A38AFB809D
S1131420E38A3B81227E8023002A06D16D4B02325F
S11314309B7813405F1EBB41DB01A26827691743F9
S11314401F43631DDB7F002B02D08023DB051F437A
S1131450A36A1F4323002C331B78002B03D1802362
S11314609B049A4202D180231B051F4323002D3382
S11314701B78002B02D080231B041F4323002E3330
S11314801B78002B02D08023DB031F43049B0098AE
S11314901B68FA251F43049B049A1F6080231430A1
S11314A05B005360C0B2504B98472368AD005D4366
S11314B06368070005934D4B98474C4B009001918E
S11314C06800984702900391484B208E9847484EF5
S11314D00690079100980199464A474BB04702008D
S11314E00B0006980799B047444E0022444BB0477E
S11314F03E4B06900791280098473D4D02000B0093
S113150006980799A8473F4D02000B0000980199DF
S1131510A847029A039BB04700223B4BA847029A74
S1131520039B3A4EB0473A4B984780230290A268F7
S11315309B049A423ED1FA23059C9B005C43009A8B
S1131540019B2E4E10001900B047284B00900191CA
S11315502000984700222F4B254EB0472B4E020007
S11315600B0000980199B0470022274BA847284B4D
S11315709847294B061E17D0210038009847023897
S1131580831B029A4020FF2A0CD8FF2B0AD8FF2085
S1131590150000041B040340002036063543049A5A
S11315A02B43D3600BB0F0BD6100481EC0199847AF
S11315B0431EE6E700263300E3E7C046A16F0000C0
S11315C00004004069790000E1780000016E000029
S11315D0B5180000D56F0000803F0020456E000064
S11315E06D7A000000200041B57900008DAB000049
S11315F0759F000095D626E80B2E113EED90000055
S11316000000244075A400000000F03F0D97000086
S1131610A1AA000000000840B97C0000022203686F
S1131620197E114206D01A765B8B412013420AD1EF
S1131630002008E05A8B5207FAD5C02218205968B6
S113164092020A435A60704770B5002201260224B0
S113165001680B7E334002D10D7E254201D000206B
S113166005E00132038992B29342F2D8122070BD90
S1131670802310B50468DB0262681343636061620F
S1131680024B98470123237610BDC046491600003B
S113169007230168CA691A42FCD17047F8B5056886
S11316A004002A68468B838BF61A838BB6B2013BFF
S11316B09BB28383C37A12010AD5002B0DD0838B8E
S11316C0012B0AD180236A68DB0213436B6004E0B8
S11316D0002B02D0838B002BF4D0A38B0A4F002B5A
S11316E009D1A37A002B06D02000B847C0236A682A
S11316F09B0213436B602000B847236A28359E1968
S11317002B78DBB23370F8BD9116000070B5066813
S11317100400738B5B0703D51E230634E37770BD87
S1131720458B838B2836ED1A838BADB2013B9BB27C
S11317308383044B9847236A5D192B78DBB233709B
S1131740EDE7C0469116000070B54B7A05000E0017
S11317500468002B02D0897A0F4B984763680F4ABC
S113176013400022636073682B627388AB836B1D24
S1131770DA7705230635EB77023BA375727A338853
S1131780317A5B0092031343002902D080221202B3
S113179013430020636270BD71160000FFFFFBFF5E
S11317A00122F8B54B68046803624B880600838302
S11317B0431DDA77831D0432DA7727684B7A3F01B9
S11317C00D00FF0F002B02D0897A204B9847002F81
S11317D02FD06B88012B2CD180236268DB0213434A
S11317E06360287A002828D02B886A7A5B009203E9
S11317F0134380221202134363623000144B984750
S11318006368144A13406360002811D13000124BFE
S1131810984700280CD10323A3752A887533120A2C
S113182013430122697A5B0089030A431343636209
S1131830F8BD6368074A1340D2E70323A3752B88D6
S11318406A7A5B00920313430122EFE771160000EA
S113185049160000FFFFFBFF1D160000931C9B00B0
S1131860C318596001239340017E0B43DBB2037616
S11318707047000010B5828B03000520002A05D1B3
S113188001329A72DA721800014B984710BDC046B3
S1131890A117000010B5828B03000520002A05D192
S11318A001329A72DA721800014B984710BDC04693
S11318B049170000F8B55E4B8000C4582568A61D82
S11318C02B68627E277E1B011740628BDB0F002A88
S11318D02ED1A28B002A2BD001232A7E1A4206D0B5
S11318E002222B766B8B134010D04123F377A38B0A
S11318F09BB26383F37F052B3CD1631DDB7F200008
S1131900002B00D08AE04B4B984733E06A8B520798
S1131910EDD51822F277A383A37A002BE7D0464BA8
S113192020009847C0236A689B0213436B60DEE77C
S1131930628B002A5FD0A28B002A5CD1F27F052A39
S113194059D1621DD27FD2B2002A54D103232B7500
S11319506283F277A37A002B4AD0374B2000984752
S1131960C0236A689B0213436B60FB0702D5E368DC
S113197020009847638B002B1BD0A38B002B18D11E
S1131980F37F052B15D1631DDA7F012A11D1297E3E
S11319900132114200D02A7603222A750022628382
S11319A0F277BA073CD5DA7F012A39D123692000BE
S11319B09847F37F052B1AD0F37F002B17D003230E
S11319C02B7500236383A383F37F412B0AD0A37A6F
S11319D0002B07D0184B20009847E0236A68DB02ED
S11319E013436B607B0702D5636920009847F8BDF9
S11319F001232B76B9E7628B002ABBD0A28B002A85
S1131A00B8D06A8B920600D577E7002B03D0A38B5E
S1131A10012B00D171E74123F377ABE7074B73E761
S1131A20FA07C6D5DB7F002BC3D1E368BFE7C04606
S1131A30803F00200D170000911600009D16000045
S1131A4082B0EFF310835A425341019372B6BFF34D
S1131A505F8F0022024B1A70019802B07047C04693
S1131A60C60000207F220240131E09D00F2303402A
S1131A705B00C0091818142302385843014B1B1883
S1131A80180070479C060020F0B58D7985B06AB2C5
S1131A900E00544B2800002A48DA0F2798472F409D
S1131AA00197038A816802937688C3680400F61854
S1131AB0C660877C8E4225D08D1B4B4BADB29D42B8
S1131AC006D918000299494B9847474B5D1AADB2A5
S1131AD00021BB0707D5464B0299280098478BB2D3
S1131AE059425941C9B20222A37C49009343194384
S1131AF02B006268A174921901993E483E4CA0479C
S1131B0005B0F0BD02233800184005D062689F4339
S1131B10A77492190023EFE701239F432368A77456
S1131B20002BEDD02A0031009847E9E798470F23AE
S1131B302B400293038A04000193837C37885B075C
S1131B4011D5C26843689446634403930199284BB2
S1131B5080689847029B0A00013B28499B01591859
S1131B600398274B9847E368FA18A368E2609A42FF
S1131B7000D9E360B288BA4227D1E668B34224D0E0
S1131B809D1B194FADB20199BD4216D9174B3800B0
S1131B9098477B1A019A9BB216481A4F9A4211D958
S1131BA00423A27C1343A374029B5A1E134B920179
S1131BB0D218019B0299B847A2E70D4B2800984719
S1131BC06B1AE7E762689219F4E70122A37C934356
S1131BD0A3742368002B00D192E72A00E168002057
S1131BE0A2E7C046651A0000FF1F0000997F0000AD
S1131BF0C57D0000783C0020C9290000B83B0020C6
S1131C0015AE0000152A0000052210B5054B064C40
S1131C101A7020008021054B984700212000044BB6
S1131C20984710BD9A060020783C00204F290000F8
S1131C306929000037B504001D4B984780232268AA
S1131C4001AD937228001B4B9847032329006B7046
S1131C502000194B984719492000194B9847194DF2
S1131C60194B022200212000A8470022174B110023
S1131C702000A847164B012200212000A847154D3B
S1131C80022200212000A847002220001100A847BA
S1131C90012200212000A84721680F4A0B891A401D
S1131CA08023DB00134300220B810C4B1A7037BDD9
S1131CB0050800006527000075270000F83D002096
S1131CC05D2A0000FD250000451E0000FD210000E6
S1131CD01D1D00004D260000FFF3FFFF9A060020A3
S1131CE0032210B5074B084C1A7008492000084B12
S1131CF098470023074A190092682000064CA04721
S1131D0010BDC0469A060020783C0020F83D002013
S1131D105D2A0000E03D0020C929000010B5897942
S1131D200C4B4AB2002A0BDA1B78012B02D10A4B66
S1131D30984710BD042BFCD10848094B9847F8E795
S1131D401A78022A02D102321A70F2E7032AF0D179
S1131D50F2E7C0469A060020E11C0000783C00200F
S1131D604F29000070B51D4D1D4E2B88B489E41A0F
S1131D70A4B2002C1BD11B4A11885B189BB21380A0
S1131D80F2889A4203D0184B1B78002B07D0042208
S1131D90164B17491A701748174B984770BD73694B
S1131DA0002B16D09847002813D02C80B4893F2CE0
S1131DB00FD9002240240C4B1A702B88B2680021E2
S1131DC0D2180C4823000D4EB0472B88E4182C8001
S1131DD0E4E70122044B1A70EFE7C04696060020A0
S1131DE0E03D002098060020940600209A0600207A
S1131DF0F83D0020783C00205D2A0000C92900003D
S1131E0010B5014B984710BD450800000122034B53
S1131E101A70BFF35F8F62B67047C046C6000020D9
S1131E20074B9A8C920605D4D021DA680A40D02A4E
S1131E30FBD170471022D9681142FCD0F9E7C046A3
S1131E400008004070B5274E0C003378002B06D0F4
S1131E50254B1B69002B00D098470023337023883F
S1131E60082B02D0214B984770BD214C1E4D23787E
S1131E702B7063786B70E278A37812029B186B80E6
S1131E806279237912029B18AB80E279A37912025A
S1131E909B18EB80174B98470028E3D02B787F2BB7
S1131EA00DD90021144B22001980144B14481980B9
S1131EB00223144C33703E33A047134BD3E7EB8813
S1131EC0002B01D1114BCEE700210B4B22001980CE
S1131ED00A4B0C4C19800123094833703F33A04747
S1131EE0C2E7C0469A060020E03D0020091C00001D
S1131EF0F83D00207D08000098060020960600208A
S1131F00783C0020152A0000651D0000E11C00003B
S1131F100023F0B585B003AC237003336370013B39
S1131F20A370013BE370164B05001B7801938342B9
S1131F3024D000280ED0265C124FBB5DFF2B00D1AD
S1131F40FEE7114B9847BB5D0133BB55002801D018
S1131F500E4B9847019B002B0ED0E45C094E335D79
S1131F60002B00D1FEE7084B9847335D013B335506
S1131F70002801D0054B9847014B1D7005B0F0BDFA
S1131F8014070020643B0020411A00000D1E0000CD
S1131F9070B5084C084D06212000A84704212000F4
S1131FA0A84702212000054B98470220044B98477C
S1131FB070BDC046783C0020E1250000C12500002A
S1131FC0111F000070B50B4B98470B4C0B4B0221B3
S1131FD0200098470A4D04212000A847094A0A4BCB
S1131FE006212000984706212000A8470320074B1C
S1131FF0984770BD211E0000783C0020E1250000B8
S1132000C1250000911F00009D250000111F000044
S113201010B5064C04212000054B984702212000EE
S1132020044B98470120044B984710BD783C00208E
S1132030E1250000C1250000111F000070B5040057
S113204001000A4B0A4898470A4B200098470300AE
S1132050827C0120024207D01D6882439A74002DBD
S113206002D02200D968A84770BDC04605290000E7
S1132070783C0020651A000000207047024B1B6862
S1132080188A8004400D7047783C0020024B1B687E
S1132090188A80B27047C046783C0020F7B5040027
S11320A0002701AD28000C4B984720000B4B9847A4
S11320B00B4E290030000B4BEF702C7098470F210A
S11320C03A0021403000084B98473A003000210084
S11320D0064B9847F7BDC046652700003D20000029
S11320E0783C00207527000025260000D926000032
S11320F0F7B5060001AC294B20000F0015009847E6
S113210026700023082D10D90123102D0DD9022388
S1132110202D0AD90323402D07D90423802D04D967
S113212080235B009D4224D8FB3B637030001C4B32
S11321309847032305821F40012F28D1013B194DE5
S1132140E37021002800184B9847041E1BD10F216F
S1132150164B020031402800154FB84722003100C9
S1132160144C2800A047012231002800A047012078
S11321700AE080239B009D4202D8FB3BFF3BD4E74F
S11321800D4B9D4201D90020FEBD0723CDE7022F50
S1132190D5D0032FF7D10423D1E7C046652700002B
S11321A0651A0000783C002075270000891A000099
S11321B0FD2500004D260000FF03000010B50100BE
S11321C0014B0248984710BD31290000783C00209B
S11321D00F2310B5034004000020032B07D821006F
S11321E00348044B98472000034B9847012010BD37
S11321F0783C00204F2900003D200000F8B5294F0D
S11322003B78012B41D1284A284D0E881488AB898C
S1132210A219934201DA1E1BB6B2AB683200181938
S11322202349244BA4199847A3B21F4C2380402E62
S113223005D1214EE9883288D21891420FDCAB8156
S11322406B69002B08D09847002805D1052300208E
S11322503B701A4B9847F8BD194B9847FBE7AA897E
S11322609A420BD16B69002BF0D098470028EDD02F
S1132270338822889B1833800023238040230C4A10
S11322800021104C1048A047E5E7022B01D10F4B69
S1132290E3E7064B1B69002B00D0984700233B70F3
S11322A0D9E7C0469A06002096060020E03D0020AB
S11322B0F83D002015AE000098060020D121000052
S11322C0E11C0000152A0000783C0020651D000078
S11322D00F2370B5034006000024032B0ED8084BCF
S11322E098470500074B310007489847AB7C0134F9
S11322F0234203D0A343AB742B689847200070BDDE
S1132300651A000069290000783C0020F0B585B00A
S113231003921E0002000F231A4002900D00019246
S1132320032A03D90027380005B0F0BD02984A4BB0
S11323309847071EF6D1494B029898470400484B2A
S113234098470123A27C1A4204D00028EAD0454BC6
S11323509847E8E71343A374002801D0414B9847FA
S1132360039B022263600023E3600A9BA660236050
S113237001231D406900A57C95430D4304218D4331
S11323806946097AA57449B200293BDAEDB2002EF8
S113239026D0354BB6B29E4206D91800218A334B5B
S11323A09847314B5E1AB6B2AB0707D5218A300085
S11323B02F4B984789B248424841C7B201200223B3
S11323C038404100A07C98430843A0743300039A2A
S11323D001992848284CA04743425841C7B2A2E774
S11323E0154202D09543A574F0E79D43A5740A9B5A
S11323F0002B01D1012796E70021029A08000A9BCD
S11324009847F7E7002E22D0278A174DB6B2390035
S1132410AE4216D9154B280098476B1A9BB2154843
S1132420164D039ABB4209D20423A27C1343A3741E
S1132430019B5A1E124B9201D2183B000199A847E6
S1132440CAE730000A4B9847761AB3B2E7E7A27C92
S11324509A43A274CBE7C046BD210000651A000070
S1132460411A00000D1E0000FF1F0000997F0000AC
S1132470C57D0000783C0020C9290000152A000011
S1132480B83B00208022024B10431B6898727047AF
S1132490783C0020024B1B68987A4006400E704737
S11324A0783C0020014B986099817047E03D002002
S11324B0F8B501270320164B9847164C164E226890
S11324C0042113892000BB431381144AB047144AE2
S11324D000212000B0473900124A2000B047124AB8
S11324E002212000B047114D04212000A8470021FB
S11324F02000A84739002000A84702212000A8474F
S11325000B4A06212000B04706212000A847F8BD49
S1132510111F0000783C00209D25000011200000C0
S1132520011E0000351C0000C51F0000C12500006D
S1132530911F000073B50F4B984701AC06000E4B7A
S11325402000984700230D4D22000D49A370280058
S11325500C4B984728000C4B98470C4B98470C4B56
S1132560012098470B4B9847002E01D00A4B9847FF
S113257073BDC046411A000051300000783C002071
S113258000500041613000008D2A0000211E00002F
S1132590111F0000B12400000D1E00000B002E339B
S11325A09B0010B51A50AA22044C52004900835AC9
S11325B0095B0B438352002010BDC0462CB70000BA
S11325C0064B4900CB5AAB21026849009383425A17
S11325D01A43425202680020138370472CB700004C
S11325E0054B4900CA5AAB214900435A934343520D
S11325F0036800209A8270472CB7000010B58C0045
S1132600A4183434A40004194018593004496360F0
S1132610FF3003788A5C13430370002010BDC0466A
S11326203AB700008B009B18343310B59B000400AC
S1132630C3180020641858605934034BFF349A5C63
S113264023789343237010BD3AB700000F2370B56D
S11326500B40C41861341F4EFF342578B65C3543F3
S11326602570002A0FD10268002B03D1FF320333F7
S1132670937221E05B01D21849B2FF320223002990
S1132680F6DB0123F4E7012A0ED10268002B02D104
S1132690FF320C33ECE75B01D21849B2FF32082356
S11326A00029E5DB0423E3E7022A07D102685B0182
S11326B0D3181022FF339A72002070BD032AFBD175
S11326C002685B01D21849B2FF3240230029CFDBF4
S11326D02023CDE73AB700000F2370B50B40C41890
S11326E01F4D6134FF34AE5C2578B5432570002A54
S11326F00FD10268002B03D1FF320333537221E060
S11327005B01D21849B2FF3202230029F6DB012310
S1132710F4E7012A0ED10268002B02D1FF320C33F8
S1132720ECE75B01D21849B2FF3208230029E5DB4C
S11327300423E3E7022A07D102685B01D3181022BD
S1132740FF335A72002070BD032AFBD102685B017B
S1132750D21849B2FF3240230029CFDB2023CDE732
S11327603AB7000000230370437083700133C370D1
S1132770704700000F23F0B504000D78C8782B4093
S11327806DB2042860D8226805F082FA03084987EC
S11327909D00002008335B01D054F0BD5E01921906
S11327A0FF3255781C206D07F7D1702557782F42DA
S11327B0F3D10B385070226808335B01D2182F30E4
S11327C050712268D31880221A718A784B4B002AE0
S11327D01BD080209A19546800060443546054693D
S11327E02043506107254A789B195868444C2A4075
S11327F0120720401043586049785A692940090754
S113280022400A435A610020C7E7981942685200DF
S1132810520842604269520052084261E2E758019C
S11328201218FF32002D27DA702657781C20374201
S1132830B3D1567804303043507018002268083001
S113284040011218802010710724ED0F5B002B4A01
S11328505B1948781B01D3185A682040284C00079C
S1132860224002435A608878002842D08022596866
S113287012060A435A60C6E756781C20760700D031
S11328808BE756781A3830435070180022680830A5
S11328904001121840205071D6E758011218FF3237
S11328A0002D08DA702657781C20374200D074E7D0
S11328B056781430BFE756781C20760700D06CE7B2
S11328C056781938DFE758011218FF32002D08DA5C
S11328D0702657781C20374200D05EE756782430A3
S11328E0A9E756781C20760700D056E756781838A2
S11328F0C9E75A68520052085A604EE7383E002031
S1132900FFFFFF8F0F230B40026808335B0149B2BE
S1132910D218002906DA802111710268D318022224
S1132920DA717047402151710268D3180122F7E728
S11329300F230B40006808335B01C31849B2987930
S1132940002902DA8006C00F7047C006FBE70F2398
S11329500B40006808335B0149B2C31820220029E8
S113296000DB10225A7170470F2330B50B40026808
S11329705C011219FF3249B2D579002912DA2021FB
S11329800D420ED05171026849181219FF32147A9F
S11329900C4206D01172026808335B01D31802227C
S11329A01A7130BD10210D42FBD0517102684918D3
S11329B01219FF32147A0C42F3D0117202680833F0
S11329C05B01D3180122EBE770B50C0005680834ED
S11329D06401655D1C266D066D0F14D04D010B4915
S11329E09B0449190D000A614A69094900260A40F5
S11329F06A616A69990C930B9B030B436B610368CF
S1132A001C1980236371300070BDC046383E00201D
S1132A10FF3F00F070B50C00056808346401655D83
S1132A201C266D0713D00B4D49014A519B046918AC
S1132A304A681D09084B002613402B434B604B6822
S1132A409B0B9B034B6003681C19402323713000CC
S1132A5070BDC046383E0020FF3F00F0094B1960AE
S1132A605A6809491140802292020A435A605A68FE
S1132A70920B92035A60402203680020FF335A717C
S1132A807047C046383E0020FF3F00F00223026832
S1132A9011780B43137002689378022BFCD07047B3
S1132AA0F0B5D74E85B037683D682B78DB0900D187
S1132AB022E12B8C002B00D12DE2288CD14B80B24B
S1132AC0984703000400032008335B01ED18ED79F7
S1132AD0EAB20192024231D00121CB4A94460A0063
S1132AE06546A2402D6895432A0065462A603A68E7
S1132AF0D218D0713A19AE3212780A421ED0C34AA3
S1132B00600114703968595CC14B8907890F1B181F
S1132B10012900D0B4E059688904890C51805968AE
S1132B200901890C91805A68920B92035A60A31C84
S1132B301B01FB185B68B549380098470423019AC8
S1132B401A4238D02200AE4B08321868530101688B
S1132B509C465B5C9B065B0F0293022B00D0A4E0B7
S1132B6063465B5C9B079B0F012B00D09DE0A84F45
S1132B7065017D192F0003950837BF78FD0700D440
S1132B8093E0A340A04A1168994300231160039A7B
S1132B909372042203686344DA710319AE331B7819
S1132BA0029A134207D0102398494B702301C3188B
S1132BB00C709B6A98470822019B13421DD0012385
S1132BC0A34091490868984308603068A3180168D5
S1132BD05B01CB18DA710319AE331B789B070CD554
S1132BE08B4B62019B181F22DB89884913404B7071
S1132BF02301C3180C709B6A98471022019B13424F
S1132C001FD00123A340804908689843230008602B
S1132C103068083301685B01CB18DA710319AE33ED
S1132C201B785B070DD5794A794B61015B181470E9
S1132C305B6800211B019B0C53802301C318DB6AD2
S1132C4098472022019B134200D1F9E10123A340BC
S1132C506D490868984323000860306808330168A8
S1132C605B01CB18DA710319AE331B781B0700D450
S1132C70E6E166490C7024010419236B9847DFE1EF
S1132C805968644D0901890C518088B259688904D6
S1132C90890C9180596829405960002800D046E782
S1132CA05B689B049B0C538041E75201535C584D75
S1132CB09B065B0FAC466701032B11D1535C9B074A
S1132CC09B0F012B0CD13900002361448B7204212A
S1132CD003689B18D97103689A18102353716AE723
S1132CE03A000023624493722200036808325201BE
S1132CF09B180422DA715EE72C8CA2B20192002A9E
S1132D002CD1AB8B55329BB20293AB23FF325B00C9
S1132D10FB5ABD5A80271D40029B019C1D407F0029
S1132D203D4B6200D35A029A134202D032681268B1
S1132D3093832B420ED03949062C04D1344B1B8982
S1132D401B093B400B60230032682E339B009B58C9
S1132D50100098470134072CE2D171E13E00593646
S1132D60FF36019A01211A41DCB20A4200D1CCE0BB
S1132D701A00083251016918C81D0390C879317AC4
S1132D800292C0B2327801401140602210421AD03F
S1132D905A01AD184022FF35287A10420DD02A720C
S1132DA0C03A14431E4A94716022114200D147E193
S1132DB01B01FB18E0331B6852E02022287A1042E2
S1132DC0F2D02A72EEE7102210422BD01021039A7F
S1132DD011701021FA186132FF3212780A4200D1C0
S1132DE02EE10B4A5901521852681B01FB18920438
S1132DF00B49DC33920C1B680A8038003EE7C0465E
S1132E0018070020D1800000280700202C0700208C
S1132E10383E0020FF3F00F02CB700001C070020C4
S1132E2020070020032210422ED002205A01AD18A0
S1132E30FF352E7A064215D02872802581486D42CE
S1132E402C438471804CA218103252689204920C64
S1132E5042808A0700D1F3E00D331B01FB185B6845
S1132E607849CAE70126287A3042F2D075482E7292
S1132E708471754CA41862689204920C0280626892
S1132E801201920C8280E4E70C2210423DD008200B
S1132E905E01AD19FF352A7A02421ED028726A48B3
S1132EA080190226857E354202D0857EB54385761B
S1132EB08020404204436348029A84713868520176
S1132EC08218D279920700D5BAE00C22114200D1BF
S1132ED0B6E01B01FB18D8336DE704202A7A0242BE
S1132EE0F3D02872584880190226857A354202D0D8
S1132EF0857AB54385725348029A847138685201C1
S1132F008218D279D207E0D59AE001330136082B32
S1132F1000D026E794E00423AC8BA4B21C4226D054
S1132F20AB834A4B1B689C4601231D002A00614663
S1132F309A40114210D019003A6808314901885C5E
S1132F408006400F032807D1885C8007800F012882
S1132F5002D15218102111710133082BE6D13B0024
S1132F60A5331B78DB0702D57B6838009847082314
S1132F701C420CD00021354A3068116002689383EA
S1132F800300A5331B789B0701D58368984740232A
S1132F901C4209D03068026893830300A5331B7870
S1132FA0DB0601D54369984720231C4209D03068C9
S1132FB0026893830300A5331B781B0701D50369BB
S1132FC0984710231C4209D0306802689383030099
S1132FD0A5331B785B0701D5C368984780231C423F
S1132FE00CD00021194A30681160026893830300F1
S1132FF0A5331B789B0601D58369984780235B0022
S11330001C420CD00021114A30681160026893837D
S11330100300A5331B785B0601D5C3699847802359
S11330209B001C420CD00021084A306811600268E1
S113303093830300A5331B787F2B01D9036A984738
S113304005B0F0BD20070020383E002028070020EE
S113305000220123027043708270C3707047000025
S11330600023F7B504001700694A0D001360694A8C
S1133070216010602022684901AEC8690243CA6118
S113308001227370F3700633337031001820634BE0
S1133090B270984706233100337019205F4B98476C
S11330A06A46BB786946137006205D4B98475D4BB2
S11330B00620984701222B7813432B70AB78DB074B
S11330C0FCD40321584BDA788A43110002220A43C4
S11330D00C21DA70DA788A43110008220A431F218E
S11330E0DA70524A13685B0B0B408B4200D1052304
S11330F0288D4F4E0B409B01304003432B851368B2
S11331009B0C0B401F2B00D1023B1F20298D034039
S113311081430B4307212B851368DB0D0B408B4246
S113312000D103232A8D0B4042491B030A407F210F
S113313013432B852B783A780B40D20113432B7021
S11331407A782B787E390A40033192008B433A48CF
S113315013432B706862FB78012B4FD1226808312E
S113316013898B431381802200215200334B9847EB
S113317022000021231D243202C39342FCD12100EA
S11331800022A4311A605A609A60DA6010338B42CC
S1133190F8D11A7023002100A5331A7000220133DC
S11331A0AE311A701A7201338B42FAD12300220015
S11331B00021B833D43202C39342FCD1210000224F
S11331C05531FF311A605A609A60DA6010339942BF
S11331D0F8D1AA235B00E2520233E2522300002218
S11331E059336134FF33FF341A701A7201339C422D
S11331F0FAD18022124B00201A60FEBD002BB2D1FE
S11332000C2522681389AB4319431181ABE7C046EF
S11332102807002018070020000400406D7A0000F1
S113322069790000E17800000050004124608000CA
S11332303FF8FFFFFF8FFFFF383E002027AE00005E
S113324000E100E0002382B00193064B1B680133C8
S113325001D072B6FEE772B6019B002BFCD002B01F
S11332607047C046B80000200000000000000000C5
S11332700B4A13681868203080F30988022080F311
S11332801488BFF36F8F3FBCAE4608BC04BC62B663
S11332901847C046C046C046C046C046C046C046A1
S11332A0DC39002010B58024031F64041C60043B37
S11332B019600349043B1960143B40381A6010BD7F
S11332C04532000070470000FF2210B50E4B120477
S11332D0196800240A431A60FF22196812060A4377
S11332E01A600A4B0A4A1C600A4914600A4A1160AF
S11332F007221A60094B1C60094B9847094B9847F1
S1133300094B9847200010BD20ED00E010E000E0DC
S113331018E000E07FBB000014E000E0B8000020EB
S11333207132000031600000453200008022044BFD
S113333052051A60BFF34F8FBFF36F8F7047C046BB
S113334004ED00E072B6044A136801331360BFF35E
S11333504F8FBFF36F8F7047B8000020054A136882
S1133360002B01D172B6FEE7013B1360002B00D1A4
S113337062B67047B8000020EFF3108072B6704751
S113338080F3108870470000000000000000000077
S1133390EFF309800E4B1A6820381060F0C04446E1
S11333A04D4656465F46F0C008B572B602F040FE80
S11333B062B60CBC116808681030F0C8A046A94673
S11333C0B246BB4680F309882038F0C81847C04687
S11333D0DC39002010B5074B9847074B0400984789
S11333E0002803D08022054B52051A602000044BAC
S11333F0984710BD793300006D5D000004ED00E0D6
S11334008133000010B5104B1A68824219D35C68EE
S11334101919884203D14168180009195960416893
S11334204418A24208D1094C2468A24204D052682C
S1133430521842601A6812680260984200D01860FC
S113344010BD1300E0E7C0462436002034070020F6
S1133450F7B53A4B04009847394A3A481368002BA9
S11334601DD139490733194235D0CD189D43374B07
S1133470C9184B1B29000025354ECB1875603160E7
S11334800726083BB3431D605D605D1A136028C1C5
S1133490304B1D60304B1D6080231B0603600668A3
S11334A0344216D1002C14D02300072108330B42D8
S11334B001D08B430833002B0BD0274F3D68AB4220
S11334C007D823490C686068834206D8126894427E
S11334D009D1002526E01D4BCDE720680028F5D052
S11334E021000400EFE70A68019222680A6062681A
S11334F0D21A102A08D9E018410701D072B6FEE7A3
S113350042606360154B9847124A63681168ED1A6C
S11335103D608D4200D215601E430023019D66600C
S1133520083523600E4B9847002D01D10D4B984769
S11335306B0701D072B6FEE72800FEBD515D0000A6
S1133540340700201836002038070020E02E000041
S113355024360020203600201C36002005340000CC
S1133560895E0000817C000010B500281BD00E4A43
S113357008384368126804001A4201D172B6FEE7A3
S11335800168002901D072B6FEE793434360074BFC
S11335909847074A6368116820005B181360054B5D
S11335A09847054B984710BD18360020515D000020
S11335B01C36002005340000895E0000F7B5344B4A
S11335C000219847002862D1324D334A2B889BB2A0
S11335D013806B88314A9BB21380314B1B68A888D7
S11335E01C1C80B22F4B98472F4A304E304BB047AB
S11335F0304B0600201C0F0098472C4C2E4A2F4BB2
S1133600A0472F4C02000B0030003900A0472D4B7F
S11336109847234B18605B680193E888214B80B27C
S11336209847224C204A224BA047224B060001987F
S11336300F009847204A214BA047214C02000B0061
S113364030003900A0471F4B9847154B58609B68C2
S113365001932889134B80B29847134A134C144B97
S1133660A047144B060001980F009847124A134BC9
S1133670A047134C02000B0030003900A047114B47
S11336809847074B104A98602B8A9BB21380F7BD6A
S11336909D1000002C360020623600206436002085
S11336A06836002009AB00009A999999759F00002B
S11336B09999B93FFDAB0000CDCCCCCCCCCCEC3F40
S11336C0ED900000A1AC00006036002010B5054B61
S11336D01B78002B04D0092203490448044B984763
S11336E010BDC046743600202C3600204036002021
S11336F06910000010B58CB06846224B98476A46A2
S113370002231373C0235B01D38100236946D3745E
S113371001220A70C022D2004A8003224A70283251
S11337206A4413700922184C0B7102930BAB1A7084
S11337301649174B6A462000984723685A7E52B2AE
S1133740002AFBDB8021134A090411600F229A75B9
S11337501A7619780D3A0A431A702268537E5BB2BE
S1133760002BFBDB0C49200000220C4B9847012264
S1133770E37E1343E3760A4B1A700A4B98470CB066
S113378010BDC0462D0C0000403600200040004211
S1133790710C000000E100E0BD3500005510000090
S11337A074360020CD360000F8B5022823D8134B18
S11337B08000134EC058B0470022124B124CA04751
S11337C0124C134A134BA047134A144BA047144DF1
S11337D0A847B0470022134B134FB8470022134B9E
S11337E0A0470022124BA047A847B047114A124BEA
S11337F0A047A847F8BD0020FCE7C0466836002073
S1133800FDAB000000FEAF400D970000759F000067
S11338106666666666660A40F6285C8FC2F5F83FFF
S1133820A1AC00000000E03F75A4000000001440BB
S11338300000D03FCFF753E3A5935140F0B50021EA
S113384089B002204F4B98470025E8B24E4B984769
S113385005ACAB0001351851032DF6D14B4D05983D
S1133860A8474B4E4B4A4C4BB04700224B4F0023CA
S1133870B8474B4B9847A847009001916068A84708
S1133880444A454BB04702000B0000980199B847E1
S113389000900191A068A8473E4A3F4BB047404B77
S11338A006000F00009801999847A8473B4D020075
S11338B00B0030003900A847394B984700230026F5
S11338C01D00071C00930394039AAB009958381CFD
S11338D0344B9847344B9847C317C0185840334B60
S11338E09847311C324B041C9847002802D0EBB295
S11338F00093261C0135032DE6D100240025009BEE
S1133900AB4216D005AAAB00D058204B98470022F2
S1133910284B1F4EB0471D4B0600201C0F00984734
S11339201E4C02000B0030003900A0471C4B984786
S1133930041C0135032DE2D1009B039A9B00D0584F
S1133940211C184B9847184B9847C317C018584068
S1133950194B98470D4B0600201C0F009847174A37
S1133960174B0B4DA847174D0B00020039003000D0
S1133970A847044B011E00D0012102209847201CB7
S113398009B0F0BDFD390000A9370000FDAB00000F
S1133990759F0000BEA4315A4755D53FED900000F5
S11339A0A1AC0000D58C00000D9000004D900000EB
S11339B06D8000000000E03F09AB00009A999999DE
S11339C09999C93FF97F000010B5064B1888064B3A
S11339D080B298470022054B054CA047054B9847F9
S11339E010BDC0466436002009AB000000FEAF40A5
S11339F00D970000A1AC0000002070471F2807D8D5
S1133A00064A0123002904D0834011680B43136044
S1133A1070478340116899431160F9E778360020B4
S1133A2000231F2807D801228240044B1B6813403F
S1133A30581E8341DBB218007047C0467836002018
S1133A40024B1868431E9841C0B270477836002074
S1133A50F0B5070085B03C4E00690C00B0473B4D03
S1133A6002000B0000203A49A8473A4B98472268C5
S1133A70A368051C9818384B9847384B011C281C20
S1133A8098470021364B051C9847364B011E00D041
S1133A9001210620984778780A2827D9B047324A66
S1133AA0324B334EB047334F00900191281CB84736
S1133AB0002202900391009801992F4B2F4DA847A3
S1133AC0224D02000B0002980399A847214B984706
S1133AD0051CB847009A019BB047294B9847294BCE
S1133AE0E060281C9847606005B0F0BDB0471E4AEE
S1133AF01E4B1F4EB047154E02000B0000201E49FE
S1133B00B047144B98471B4F061C281CB84700901D
S1133B100191301CB8470022174B184DA8470B4D94
S1133B2002000B0000980199A8470A4B9847164BCE
S1133B30011C071C301C9847124DA8476060381CB4
S1133B40A847E060D0E7C04609AB00000D9700002D
S1133B50004CED40A1AC00004D900000D58C00005D
S1133B6045800000FD3900009A9999999999B93FC7
S1133B70759F0000FDAB00000000F03FED900000D9
S1133B80A1AA00000D900000958A0000F0B5854BB5
S1133B9089B0019207000C009847834B1A78834B35
S1133BA0002A03D13A7DD20700D518601B68266825
S1133BB00293C51AB5421DDABB682361BA68039340
S1133BC0FB68981A7A4B9847794B049028009847D9
S1133BD0774B051C30009847764B011C281C9847EE
S1133BE0754B011C04989847744B9847039BC01865
S1133BF0206106E06368F018854200DBA0E0FB6802
S1133C002361029A694B60691A6023690393181A45
S1133C10674B98476A4B029019686A4B9847664B02
S1133C2069499847694DA847694C049005912068F3
S1133C30A8478022674DD205674BA847674D02000D
S1133C400B0004980599A847654B98475B4D049071
S1133C5020600298A847C317C0185840544B98478F
S1133C60019B59695F4B98475F4E002800D196E04D
S1133C7031685E4B02989847019B30609B68041C36
S1133C800693019B06991B6907934B4B9847A847DA
S1133C90C317C0185840464B98470799544B984748
S1133CA0002810D0201CA847C317C0185840404B08
S1133CB09847404D011C201CA84707993E4B984744
S1133CC00699A84730603A4B03989847019B3A4CB1
S1133CD01968A047019B061C59680298A047434DE8
S1133CE0011C301CA847404B061C1968019B9868AE
S1133CF0A047011C301CA847019B061CD9680498E6
S1133D00A047011C301CA847019B394D9E69041C27
S1133D10311CA847002800D0341C019B211CDE69FB
S1133D20301CA847002800D0341C254B029A201CC4
S1133D301A6001223B7D13401B4A137009B0F0BD89
S1133D40A66883199D421FDAFB68281A0393184D4D
S1133D502361A84704903000A847164B011C04981F
S1133D609847FA68BB68061C981AA847124B011CAE
S1133D70301C9847061C0398A8471C4B011C301C98
S1133D8098470E4B984733E7E2689B18BA6822615C
S1133D909D4200DA35E7029AD318029331E70023F3
S1133DA0336090E7615D00008C3600208836002087
S1133DB04D900000B5860000958A00000D9000002B
S1133DC084360020D58C00003333333FFDAB000034
S1133DD07C360020759F00003333D33FED90000004
S1133DE0A1AC0000458000008036002091830000D3
S1133DF06D80000010B5031E04D041180020044A51
S1133E008B4200D110BD1C7801336040105CF7E791
S1133E103EB7000010B50C490B784C781B0288782B
S1133E201B191B02CA781B181B029B18074A136034
S1133E300B794C791B0288791B191B02C9791B1851
S1133E401B025B18536010BDC03600209036002062
S1133E50802270B58EB001AC9203226101222C4BFA
S1133E60524263600023E282A2820A326A44D37718
S1133E700CAA137031226A44137032226A44A3607C
S1133E802376A3621370D7332386D63B23734F3331
S1133E9001933A3BE361013323621E4D22001E4924
S1133EA028001E4B98470028F7D107222E68F46992
S1133EB01440FCD102233268134333602868184B42
S1133EC098471F2318401E3B8340164A1360102254
S1133ED0E888718B114203D101348442F9D372838F
S1133EE0280001221049114B984702236A7E104989
S1133EF013436B7601230B804B8000230D4A4B72D6
S1133F000B7228000C4B4A6098470EB070BDC04637
S1133F10480D0000983600200014004245130000AC
S1133F200D70000000E100E0153E00005D18000087
S1133F30D4360020BC000020951800000123064957
S1133F4010B50B804B800023044A4B720B7204485B
S1133F50044B4A60984710BDD4360020BD000020B1
S1133F6098360020951800000123074910B50B80EE
S1133F70064B07484B6008234B8000234B720B729F
S1133F80044B984710BDC046C8360020C0360020F8
S1133F909836002075180000014B06CB06C0704708
S1133FA0903600207047000070B5040086B01629D2
S1133FB027D1457D04390330134B9847854220D1DE
S1133FC0012101AD2B78E2788B430A4013432B7017
S1133FD023790E4E611D042202A86B70B0472100A4
S1133FE00422093103A8B047210004220D3104A89A
S1133FF0B04721000422113105A8B0472800044B22
S1134000984706B070BDC046F53D000015AE0000EF
S1134010F54A000073B50F4B984700240B20012587
S11340200D4E01A90D4B4D708C700D703070747075
S1134030B470984732785309D109A14207D11F219E
S11340400A409540064ADB019B189D6173BDA4613B
S1134050FFDEC04641470000E03600209D700000AE
S1134060004400410322002110B58AB004AB1A7049
S113407059709970019316230293074B07490393D0
S11340806846074B984700980199029A039B054C90
S1134090A0470AB010BDC046A93F0000E03600208A
S11340A015AE0000F1470000F0B58BB06A46062358
S11340B01370012304AC06932D4B06002D4F05927B
S11340C02D49032220000793B8476168A268E3687A
S11340D004982A4DA8472A4B00209847294D32229C
S11340E000230021A8470023274A284D801859415E
S11340F0274A0023A847274B98470223237000230D
S11341006370002304251520A3703378311DDB0769
S1134110DB0FE37073782A0068442371B8473100D9
S113412019202A0008316844B84731001D202A00AC
S11341300C316844B847310021202A00103168440A
S1134140B847132012216844134B9847162302934F
S1134150074B607503220849684601940393B847E6
S113416000980199029A039B044CA0470BB0F0BD40
S1134170A53F000015AE0000E0360020F147000026
S11341805978000051810000BFCF6A0011810000FE
S1134190C0CF6A0001000020F53D0000F0B585B0F5
S11341A0002860D1334E344C344D210014223000A9
S11341B0A84730002100142228311430A8472100D8
S11341C02F4E143114223000A847210030003C3116
S11341D014301422A84700242023264AA25C062A6D
S11341E001D8244AA354264A125D062A01D8244A37
S11341F013550134282CF0D1224B234A0025944630
S11342005A60032218005D721D721C805A8001AA34
S1134210C2C8C2C2614601989A681C4B98471C4B9D
S1134220144A19005D721D721C805A605C8001AAD8
S1134230C1C9C1C20F4901989A68144B9847154BDC
S11342400F4A19005A605D721D721C805C8001AABD
S113425031C931C20A499A6801980C4B9847012325
S1134260180005B0F0BD00230128F9D1014E0A4C15
S11342709AE7C0465E370020AE37002015AE000036
S1134280863700204C370020BE0000201D4F000060
S11342900C38002018380020E33600207FB5431E78
S11342A00022312B16D8FE230C49887028200B706D
S11342B0AC3B4B700A4B18802538588018005A7252
S11342C01A72596001AA70C870C29A680198054BA5
S11342D098470122100004B070BDC0465837002032
S11342E0403700201D4F00007FB5431E0022072BDE
S11342F016D8FE230C49887028200B70AB3B4B70FA
S11343000A4B18802538588018005A721A7259605E
S113431001AA70C870C29A680198054B9847012297
S1134320100004B070BDC0465B3700203437002055
S11343301D4F0000134B144AF0B594465A600024F4
S113434028250222180085B05C721C721D805A80D8
S113435001AAC2C8C2C261469A6801980B4B984729
S11343600B4B0820984728000A4B984713220A4908
S11343700A4B0B48984720000A4B9847012005B088
S1134380F0BDC04600380020C10000201D4F0000D1
S1134390E94200009D4200003EB8000015AE000056
S11343A0AE3700209D410000F0B58BB005AD354B14
S11343B007002800039198476B782022029300237A
S11343C0314C1A550133502BFBD12A782F4B3049ED
S11343D0D20700D42F492000984720002E4E6B6846
S11343E02E4A0A210A30B04720002D4AAB680D211D
S11343F01430B0472B4B0A21029898470A22C3B2C3
S1134400200052425A43029920308A18D2B20092B4
S11344100921254AB0472000EB68244A0D212830A1
S1134420B04720002B693430214A0721B047039854
S1134430013803280AD8144C1E4D03F029FC020944
S11344400E1320003A691C493C30A8470BB0F0BD5C
S11344502000BA683C301949F7E72000FA683C307C
S11344601749F2E77E780A2130000E4B98470A2359
S1134470C2B220005B425343F318DBB211493C3013
S1134480A847E3E7E14A0000AE370020E1AE0000B0
S11344908BB8000093B8000039AE00009CB800004F
S11344A0BDB80000B97C0000A3B80000CEB800007D
S11344B0B2B800009DAE0000AEB80000B9B800006C
S11344C0CAB80000DAB800000023202270B51D4CE1
S11344D01A550133502BFBD11B4920001B4DA84713
S11344E000201B4EB047002803D0200019490A3091
S11344F0A8470220B047002803D0200016491430F2
S1134500A8470320B047002803D0200013491E30D9
S1134510A8470420B047002803D0200010492830C1
S1134520A8470520B047002803D020000D493230A9
S1134530A8470620B047002803D020000A493C3091
S1134540A84770BDE336002052B80000E1AE000079
S1134550213A00005AB800005FB8000068B80000B3
S113456071B800007AB8000084B8000010B50021CA
S11345700320064CA047064B98470649064B98472C
S1134580011E00D001210420A04710BDFD39000008
S1134590F93900000000C8426D8000000122014B7F
S11345A09A617047004400410122014B5A617047EF
S11345B000440041F7B5274B0021041C984700280C
S11345C03AD1FE21201C8905234B9847002800D0AE
S11345D0224C234E234B3168201C9847224D234BF9
S11345E000282BD0224928689847224FB8470090CA
S11345F00191201CB84780221F4B12061F4CA04774
S11346001F4C02000B0000980199A0471D4B9847CE
S113461028602B683360181C164B98470022174CEF
S1134620194BA047194B98478205920D0021184B4E
S1134630184898472868FEBD174CCAE717492868E8
S113464098470C4FB84700900191201CB8470022AE
S1134650134BD3E7458000006D80000072F97F3F63
S1134660283800208180000024380020958A00002A
S1134670CDCC4C3FFDAB00009999C93F759F00001C
S1134680ED900000A1AC000000F88F40D58100003F
S1134690C51100002C380020ACC527373333733FD5
S11346A09A99A93F7FB50125124B02AC5D6101A81F
S11346B0114B98472000114B984740230026E57082
S11346C00F4D2370220028000E490F4BA67066710F
S11346D0984701AA310028000C4B98473100280064
S11346E00B4B984728000B4B98470B4B00209847DF
S11346F07FBDC04600440041BD110000B31000005E
S11347002C38002000480042C9100000BF110000EE
S1134710C111000081110000B545000010B5054C21
S113472000222100044B9847E3680448A168984795
S113473010BDC04650380020ED6A000060380020EB
S113474070B58EB000216B460125197459749D749F
S1134750DD7419751D700533D9770C221B4B06A81F
S113476001910291984780239B03039380235B006C
S11347700A93DB180B938023DB000C9301235B4229
S1134780134C0D93134B6A4606931349134B2000A5
S113479098472668124B300098471F2318408540DD
S11347A0104B1D602268D369002BFCD102223368B0
S11347B02000134333600C490C4B984704233734CF
S11347C02278134323700EB070BDC04627AE00009C
S11347D0A038002080841E0000080042E568000024
S11347E00D70000000E100E01D470000856B000033
S11347F07FB5124C0393A36800906D460191029219
S11348000020402B18D8230007CD07C32A680C4E7C
S11348101A6061680B4BA268300098470A4D21006A
S113482001220A4B28009847A368094A9BB2310029
S11348302800084CA047012004B070BD5038002067
S1134840DC38002015AE0000A0380020ED6A00001E
S1134850603800209D6B000010B5014B984710BDD7
S1134860F907000070B51A4B86B01B78050001915A
S1134870002B2AD0010009205E23164E02AC14310D
S1134880042268442370B04729000D20103104220B
S11348906844B0471120042201A96844B0470023AA
S11348A063730133E15C627B0133521862730D2B35
S11348B0F8D1094B9847002807D0084B98470D2892
S11348C003D90E212000064B984706B070BDC046A0
S11348D01C39002015AE0000D9050000B505000004
S11348E0850600000120014B187070471C39002018
S11348F00022014B1A7070471C39002010B5014B7F
S1134900984710BDCD360000F0B501268FB0494B55
S11349109847494C0E222378A260B34323701E2388
S11349206370E3600A3B2361444B98470520444B82
S1134930984723002200143323CA23C303CA03C3A2
S1134940C823404D20002B60AB6029003E4B9847A4
S11349503E4B3F4F00933200002302213D48B847AD
S1134960071E08D03C4B98470023020031000093F7
S113497038003A4EB047384B9847394B394A06937A
S11349800B92394B394A07930A920023FE2209936A
S1134990089392050D93364B05900C920126984787
S11349A00A2105A8334B9847334B98478022334B51
S11349B09203196A114236D19A61314B9847237D8B
S11349C03040B343034323752378B34318432D4B3B
S11349D0207098472C492D4B98472D4FB8472D4BA5
S11349E0A06160609847B8472B4B686198472B4F8C
S11349F03B78002B04D02A4B2000984700233B70BF
S1134A00284B06AA290020009847237D0390264FAF
S1134A1033420AD0254B98470398B847244B011CCE
S1134A2028009847BCE75A61C7E7224B9847002003
S1134A30B847B5E7154000003C3900206540000048
S1134A40ED5F000024390020513A0000FD480000C9
S1134A5085640000EBB80000615D0000C9640000DB
S1134A60CDCC4C3D00000C420AD7233C9A99993E88
S1134A70A5460000755F000019680000004400416D
S1134A80794C00001952000000007A44958A000015
S1134A900D9000003D3800006D450000C30000206B
S1134AA0A94000008D3B0000B54500009D45000075
S1134AB065480000A945000013B5054B02000193A9
S1134AC0009100230349044C0448A04713BDC04689
S1134AD020390020F1B80000255A000009490000DF
S1134AE0020030B5024B32CB32C212CB12C230BDFF
S1134AF03C3900200300074870B5020032CB32C2B3
S1134B0012CB12C20122044B04491A70044B984779
S1134B1070BDC0463C390020C30000202439002069
S1134B20513A00000123024A11784B401370704738
S1134B30C400002070B5144B86B000930023134CBE
S1134B401A001E211248A0470125124C6D42206014
S1134B50114B2A00186803A9104B98470128F7D174
S1134B6003A90F4B0F4898470F4B2668984700231B
S1134B7002000093022130000C4EB0470C4B186821
S1134B800C4B9847E4E7C046B94B0000856400002D
S1134B9017B90000903900209839002039570000D7
S1134BA09518000068390020615D0000C9640000A8
S1134BB09C390020CD60000010B5024B1868024BF0
S1134BC0984710BD9C390020E15B000070B5094C8A
S1134BD0094D2378002B09D1084B9847002801D1AF
S1134BE00123237023780120002B00D00020A84744
S1134BF070BDC046C40000209D410000413A000041
S1134C0010B50630C37F024B1868024B984710BD9D
S1134C109C3900205D5C000037B50E4B0D0004008C
S1134C2000220C210A2098470B4B220018600B4BE2
S1134C30009501930A4C00230A490B48A04780229F
S1134C400A4B009501935200002309490948A047E3
S1134C5037BDC046D554000098390020643900207F
S1134C60255A0000F9B80000994C00009C39002036
S1134C70FDB80000354B0000024B186A0005C00F58
S1134C807047C04680440041024B186AC004C00FFC
S1134C907047C046004400418022F0B593B005AC93
S1134CA0920322610122774B52426360002302A9DE
S1134CB0E282A28212325218D37710AA13703922D8
S1134CC0521813703A225218A3602376A362137009
S1134CD0D7332386D63B23732C3305931D3BE361E3
S1134CE001332362684D220068492800684B9847C5
S1134CF0021EF7D18021C023C220664EC9005B008A
S1134D00F15080003358644F3B403350634F31605F
S1134D1028006349B847022261492800B8470123A3
S1134D206A7E2F6813436B7604236A7E13436B7683
S1134D300723FA691A400392FBD102233A6813430A
S1134D403B602868574B98471F2318401E3B8340FD
S1134D5010223360E888039B798B114203D101331D
S1134D608342F9D37A83504B9847504B01220093E6
S1134D701E2100234E484F4EB0474F4D071E07D00B
S1134D80A847002302000093380001214B4FB84785
S1134D90FA214B4B01220093C90000234948B04734
S1134DA0061E07D0A847002302000093300001210B
S1134DB0424EB047A847059014212000424B984723
S1134DC0424B9847424B07001B78424D424E002B02
S1134DD00BD1002809D02878042805D802F058FF00
S1134DE003101214160001232B703C4B9847031C2C
S1134DF02878042843D802F04BFF180E212C3700E2
S1134E000223F1E70323EFE70423EDE7344B3000FB
S1134E1098470023E8E73349181C334B9847334934
S1134E20334B9847334B98473061294B29781F708F
S1134E303000314B9847314B9847BDE73049181C37
S1134E40294B98472F492A4B98472A4B9847B060DB
S1134E50EBE72D49181C244B98472C49244B9847C1
S1134E60244B9847F060E0E72949181C1E4B9847EB
S1134E7028491F4B9847284B98477070D5E7002363
S1134E802B70D2E7480D000068390020000C004266
S1134E904513000000E100E0FFFF00FF5D18000083
S1134EA0014C00000D70000035430000CD4B0000A4
S1134EB001B9000085640000615D0000C964000060
S1134EC0254B00000CB90000755F0000894C000000
S1134ED094390020B4390020A0390020C9390000D9
S1134EE0F54A000000005842958A00000000C040C6
S1134EF0918300000D900000A9430000C944000004
S1134F0000008841000040400000C84100002041EA
S1134F1000000C420000A040A58100001FB5064B14
S1134F200190186802910392002804D0002301A97B
S1134F301A00024CA0471FBD9839002025550000D7
S1134F4010B58024E4036420034B9847034B98472F
S1134F50034B5C61F7E7C046ED5F0000413A000097
S1134F608044004113B5054B0200019300910023D6
S1134F700349044C0448A04713BDC046B839002077
S1134F8023B90000255A0000414F000010B5014B21
S1134F90984710BD3D3F0000F0B5574B8BB0984784
S1134FA0564B069008A89847554B08989847554E75
S1134FB0554A564BB047564B9847564B079098471F
S1134FC0554F04900591554B386855499847514BB6
S1134FD09847802204000D0004980599D205514B8E
S1134FE0B04702000B00200029004F4CA047484B5B
S1134FF098474E4A069B126838600390981A4C4BA7
S11350009847414A414BB047414B9847414B9847D9
S113501004000D0004980599464A474BB047220006
S11350202B00B047454B049005911868394B9847BD
S11350303D4F02000B0004980599B847344B98473C
S11350403E4B18603E4B07989847C317C01858400A
S11350502B4B9847374A384BB04722002B00B047B8
S11350600022384BB047384E04002A4B30680D00FC
S1135070984702000B0020002900B847244B9847AA
S11350800024324B071C1B783060314D211C0398DF
S1135090002B20D02F4B9847002808D0211C2868CB
S11350A02D4B9847002802D00023284A1370039BF5
S11350B01E4A2B60069B1360284B9847284B1C689C
S11350C00D4B984700230200009302212000254C39
S11350D0A0470BB0F0BD244B98470028E7D0211C13
S11350E02868224B98470028E1D0214B34601F6088
S11350F0124B1C60DBE7C046615D0000993F000075
S113510009AB0000759F0000FCA9F1D24D62503F2D
S1135110A1AC0000FDAB0000BC390020958A000062
S11351203333333F3333D33FED900000CC39002089
S11351308DAB0000111111111111913FC0390020E4
S11351400D9000000000E03FD8390020C500002089
S1135150C83900206D80000059800000693F0000BC
S1135160C4390020C964000045800000818000002B
S1135170D039002037B5134B9847134B9847134B3E
S1135180012200930A2100231148124CA047051E56
S113519008D0114B984700230200009328000121F6
S11351A00E4DA8470E4B0521009300230D481A000D
S11351B0A047FA240C4BA400186020000B4B98471E
S11351C0FBE7C046513E0000F5360000994F000051
S11351D032B9000085640000615D0000C96400000C
S11351E08D4F000039B90000C4390020ED5F000084
S11351F013B5054B02000193009100230349044CAD
S11352000448A04713BDC046D43900202BB9000080
S1135210255A000075510000014B18687047C046BC
S1135220D03900200300012208334360C3600361C6
S11352300023524282600360704700230361704779
S113524043684B609A688A609A6851609960086103
S1135250036801330360704703000A6830B50833FC
S1135260541C0BD103695A684A6091608B60596081
S1135270086103680133036030BD23005C6825685E
S1135280AA42FAD2EFE742688168036991608268B2
S1135290416851605A68904201D182685A60002284
S11352A002611A68013A1A601868704710B5040060
S11352B0034B9847A46B034B98476042604110BD71
S11352C0453300005D33000070B51600026C040025
S11352D0856B002A0AD106681000002E03D160688D
S11352E0154B984766600135A56370BD134B002EBE
S11352F00CD180689847A368226C30009B186268C0
S1135300A3609342EFD32368A360ECE7C068984797
S1135310236CE2685B422168D218E2608A4202D2BE
S11353206268D318E3600020022EDCD12B005A1EE1
S11353309341ED1AD7E7C0461963000015AE00008B
S1135340F7B5846C01900A00002C01D172B6FEE717
S1135350A16BE36B994201D372B6FEE7A16B002601
S11353608B4214D9270001A9453720000B4B3D7807
S113537098476DB206006B1C0BD1636A002B06D0F4
S11353802000074B24309847002800D00126300025
S1135390FEBD01356DB23D70F9E7C046C95200004B
S11353A0E9610000030010B51A6C0800002A0AD055
S11353B0D9685C688918D960A14201D31968D96099
S11353C0D968014B984710BD15AE0000F8B504002C
S11353D026001C4F4536B84735786DB2002D0EDCDB
S11353E0FF233370184EB047B847270044373D7841
S11353F06DB2002D18DCFF233B70B047F8BDA36CE1
S1135400002B09D000212000104B9847002801D020
S11354100F4B9847013DE0E7636A002BE0D0200082
S11354200C4B24309847F1E72369002BE3D020008C
S1135430084B10309847002801D0054B9847013D90
S1135440D6E7C046453300005D33000041530000F9
S1135450ED620000E961000070B504000D00002851
S113546001D172B6FEE7164B9847216CE36B2268B4
S11354704B43D0185B1AD318E36023006060A2602A
S11354800020FF224433A0631A705A7085420ED163
S11354902369834207D020000A4B10309847002824
S11354A001D0094B9847094B9847012070BD200053
S11354B0074D1030A84720002430A847F3E7C04622
S11354C045330000E96100002D3300005D33000026
S11354D025520000F8B506000D001700002801D180
S11354E072B6FEE7080070430C4B54309847041E14
S11354F00DD0002D0DD12060094BE66325640121F8
S113550020009847230050331F700023A364200019
S1135510F8BD030054330360EEE7C0465134000085
S113552059540000F0B589B0041E0291059201930C
S113553001D172B6FEE7029B002B00D074E0036C2D
S1135540002B00D170E072B6FEE7636A002B5BD0DB
S113555020003E4B2430984756E0059D002D02D193
S1135560B847002056E0002E02D106A8384B9847D1
S1135570B847384B9847384B984722004432137841
S11355805BB2013301D1002313702200453213783A
S11355905BB2013301D100231370B84705A906A8F3
S11355A02E4B98472E4E2F4D002839D12A4B984721
S11355B0A36B0393E36B0493B847039B049A93424E
S11355C02AD1200005991030274B98472000B04776
S11355D0A847002801D1254B984701261E4B984720
S11355E0A36BE26B224F934202D3019B022BB4D1F3
S11355F0204B019A029920009847A36C002BA4D059
S1135600019920001C4B9847002801D0174B98475C
S1135610B847012009B0F0BD2000B047A847DCE737
S11356202000B047A8479CE7019B022B02D1E36B03
S1135630012B09D1114B984700260028CED1059E95
S1135640002ECBD072B6FEE772B6FEE7E961000029
S113565065620000515D0000453300007D6200007A
S1135660CD530000895E0000856100002D330000E9
S11356705D330000C952000041530000F96200008C
S1135680F0B585B00400019117001E00002801D177
S113569072B6FEE7019B002B1BD1036C002B18D0C4
S11356A072B6FEE7002F38D001253D6003981D4BEC
S11356B09847280005B0F0BD636A002B2DD0200068
S11356C0194B2430984726E00135029B6DB21D70BA
S11356D023E0022E02D1E36B012B20D1134B984718
S11356E0A36BE26B0390934202D30025022EDDD11B
S11356F02300453302931D7832006DB20C4B01999F
S1135700200098476B1CDFD1A36C002BD4D0310050
S11357102000084B98470028C4D10125C6E772B67B
S1135720FEE7C04681330000E961000079330000E0
S1135730C952000041530000F0B585B0041E009129
S1135740019201D172B6FEE7009B002B66D1036C77
S1135750002B63D072B6FEE7019D002D02D1B8473D
S113576000204DE0002E02D102A8314B9847B847E3
S1135770304B9847304B98472200443213785BB241
S1135780013301D1002313702200453213785BB238
S1135790013301D100231370B84701A902A8274B94
S11357A09847274F274D284E00282FD12000B8476F
S11357B0002827D0200001992430244B984720004A
S11357C0A847B047002801D1214B984701261A4B1E
S11357D09847A56B1F4F002DBED01F4B009920008A
S11357E0013D9847A5632369002B07D020001B4B7C
S11357F010309847002801D0154B9847B84701202E
S113580005B0F0BD2000A847B047DFE72000A84757
S1135810B0472000B8470028D8D0A1E7104B9847DC
S113582000260028D3D1019E002ED0D072B6FEE708
S113583065620000515D0000453300007D62000098
S1135840AD520000CD530000895E00008561000068
S11358502D3300005D330000A5530000E961000012
S1135860F9620000002370B5064ADD00AC18266812
S1135870002E02D1A950606070BD0133082BF4D111
S1135880FAE7C046383F002070B50400114B1600FB
S11358900D0098472200443213785BB2013301D1E2
S11358A0002313702200453213785BB2013301D117
S11358B000231370084B9847A36B002B05D12000DD
S11358C0320029002430054B98472000044B9847A8
S11358D070BDC046453300005D330000B161000077
S11358E0CD530000002801D172B6FEE7064B426991
S11358F09A4201D0002205E0806A044B9842F9D014
S11359004242424110007047B03A0020983A0020C9
S1135910074A13681968074B002903D10122524230
S11359201A6070471268D268D2685268F8E7C046B5
S1135930E0390020903A0020F8B50400134B144DD0
S11359401E682868134B04300F009847631C07D166
S1135950002F05D029681048104B04319847F8BD32
S11359602B6834195C600E4BA64204D90D4A1068AA
S113597029680431F2E70C4A106829680431984711
S11359800A4B1A689442EAD21C60E8E7D83A00202D
S1135990DC39002087520000B03A00204152000058
S11359A059520000E4390020E0390020903A0020E8
S11359B070B5124C2368002B08D1114B1B68012BC6
S11359C001D9104B9847104B9847F2E70F4B984773
S11359D00F4BDB68DD680F4B281D98470E4A136890
S11359E0013B13602368013B23600C4B9847286BF1
S11359F00B4CA0472800A047DBE7C046503A0020E4
S1135A00E83900202D330000857C00004533000078
S1135A10C43A0020875200004C3A00205D33000055
S1135A2069350000F0B5950085B00190554C28000B
S1135A300F000293A047061E00D194E05820A0470F
S1135A40041E00D18CE006632A004F4BA5213000D0
S1135A509847236B043D5D1907239D43002300955C
S1135A601A00F95C3432A154FA5C002A02D00133E2
S1135A700A2BF5D1230000270A9D3D331F70042D06
S1135A8000D90425231D1800E562A5643F4EE76490
S1135A900393B04720001830B04705235D1B230053
S1135AA054332461A56164622765029A1F700199C9
S1135AB0374B009898470B9B2060002B00D01C604C
S1135AC0344B9847344B354F1A68354E01321A60BF
S1135AD03A68002A4AD13C601B68012B1ED1314D23
S1135AE03000A84730001430A84730002830A847B9
S1135AF030003C30A84730005030A8472A48A84717
S1135B002A48A8472A48A8472A48A8472A48A8470D
S1135B102A4B254A1A602A4B244A1A60294A1368D8
S1135B2001331360284A23641168E36A8B4200D965
S1135B30136014205843211D3018244B9847244BDC
S1135B409847244B01251B68002B06D03B68DA6A72
S1135B50E36A9A4201D2204B9847280005B0F0BD71
S1135B6030001E4B984701256D42F6E7194B1B6820
S1135B70002BD3D13B68E26ADB6A9342CED83C6007
S1135B80CCE7C0465134000027AE00003B52000071
S1135B90A5320000453300004C3A0020DC390020D7
S1135BA0E839002025520000643A0020783A0020A9
S1135BB0983A0020C43A0020B03A0020E03900208E
S1135BC0E43900205C3A0020603A00204152000091
S1135BD05D330000AC3A00202D330000693500002D
S1135BE070B5041E01D172B6FEE7134D2B689842BE
S1135BF020D0124B98472000114B9847002817D00B
S1135C00261D104B300098470F4AE36A11688B42F7
S1135C1000D91360142043430C483100C0180C4BC6
S1135C2098472B68E26ADB6A9A4201D3094B98478A
S1135C30094B984770BDC046DC390020453300004D
S1135C40E558000087520000603A0020E83900203F
S1135C50415200002D3300005D330000F7B5041EEF
S1135C6001D172B6FEE7164B9847164B01902000FF
S1135C7098470025A8421AD0134B144F1B68AB4217
S1135C801AD1134BE26A1B68261DDB6A30009A4264
S1135C906D41104B9847104AE36A11688B4200D952
S1135CA013601420310043430C48C018B8470198CE
S1135CB00B4B98472800FEBD21000A481831F5E730
S1135CC079330000E5580000583A002041520000A2
S1135CD0DC39002087520000603A0020E8390020B7
S1135CE081330000983A002037B500240F4B00940C
